:1000000000000320D1010000E54900009D490000E7
:100010009D4900009D4900009D4900009D49000048
:100020009D4900009D4900009D490000E5490000F0
:10003000E54900009D490000196100001D620000B3
:10004000E5490000E5490000E5490000E5490000F8
:10005000E5490000E5490000E5490000E5490000E8
:10006000E5490000E5490000E5490000E5490000D8
:10007000E5490000E5490000E5490000E5490000C8
:10008000E5490000E5490000E5490000E5490000B8
:10009000E5490000E5490000E5490000E5490000A8
:1000A0006930000075300000E5490000E5490000B6
:1000B000E5490000E5490000E5490000456300000E
:1000C000E549000071640000E54900009D650000FD
:1000D000E549000095660000E5490000E54900009B
:1000E000E5490000E5490000E5490000E549000058
:1000F000E5490000E5490000E5490000E549000048
:10010000E5490000E5490000E5490000E549000037
:10011000E549000019500000E5490000E5490000EC
:10012000E5490000E5490000E5490000E549000017
:10013000E5490000E5490000E5490000E549000007
:10014000E5490000E54900008D670000E549000031
:10015000E5490000E5490000E5490000E5490000E7
:10016000E5490000E549000081300000E549000054
:10017000E5490000E5490000E5490000E5490000C7
:10018000E5490000E5490000E5490000E5490000B7
:10019000E5490000E549000085680000E5490000E8
:1001A000E5490000E5490000E5490000E549000097
:1001B000E5490000E5490000E5490000E549000087
:1001C000E5490000E5490000E5490000E549000077
:1001D0005C4B4CF2205210B51A804DF628121A8052
:1001E00000BF00BF04F002FC574B4FF030621A60B2
:1001F000564A9A60564ADA60564B4FF470021A60BB
:10020000554B564A1A60564B1A78110703D51A787F
:1002100042F008021A70534B5349AA221A70534AEB
:10022000534B8B4204D252F8040F43F8040BF8E707
:10023000504B514900228B4202D243F8042BFAE77B
:100240004E494F4A002352F8230041F8230001335E
:10025000742BF8D14B4B4C4A802103F8011B93427D
:10026000FBD14A4B454A1A60494B8A221A70A3F5C2
:10027000805324225A70A0221A709A799207FCD5D2
:100280009A79D406FCD4434A937903F00C03082BE3
:10029000FAD1414B60221A7002331A78802AFCD1BD
:1002A0003C4B01221A715D225A719A799006FCD555
:1002B0009979384A4906FBD5384B394919600021EC
:1002C000596020231370937903F00C030C2BFAD19F
:1002D000344B354A1A60354A354C136813F4807331
:1002E00003D123604FF4A8531360324B324A1A6093
:1002F00000225A60072243F8042C304AC3F80C2D20
:1003000062B604F0F9FC2368DA0705D52C4804F03E
:1003100051FC2C4B2C4A1A602C4B1B785B0609D5E0
:10032000284C294B22689A4204D1254804F042FC0B
:100330000023236007F07EF904F05EFB04F08CFAE2
:10034000FEE700BF0E20054030800440823F0400DD
:100350000100002B88ED00E0002008E0030000858C
:1003600002D0074000E00740BC11FF1FA49200002C
:100370003007FF1FC011FF1F6018FF1F0002FF1F83
:100380000000000000E400E064E400E008ED00E0AC
:10039000005006400040064001E007404480044011
:1003A0000000060204800440C010070010D0034083
:1003B00014D0034014E000E01FBF02000000202022
:1003C000E539FD5D1CE00340A5C3945A00F00740E9
:1003D000FFFFFFFFFFFFFFFFFFFFFFFFFFFFFFFF2D
:1003E000FFFFFFFFFFFFFFFFFFFFFFFFFFFFFFFF1D
:1003F000FFFFFFFFFFFFFFFFFFFFFFFFFFFFFFFF0D
:10040000FFFFFFFFFFFFFFFFFFFFFFFFDEF9FFFF23
:1004100010B5054C237833B9044B13B10448AFF33E
:1004200000800123237010BDC011FF1F00000000D9
:10043000A0920000084B10B51BB108490848AFF363
:1004400000800848036803B910BD074B002BFBD0A0
:10045000BDE81040184700BF00000000C411FF1F96
:10046000A0920000BC11FF1F0000000000220260EB
:10047000704700BF704700BF704700BF704700BFA4
:10048000704700BF10B507210F4805F06FFC0F48FB
:1004900004F0C2F80E4A0F48772102F0E9FF044643
:1004A00040B119210C4805F061FC084804F0B4F88B
:1004B000204610BD1821094805F058FC034804F0F7
:1004C000ABF8204610BD00BFE88900008408FF1F7C
:1004D000A807FF1FE011FF1F0C8A0000F089000031
:1004E000014B0360704700BFE4890000704700BF04
:1004F00008B5034803F068F8024B83ED000A08BD15
:10050000E011FF1F3407FF1F4FF0FF31014802F0D9
:1005100099BF00BFE011FF1F704700BF82B0F0B469
:1005200004AC84E80C00CF6FD1F88060CD6E0C6F06
:100530004A6F8B6F0A960B950C9409970D9208934E
:1005400004AD06460FCD34460FC40FCD0FC495E859
:10055000030084E803003046F0BC02B0704700BFDF
:1005600082B0F0B501F108068FB00C4614AD1C3115
:100570000746304685E80C0004F020F81A22314680
:1005800008A803F09BFF04F1A00508AA04F1880362
:10059000F2E80201E3E80201AB42F9D1D4E9220119
:1005A00006F0ECFFA067D4E9240106F0E7FFE0675E
:1005B000D4E9260106F0E2FF0822C4F880003146A3
:1005C00008A803F07BFF08AB04F1B802F3E80201CE
:1005D000E5E802019542F9D1D4E9280106F0CEFF01
:1005E000E066D4E92A0106F0C9FF2067D4E92C01AE
:1005F00006F0C4FF16AE60670FCE6D460FC596E8D5
:100600000F0085E80F00236821465C6814AB38466C
:100610000CCBA04738460FB0BDE8F04002B07047A1
:1006200010B50B210446064805F0A0FB054803F071
:10063000F3FF04F10800BDE8104003F047BE00BF1F
:10064000D88A00008408FF1F10B50C210446064814
:1006500005F08CFB054803F0DFFF04F10800BDE85E
:10066000104003F011BE00BFE48A00008408FF1FA1
:1006700070B5064600F108050A240C21284603F04F
:100680007BFE3C2150B90E4805F070FB0D4803F08D
:10069000C3FF642004F0DEFA013CEED128460121BC
:1006A00003F0C0FD2021084805F060FB054803F079
:1006B000B3FF33683046DB689847002070BD00BF49
:1006C000188B00008408FF1FF48A0000F0B5224F49
:1006D000224B0446002587B040F8083B28223B46C1
:1006E0004FF0FF3103F078FD3B46C4F888502822D4
:1006F000C4F88C50C4F89050C4F89450C4F8985082
:10070000C4F89C503721C4F8A05001A8C4F8A450E4
:10071000C4F8A850C4F8AC50C4F8B050C4F8B450F1
:1007200003F05AFD03989DF808709DF8096004993C
:100730009DF8142020610023204684F84050277340
:10074000667361612276E36623676367A367E36785
:10075000C4F8803007B0F0BDA807FF1F608B000011
:10076000704700BF10B50446FFF7B0FF04F1B800B2
:10077000FFF7B6FE204610BD10B50446B830FFF7AF
:10078000B5FE2046FFF7ECFF204610BD0020704765
:100790000020704700207047002070474FF0FF3066
:1007A000704700BF00207047F8B50A790B7B0373D0
:1007B00002710C464B7B437309696269237E0376A1
:1007C0000161426104F11C0705460FCF05F11C06CB
:1007D0000FC60FCF0FC63B68336094F8403085F8E2
:1007E000403004F144070FCF05F144060FC60FCF88
:1007F0000FC697E8030086E80300A16FE26FD4F804
:100800008030E76E266F606F6867A967EA67C5F892
:100810008030EF662E6704F1880205F1880104F14B
:10082000A003F2E802679A42E1E80267F9D1B8341E
:1008300005F1A002F3E80201A342E2E80201F9D1C6
:1008400005F1B8042046FFF71DFE2046FFF750FED5
:100850002846BDE8F840FFF70BBF00BF70B592B067
:100860000AAD06460FCD6C460FC495E80F0084E82C
:100870000F0008AD314695E80C002846FFF770FEE2
:10088000DDED0B7A9FED0A7AF4EEC77AF1EE10FAFD
:100890000ADB9FED087AF4EEC77AF1EE10FA94BF06
:1008A0000120002012B070BD002012B070BD00BF4A
:1008B00000B0654500D068450120704710B5034B76
:1008C00003600446FFF712FE204610BD7C8B00003B
:1008D00010B5054B03600446FFF708FE20460349A8
:1008E00004F0D6F8204610BD7C8B000060427F00EB
:1008F00038B504460D46FFF7F3FD044A044BA550F6
:10090000044820600022E250204638BD50427F005B
:100910004C427F007C8B00004FF0FF30704700BFDF
:1009200082B0F0B404AC84E80C00CF6FD1F88060E2
:10093000CD6E0C6F4A6F8B6F0A960B950C940997CE
:100940000D92089304AD06460FCD34460FC40FCD6B
:100950000FC495E8030084E803003046F0BC02B001
:10096000704700BF82B02DE9F04FD1F848C50CEBBD
:100970008C06F60089B08C198E4604F5AA6412A97B
:10098000074681E80C000FCC12AD0FC50FCC0FC588
:1009900006F5AA63734494E803009A69DC69D3F806
:1009A0002090D3F82480D3F810B0D3F814A0CEF858
:1009B00078B00CF10103CEF8483585E8030014AE99
:1009C000CEF87CA019941892CDF86890CDF86C8080
:1009D000CDF858B0CDF85CA0CEF880200FCEDEF870
:1009E0000050CEF86C406C466D68CEF870900FC425
:1009F00096E80F00CEF8748084E80F0012AB3846FA
:100A000071460CCBA847384609B0BDE8F04F02B09C
:100A1000704700BF704700BF10B5034B036004462A
:100A2000FFF79EFE204610BD908B000010B5054BD1
:100A300003600446FFF794FE2046034904F028F8BB
:100A4000204610BD908B000098477F002DE9F041B3
:100A5000064600F21C544FF47A7508E00E2118483F
:100A600005F084F9174803F0D7FD013D24D04FF07D
:100A70000001204601F01AFC2046C6F81845002C5B
:100A8000ECD000F0C3FF0028E8D106F1B80701223E
:100A90003846D6F8181500F01DFB0028DED006F207
:100AA000F448404600F0A2FA3946404600F0AEFA5B
:100AB0000028D3D0044B1F600120BDE8F08100BFA7
:100AC000AC8B00008408FF1F9813FF1F70B504460D
:100AD000AEB00D46FFF7FAFD144B154A23602821EE
:100AE0000023144E1448C4F8280584F83815C4F8B7
:100AF000402584F8BF3084F8F43484F8F53484F861
:100B0000F63484F8243584F83B35C4F83C35C4F811
:100B10004835C4F81C656846FFF7D8FD6846FFF7FE
:100B20001FFE2046C4F84C552EB070BD908B0000BF
:100B3000032000381C8E0000C48D000030B5844CAA
:100B4000237889B0052B56D8DFE803F0BE8B5919FE
:100B50000B0312217F4805F009F97F4803F05CFD83
:100B6000FEE717217D4805F001F97B4803F054FDAD
:100B70007B48FFF785FC0523237009B030BD262193
:100B8000784805F0F3F8744803F046FD3A217648BA
:100B900005F0ECF8704803F03FFD05F0BDF80028C3
:100BA000FBD0782268466C4903F066FD632104A8F7
:100BB00003F0D2FD04A9684603F040FE054604A8F0
:100BC00003F076FD684603F073FD002DD5D00323B6
:100BD00066482370FFF7E0FD68B96448FFF73EFE02
:100BE000002800F0A6805E48FFF748FC5F48FFF74A
:100BF000D3FD0028FAD00423237009B030BD17219B
:100C00005B4805F0B3F8544803F006FD72215948DB
:100C100005F0ACF8504803F0FFFC05F07DF8002823
:100C2000FBD0782268464C4903F026FD632104A8D6
:100C300003F092FD04A9684603F000FE054604A8EF
:100C400003F036FD684603F033FD002D95D00325F3
:100C5000464825703E4CFFF79DFD002866D109B03F
:100C600030BD1621444805F081F83B4803F0D4FC20
:100C70005521424805F07AF8374803F0CDFC05F0DD
:100C80004BF80028FBD078226846334903F0F4FC87
:100C9000632104A803F060FD04A9684603F0CEFDBB
:100CA000054604A803F004FD684603F001FD002D8D
:100CB0003FF463AF02252D482570254CFFF768FDF2
:100CC000002833D109B030BD0C212D4805F04EF875
:100CD000214803F0A1FC53212A4805F047F81E489B
:100CE00003F09AFC05F018F80028FBD0782268463B
:100CF000194903F0C1FC632104A803F02DFD04A9E8
:100D0000684603F09BFD054604A803F0D1FC684645
:100D100003F0CEFC002D3FF430AF012513482570C1
:100D20000B4CFFF733FD00283FF427AF257009B0C7
:100D300030BD0E48FFF732FD00287FF71EAF0B488D
:100D4000FFF730FD01460648FFF796FB09B030BDBE
:100D50009013FF1F988D00008408FF1F808D0000F6
:100D60009413FF1F1C8D0000448D0000D012FF1F44
:100D7000908C0000A88C0000208C0000388C0000B3
:100D8000BC8B0000CC8B000070B50A4E0A4D0B4C9A
:100D90003046FFF7E7FC2A460949304605F026FEB3
:100DA0002046FFF763FB2A4620460649BDE870400F
:100DB00005F01CBED012FF1F3007FF1F9413FF1F4A
:100DC00079070000750400002DE9F0430DF17F4D17
:100DD0000DF5BA3D414C424B424951B06C440022A2
:100DE00020461A7004F11C06FFF770FE3D4930A83A
:100DF000FFF77EFD0FCE09AD0FC50FCE0FC52179D0
:100E00008DF80C10217E8DF8201037493068227B38
:100E1000364B677B2860694425696069344E8DF8DC
:100E20001420344A04968DF8157006950790CA5020
:100E300004F1440694F840308DF848300FCE13ADDD
:100E40000FC50FCE0FC596E80300D4F86C90D4F808
:100E50007080D4F874C0D4F878E0E76FCDF874905F
:100E600085E80300CDF87880CDF87CC0CDF880E02F
:100E70002197D4F88030229304F1880224A904F148
:100E8000A003F2E802679A42E1E80267F9D12AAAD0
:100E900004F1B805F3E80201AB42E2E80201F9D13E
:100EA0001149154B154A16486944CA5001AA02A9AE
:100EB000FFF77AFC01A8FFF719FB02A8FFF750FC27
:100EC00030A8FFF7FBFC2046FFF7A6FD0DF57E0DD1
:100ED0000DF50A4D2FB0BDE8F08300BF20437F0021
:100EE0009013FF1FAC8D0000B88AFE00507501FF03
:100EF000508F0000608B00004C7501FFE4890000FA
:100F0000D012FF1F38B504460D462422002106F0FA
:100F1000E5FEA560EB79102B08D0202B04D14023EF
:100F200001202370A07038BD002038BD202301208F
:100F30002370A07038BD00BF10B5044680680A4613
:100F40002430A16900F08EF820B1A38803F00F03CC
:100F500000EB431010BD00BF70B590F90230002BBC
:100F600082B0044619DBA56805F1240000F0AAF858
:100F700030B9637843F001036370002002B070BDA4
:100F800005F50C7000F09EF80028F2D02868036880
:100F90005B6998470028ECD0F0E70121FFF7CCFF10
:100FA00005460028E5D00378E52BE2D023780E4AE9
:100FB0001B0744BFE369C361236A166843831B0CA4
:100FC000838266B10DF103020DF1060101A8B0475D
:100FD000BDF80430BDF806202B836B82EA82A3782B
:100FE00003F07F03A370BEE7E413FF1F10B503787F
:100FF000044623B900232370A370012010BDFFF71E
:10100000ABFF00232370A37010BD00BF03780BB1AA
:1010100000207047FFF776BFF8B54368816800F19C
:101020000C0604461868036832469B69984740B12D
:1010300023789A07054607D423F001032370284636
:10104000F8BD00252846F8BD6368A16818681F69C7
:101050000368324639449B6998470028F1D02378C9
:10106000EAE700BFF8B583688B42064614460FD006
:101070000378DA070F4612D4630716D506F10C057C
:10108000002304F003041C4334702846B760F8BD05
:1010900010F90C3B04F003041C433470F8BDFFF757
:1010A000BBFF0028E8D10020F8BD7368186803680A
:1010B00006F10C059B682A46394698470028DFD17F
:1010C000F1E700BF0378DB0701D401207047FFF789
:1010D000A3BF00BFF8B50446002301254FF0FF3041
:1010E000E5602160A462C4F83442E37184F82430DE
:1010F00084F83032E062C4F838021546DAB1042AC6
:1011000001D90020F8BD04F124061A4619463046DC
:10111000FFF7A8FF05F18055013D2D0100F5DF73B4
:101120005A190028EDD011790029EAD05B5D5B06E1
:10113000E7D1956801E004F12406304600222946F3
:10114000FFF790FF0028DCD0037C022BD9D1B0F848
:101150000B30B3F5007FD4D1467B2671731E00227D
:10116000012E6371A2710FD00122114600E01A46D0
:101170004900C9B2531C8E42DBB204D0092BF6D110
:10118000A2710020F8BDA271C18A216109B9416A2A
:101190002161C789B0F8113023812F445B0107EB2F
:1011A000410603F2FF13B0F81310A76106EB6323A7
:1011B0002662636101B9016AED1A0D4425FA02F253
:1011C00040F6F473511C9A42E1610AD94FF6F47368
:1011D0009A4285BFC36A236210232023E371012052
:1011E000F8BD0C23E3718CE7007C7047807C70476E
:1011F00010B40468E4680123A4465DF8044B60471A
:10120000C07C704710B40468E4690123A4465DF80B
:10121000044B6047704700BF10B51421044603F02B
:1012200037FC204610BD00BF2DE9F0410E46017A83
:101230000229044615461F4607D0236820465B69ED
:101240009847D8B90020BDE8F0814368B342F4D193
:1012500000265FB1236829465B6C2046984701361B
:1012600005F500750028EDD0B742F3D16368627AC6
:101270001F4467606AB90120BDE8F08123683146E8
:101280009B6C204698470028DCD0022366602372BE
:10129000DEE7236820465B69BDE8F041184700BFE0
:1012A00010B50446C06801F0D3FAE3680021187A4B
:1012B00003F092FC0123637410BD00BF10B5C36836
:1012C00004460121187A03F087FCE068FF2101F051
:1012D00049FBE06801F004FB0023637410BD00BF0C
:1012E00070B5467C05460EB9FFF7DAFF0824E868BA
:1012F00001F01AFBFF2804F1FF330DD013F0FF04B7
:10130000F5D101240EB96B7C0BB9204670BD28467F
:10131000FFF7D4FF204670BD0024F3E72DE9F0412C
:10132000214D82B02B680093009C80460E461746E4
:10133000A4B207E02B680193019B9BB21B1BB3F582
:10134000967F16DCD8F80C0001F0EEFAFF2888F83A
:101350001200EFD0FE2810D0182388F8103098F82B
:10136000110018B14046FFF7A9FF002002B0BDE808
:10137000F0811D2388F81030F1E73A463146D8F85D
:101380000C0001F0DFFA88F8120018B1242388F865
:101390001030E4E7D8F80C0001F0C6FAD8F80C00D9
:1013A00001F0C2FA0120E1E7F413FF1FF0B50D4D83
:1013B00083B02B680093009C06460F46A4B206E05B
:1013C0002B680193019B9BB21B1BBB4207DCF0689F
:1013D00001F0AAFAFF28F3D1012003B0F0BD0020EC
:1013E00003B0F0BDF413FF1FF0B5437C83B0044697
:1013F0000F4601920BB9FFF753FF37BB47F040018F
:10140000E06801F0AFFA01AE02AD15F8011DE06829
:1014100001F0A8FAB542F8D1002F0CBF9521872121
:10142000E06801F09FFAE06801F07EFA0B25E068C1
:1014300001F07AFA0306A07401D403B0F0BD6B1E6C
:1014400013F0FF05F3D103B0F0BD4FF496712046C1
:10145000FFF7ACFFD2E700BF036870B55B690446D5
:101460000E469847204600223A21FFF7BDFF60B99B
:10147000351DE06801F058FA05F8010DB542F8D1C4
:10148000657C6DB90125284670BD657C12232374E7
:10149000002DF8D020460025FFF710FF284670BD2C
:1014A0002046FFF70BFF284670BD00BF036870B5EC
:1014B0005B6904460D461646984729462046002299
:1014C000FFF792FF40B11B232374607C18B12046C4
:1014D000FFF7F4FE002070BD314610222046FFF7D2
:1014E0001DFF0028F1D0657C002DF4D02046FFF7C9
:1014F000E5FE284670BD00BF0A460921FFF7D6BFAA
:101500000A460A21FFF7D2BF30B50368234A5B6B56
:10151000934285B02FD16A460921FFF7C7FF38B142
:101520009DF8003013F0C00304D0402B26D00020DB
:1015300005B030BD9DF809409DF806309DF80720A4
:101540009DF80A009DF805109DF8085004F003046A
:101550006400920003F0030344EAD01001F00F018D
:1015600042EA8323084443EA95130133073803FA18
:1015700000F005B030BD69469847D0E79DF80930C6
:101580009DF807109DF808005A1C01F03F0302EB7C
:10159000034303EB0020800205B030BDF9140000C6
:1015A00030B50368114D1B6CAB4283B004460A464C
:1015B00017D1C07C032818BF520212212046FFF722
:1015C00013FF58B1607C0C23237408B903B030BDFD
:1015D0002046FFF773FE002003B030BD012003B0AA
:1015E00030BD01919847019AE4E700BF0112000065
:1015F0002DE9F0410D46017A0129064614461F46A1
:1016000007D0336830465B699847E0B90020BDE8F1
:10161000F0814368AB42F4D1002567B121464FF415
:1016200000723046FFF77AFE013504F50074002899
:10163000ECD0AF42F2D17368727A1F44776062B91E
:101640000120BDE8F08129463046FFF7A9FF0028B8
:10165000DCD0012375603372DEE7336830465B69A6
:10166000BDE8F041184700BF38B500220C210546FF
:10167000FFF7BAFE6C7C20B109232B7454B92046C5
:1016800038BD14B90124204638BD2846FFF716FEA0
:10169000204638BD28460024FFF710FE204638BDFE
:1016A00030B50368114D1B6CAB4283B004460A464B
:1016B00017D1C07C032818BF520219212046FFF71A
:1016C00093FE58B1607C0E23237408B903B030BD7B
:1016D0002046FFF7F3FD002003B030BD012003B02A
:1016E00030BD01919847019AE4E700BF0112000064
:1016F000F0B503682B4F5B6BBB4285B004460D46CB
:1017000016462DD16A460921FFF7D0FE90B19DF80B
:101710000A305A0616D5E37C032B18BF6D022A4601
:101720004FF02001204618BF7602FFF75DFED0B1D2
:1017300025232374607C18B12046FFF7BFFD0020ED
:1017400005B0F0BD03F03F039DF80B105B00721C69
:1017500043EAD1132A431342DDD026232374E9E759
:1017600069469847D2E7324621212046FFF73CFEE2
:101770000028DDD1024626212046FFF735FE00284D
:10178000D6D142F210712046FFF710FE10B9272380
:101790002374CFE7657C002DD2D02046FFF78EFD65
:1017A0002846CDE7F914000070B54FF416710546D0
:1017B000FFF7FCFD064658B96C7C1E232B740CB950
:1017C000204670BD28463446FFF778FD204670BDA0
:1017D000FD21E86801F0C6F86C7C14B93446204657
:1017E00070BD2846FFF76AFDEAE700BF10B5037A2F
:1017F000012B044605D0022B09D0002323720120BF
:1018000010BDFFF731FF0028F7D1002010BDFFF712
:10181000CBFF0028F1D1F8E738B504461546C0687B
:1018200001F0A0F84FF400722946E06801F0A6F834
:10183000E068FF2101F096F8E068FF2101F092F8DE
:10184000E06801F071F800F01F03052BA07409D0C7
:10185000607C1F23237400B938BD2046FFF72EFD9E
:10186000002038BD012038BD38B50D464FF4167143
:101870000446FFF79BFD40B923232374607C18B115
:101880002046FFF71BFD002038BD2A46FC212046DC
:10189000FFF7C2FF0028F1D038BD00BF10B4074CDD
:1018A000074A084908480023236014680C60096847
:1018B00011605DF8044B0370704700BF38100B4097
:1018C00030100B40C013FF1FD813FF1F034B0448F9
:1018D0001B681840B0FA80F04009704730100B4088
:1018E00001000F00024B186800F00100704700BFB4
:1018F00024100B40014B1878704700BFD813FF1F0E
:10190000034B186880F40060C0F3C020704700BF2C
:1019100024100B40034B186880F48060C0F38020D3
:10192000704700BF24100B40034B04481B6818404D
:10193000B0FA80F04009704730100B4002007F1170
:101940004FF47A722C4B02FB00F09842F0B44BD863
:101950002A4D0822012149000B01B5FBF3F39842FF
:10196000264C3DD2013AF6D1B4FBF1F44B081F02EC
:10197000A0423DD2214E4B00012200E02346B6FB9F
:10198000F3F4A04202F1010503EB010426D2102D6D
:101990002A46F3D1F0221A4E1A4C18481A494FF42D
:1019A0007A7505FB03F3B0FBF3F33360236823F090
:1019B00008032360206820F47F2323F47F6343F42B
:1019C00060233B431A4322600B681B07FCD50D4A7A
:1019D000136843F008031360F0BC70471201DAE7A4
:1019E000B4FBF1F4CF01C3E7044C00270121BFE7AA
:1019F0000B460022CFE700BF4FA9AB000095BA0A03
:101A0000DC13FF1F2C100B4024100B40014B1878E7
:101A1000704700BF3807FF1F014B1868704700BFB1
:101A2000C013FF1F30B4054C0D460FCC2860696011
:101A3000AA60EB60012030BC704700BFA013FF1FFD
:101A400030B4054C0D460FCC28606960AA60EB608D
:101A5000012030BC704700BFC813FF1F024B1B683A
:101A60000B600120704700BFB813FF1F704700BF15
:101A7000F8B5054603F0CAF8064F064604E003F041
:101A8000C5F8801BB84203D8A84704460028F6D101
:101A90002046F8BD40420F002DE9F041DFF84080BC
:101AA0000E4FC8F80000054603F0B0F8064606E001
:101AB00003F0ACF8801BB8420AD804F05BFAA847E0
:101AC00004460028F4D1C8F800002046BDE8F081A3
:101AD0000023C8F800302046BDE8F08140420F00E6
:101AE000B013FF1F10B50C21044602F0D1FF2046B1
:101AF00010BD00BF054B1B7833B1054B1B78002B85
:101B000014BF032002207047012070479C13FF1F61
:101B1000B413FF1F38B504460F480D46FFF7A8FF62
:101B200008B1002038BD0D4A0D4B15600D481C60F2
:101B3000FFF79EFF0028F4D10B4A0C4B1168196087
:101B4000196811601A68D207EBD51B6813F4702F5F
:101B5000E7D1012038BD00BFE518000008100B4098
:101B60000C100B40CD18000030100B40C013FF1FAD
:101B700008B5044B04481968FFF7CCFF08B1034BC4
:101B8000186808BDBC13FF1F00001A0D10100B4091
:101B900030B5154B85B00D461968FFF7BBFF00B394
:101BA000124A134B12680092196801915968029108
:101BB000083305F10F041B680393002301E051F87B
:101BC000102C03F00301C9000133CA400DF1100EBF
:101BD00023F003010F2B714404F8012DEFD10023F2
:101BE000EB7305B030BD00BFBC13FF1F10100B40DE
:101BF00014100B4008B5074B07481968FFF78AFF18
:101C000030B1064B186880F48070C0F3002008BD26
:101C1000012008BDBC13FF1F00001A0D10100B405F
:101C2000044B1B6803B11847034B187800B9704781
:101C3000FFF7E0BFB013FF1FC413FF1F054B186869
:101C400010F0020005D01B6803481840B0FA80F07D
:101C500040097047C013FF1F00007F11F8B59407BB
:101C600000D143B91F49204B242040F2D312087001
:101C70001A600020F8BD06461C481C460F46154653
:101C8000FFF70AFF18BB1A491A4ADFF880E04FF045
:101C9000010C8EF800C023040860174C1560174A29
:101CA0001749184843F40073236013780860B3B9E8
:101CB00079023046FFF72EFF0028DAD01248FFF7EE
:101CC000EBFE0028D5D1BDE8F840FFF7B7BF0549C6
:101CD000054B0A204FF4EB7208701A60C9E73946C9
:101CE000E7E700BF3807FF1FE013FF1FF51B0000E9
:101CF000C013FF1F00100B4004100B40B413FF1F54
:101D000038100B4002007F11F5180000D813FF1F98
:101D100070B419490B7813F0C00311D0402B02D0D6
:101D2000002070BC70474B7ACC79087A5A1C04F0BA
:101D30003F0302EB034303EB0020800270BC7047BB
:101D40004D7A8B79CA794C790E7A887A05F003013D
:101D5000490003F00303920041EAD01042EA8323D2
:101D600004F00F0143EA961308440738013303FADD
:101D700000F070BC704700BFC813FF1F70B52C4E39
:101D8000B37A03F04000154658B903F03F03F27AE6
:101D900000F0FF045B00681C43EAD21308430342CF
:101DA00021D1244B1B780BB949026D022248FFF761
:101DB000B1FE044640B92149214B0F2040F2B12227
:101DC00008701A60204670BD29461E48FFF7A2FE23
:101DD000044688B919491A4B10204FF42D72087027
:101DE0001A60204670BD1549154B262040F2A922E5
:101DF00008701A60204670BD00211348FFF78AFE64
:101E0000044638B90D490E4B112040F2B722087034
:101E10001A60D7E70D48FFF72BFE0028D2D00749FC
:101E2000074B272040F2BA2208701A600024C9E745
:101E3000C813FF1FB413FF1F00001A203807FF1F2D
:101E4000E013FF1F00001A2100001B26F51B0000F5
:101E500070B500211548FFF75DFE044640B91449EE
:101E6000144B092040F2192208701A60204670BDF8
:101E70001148FFF711FE70B910481149114D06685D
:101E80000B682A6823F4803342F080622A6006607F
:101E90000B60204670BD0649064B0A204FF40772BE
:101EA000087000241A60204670BD00BF0000DB0CE3
:101EB0003807FF1FE013FF1FF51B000034100B4015
:101EC00028100B402C100B40FFF7C2BF38B5284B31
:101ED0001B68D8050D4608D4264B1A6822F48032B8
:101EE0001A601A6842F400321A60224A22481368C3
:101EF00043F480331360FFF7BBFD00282ED11C4C48
:101F00001E482B1F05F5FE7522685105FCD503F10F
:101F1000400153F8042F02609942FAD18D420B46DA
:101F2000F2D11748FFF7A4FD78B9164A164B11688D
:101F30001960196811601A68920717D51B68134851
:101F40001840B0FA80F0400938BD1149114B2320E8
:101F500040F2863208701A60002038BD0C490D4BE3
:101F6000202040F27B3208701A60002038BD00BF8C
:101F700024100B4028100B401519000020100B40B6
:101F80002919000030100B40C013FF1F00007F1103
:101F90003807FF1FE013FF1F38B514480C46FFF742
:101FA0007BFDC8B9124A134913681348134D23F433
:101FB000803313600B78056063B961021048FFF746
:101FC000A9FD30B90F49104B0E2440F2DB320C70E2
:101FD0001A6038BD2146F1E70A490B4B0A2040F24E
:101FE000CF3208701A60002038BD00BFF51B00001A
:101FF00028100B40B413FF1F04100B400002FFFF1A
:1020000022003A193807FF1FE013FF1FF8B50646F4
:10201000007AC0070C4615461F4613D483B10F44FF
:1020200001E0BC420CD033682A4621469B6830460A
:102030009847013405F500750028F2D10020F8BD5D
:102040000120F8BD900712D0002BF9D00F4401E019
:10205000A742F5D033682A4621469B683046984708
:10206000013405F500750028F2D10020F8BD0648BE
:10207000FFF7F4FD0028E3D10449054B0C2440F29E
:1020800031320C701A60F8BD37003A123807FF1F62
:10209000E013FF1FF8B50646007AC0070C46154648
:1020A0001F4613D483B10F4401E0BC420CD0336807
:1020B0002A4621469B6930469847013405F500754C
:1020C0000028F2D10020F8BD0120F8BD900712D001
:1020D000002BF9D00F4401E0A742F5D033682A461F
:1020E00021469B6930469847013405F50075002864
:1020F000F2D10020F8BD0648FFF7B0FD0028E3D17B
:102100000449054B0E2440F2C1320C701A60F8BD30
:1021100027003A193807FF1FE013FF1F70B5037A35
:102120001546DA07ADF5007D0E4619D5AB0706D08A
:10213000294668464FF4007202F096FB6D462A4627
:10214000314601231E48FFF789FD30B91D491E4B5A
:102150000D244FF466720C701A600DF5007D70BD91
:10216000437A022B044608D0236820465B699847CF
:10217000D8B900200DF5007D70BD43689942F3D1B8
:10218000236829465B6C204698470028F1D0636895
:102190000E4A0133636013681B0C1B04002BDCD157
:1021A000236820465B699847D7E7236831469B6CD4
:1021B000204698470028DCD0022366606372DFE780
:1021C00001003A183807FF1FE013FF1F04100B40EF
:1021D000437A012B0CD0022B01D001207047002143
:1021E00003684172DB6C054A934205D1FFF730BEAC
:1021F00000234372FFF72CBE184700BFC91E000022
:10220000F8B505461D480C46FFF732FC40B11C49A5
:102210001C4B0A204FF4BB7208701A600020F8BDF6
:10222000194ADFF884E0194F194E1A4B4FF0010C90
:102230008EF800C029461060174D184A3C601848B7
:1022400035601A60FFF766FC38B90D490D4B042460
:1022500040F27D120C701A60F8BD1248FFF71CFCAA
:1022600018B9FFF7EBFC00B1F8BD0549054B242078
:102270004FF4C07208701A600020F8BDF51B000012
:102280003807FF1FE013FF1FC013FF1F00100B4094
:1022900004100B4038100B404000010002007F1179
:1022A00011003A06F5180000D813FF1F2DE9F04F72
:1022B0008E4D8F4CDFF8AC828E4F8F4E0172002313
:1022C0002B70437288F800303B70337023688B4A60
:1022D0008B488C49DFF890E243F040632360136839
:1022E00004F57E3443F4003313600C3402F5D1223C
:1022F00040F2031302F2FC720360CEF800300B6070
:1023000023600361CB60136843F0807343F40043A0
:1023100091B0136013687C4CD901FBD44FF4C870A2
:10232000FFF70EFBDFF8D8C1DFF83CE27549774ACA
:10233000774840F24343CCF80030CEF800304FF4F9
:10234000886EC1F800E0136002F5C82228320360ED
:102350007048CB6010607049512002F023FC6F4B35
:102360006F4960204FF4003208701A60236843F010
:1023700000632360216811F00061FBD10846FFF77C
:10238000C9FB044600284ED003244FF4D57165489C
:10239000FFF7C0FB00285DD1013CF6D13378624ED7
:1023A000002B08BF4FF4401602F030FC5F4C814612
:1023B00000215F48FFF7AEFB50B95E4A40F26A2148
:1023C000172311602B700024204611B0BDE8F08F58
:1023D00031465948FFF79EFB0028EED002F016FC6C
:1023E000564B524AC9EB00009842E6D82368002BAE
:1023F000DEDA534B11681960136852485A0048BF1F
:1024000001234FF0000148BF3B70FFF783FB0446F8
:1024100098B9484A40F273210223204611602B707C
:1024200011B0BDE8F08F434A40F259210123204604
:1024300011602B7011B0BDE8F08F00214248FFF70A
:1024400069FB0446B8B93B4A40F276210323116088
:102450002B70B9E7354B1B68B3F5D57F07D0354AEC
:1024600040F25F21062311602B700024ACE70123AA
:1024700033702D4E98E72D4B344E1B683449354848
:102480001B0C1B043360FFF783FB044630B9294A59
:1024900040F27B21072311602B7095E72E492F48CE
:1024A000FFF776FB044630B9224A40F27E2108232A
:1024B00011602B7088E731682948FFF72BFB044631
:1024C00030B91C4A40F28121052311602B707BE753
:1024D00031681748FFF71EFB002847D1154A40F224
:1024E0008521142311602B7000246DE73807FF1F2E
:1024F00000D80040B413FF1F9C13FF1F308004401E
:1025000000D0044008D004402C100B400CD00440F4
:1025100010D004400B007F119D18000008E100E07E
:1025200051E400E000001A080000304010100B4099
:1025300000001A37E013FF1F0000022940420F007D
:10254000B813FF1F0000090200001A03BC13FF1F8D
:10255000C813FF1F00000909A013FF1F0000090A8C
:1025600000001B07C413FF1F04D0044002212A48A7
:10257000FFF7D0FA04460028B0D0284B28481A6844
:1025800022F006021A601A684FF0101542F002029B
:102590001A60694605606FF07F40FFF731FE18B1A1
:1025A0009DF80D309B0728D446F2A810DFF884B0C0
:1025B000DFF884A0DFF884901A4F1B4E1B4D40F2C9
:1025C0000313CBF80030CAF80030C9F800303B6084
:1025D00033602B60FFF7B4F940F243434FF4886156
:1025E0000122CBF80030CAF80030C9F800103B6077
:1025F00033602B6088F80020E6E669460C48FFF758
:10260000FFFD0028D0D09DF8103003F00F03012B00
:10261000CAD14CF25030C9E700001A0628100B400E
:1026200044100B400CD0044010D0044014D004409F
:10263000F1FFFF8000D0044004D0044008D00440E3
:1026400038B5284B1B6898050D460ED4264B1A68E2
:1026500022F480321A6072B61A6842F400321A60AC
:102660001A6842F480321A6062B62048FFF700FA16
:1026700000282ED11B4C1E482B1F05F5FE75226825
:102680001105FCD503F14001026843F8042F99427B
:10269000FAD18D420B46F2D11648FFF7E9F978B925
:1026A000154A164B11681960196811601A6892076B
:1026B00017D51B6812481840B0FA80F0400938BDA1
:1026C0001049114B1D204FF43D7208701A60002014
:1026D00038BD0C490C4B1A2040F2E92208701A60F0
:1026E000002038BD24100B4028100B4001190000B9
:1026F00020100B402919000030100B40C013FF1FA1
:1027000000007F113807FF1FE013FF1F38B5144882
:102710000C46FFF7C1F9C8B9124A134913681348A8
:10272000134D43F4803313600B78056063B9610285
:102730001048FFF7EFF930B90F49104B0C2440F265
:102740004D320C701A6038BD2146F1E70A490B4B37
:102750000A2040F2413208701A60002038BD00BFE4
:10276000F51B000028100B40B413FF1F04100B4092
:102770000002FFFF32003A123807FF1FE013FF1F6D
:1027800070B5037ADC07ADF5007D154612D59307C9
:102790001FD06A4601232A48FFF760FAF8B169465C
:1027A00028464FF4007202F05FF8012528460DF527
:1027B000007D70BD437A012B04460E461BD0236872
:1027C00020465B69984748BB002528460DF5007DEB
:1027D00070BD01231A48FFF741FA0028E5D11949D5
:1027E000194B0B20002540F20732087028461A606A
:1027F0000DF5007D70BD43689942E0D12946204621
:10280000FFF71EFF05460028DED0104B1B681B0C8F
:102810001B046BB1636801336360D6E73146204621
:10282000FFF774FF0028CFD0012366606372E5E7ED
:10283000236820465B6998470028EBD1C4E700BFB6
:1028400011003A113807FF1FE013FF1F04100B405F
:1028500010B403684268D97AF9B172B6D97AC80758
:1028600006D51948D96804682140D9610160D97A30
:102870008C0706D515481969046821401962016062
:10288000D97A480706D51248596904682140596227
:102890000160D97A09070FD462B61B68D9689142E2
:1028A00007D00C4818600C49DA6042F0804018618B
:1028B00019605DF8044B7047084899690468214025
:1028C00099620160E8E700BF80E100E084E100E098
:1028D00088E100E001403F0000003F808CE100E023
:1028E0000268D37AB3B1D90703D50B4BD16919600C
:1028F000D37A980703D5094B116A1960D37A59071F
:1029000003D5074B516A1960D37A1B0702D5054BD3
:10291000926A1A60704700BF00E100E004E100E045
:1029200008E100E00CE100E003681A684FF00041A4
:10293000FF23D1625363D36A002BFCDA906BC0B2E1
:10294000704700BF70B505460C4616460846FF2185
:1029500005F0C4F9286833462246214604F020FADF
:10296000002070BD03681A684FF00043D3625163C2
:10297000D36A002BFCDA936B704700BF30B5551E4D
:10298000B5F5007FADF5017D134612D372B1026833
:102990001268C8184FF0004411F8013BD462536329
:1029A000D36A002BFCDA8142936BF5D10DF5017DE2
:1029B00030BD05461446684601F056FF23466A4678
:1029C0006946286804F0ECF90DF5017D30BD00BFC3
:1029D0000020704790F8392090F83800101A70479E
:1029E00090F8383090F839209A4205D95A1C03449F
:1029F00080F83820187E70474FF0FF30704700BFD6
:102A000090F8383090F839209A4286BF1B18187E0B
:102A10004FF0FF30704700BF704700BF38B5054624
:102A2000B0F85E0090B195F85D301446C3F1210214
:102A300094420CD805F13B001844224601F014FFE3
:102A400095F85D30234485F85D30204638BD01207F
:102A500014462871EEE700BFB0F85E306BB190F815
:102A60005D30202B07D8C218013380F85D3001207B
:102A700082F83B107047012303710020704700BFAC
:102A80000023426980F8383080F8393080F85C30B3
:102A900080F85D3080F85E3080F85F3006CA30B470
:102AA0000D68046943662A4383660A60A37042691D
:102AB00090F861301649146813441D7A5B7B01EB72
:102AC000C5051B026D6803F4E06343F064032B60EB
:102AD00090F8623013449D7CDB7D01EBC5011B0245
:102AE000496803F4E06343F064030B6021685368B2
:102AF000194205D003692C225A70036904229A7185
:102B0000036920225A71036980229A7030BC704791
:102B1000688F000038B50269D478E4B2E106054652
:102B200024D51023D37063061FD504F0040404F0E9
:102B3000FF03002C5AD042496A6E00230B7085F8BF
:102B40005D30002A66D0904795F85D30002B61D04B
:102B50002B69D0229A702B6995F83B201A712B694A
:102B6000012285F85C200222DA7038BD04F04003AF
:102B700003F0FF00002BD8D19379DBB203F06001A2
:102B800060294ED0937803F0100303F0FF01B3B136
:102B900014F0010437D195F85C3095F85D10994236
:102BA0004BD9591C2B4485F85C1093F83B301371BA
:102BB0002B69D0229A702B690222DA70D5E785F84A
:102BC0006010937943F0200393712B6995F83910C5
:102BD0001A791F29D2B2C6D8194800780028C2D065
:102BE0006818013185F839100276BCE72A6985F842
:102BF0003930C02393702B69114A19790121117062
:102C00000222DA70B1E7C02393702B691A7902228D
:102C1000DA70AAE70122002385F85D2085F83B30B1
:102C200096E703F0DF039371AB6E23B185F83800AC
:102C300095F8390098472A69A4E71471B8E700BFEE
:102C4000E813FF1F2DE9F047374FDFF8E0903B68AE
:102C5000026982B006460093DDF8008000214FF43F
:102C60009675D3789B065BD53B680193019BC8EBB7
:102C700003030F2BF5D949B1102BF2D0002090702F
:102C8000336980229A7002B0BDE8F087726996F8C5
:102C9000613013440521187A01F0B2FF726996F889
:102CA00061301344012193F812A0504601F0A8FFAF
:102CB00009240021504601F08FFF2B46013BFDD136
:102CC0000121504601F088FF2B46013BFDD1013C1C
:102CD000EFD1706996F8611001444FF416720C7AC6
:102CE0004B7B09EBC4011B02496803F4E06343F02A
:102CF00064030B6096F862300344997CDB7D09EB3A
:102D0000C1011B02496803F4E06343F064030B60F4
:102D1000013AFDD13269D3789B064FF00101A3D46B
:102D2000012002B0BDE8F087F413FF1F688F000098
:102D3000F0B503691222DA700269937803F0200378
:102D400085B004460D46002B5ED0B42393703C49F9
:102D500022690B680093009E05E00B680193019BBC
:102D60009B1B042B42D8D37803F0200303F0FF0011
:102D7000002BF2D094F85D30002B31D04FF0000ED4
:102D80004FF0020C04EB0E0393F83B3013710B6809
:102D90000393039F206907E09B060DD50B68029300
:102DA000029BDB1B052B28D8C378DBB203F00202A1
:102DB00002F0FF06002AEFD080F803C02669F378FE
:102DC000DBB2DF0632462DD49F062BD5DB0731D48C
:102DD0000EF1010E94F85D305FFA8EFE7345D1D886
:102DE00000201DBB002384F85E3004E0907023694E
:102DF00080229A70042005B0F0BD8670236980227D
:102E000004209A7005B0F0BD03F0FF06FFF71AFF2B
:102E100010B9042005B0F0BD236984F85F60B022CA
:102E20009A7094E78023B3700420DAE72669802340
:102E3000B370D7E7BEF1000F0CBF02200320F6E706
:102E4000F413FF1F2DE9F04106690025122780F8D1
:102E5000385080F83950F770D0F810C09CF802E074
:102E60000EF0200E88B00446884615461E46BEF178
:102E7000000F49D0B4238CF802307A4B21691A68CC
:102E80000092DDF800E006E01A6801920198CEEBAE
:102E90000000042830D8C87800F0200000F0FF07B8
:102EA0000028F1D04FEA480242F00102D2B20A7182
:102EB0001A680292DDF808E0206906E01A680392B9
:102EC0000399CEEB010105292AD8C17801F002014E
:102ED00001F0FF070029F1D04FF0020C80F803C089
:102EE0002269D17811F0110722D12DBB002E0CBF21
:102EF000A0238023937003E08F70236980229A704F
:102F0000384608B0BDE8F0810EF0FF07FFF79AFEE3
:102F10000028F5D0236984F85F70B0229A70ACE77E
:102F200087702369802238469A7008B0BDE8F08126
:102F3000802393700027E3E7012D78D0A0219170C2
:102F400021690A79BE4667464FF0A80C1A680492B8
:102F5000049805E01A680592059A121A052A4DD8B8
:102F6000CA7802F0020202F0FF08002AF2D0CF7005
:102F70002169CA78D2B212F0100F08465DD19206CC
:102F80005BD5013DEDB2012D4CD0BEF11F0F3ED9F6
:102F90000A79012DDAD11A680692069D05E01A68B1
:102FA0000792079A521B052A56D8C27802F00202ED
:102FB00002F0FF01002AF2D00223C3702269D37805
:102FC000DBB2D9063BD49B0637D5B023BEF11F0F29
:102FD000937043D8226904EB0E0312791A760EF12E
:102FE000010E5FFA8EFE00BF00BF00BF16B123695D
:102FF00080229A7084F839E0774681E781F8028070
:10300000236980229A70774684F839E078E704EBE8
:103010000E0291F8048082F818800EF1010E5FFA1A
:103020008EFEB6E781F802C021690846ADE7A82107
:1030300091702069BE460279ADE7774660E71021BE
:103040004FF49673D170013BFDD12269937803F060
:10305000F7037746937053E78170D1E723691B79B3
:10306000C1E700BFF413FF1F0148FFF753BD00BFC6
:10307000A807FF1F0148FFF74DBD00BF1408FF1F41
:103080000148FFF747BD00BF3C07FF1F01F0E2BD4D
:10309000F8B5114E3468400084F83B0025680120E3
:1030A00084F85E0084F85D001F4620462B681446B5
:1030B00098475FB17D1EADB201352544306814F8E4
:1030C000011B03681B689847AC42F7D130680121A7
:1030D000FFF72EFE0020F8BDEC13FF1F2DE9F0478F
:1030E0001E4E96F900305A1C2AD0DFF878A0DFF87F
:1030F000789047B2072500244FF0010801E096F9C7
:103100000030D8B2002101F067FD08FA05F139401E
:10311000C9B29AF8000001F05FFD0121307801F09A
:103120005BFD99F8000001F05DFD6400E4B2013D33
:1031300008B144F001046B1CE1D12046BDE8F087E2
:10314000074B1A684FF00043D3625063D36A002BD9
:10315000FCDA906BC0B2BDE8F08700BFE913FF1F37
:103160004009FF1FF013FF1FEA13FF1F0D4AD37A18
:103170001946B3B1D80703D50B49D0690860194681
:103180009B0703D5094B106AD17A1860480703D50D
:10319000074B506AD17A18600B0702D5054B926A2B
:1031A0001A6070474009FF1F00E100E004E100E001
:1031B00008E100E00CE100E02DE9F843244D2C6823
:1031C000460084F83B6080460126206884F85E60F3
:1031D00084F85D60D0F8009020461F461446C8472A
:1031E00031462868FFF7A4FD33464146FAB2286805
:1031F000FFF728FE80B2874202D03046BDE8F88350
:103200007E1EB6B2FFB10136124F264410E090F890
:10321000383090F839209A4203F1010E00EB030197
:1032200014D980F838E0087E04F8010BA6420AD0D1
:10323000286803685B69BB42E9D09847C0B204F8CC
:10324000010BA642F4D10020BDE8F883FF20EBE794
:10325000EC13FF1FE12900002DE9F843314E96F9E8
:1032600000500135074689461446984621D0002172
:10327000384601F0B1FC08F1FF354846FFF72EFF54
:10328000ADB2B8F1000F07D00135254414F8010B99
:10329000FFF724FFA542F9D13846012101F09CFC3B
:1032A00096F90030013301D1FFF760FF0020BDE83F
:1032B000F8831D4BDA7A02B372B6D97ACD070A4683
:1032C00006D51A48DA6805682A40DA6102600A46BB
:1032D000880706D5164819690568DA7A29401962FF
:1032E0000160510706D5134859690568DA7A294003
:1032F0005962016012070DD462B61B680E4AD96884
:103300009142B4D00D4919600D480E49DA60186138
:103310001960ACE70C499A69086802409A620A6031
:10332000EAE700BFE913FF1F4009FF1F80E100E04B
:1033300084E100E088E100E00540003801403F0002
:103340000540007800003F808CE100E02DE9F84363
:10335000324E96F900500135074689461446984684
:1033600023D00021384601F037FC08F1FF3549F041
:103370008000FFF7B3FEADB2B8F1000F08D0013501
:1033800025440020FFF7AAFE04F8010BA542F8D15E
:103390003846012101F020FC96F90030013301D1BB
:1033A000FFF7E4FE0020BDE8F8831D4BDA7A02B394
:1033B00072B6D97ACD070A4606D51A48DA68056882
:1033C0002A40DA6102600A46880706D5164819695C
:1033D0000568DA7A294019620160510706D5134859
:1033E00059690568DA7A29405962016012070DD4DB
:1033F00062B61B680E4AD9689142B2D00D49196075
:103400000D480E49DA6018611960AAE70C499A69FB
:10341000086802409A620A60EAE700BFE913FF1FEA
:103420004009FF1F80E100E084E100E088E100E066
:103430000540003801403F000540007800003F8013
:103440008CE100E070B4074E074D084C0177002274
:10345000FF213170297021700262827442740274FB
:1034600070BC7047F013FF1FEA13FF1FE913FF1F23
:1034700038B5044690F91C002175451C3BD0C0B2FC
:10348000012101F0A9FB207F012101F0B9FB244BB0
:1034900093F90000431C3ED0C0B2012101F0B0FB03
:1034A000204B0121187801F0ABFB1F4B002118784D
:1034B00001F0A6FB217F1D4A1D4B84F82910002135
:1034C00084F82A10E26223631A4B636304F1280034
:1034D00000F04CFC08B1002038BD012384F8D40072
:1034E00084F8D30084F8D50084F8D0306074A074D8
:1034F0002074184638BD104B10460D461A60FFF771
:10350000BFFA01210D4A0E4B84F8295084F82A1085
:10351000E2622363D8E70B4803F004FCCAE700BF6C
:10352000E913FF1FF013FF1FEA13FF1F4D330000C5
:10353000593200008D300000EC13FF1FB93100003C
:10354000913000004009FF1FF0B5417C827C0446A9
:1035500000294FF0010380F8D23085B015BF262036
:1035600006202421042184F8D1300AB141F0120050
:10357000237C0BB140F04000E37C0BB140F08000B5
:1035800004F12805294600F057FA10B1002005B0D3
:10359000F0BD012384F8D030284600F031FD00282A
:1035A000F4D12A466946032000F0AAFDDDE9006750
:1035B000DDE90223B0FA80F04009C4E90067C4E9FC
:1035C000022305B0F0BD00BF10B50446FFF7BCFFF5
:1035D000D4E9020103F0D2FF00EE100A10BD00BFD3
:1035E0002DE9F041054694B04822374902A801F080
:1035F0003BF995F8A90098B395F8AB40002C5DD045
:10360000324F00263B4632463046394603F0D2FB65
:10361000631E13F0FF0406460F46F3D100222C4B25
:1036200003F07AFD2B4B002203F0C4FB03F086FF6E
:10363000294B80B2A3FB003895F8AA304FEA9818BE
:103640009BB995F8AE3014AA02EB830353F8483CBB
:10365000434594BF6FF00200002014B0BDE8F08134
:10366000804695F8AA30002BEBD095F8AC4044B3D7
:10367000164F00263B4632463046394603F09AFB49
:10368000631E13F0FF0406460F46F3D103F076FFE6
:103690009FED127ADFED127A0F4A06EE900AE6EEFF
:1036A000877AFCEEE77ACDED017ABDF80430A2FB13
:1036B00003239B0998441FFA88F8C2E74FF00208D9
:1036C000CFE70223F6E700BFF08E00000000F03FD6
:1036D00000409F4000807840D34D62100000FA44C3
:1036E00000809C432DE9F04F89B0002900F0DC8078
:1036F000002A00F0D980002B00F0D68010F0030FD4
:103700008A461C461546834640F0AA801BF0010BF2
:1037100000F0A280D4E91C8942464B464046494607
:1037200003F0FAFC02460B46CDE90001404649464B
:1037300003F0F2FCCDE90201DAF8000003F076FCB8
:1037400002460B468B46824603F0E6FCD4E908238A
:10375000CDE904014046494603F0DEFCD4E90623E6
:1037600003F028FBD4E90A2306460F46DDE90001F1
:1037700003F0D2FC02460B463046394603F01AFBF2
:10378000D4E90C2306460F46DDE9020103F0C4FC30
:1037900002460B463046394603F00CFB5B46524668
:1037A00003F0BAFCD4E91023CDE9060140464946AE
:1037B00003F0B2FCD4E90E2303F0FCFAD4E912239F
:1037C00006460F46DDE9000103F0A6FC02460B4663
:1037D0003046394603F0EEFAD4E9142306460F4684
:1037E000DDE9020103F098FC02460B4630463946FB
:1037F00003F0E0FA02460B46DDE9060103F0DAFACF
:10380000D4E9182306460F464046494603F084FC97
:10381000D4E9162303F0CEFADDE9042303F07CFC9F
:10382000DDE90423804689465046594603F074FC7E
:10383000D4E91A2303F070FC02460B464046494681
:1038400003F0B8FA02460B463046394603F0B2FAA6
:10385000C5E902014FF0000B584609B0BDE8F08FF2
:10386000486803F0E3FBD4E9002303F0A1FA024621
:103870000B4606460F4603F04FFCD4E9042303F041
:103880004BFCD4E90223804689463046394603F092
:1038900043FC02460B464046494603F08BFAC4E916
:1038A0001C01C5E9000131E74FF0FF3BD4E700BF41
:1038B0002DE9F84393F803E0D3F8049096440EF111
:1038C000070424F0070400AFADEB040DB9F1000FBD
:1038D00026D09C6824B3DC6814B31D469B78012B6A
:1038E0000C461646014620D01FFA8EF341F08001A7
:1038F0006A466878C84766B1611EE8460024EB78DE
:1039000008EB04020134D35C01F8013FA3B2B342D7
:10391000F5D3002818BF6FF00600BD46BDE8F88358
:103920004FF0FF30BD46BDE8F88333462246687845
:10393000C847EEE72DE9F8435400073424F00704A4
:1039400000AFADEB040D002B49D05C68002C46D0D5
:103950009C68002C43D0DD68002D40D000283ED06C
:1039600000293CD0002A3FD09D780E788DF8006069
:10397000EE461DB3012AA0462FD9A2F102095FFA33
:1039800089F909F1010981440546744615F801CF0A
:1039900011F8016F84F801C04D4504F8026FF5D1AC
:1039A00051001C4672460B4601786078C0470028DB
:1039B00018BF6FF00600BD46BDE8F883561E50FAEA
:1039C00086F6441E14F8015F05F07F05B4422570A9
:1039D000F8D1012AD3F80880CFD80121E1E74FF0D0
:1039E000FF30BD46BDE8F8836FF00500E3E700BF98
:1039F00070B5054682B01B2603460DF1070130461F
:103A0000012295F8A8408DF80660FFF751FF88B9AC
:103A10009DF80730240104F0300223F030041443F1
:103A20002B460DF1070101220DF106008DF807402C
:103A3000FFF780FF02B070BD002900F081804B6865
:103A4000002B7DD08B68002B7AD0CB68002B77D0F1
:103A50002DE9F04110F0060F82B00D4604463AD130
:103A600010F0F00F40F0BC8010F4E16F73D110F44F
:103A7000C05062D01A2701AE384631462B4601228B
:103A80008DF8007095F8B38095F8B470FFF710FFCB
:103A9000002852D120050BD59DF804304FEA480884
:103AA00008F0020823F0020343EA08038DF804300B
:103AB000E10409D59DF80430BF0007F0040723F0A6
:103AC00004033B438DF804302B46314601226846FF
:103AD000FFF730FF31E01B2701AE384631462B4659
:103AE00001228DF80070FFF7E3FE60BBA7070AD53F
:103AF0009DF8042095F8A93022F0010203F001039B
:103B000013438DF8043060070BD595F8AA209DF873
:103B10000430520002F0020223F0020313438DF836
:103B2000043068462B4601223146FFF703FF14F0AC
:103B3000F00F6F460AD0002854D002B0BDE8F081E3
:103B40004FF0FF30704714F0F00FF6D114F4E16F2E
:103B50003FD00028F1D11926304669462B46012274
:103B60006F468DF80460FFF7A3FE90BBE60595F85D
:103B7000B01095F8B12095F8B2300AD59DF80060E4
:103B800095F8AF0026F0010600F0010030438DF8F3
:103B90000000A00509D59DF80000490001F00201D0
:103BA00020F0020001438DF80010610509D59DF851
:103BB0000010920002F0040221F004010A438DF883
:103BC0000020260778D439462B46012201A8FFF7AA
:103BD000B1FE14F4C05FB0D000283FF44BAFACE7A7
:103BE00001AE6F464FF0000E2B46042231461C20DA
:103BF000ADF800E087F802E0FFF75AFE0028A5D1F3
:103C000014F030081FD0E20695F8AC300AD59DF8C4
:103C1000041095F8AB2021F0070102F007020A43D7
:103C20008DF80420A10609D59DF80420DB0003F0DF
:103C3000380322F0380213438DF804301C238DF82A
:103C400000304FF00108220614D595F8AE30112B44
:103C500044D85AB29DF8053002A9414423F01F030D
:103C6000134308F101081D2001F8043C5FFA88F8AD
:103C700001F8080C630614D595F8AD209DF80730BF
:103C8000520002A9414402F00E0223F00E03134336
:103C900008F101081F2001F8043C5FFA88F801F8D8
:103CA000080C95F8A830032B11D04246314638460F
:103CB0002B46FFF73FFE49E79DF800209B0103F0EC
:103CC000400322F0400213438DF800307BE7284682
:103CD000FFF786FC00287FF439AFE6E7112385F86B
:103CE000AE301A46B6E700BF10B582B07E22B623CA
:103CF0008DF804208DF80530E0B14368D3B18368B6
:103D0000C3B1C368B3B10346044601220DF10601F5
:103D10000320FFF7CDFD9DF80630DB060ED568B910
:103D2000234601220DF1050101A8FFF703FE40B172
:103D300002B010BD4FF0FF3002B010BD6FF00300B5
:103D4000F6E7E36802209847234601220DF10701B8
:103D50000220FFF7ADFD9DF807309A07EED400284A
:103D600018BF6FF0030002B010BD00BF30B589B0BE
:103D700000238DF8073010B3426802B38268F2B1B5
:103D8000C268E2B18278012A1ED00123C3700346C3
:103D9000044601220DF107010020FFF789FD0546C9
:103DA00050B99DF80730502B40F0F8802370204622
:103DB000FFF79AFF054648B1284609B030BD4FF0DD
:103DC000FF35284609B030BDC370E0E702A923469D
:103DD00015223120029503950495059506958DF8D9
:103DE0001C50FFF765FD9DF8083005469DF8090059
:103DF00043EA0020A4F8880003F018F90022694B78
:103E000003F08AF99DF80B209DF80A3043EA02235B
:103E1000C4E90401A4F88A30184603F007F9002227
:103E2000614B03F079F99DF90C3084F88C30C4E9CA
:103E30000601184603F00AF900225C4B03F06CF906
:103E40009DF80E209DF80D3043EA02231BB2C4E911
:103E50000801A4F88E30A3F5804003F0F7F80022A3
:103E6000534B03F059F99DF810209DF80F3043EAA9
:103E700002231BB2C4E90A01A4F89030A3F58040E4
:103E800003F0E4F800224B4B03F046F99DF91130A2
:103E900084F89230C4E90C01184603F0D7F80022E8
:103EA000454B03F039F99DF9123084F89330C4E999
:103EB0000E01184603F0CAF80022404B03F02CF91B
:103EC0009DF814209DF8133043EA0223C4E9100141
:103ED000A4F89430184603F0A9F80022384B03F0F8
:103EE0001BF99DF816209DF8153043EA0223C4E91A
:103EF00012011846A4F8963003F098F80022314BCE
:103F000003F00AF99DF9173084F89830C4E91401D8
:103F1000184603F09BF800222B4B03F0FDF89DF9A7
:103F2000183084F89930C4E91601184603F08EF869
:103F300000224FF07C5303F0EFF89DF81A209DF813
:103F4000193043EA02231BB2C4E91801A4F89A30DD
:103F5000184603F07BF80022144B03F0DDF89DF9BE
:103F60001B3084F89C30C4E91A01184603F06EF83F
:103F700000220E4B03F0D0F89DF91C3084F89D30E0
:103F8000C4E91C01184603F061F800220F4B03F04E
:103F9000C3F8C4E91E01284609B030BD6FF0010521
:103FA0000AE700BF000070400000103E0000F03C37
:103FB0000000B03E0000203E0000F03D0000A03DAB
:103FC000000020400000903F0000703F0000E03BF8
:103FD00091B14B6883B18B6873B1CB6863B110B595
:103FE00004460B46012201461B20FFF761FC2378A3
:103FF000C3F30113237010BD4FF0FF30704700BFB3
:1040000070B5436882B0BBB18368ABB1C3689BB184
:10401000044601460DF1020094F8A860FFF7D8FFAE
:104020009DF80230054663B91DB9032E2BD0012E31
:1040300024D0284602B070BD4FF0FF35284602B0AC
:1040400070BD1B25284601A9234601228DF8035087
:10405000FFF72EFC054668B99DF8045001A925F02C
:104060003005234601220DF103008DF80450FFF7BF
:1040700061FC0546E36805209847D5E72046FFF731
:10408000B7FC0546D5E701A9234604221C20FFF70B
:104090000FFC9DF804309DF805109DF8072003F0F3
:1040A000070601F01F01C3F3C203C2F34202054633
:1040B00084F8AB6084F8AC3084F8AE1084F8AD209E
:1040C0000028B6D12046FFF78BFA05460028B0D16C
:1040D0002046FFF78DFC05460028AAD1234601A9FA
:1040E00001220220FFF7E4FB05460028A1D19DF83C
:1040F000043013F0040F18BF6FF0040599E700BFF8
:104100002DE9F04184B00023ADF804300093029310
:10411000039392B3536883B3936873B3D36863B361
:1041200059B314460D460646134669460622042036
:10413000FFF7BEFBF0B99DF802209DF805309DF811
:1041400001E09DF804709DF800C09DF80380120402
:104150001B0442EA0E2E43EA072747EA080704F148
:1041600010032A464EEA0C0402A930460294039733
:10417000FFF7B8FA04B0BDE8F0814FF0FF3004B0AB
:10418000BDE8F081704700BF38B528220C460546CF
:104190000846002103F0A2FD0B220949204604F045
:1041A0003DFA0022E272E8680649206100230125F9
:1041B0000320E560626260612162A361E36138BD52
:1041C000408F00000AD7233C10B51421044600F0AC
:1041D0005FFC204610BD00BF30B4034D0560C160D8
:1041E0004271836030BC7047508F000070B5044648
:1041F0004079A3680125A84083F85E5083F85D509C
:1042000083F83B00A06803681B6816469847A068BF
:10421000036831461B6898472946A068FEF788FD69
:10422000284670BDF8B500252A460F46067C057461
:104230003D210446FFF7DAFF1E2000F00BFD192098
:1042400000F008FD2A4620460721FFF7CFFFAFB94F
:104250003A463F212046FFF7C9FF0A2000F0FAFC4A
:104260003246267420463D21FFF7C0FF1E2000F095
:10427000F1FC1420BDE8F84000F0ECBC80223F21A6
:104280002046FFF7B3FFE8E7002238B53D21057C63
:1042900002740446FFF7AAFF1E2000F0DBFC192081
:1042A00000F0D8FC204602223E21FFF79FFF2A465D
:1042B000257420463D21FFF799FF1E2000F0CAFC1F
:1042C0001420BDE8384000F0C5BC00BF70B5002523
:1042D000067C05742A463D210446FFF787FF1E2011
:1042E00000F0B8FC192000F0B5FC2A4620463E211B
:1042F000FFF77CFF3246267420463D21FFF776FF0C
:104300001E2000F0A7FC1420BDE8704000F0A2BC05
:1043100038B5427983680125AA4083F83B2083F8A9
:104320005E5083F85D500446806803681B689847B8
:104330002946A068FEF7FCFC2B462A466179A06856
:10434000FEF780FDA0680B4A03685B6993420BD1BE
:1043500090F8383090F839209A4208D95A19034415
:1043600080F83820187E38BD9847C0B238BDFF208D
:1043700038BD00BFE129000038B5044680680D460D
:10438000FEF77EFB20460021FFF7C2FFA0280BD0DE
:104390004FF47A7000F05EFC00212046FFF7B8FF72
:1043A000A02801D0002038BD002222743D212046E3
:1043B000FFF71CFF1E2000F04DFC20223F2120466D
:1043C000FFF714FF1E2000F045FC01E000F042FC66
:1043D00000212046FFF79CFFA0284FF00A00F5D1EE
:1043E000322000F037FC00223E212046FFF7FEFE7F
:1043F0000A2000F02FFC002207212046FFF7F6FEDE
:1044000000223F212046FFF7F1FE0A2000F022FCA7
:104410002A463D2125742046FFF7E8FE1E2000F0C5
:1044200019FC142000F016FC012038BD2DE9F041E4
:104430004479054601278068BC4080F83B4080F8FD
:104440005E7080F85D70A8680468D4F800801E462D
:104450001446C0473946A868FEF76AFC3B46324618
:104460006979A868FEF7EEFC0EB3013E54FA86F6B1
:10447000114F013C10E090F8383090F839209A4202
:1044800003F1010E00EB030114D980F838E0087E37
:1044900004F8010FB4420AD0A86803685B69BB4204
:1044A000E9D09847C0B204F8010FB442F4D101201A
:1044B000BDE8F081FF20EBE7E1290000F0B50446FC
:1044C00083B0002516460846256031466560A56024
:1044D000E560256165616A4606230095ADF80450E4
:1044E000FFF7A4FF9DF803709DF805509DF80100AB
:1044F0009DF800109DF802209DF8043041EA00204C
:1045000042EA072243EA0523083E00B217B21DB271
:10451000262E2FD8DFE806F0142E2E2E2E2E312E2A
:104520002E2E2E2E312E2E2E2E2E312E2E2E2E2EA5
:104530002E2E2E2E2E2E2E2E142E2E2E2E2E1400FD
:1045400002F084FD00221B4B02F010FFC4E90001C1
:10455000384602F07BFD0022164B02F007FFC4E94B
:104560000201284602F072FD0022124B02F0FEFE0C
:10457000C4E90401204603B0F0BD02F067FD00224B
:104580000D4B02F0C9FDC4E90001384602F05EFDA2
:104590000022094B02F0C0FDC4E90201284602F0E6
:1045A00055FD0022044B02F0B7FDC4E9040120468A
:1045B00003B0F0BD000059400000B03F70B52426A4
:1045C00088B00C46054632460846002103F086FBBB
:1045D000104BE9681B680193019B23610322616012
:1045E000A26029461A2202A82660FFF767FFDDE9CC
:1045F000020102F0C3FF6061DDE9040102F0BEFFC9
:10460000A061DDE9060102F0B9FFE061012008B018
:1046100070BD00BFF413FF1F00B5064A036812887F
:104620005B6883B001A9ADF804200222984703B06B
:104630005DF804FB648F000070B50E4D82B02B68EE
:104640000093009E044608E001F094FC2B6801935F
:10465000019BA2689B1B934207D2236820465B699B
:1046600098470028F0DB02B070BD4FF0FF3002B079
:1046700070BD00BFF413FF1FF8B50F4616460021AA
:10468000054600F055F88EB1002404E00ED000F08D
:10469000AFF8A6420AD03846FFF7CEFF011E04F15C
:1046A0000104C9B22846F1DA01233B732846F8BD5C
:1046B00010B50446006802F0EDFF204610BD00BFB3
:1046C00038B543688B4201D3012038BD0D460446FE
:1046D0000131006803F054FB0028F6D0A36884E899
:1046E0002100002BF0D10370EEE700BFF8B50446BF
:1046F000154632B9036803B11A700023A36020463F
:10470000F8BD0E461146FFF7DBFF074648B92068A3
:1047100010B102F0BFFF276000236360A360204652
:10472000F8BDA5603146206803F0A8FEE7E700BFAA
:1047300038B500230446036043608360037341B1CE
:1047400008460D4603F0FCFE294602462046FFF7C8
:10475000CDFF204638BD00BF10B582B000238DF8D4
:1047600004100360436083600373012201A90446BF
:104770008DF80530FFF7BAFF204602B010BD00BF2C
:104780002DE9F84303680F46BB420446816815468D
:104790000AD85A18974207D2C3EB07094FF001080D
:1047A00035B92046BDE8F8834FF00008002DF8D059
:1047B0004E1931462046FFF783FF0028F1D0B8F1AB
:1047C000000F0ED02368A0682A4603EB09011844A5
:1047D00000F04AF8236800229A55A6602046BDE8FA
:1047E000F8832068A3683946184403F047FEF4E7CD
:1047F00010B582B000238DF80410012201A90446EF
:104800008DF80530FFF7BCFF204602B010BD00BF99
:10481000036853B1096811B1184603F0C5BC80683C
:1048200010B118787047184670470B68002BFAD003
:1048300088680028F8D018784042704708B5826828
:104840008B689A4201D0002008BDFFF7E1FFB0FA63
:1048500080F0400908BD00BF08B5FCF7B5FAFCF7C9
:104860006DF901F087FBFAE7844641EA000313F093
:1048700003036DD1403A41D351F8043B40F8043B67
:1048800051F8043B40F8043B51F8043B40F8043B2A
:1048900051F8043B40F8043B51F8043B40F8043B1A
:1048A00051F8043B40F8043B51F8043B40F8043B0A
:1048B00051F8043B40F8043B51F8043B40F8043BFA
:1048C00051F8043B40F8043B51F8043B40F8043BEA
:1048D00051F8043B40F8043B51F8043B40F8043BDA
:1048E00051F8043B40F8043B51F8043B40F8043BCA
:1048F00051F8043B40F8043B403ABDD2303211D36A
:1049000051F8043B40F8043B51F8043B40F8043BA9
:1049100051F8043B40F8043B51F8043B40F8043B99
:10492000103AEDD20C3205D351F8043B40F8043B69
:10493000043AF9D2043208D0D2071CBF11F8013B67
:1049400000F8013B01D30B8803806046704700BF2D
:10495000082A13D38B078DD010F003038AD0C3F13C
:104960000403D21ADB071CBF11F8013B00F8013B1E
:1049700080D331F8023B20F8023B7BE7043AD9D3DD
:10498000013A11F8013B00F8013BF9D20B780370B2
:104990004B7843708B7883706046704708B5104C35
:1049A00008E0236859050DD423681A050FD423683D
:1049B000DB0411D423685803F3D500F02DFB2368E2
:1049C0005905F1D501F0BEFC23681A05EFD501F0B9
:1049D0004FFD2368DB04EDD501F0E0FDEAE700BF01
:1049E0003480044008B5FFF7D9FF00BF014B102207
:1049F0001A80704700200540704700BF094908B57C
:104A00000B6830B16A461844A2F50052904202D2B7
:104A10000860184608BD02F007FE0C2303604FF043
:104A2000FF3008BD8008FF1F084A1378802B01D093
:104A3000002070470649074B07480860002119709D
:104A40001378802BFCD00120704700BF03E00740A3
:104A50004480044001E0074000002822094A1378FE
:104A6000012B01D00020704703F1804303F5FC23A4
:104A7000602119701378802BFCD1034B034A1A6014
:104A80000120704703E00740448004400000060214
:104A900002F000BEF0B44D1E2E46002400E00134AA
:104AA000B0FBF2F302FB1300092800F130078ABFC4
:104AB0003730F8B2C0B206F8010F1846002BEED11D
:104AC0000A1953704CB1107815F8016F2870013332
:104AD000E01A834202F80169F5DB0846F0BC704732
:104AE00010B4114B53F8302092F8804234B10123B6
:104AF00079B182F880305DF8044B704703EBC00356
:104B00005B681A6851B922F002021A605DF8044B22
:104B1000704782F800315DF8044B704742F00302A1
:104B20001A605DF8044B7047688F00001C4A02EB66
:104B3000C00301295B6811D004291BD052F8300052
:104B4000002280F8802229B1022920D0032922D016
:104B50001A6070474FF480721A60704752F8300044
:104B60004FF4A27280F880121A601A6822F02002B4
:104B70001A60704752F830104FF4A272012081F889
:104B800080021A601A6842F020021A60704740F2F0
:104B900003121A6070474FF481721A60704700BFA9
:104BA000688F00001030024B43F82010704700BFA0
:104BB0000002FF1F30B4054B054D064C00221021AA
:104BC0001A602A602060196030BC704714D003401E
:104BD00004D0034000D003403F2801D8FFF780BF36
:104BE000704700BF3F2806D8044B53F8303093F885
:104BF0000002C0B270470020704700BF688F0000FD
:104C00003F2801D8FFF792BF704700BF72B60D4929
:104C10000D4B0E4A1B680868126862B6520102D535
:104C2000322B88BF0130C3F52F33094903F21F33FC
:104C30004FF47A729B08A1FB031302FB00F000EB18
:104C400093007047F413FF1F18E000E004ED00E04C
:104C5000176CC1162DE9F843054672B6224F234B57
:104C6000234A1B683C68126862B6520102D5322B97
:104C700088BF0134B5B3C3F52F3303F21F331D4E84
:104C8000DFF86890DFF868809B084FF47A72A6FB23
:104C9000031302FB04F404EB930472B6D9F800107A
:104CA0003A68D8F800E062B6C1F52F3303F21F333B
:104CB0009B08A6FB03031EF0806FC4EB93034FF425
:104CC0007A7002D0322988BF013200FB0233B3F57B
:104CD0007A7F04D3013D05D004F57A74DDE701F055
:104CE00049F9DAE7BDE8F883F413FF1F18E000E0A4
:104CF00004ED00E0176CC116F8B54E4B4E48DFF8D6
:104D00005CC14E4C4E49DFF858E14E4E4E4D4F4F70
:104D10004FF000621A604FF080521A604FF000525C
:104D20001A604FF080421A604FF000421A60002271
:104D3000026028234EF6FF70CCF80000CEF8003059
:104D400023600EF5012E0B6033602B6006F5002604
:104D50003B6005F50025A36207F500278B6204F58B
:104D6000012401F5012106F6E87605F6E87507F558
:104D70007F6710310EF1100E203433602B60CEF8B7
:104D800000303B600B602360314CBB618B610921BB
:104D90002160A7F5002704F58054203F08343A60CD
:104DA0002060BB60E36047F8041C04F5FD2407F5B0
:104DB000FE27043704F2FC7422603860A360FB60B5
:104DC00044F8041C083404F6FC74C7F8FC2F206077
:104DD000A4F5E124A4F2DC7433602B60C7F8F81F5B
:104DE00021681C4841F40071216001681A4C0EF5DD
:104DF0007F4E0EF1E80E07F5883706F5803605F58B
:104E0000803541F000710160CEF8002047F6FF7157
:104E10000822396033602B60226001F013FA1920F8
:104E2000FFF718FF00F060FE40F21310BDE8F840F5
:104E3000FFF710BF04E100E004800340148003404A
:104E40001C800340248003402C80034034800340B6
:104E5000008003400480044000900C400880034020
:104E60000C800340431E032B14D872B60A4951F834
:104E7000230068B170B4094C058834F813204668E3
:104E800041F82360521B24F8132062B670BC7047AF
:104E900062B67047002070475014FF1F4818FF1F6C
:104EA000013803280BD872B6074B53F8203043B1B2
:104EB00000205B680130002BFBD162B670470020F8
:104EC00070471846F9E700BFA414FF1F30B472B64C
:104ED0002B4A13781D0706D52A4B196A002936D0AC
:104EE000996A002941D053781C0706D5254B196CC7
:104EF00000293ED0996C002939D09378190705D53F
:104F0000204B196E002936D0996E89B1D3781B07D2
:104F100007D51C4BD3F880207AB3D3F88820112111
:104F20003AB162B6184B00221A7030BC00F092BE43
:104F30000D21154C154D227843F8315003EBC10378
:104F40000830013A5860227062B630BC70470422C3
:104F50000D4C0F4D217843F8325003EBC20308305B
:104F60004A1E5860227062B6EFE70521E1E7092189
:104F7000DFE70822ECE70C22EAE71022E8E700BFAF
:104F8000909100000000FF1FCD14FF1FC8004000DB
:104F900088004000431E032B1DD81B4A400140F0EF
:104FA000100030B4104472B6184CE25C032A1BD8CF
:104FB000DFE802F00212151703220D88E25410F008
:104FC000080F14BFC823882343EA05430831036050
:104FD000416062B630BC704708300222EDE705221E
:104FE000EBE708300422E8E7094A52F8230038B119
:104FF000084A52F82300416042F8231062B6E9E7FC
:1050000042F82310034AF7E70000FF1FDC14FF1FDC
:10501000A414FF1FB414FF1F2DE9F04FDFF80CB3E9
:10502000DFF80CA387B044E0AB4F4FEA930807EBDF
:10503000C809013ED9F8042003F00803F6B2A2F132
:10504000080003F0FF04002B40F0028157F83830CD
:105050001B0C99B222F8081C002B00F0F0809F4B2B
:1050600022F8064C42F8044C53F82620002A00F09F
:10507000C5829B4D55F8263058609A4C45F826005D
:1050800034F81630194424F8161000F0C3FD002837
:1050900000F0AD82944A954B19F0080F00F108001A
:1050A00018BF1346C9F8040047F8383008238BF8B6
:1050B00000309BF80040E4B261071AD58C4B1B7896
:1050C000A3B18C490A7802F0FF0322B1013BDBB2A5
:1050D0000B7003B900BE88490A7802F0FF032AB1B9
:1050E000013BDBB20B70002B00F0578204238BF8DE
:1050F000003004F0080303F0FF02002B00F0CC8026
:105100009AF80030DBB21E098ED19C08DFF8C891F6
:1051100059F8342009EBC401C2F38302013A49680B
:105120000C2A00F28880DFE802F07C7C8686868686
:1051300086864786868607000868704D4A68704FE5
:10514000704E286081B240F28160674B6A604FF018
:10515000010E0022814249F834303A60C9F810202B
:10516000C9F8182086F800E05B4C00F2E380B1F546
:10517000D06F80F04683B1F5817F00F0FC8200F2B1
:105180008D82802900F07783822940F0FA82A988F5
:1051900001F07F01042900F2F4825B485B4C890036
:1051A0000844227062700278930740F1588484F8B2
:1051B00000E04FF0020E42E3514F3A6832B3544BD5
:1051C000504E5449188834780D784028864645F06A
:1051D000020828BF4FF0400E002C84F00104347008
:1051E000CEEB00000CBF8824C82409EBC80680B2AF
:1051F00085F0010544EA0E447260188049F8384091
:1052000072440D70002800F045813A603B4B1A88CB
:10521000B2F5A06F0FD100219A7859703E4B1A70E9
:1052200009E0364A108842F22102904200F03781AC
:105230002D4A49F83420394A0123137036E72A4AA7
:105240002A4B19F0080F18BF134647F838302DE7DE
:1052500000F000FD324A334952F82630002B00F0AE
:10526000D18158688C5D42F8260003F10802C9F824
:105270000420032C05D8DFE804F02C0229260222A2
:105280008A551A8819F0080F0CBF8823C82343EAEF
:10529000024347F8383009E7E00700F18181210631
:1052A00000F1F281A20706D51F4A20491378022097
:1052B000DBB213700870E30602D51C4B10221A7083
:1052C00007B0BDE8F08F04228A55DAE705228A5537
:1052D000D7E703228A55D4E70000FF1F5014FF1FB1
:1052E000FC13FF1F4818FF1FC80040008800400043
:1052F000D814FF1F6114FF1FE014FF1FC414FF1F09
:10530000F813FF1F6014FF1FC0200740D014FF1FB9
:105310000C14FF1FCC14FF1F982007409420074057
:10532000A414FF1FDC14FF1F8820074080200740C3
:105330009020074042F22100814200F02A8100F2D1
:10534000D880B1F5086F00F07682B1F5106F40F0AB
:105350001882226AB349A8780870120600F13A83CD
:10536000D9F82820B049130600F10C83D9F8302071
:10537000AD49150600F10183D9F83820AA49140671
:1053800000F1F682D9F84020A749100600F14A83BF
:10539000D9F84820A449120600F13F83D9F85020DB
:1053A000A149130600F13483D9F858209E49150607
:1053B00000F12983D9F860209B49140600F11E836F
:1053C000D9F868209849100600F11383D9F87020A5
:1053D0009549120600F10883D9F8782092491306FE
:1053E00000F1FD82D9F880208F49150600F1318344
:1053F000D9F888208C49140600F12583D9F890202B
:105400008949100600F11983D9F8982086491206B7
:1054100000F10D838548864A864901908648874D6C
:10542000874C049700230596029580460F46164642
:105430001D460394306828B1446800F00BFC2046F8
:10544000002CF9D100233360029B38681A460023F0
:1054500042F8253028B1446800F0FCFB2046002CBF
:10546000F9D100223A60019A98F8003011460022E2
:1054700041F8042B039A0191023B4FF0000122F8FE
:105480001510032B00F22B81DFE813F070012501CA
:1054900070012501BEF1400F18BF0022B5E6694A30
:1054A0000D784878157050708D78C8789570D070E8
:1054B00010680D79157186284D798979557191712A
:1054C00000F09B816049614E0A78307882F00105D6
:1054D000002842F002020D700CBF8821C82149F853
:1054E000321009EBC20280F00100002130705160DF
:1054F0009EE642F22120814240F0CB81544B554C34
:105500005549A8781D682560CDF804E00870002092
:1055100002908046844604464B490D7845F0020EC1
:1055200009EBCE030393019B002B039B5C600CBF34
:105530008824C82444EA080385F0010449F83E3071
:1055400032700C70DFF8E0E0404BDFF8FC800028A0
:1055500040F01E81BCF1400F1BD144F0020C09EB5E
:10556000CC03029CDFF8C0E05C60002A40F026819A
:10557000020442F088029DF804304EF83C200444B6
:1055800033700D702346402803D10020334A3B601E
:105590001080334A012313704DE600F0C7FCA5E5E7
:1055A000214B2F4828491A614FF0020E80F800E085
:1055B0002C4F0A702C49196099602C4E2C4D2D4CA3
:1055C0009A610D213970FF213170DFF8B8E0297040
:1055D0002270294D294A8EF800109F27012406F8D1
:1055E000047C5D600470DA6007B0BDE8F08F244A87
:1055F00047F8380013780133137057E543F8260055
:105600000E4D3AE58B5D032B00F2F08001A252F8BB
:1056100023F000BFAD500000AD500000D156000097
:10562000CB560000D814FF1F0000FF1FB414FF1F4B
:105630005014FF1FA414FF1FDC14FF1FFC13FF1FD7
:105640004818FF1F5018FF1FCC14FF1F6014FF1FC6
:10565000F413FF1F5818FF1FF014FF1F0C14FF1F37
:1056600094200740C0200740880040008820074061
:1056700080200740982007401014FF1F6414FF1F6C
:10568000CD14FF1F8C200740C149C24B80220D2042
:1056900008701A70A2077FF50EAE05E640F20232DE
:1056A000914240F0EE80A98801F07F01042968D87A
:1056B0006A88002A65D1B648CDF804E0890008441C
:1056C000017841F00201017021E701238B55EDE4DF
:1056D00000238B55EAE44FF0010388F800300135D0
:1056E000042D06F1040607F1040708F101087FF410
:1056F000A1AEA94CA94B2278A94D049F059E00217B
:1057000029701A70130700F105816278A549DFF846
:10571000A0820A7010074FF00001C9F83010C9F8D4
:10572000381000F1E080A049A2780A700021C9F881
:105730005010C9F858101107DFF8748200F1018188
:10574000E2789A499A4C0A7000211207C9F8701041
:10575000C9F8781000F1B08033780193002183F00C
:105760000102C9F89010C9F89810D0E64FF0000374
:1057700088F80030B3E7A98801F07F01042940F2DE
:105780008D80834A0F2313708A4A0123137052E5D8
:1057900040287FF6E2AE44F002040EEBC401029E04
:1057A0004E60BAB19DF80410834A197033464038F0
:1057B00088F8005040334EF83420E7E69DF8043076
:1057C00033700204029B0D7042F0C80203444EF88D
:1057D0003C20D8E69DF804101970029B774A88F89F
:1057E0000050403840334EF83420CFE619F0080F0F
:1057F0000CBF022303238B5558E4714A0F2111700B
:1058000060E6704A5468002CBBD06888B5F804E0A4
:1058100003E00C325468002CB3D013888342F8D1D3
:1058200053887345F5D1000A03280CBF94F800E0B3
:10583000B2F808E003E0644A644C12782270E88809
:10584000704580F03F8162490D784028844645F0DC
:10585000020E28BF4FF0400C04EB0C0309EBCE0204
:10586000029301235460CCEB00004FEA0C48002265
:105870000193C8245EE6554C4FF0020E2270627010
:10588000DDE7B1F5A06F7FF47CAF01230022019327
:105890003DE642F221329142F7D072E76A88002A4F
:1058A0007FF46FAF3A48CDF804E0890008440178EE
:1058B00021F0020101702AE600F0ACF9002800F0A6
:1058C000EF8008303D4AC4F88400C4F8802000F01E
:1058D000A1F9002800F0DE800830374AC9F88C00B2
:1058E000C9F8882038E700F095F9002800F0C0805A
:1058F0000830324AC8F84400C8F8402000F08AF95D
:10590000002800F0AF8008302B4AC9F84C00C9F8D5
:10591000482008E700F07EF9002800F0CD8008302C
:10592000264AC9F82400C9F8202000F073F900289D
:1059300000F0BC800830204AC9F82C00C9F82820A3
:10594000E3E600F067F9002800F09E8008301B4A6B
:10595000C8F86400C8F8602000F05CF9002800F086
:105960008D800830144AC9F86C00C9F86820E7E651
:10597000C86B083800F06EF904E5486B083800F091
:1059800069F9F9E4C86A083800F064F9EEE400BF88
:10599000C02007408020074090910000C4200740AD
:1059A000CD14FF1FC8200740CC200740D02007405F
:1059B0000000FF1F94200740C800400088004000FE
:1059C0006114FF1F94910000D814FF1FD014FF1F13
:1059D000CC14FF1F606A083800F03CF9C0E4C86FBF
:1059E000083800F037F9FDE4486F083800F032F964
:1059F000F2E4C86E083800F02DF9E7E4486E083884
:105A000000F028F9DCE4C86D083800F023F9D1E48F
:105A1000486D083800F01EF9C6E4C86C083800F07C
:105A200019F9BBE4486C083800F014F9B0E4D1F877
:105A30009C00083800F00EF9ECE4D1F89400083826
:105A400000F008F9E0E4D1F88C00083800F002F921
:105A5000D4E4D1F88400083800F0FCF8C8E44FF032
:105A6000020EECE62A78C9F8480001322A705AE69C
:105A70002A78C8F8400001322A703FE72A78C9F82E
:105A8000680001322A705BE62A78C8F860000132AB
:105A90002A7061E72A78C9F8880001322A705BE62B
:105AA0002A78C4F8800001322A7010E72A78C9F8F1
:105AB000280001322A7028E62A78C9F8200001322D
:105AC0002A7032E7BEF1400FF44628BF4FF0400C79
:105AD00004EB0C0302930123CCEB0E004FEA0C48BD
