:1000000000000320D1010000653200001D32000015
:100010001D3200001D3200001D3200001D320000A4
:100020001D3200001D3200001D320000653200004C
:10003000653200001D320000852D0000892E000071
:100040006532000065320000653200006532000054
:100050006532000065320000653200006532000044
:100060006532000065320000653200006532000034
:100070006532000065320000653200006532000024
:100080006532000065320000653200006532000014
:100090006532000065320000653200006532000004
:1000A000111700001D1700006532000065320000C6
:1000B00065320000653200006532000079490000B9
:1000C00065320000A54A000065320000D14B0000F7
:1000D00065320000C94C0000653200006532000046
:1000E00065320000653200006532000065320000B4
:1000F00065320000653200006532000065320000A4
:100100006532000065320000653200006532000093
:1001100065320000413800006532000065320000A1
:100120006532000065320000653200006532000073
:100130006532000065320000653200006532000063
:100140006532000065320000C14D000065320000DC
:100150006532000065320000653200006532000043
:10016000653200006532000029170000653200008A
:100170006532000065320000653200006532000023
:100180006532000065320000653200006532000013
:100190006532000065320000B94E00006532000093
:1001A00065320000653200006532000065320000F3
:1001B00065320000653200006532000065320000E3
:1001C00065320000653200006532000065320000D3
:1001D0005C4B4CF2205210B51A804DF628121A8052
:1001E00000BF00BF03F042F8574B4FF030621A6077
:1001F000564A9A60564ADA60564B4FF470021A60BB
:10020000554B564A1A60564B1A78110703D51A787F
:1002100042F008021A70534B5349AA221A70534AEB
:10022000534B8B4204D252F8040F43F8040BF8E707
:10023000504B514900228B4202D243F8042BFAE77B
:100240004E494F4A002352F8230041F8230001335E
:10025000742BF8D14B4B4C4A802103F8011B93427D
:10026000FBD14A4B454A1A60494B8A221A70A3F5C2
:10027000805324225A70A0221A709A799207FCD5D2
:100280009A79D406FCD4434A937903F00C03082BE3
:10029000FAD1414B60221A7002331A78802AFCD1BD
:1002A0003C4B01221A715D225A719A799006FCD555
:1002B0009979384A4906FBD5384B394919600021EC
:1002C000596020231370937903F00C030C2BFAD19F
:1002D000344B354A1A60354A354C136813F4807331
:1002E00003D123604FF4A8531360324B324A1A6093
:1002F00000225A60072243F8042C304AC3F80C2D20
:1003000062B603F00DF92368DA0705D52C4803F02F
:1003100089F82C4B2C4A1A602C4B1B785B0609D5AC
:10032000284C294B22689A4204D1254803F07AF8D8
:100330000023236005F0C0FA02F09EFF02F0CCFE1D
:10034000FEE700BF0E20054030800440823F0400DD
:100350000100002B88ED00E0002008E0030000858C
:1003600002D0074000E00740BC11FF1F5C74000092
:100370003007FF1FC011FF1F0C18FF1F0002FF1FD7
:100380000000000000E400E064E400E008ED00E0AC
:10039000005006400040064001E007404480044011
:1003A0000000060204800440C010070010D0034083
:1003B00014D0034014E000E01FBF02000000202022
:1003C0004935FD5D1CE00340A5C3945A00F0074089
:1003D000FFFFFFFFFFFFFFFFFFFFFFFFFFFFFFFF2D
:1003E000FFFFFFFFFFFFFFFFFFFFFFFFFFFFFFFF1D
:1003F000FFFFFFFFFFFFFFFFFFFFFFFFFFFFFFFF0D
:10040000FFFFFFFFFFFFFFFFFFFFFFFFDEF9FFFF23
:1004100010B5054C237833B9044B13B10448AFF33E
:1004200000800123237010BDC011FF1F00000000D9
:1004300058740000084B10B51BB108490848AFF3C9
:1004400000800848036803B910BD074B002BFBD0A0
:10045000BDE81040184700BF00000000C411FF1F96
:1004600058740000BC11FF1F000000000022026051
:10047000704700BF704700BF704700BF704700BFA4
:10048000704700BF10B507210F4804F083F80F48EC
:1004900002F002FD0E4A0F48772101F03DFB0446B1
:1004A00040B119210C4804F075F8084802F0F4FC3A
:1004B000204610BD1821094804F06CF8034802F0EA
:1004C000EBFC204610BD00BF686C0000C008FF1F99
:1004D000E407FF1FE011FF1F8C6C0000706C000030
:1004E000014B0360704700BF646C0000704700BFA1
:1004F00008B5034801F0BCFB024B83ED000A08BDC0
:10050000E011FF1F3407FF1F4FF0FF31014801F0DA
:10051000EDBA00BFE011FF1F704700BF82B0F0B41A
:1005200004AC84E80C00CF6FD1F88060CD6E0C6F06
:100530004A6F8B6F0A960B950C9409970D9208934E
:1005400004AD06460FCD34460FC40FCD0FC495E859
:10055000030084E803003046F0BC02B0704700BFDF
:1005600082B0F0B501F108068FB00C4614AD1C3115
:100570000746304685E80C0002F074FB1A2231462B
:1005800008A802F0EFFA04F1A00508AA04F1880314
:10059000F2E80201E3E80201AB42F9D1D4E9220119
:1005A00005F02EF9A067D4E9240105F029F9E067E8
:1005B000D4E9260105F024F90822C4F88000314668
:1005C00008A802F0CFFA08AB04F1B802F3E8020180
:1005D000E5E802019542F9D1D4E9280105F010F9C6
:1005E000E066D4E92A0105F00BF92067D4E92C0173
:1005F00005F006F916AE60670FCE6D460FC596E89A
:100600000F0085E80F00236821465C6814AB38466C
:100610000CCBA04738460FB0BDE8F04002B07047A1
:1006200010B50B210446064803F0B4FF054802F05C
:1006300033FC04F10800BDE8104002F09BB900BF94
:10064000586D0000C008FF1F10B50C210446064875
:1006500003F0A0FF054802F01FFC04F10800BDE80C
:10066000104002F065B900BF646D0000C008FF1FB4
:1006700070B5064600F108050A240C21284602F050
:10068000CFF93C2150B90E4803F084FF0D4802F029
:1006900003FC642002F0F2FE013CEED12846012169
:1006A00002F014F92021084803F074FF054802F015
:1006B000F3FB33683046DB689847002070BD00BF0D
:1006C000986D0000C008FF1F746D0000F0B5224F48
:1006D000224B0446002587B040F8083B28223B46C1
:1006E0004FF0FF3102F0CCF83B46C4F88850282286
:1006F000C4F88C50C4F89050C4F89450C4F8985082
:10070000C4F89C503721C4F8A05001A8C4F8A450E4
:10071000C4F8A850C4F8AC50C4F8B050C4F8B450F1
:1007200002F0AEF803989DF808709DF809600499EE
:100730009DF8142020610023204684F84050277340
:10074000667361612276E36623676367A367E36785
:10075000C4F8803007B0F0BDE407FF1FE06D000073
:10076000704700BF10B50446FFF7B0FF04F1B800B2
:10077000FFF7B6FE204610BD10B50446B830FFF7AF
:10078000B5FE2046FFF7ECFF204610BD0020704765
:100790000020704700207047002070474FF0FF3066
:1007A000704700BF00207047F8B50A790B7B0373D0
:1007B00002710C464B7B437309696269237E0376A1
:1007C0000161426104F11C0705460FCF05F11C06CB
:1007D0000FC60FCF0FC63B68336094F8403085F8E2
:1007E000403004F144070FCF05F144060FC60FCF88
:1007F0000FC697E8030086E80300A16FE26FD4F804
:100800008030E76E266F606F6867A967EA67C5F892
:100810008030EF662E6704F1880205F1880104F14B
:10082000A003F2E802679A42E1E80267F9D1B8341E
:1008300005F1A002F3E80201A342E2E80201F9D1C6
:1008400005F1B8042046FFF71DFE2046FFF750FED5
:100850002846BDE8F840FFF70BBF00BF70B592B067
:100860000AAD06460FCD6C460FC495E80F0084E82C
:100870000F0008AD314695E80C002846FFF770FEE2
:10088000DDED0B7A9FED0A7AF4EEC77AF1EE10FAFD
:100890000ADB9FED087AF4EEC77AF1EE10FA94BF06
:1008A0000120002012B070BD002012B070BD00BF4A
:1008B00000B0654500D068450120704782B0F0B4B3
:1008C00004AC84E80C00D1F8C870D1F8CC60D1F841
:1008D000B850D1F8BC40D1F8C020D1F8C4300A9645
:1008E0000B950C9409970D92089304AD06460FCD15
:1008F00034460FC40FCD0FC495E8030084E803000D
:100900003046F0BC02B07047704700BF704700BF70
:100910000120704710B5034B03600446FFF720FF2A
:10092000204610BDFC6D000010B5054B0360044669
:10093000FFF716FF2046034902F0EAFC204610BDEF
:10094000FC6D000050437F0082B02DE9F04FD1F8DC
:1009500000E1DFF8ECC00EEB8E06F60093B08C19C8
:100960000F4604F584741CA981E80C0080460FCC66
:100970001CAD0FC50FCC0FC506F584733B4494E83E
:100980000300D3ED047AD3F814B0D3F818A0DE69CD
:10099000D3F820900EF1010285E80300D3F824E09B
:1009A000C7F80021C7ED317AC7F8C8B03B68C7F86F
:1009B000CCA05C68C7F8B8606445C7F8BC90C7F8BD
:1009C000C0E0CDED207ACDF884B0CDF888A0239694
:1009D000CDF89090CDF894E024D11CAD0FCD08ACAB
:1009E0000FC40FCD0FC495E803000F9684E80300F1
:1009F000CDED0C7ACDF834B0CDF838A0CDF84090DC
:100A0000CDF844E008AE0FCE45460FC50FCE0FC55A
:100A100094E8030085E80300404613B0BDE8F04FBA
:100A200002B070471EAE0FCE6D460FC596E80F00A0
:100A300085E80F001CAB39460CCB4046A047EBE7DE
:100A4000BD0800002DE9F04F0DF17F4D0DF5BC3DC7
:100A5000624C6348634EDFF8BC91634FDFF8B0B17E
:100A6000DFF8B4A163B06C4400F0C8FA5F4B002516
:100A700020461D70FFF72AFE5D4BC4F804315D4B24
:100A8000C4F8D0500DF1C0086B44C4F8E850C4F865
:100A9000D450C4F8D850C4F8DC50C4F8E050C4F8BE
:100AA000E450C4F8EC50C4F8F050C4F8F450C4F862
:100AB000F850C4F8FC50404643F80690C4F8005182
:100AC000FFF70EFD04F11C0EBEE80F00DFF824C195
:100AD00048F80750484D464F48F80570EC4409AEB9
:100AE00027794CF80BA00FC6BEE80F00257B8DF8C8
:100AF0000C70DFF800B1414F8DF814500497657BFE
:100B00002769DFF818C18DF8155006976569277EAB
:100B10000795EB443A4D8DF8207004F144074BF8EB
:100B20000C500FC60FCF13AD0FC50FCF0FC597E8F1
:100B30000300DEF80020A36FD4F86CB0D4F870C0C6
:100B4000676F326094F84020209385E803008DF8A9
:100B50004820CDF874B0CDF878C01F97E26FD4F874
:100B600080302192229304F1880224A904F1A00389
:100B7000F2E802679A42E1E80267F9D12AAA04F191
:100B8000B805F3E80201AB42E2E80201F9D11949E4
:100B90001C4B1D4A1D486944CA5002A901AAFFF70F
:100BA00003FE01A8FFF7A2FC02A8FFF7D9FD114A36
:100BB000174B6A44404642F803A0FFF797FC0D4AE2
:100BC000084B6A44204642F80390FFF7C9FD0DF533
:100BD0007E0D0DF5064D1DB0BDE8F08F20437F0062
:100BE0003807FF1FB0BC80FF4C427F009013FF1FEF
:100BF000246E00007086FE0050427F009C71000051
:100C0000E06D0000947901FF646C0000D012FF1FBA
:100C1000507A01FFFC6D0000206E0000987901FF02
:100C200030B5844C237889B0052B56D8DFE803F023
:100C3000BE8B59190B0312217F4803F0ABFC7F4890
:100C400002F02AF9FEE717217D4803F0A3FC7B4858
:100C500002F022F97B48FFF713FC0523237009B04B
:100C600030BD2621784803F095FC744802F014F951
:100C70003A21764803F08EFC704802F00DF903F03B
:100C80005FFC0028FBD0782268466C4902F034F9FA
:100C9000632104A802F0A0F904A9684602F00EFA44
:100CA000054604A802F044F9684602F041F9002D17
:100CB000D5D0032366482370FFF76EFD68B96448FA
:100CC000FFF7CCFD002800F0A6805E48FFF7D6FBBA
:100CD0005F48FFF761FD0028FAD00423237009B0B4
:100CE00030BD17215B4803F055FC544802F0D4F89E
:100CF0007221594803F04EFC504802F0CDF803F041
:100D00001FFC0028FBD0782268464C4902F0F4F81A
:100D1000632104A802F060F904A9684602F0CEF944
:100D2000054604A802F004F9684602F001F9002D16
:100D300095D00325464825703E4CFFF72BFD002833
:100D400066D109B030BD1621444803F023FC3B486E
:100D500002F0A2F85521424803F01CFC374802F08B
:100D60009BF803F0EDFB0028FBD07822684633495E
:100D700002F0C2F8632104A802F02EF904A9684623
:100D800002F09CF9054604A802F0D2F8684602F089
:100D9000CFF8002D3FF463AF02252D482570254C78
:100DA000FFF7F6FC002833D109B030BD0C212D48E7
:100DB00003F0F0FB214802F06FF853212A4803F0BA
:100DC000E9FB1E4802F068F803F0BAFB0028FBD0EC
:100DD00078226846194902F08FF8632104A802F0CE
:100DE000FBF804A9684602F069F9054604A802F078
:100DF0009FF8684602F09CF8002D3FF430AF0125C3
:100E0000134825700B4CFFF7C1FC00283FF427AFB7
:100E1000257009B030BD0E48FFF7C0FC00287FF7F1
:100E20001EAF0B48FFF7BEFC01460648FFF724FB48
:100E300009B030BD9013FF1F10700000C008FF1FE5
:100E4000F86F00009413FF1F946F0000BC6F000048
:100E5000D012FF1F086F0000206F0000986E000086
:100E6000B06E0000346E0000446E000070B50A4E93
:100E70000A4D0B4C3046FFF775FC2A4609493046AF
:100E800004F0CEF82046FFF7F1FA2A46204606493C
:100E9000BDE8704004F0C4B8D012FF1F3007FF1F38
:100EA0009413FF1F790700007504000010B4047F3D
:100EB0004160022CC26003D05DF8044B01F000BF1A
:100EC00083685DF8044B1847F0B4464B464A986B6C
:100ED0005C6B01791170454922790A701A6B0079AF
:100EE0000870002A46D05968C9688A423ED82168ED
:100EF000CC8B240402F1FF3065D4C0F30E00C8830C
:100F0000C88B80B2C882996B0968C88B000452D420
:100F1000C2F30E00C883C88B002480B212F1FF32E6
:100F2000C88218BF01221C63596B2E4809680D68DE
:100F300000F12C04A54236D00068C46814F0804F3C
:100F40000C680D6815BF248824780235013544F0FB
:100F500000440D604463996B254B09791970214950
:100F600012B14A6B12791A70F0BC7047521A1A63A8
:100F70000122D9E7D86B196805681E4C0A63CC6258
:100F8000CC682D681C4E24F080440327B542CC6009
:100F900083F82D701FD1037F4260022BC2601ED0E8
:100FA000F0BC01F08DBE016890F82C00CC6840F0D8
:100FB00000404863CFE7CC8BC2F3080004F47E44C2
:100FC0002043C883A7E7CC8BC0F3080004F47E4419
:100FD0002043C88394E72B461146F0BC184783682A
:100FE000F0BC18473807FF1F1F8000401C800040DE
:100FF0001B80004000000FFFAD0E000090E80C00C9
:10100000F0B41C6859682568164F174E29432160B3
:10101000164D17491760D66015611160417A154A5F
:101020005C180C3194F82C4053F8215002EBC401A9
:1010300049680D60017A5C1803EB8101247ECD695B
:1010400002EBC40149680D60817A581803EB8103F3
:1010500090F84000596C02EBC002F0BC5368196074
:10106000704700BF01401F000110003801100078D8
:1010700000001F80B47100000020704790F83920F4
:1010800090F83800101A704790F8383090F83920EE
:101090009A4205D95A1C034480F83820187E7047BC
:1010A0004FF0FF30704700BF90F8383090F839208B
:1010B0009A4286BF1B18187E4FF0FF30704700BF62
:1010C000704700BF38B50546B0F85E0090B195F89E
:1010D0005D301446C3F1210294420CD805F13B0067
:1010E0001844224602F000F895F85D30234485F854
:1010F0005D30204638BD012014462871EEE700BF60
:10110000B0F85E306BB190F85D30202B07D8C21874
:10111000013380F85D30012082F83B1070470123D5
:1011200003710020704700BF0023426980F8383007
:1011300080F8393080F85C3080F85D3080F85E30BF
:1011400080F85F3006CA30B40D68046943662A43EC
:1011500083660A60A370426990F86130164914688A
:1011600013441D7A5B7B01EBC5051B026D6803F41C
:10117000E06343F064032B6090F8623013449D7C7D
:10118000DB7D01EBC5011B02496803F4E06343F01A
:1011900064030B6021685368194205D003692C224F
:1011A0005A70036904229A71036920225A710369F3
:1011B00080229A7030BC7047B471000038B5026963
:1011C000D478E4B2E106054624D51023D370630633
:1011D0001FD504F0040404F0FF03002C5AD0424948
:1011E0006A6E00230B7085F85D30002A66D0904748
:1011F00095F85D30002B61D02B69D0229A702B6955
:1012000095F83B201A712B69012285F85C20022297
:10121000DA7038BD04F0400303F0FF00002BD8D192
:101220009379DBB203F0600160294ED0937803F02C
:10123000100303F0FF01B3B114F0010437D195F8A6
:101240005C3095F85D1099424BD9591C2B4485F8B8
:101250005C1093F83B3013712B69D0229A702B6984
:101260000222DA70D5E785F86010937943F0200305
:1012700093712B6995F839101A791F29D2B2C6D803
:10128000194800780028C2D06818013185F8391053
:101290000276BCE72A6985F83930C02393702B6940
:1012A000114A1979012111700222DA70B1E7C023C5
:1012B00093702B691A790222DA70AAE701220023BF
:1012C00085F85D2085F83B3096E703F0DF039371E6
:1012D000AB6E23B185F8380095F8390098472A6934
:1012E000A4E71471B8E700BF9813FF1F2DE9F0477A
:1012F000374FDFF8E0903B68026982B00646009302
:10130000DDF8008000214FF49675D3789B065BD5FD
:101310003B680193019BC8EB03030F2BF5D949B13F
:10132000102BF2D000209070336980229A7002B0A6
:10133000BDE8F087726996F8613013440521187A88
:1013400002F096F8726996F861301344012193F81F
:1013500012A0504602F08CF809240021504602F0F9
:1013600073F82B46013BFDD10121504602F06CF889
:101370002B46013BFDD1013CEFD1706996F861101D
:1013800001444FF416720C7A4B7B09EBC4011B022B
:10139000496803F4E06343F064030B6096F862303D
:1013A0000344997CDB7D09EBC1011B02496803F40E
:1013B000E06343F064030B60013AFDD13269D378F6
:1013C0009B064FF00101A3D4012002B0BDE8F087D5
:1013D000C013FF1FB4710000F0B503691222DA7068
:1013E0000269937803F0200385B004460D46002B74
:1013F0005ED0B42393703C4922690B680093009E31
:1014000005E00B680193019B9B1B042B42D8D3780A
:1014100003F0200303F0FF00002BF2D094F85D30BE
:10142000002B31D04FF0000E4FF0020C04EB0E03F6
:1014300093F83B3013710B680393039F206907E017
:101440009B060DD50B680293029BDB1B052B28D84E
:10145000C378DBB203F0020202F0FF06002AEFD0ED
:1014600080F803C02669F378DBB2DF0632462DD45C
:101470009F062BD5DB0731D40EF1010E94F85D30B9
:101480005FFA8EFE7345D1D800201DBB002384F87F
:101490005E3004E09070236980229A70042005B0C9
:1014A000F0BD86702369802204209A7005B0F0BDDB
:1014B00003F0FF06FFF71AFF10B9042005B0F0BDD6
:1014C000236984F85F60B0229A7094E78023B37038
:1014D0000420DAE726698023B370D7E7BEF1000F56
:1014E0000CBF02200320F6E7C013FF1F2DE9F041D7
:1014F00006690025122780F8385080F83950F770B7
:10150000D0F810C09CF802E00EF0200E88B004461F
:10151000884615461E46BEF1000F49D0B4238CF80C
:1015200002307A4B21691A680092DDF800E006E08B
:101530001A6801920198CEEB0000042830D8C878D0
:1015400000F0200000F0FF070028F1D04FEA480229
:1015500042F00102D2B20A711A680292DDF808E084
:10156000206906E01A6803920399CEEB0101052970
:101570002AD8C17801F0020101F0FF070029F1D05B
:101580004FF0020C80F803C02269D17811F01107E6
:1015900022D12DBB002E0CBFA0238023937003E02B
:1015A0008F70236980229A70384608B0BDE8F081B8
:1015B0000EF0FF07FFF79AFE0028F5D0236984F8A4
:1015C0005F70B0229A70ACE787702369802238463A
:1015D0009A7008B0BDE8F081802393700027E3E79C
:1015E000012D78D0A021917021690A79BE46674605
:1015F0004FF0A80C1A680492049805E01A68059246
:10160000059A121A052A4DD8CA7802F0020202F091
:10161000FF08002AF2D0CF702169CA78D2B212F046
:10162000100F08465DD192065BD5013DEDB2012D4C
:101630004CD0BEF11F0F3ED90A79012DDAD11A68BC
:101640000692069D05E01A680792079A521B052A22
:1016500056D8C27802F0020202F0FF01002AF2D04E
:101660000223C3702269D378DBB2D9063BD49B0630
:1016700037D5B023BEF11F0F937043D8226904EB16
:101680000E0312791A760EF1010E5FFA8EFE00BF7C
:1016900000BF00BF16B1236980229A7084F839E038
:1016A000774681E781F80280236980229A70774625
:1016B00084F839E078E704EB0E0291F8048082F8B0
:1016C00018800EF1010E5FFA8EFEB6E781F802C0B7
:1016D00021690846ADE7A82191702069BE460279CC
:1016E000ADE7774660E710214FF49673D170013B68
:1016F000FDD12269937803F0F7037746937053E79F
:101700008170D1E723691B79C1E700BFC013FF1FB8
:101710000148FFF753BD00BFE407FF1F0148FFF773
:101720004DBD00BF5008FF1F0148FFF747BD00BF78
:101730007807FF1F01F0A2BEF8B5114E34684000D3
:1017400084F83B002568012084F85E0084F85D0081
:101750001F4620462B68144698475FB17D1EADB2E8
:1017600001352544306814F8011B03681B6898474D
:10177000AC42F7D130680121FFF72EFE0020F8BD02
:101780009C13FF1F2DE9F0471E4E96F900305A1C9E
:101790002AD0DFF878A0DFF8789047B20725002438
:1017A0004FF0010801E096F90030D8B2002101F0B5
:1017B0004BFE08FA05F13940C9B29AF8000001F071
:1017C00043FE0121307801F03FFE99F8000001F05E
:1017D00041FE6400E4B2013D08B144F001046B1C19
:1017E000E1D12046BDE8F087074B1A684FF000436F
:1017F000D3625063D36A002BFCDA906BC0B2BDE8B1
:10180000F08700BF9913FF1F3807FF1FA013FF1FAA
:101810009A13FF1F0D4AD37A1946B3B1D80703D5DF
:101820000B49D069086019469B0703D5094B106A1C
:10183000D17A1860480703D5074B506AD17A1860EF
:101840000B0702D5054B926A1A6070473807FF1FD5
:1018500000E100E004E100E008E100E00CE100E06C
:101860002DE9F843244D2C68460084F83B608046FF
:101870000126206884F85E6084F85D60D0F80090EE
:1018800020461F461446C84731462868FFF7A4FD86
:1018900033464146FAB22868FFF728FE80B28742F5
:1018A00002D03046BDE8F8837E1EB6B2FFB10136E5
:1018B000124F264410E090F8383090F839209A42C0
:1018C00003F1010E00EB030114D980F838E0087E23
:1018D00004F8010BA6420AD0286803685B69BB4282
:1018E000E9D09847C0B204F8010BA642F4D1002019
:1018F000BDE8F883FF20EBE79C13FF1F8910000071
:101900002DE9F843314E96F90050013507468946D6
:101910001446984621D00021384601F095FD08F183
:10192000FF354846FFF72EFFADB2B8F1000F07D0E4
:101930000135254414F8010BFFF724FFA542F9D126
:101940003846012101F080FD96F90030013301D1C4
:10195000FFF760FF0020BDE8F8831D4BDA7A02B381
:1019600072B6D97ACD070A4606D51A48DA680568EC
:101970002A40DA6102600A46880706D516481969C6
:101980000568DA7A294019620160510706D51348C3
:1019900059690568DA7A29405962016012070DD445
:1019A00062B61B680E4AD9689142B4D00D491960DD
:1019B0000D480E49DA6018611960ACE70C499A6964
:1019C000086802409A620A60EAE700BF9913FF1FA5
:1019D0003807FF1F80E100E084E100E088E100E0DB
:1019E0000540003801403F000540007800003F807E
:1019F0008CE100E02DE9F843324E96F900500135B4
:101A0000074689461446984623D00021384601F0FF
:101A10001BFD08F1FF3549F08000FFF7B3FEADB2C2
:101A2000B8F1000F08D0013525440020FFF7AAFEC9
:101A300004F8010BA542F8D13846012101F004FD5C
:101A400096F90030013301D1FFF7E4FE0020BDE834
:101A5000F8831D4BDA7A02B372B6D97ACD070A46FB
:101A600006D51A48DA6805682A40DA6102600A4633
:101A7000880706D5164819690568DA7A2940196277
:101A80000160510706D5134859690568DA7A29407B
:101A90005962016012070DD462B61B680E4AD968FC
:101AA0009142B2D00D4919600D480E49DA601861B3
:101AB0001960AAE70C499A69086802409A620A60AC
:101AC000EAE700BF9913FF1F3807FF1F80E100E01E
:101AD00084E100E088E100E00540003801403F007B
:101AE0000540007800003F808CE100E070B4074EB4
:101AF000074D084C01770022FF21317029702170B9
:101B0000026282744274027470BC7047A013FF1F9B
:101B10009A13FF1F9913FF1F38B5044690F91C0054
:101B20002175451C3BD0C0B2012101F08DFC207F06
:101B3000012101F09DFC244B93F90000431C3ED091
:101B4000C0B2012101F094FC204B0121187801F072
:101B50008FFC1F4B0021187801F08AFC217F1D4A61
:101B60001D4B84F82910002184F82A10E2622363B7
:101B70001A4B636304F1280000F04CFC08B100200C
:101B800038BD012384F8D40084F8D30084F8D5004C
:101B900084F8D0306074A0742074184638BD104B9F
:101BA00010460D461A60FFF7BFFA01210D4A0E4B91
:101BB00084F8295084F82A10E2622363D8E70B489E
:101BC000FFF71CFACAE700BF9913FF1FA013FF1FFE
:101BD0009A13FF1FF51900000119000035170000C6
:101BE0009C13FF1F61180000391700003807FF1F02
:101BF000F0B5417C827C044600294FF0010380F857
:101C0000D23085B015BF262006202421042184F877
:101C1000D1300AB141F01200237C0BB140F04000FA
:101C2000E37C0BB140F0800004F12805294600F068
:101C300057FA10B1002005B0F0BD012384F8D03070
:101C4000284600F031FD0028F4D12A4669460320D9
:101C500000F0AAFDDDE90067DDE90223B0FA80F0BB
:101C60004009C4E90067C4E9022305B0F0BD00BF24
:101C700010B50446FFF7BCFFD4E9020103F0C0FD34
:101C800000EE100A10BD00BF2DE9F041054694B0EA
:101C90004822374902A801F027FA95F8A90098B31D
:101CA00095F8AB40002C5DD0324F00263B463246C3
:101CB0003046394603F0C0F9631E13F0FF040646B0
:101CC0000F46F3D100222C4B03F068FB2B4B002274
:101CD00003F0B2F903F074FD294B80B2A3FB003886
:101CE00095F8AA304FEA98189BB995F8AE3014AA27
:101CF00002EB830353F8483C434594BF6FF0020066
:101D0000002014B0BDE8F081804695F8AA30002B81
:101D1000EBD095F8AC4044B3164F00263B46324614
:101D20003046394603F088F9631E13F0FF04064677
:101D30000F46F3D103F064FD9FED127ADFED127AC6
:101D40000F4A06EE900AE6EE877AFCEEE77ACDEDD2
:101D5000017ABDF80430A2FB03239B0998441FFAC3
:101D600088F8C2E74FF00208CFE70223F6E700BF8A
:101D70003C7100000000F03F00409F400080784030
:101D8000D34D62100000FA4400809C432DE9F04FCF
:101D900089B0002900F0DC80002A00F0D980002BF7
:101DA00000F0D68010F0030F8A461C461546834685
:101DB00040F0AA801BF0010B00F0A280D4E91C893E
:101DC00042464B464046494603F0E8FA02460B4677
:101DD000CDE900014046494603F0E0FACDE90201B1
:101DE000DAF8000003F064FA02460B468B4682469E
:101DF00003F0D4FAD4E90823CDE90401404649466A
:101E000003F0CCFAD4E9062303F016F9D4E90A2347
:101E100006460F46DDE9000103F0C0FA02460B4614
:101E20003046394603F008F9D4E90C2306460F463C
:101E3000DDE9020103F0B2FA02460B4630463946AC
:101E400003F0FAF85B46524603F0A8FAD4E91023EF
:101E5000CDE906014046494603F0A0FAD4E90E2335
:101E600003F0EAF8D4E9122306460F46DDE9000143
:101E700003F094FA02460B463046394603F0DCF88C
:101E8000D4E9142306460F46DDE9020103F086FA81
:101E900002460B463046394603F0CEF802460B4662
:101EA000DDE9060103F0C8F8D4E9182306460F4619
:101EB0004046494603F072FAD4E9162303F0BCF811
:101EC000DDE9042303F06AFADDE90423804689464C
:101ED0005046594603F062FAD4E91A2303F05EFA39
:101EE00002460B464046494603F0A6F802460B461A
:101EF0003046394603F0A0F8C5E902014FF0000B67
:101F0000584609B0BDE8F08F486803F0D1F9D4E92C
:101F1000002303F08FF802460B4606460F4603F0F7
:101F20003DFAD4E9042303F039FAD4E902238046C8
:101F300089463046394603F031FA02460B464046A0
:101F4000494603F079F8C4E91C01C5E9000131E70D
:101F50004FF0FF3BD4E700BF2DE9F84393F803E0CF
:101F6000D3F8049096440EF1070424F0070400AF60
:101F7000ADEB040DB9F1000F26D09C6824B3DC68EA
:101F800014B31D469B78012B0C461646014620D003
:101F90001FFA8EF341F080016A466878C84766B13F
:101FA000611EE8460024EB7808EB04020134D35CA0
:101FB00001F8013FA3B2B342F5D3002818BF6FF078
:101FC0000600BD46BDE8F8834FF0FF30BD46BDE8D2
:101FD000F883334622466878C847EEE72DE9F84390
:101FE0005400073424F0070400AFADEB040D002BC0
:101FF00049D05C68002C46D09C68002C43D0DD683A
:10200000002D40D000283ED000293CD0002A3FD0EF
:102010009D780E788DF80060EE461DB3012AA0462B
:102020002FD9A2F102095FFA89F909F10109814466
:102030000546744615F801CF11F8016F84F801C008
:102040004D4504F8026FF5D151001C4672460B460F
:1020500001786078C047002818BF6FF00600BD46C1
:10206000BDE8F883561E50FA86F6441E14F8015F48
:1020700005F07F05B4422570F8D1012AD3F8088015
:10208000CFD80121E1E74FF0FF30BD46BDE8F8832E
:102090006FF00500E3E700BF70B5054682B01B2670
:1020A00003460DF107013046012295F8A8408DF84E
:1020B0000660FFF751FF88B99DF80730240104F04E
:1020C000300223F0300414432B460DF107010122A6
:1020D0000DF106008DF80740FFF780FF02B070BDDC
:1020E000002900F081804B68002B7DD08B68002B8D
:1020F0007AD0CB68002B77D02DE9F04110F0060F95
:1021000082B00D4604463AD110F0F00F40F0BC808A
:1021100010F4E16F73D110F4C05062D01A2701AEF1
:10212000384631462B4601228DF8007095F8B38071
:1021300095F8B470FFF710FF002852D120050BD599
:102140009DF804304FEA480808F0020823F0020323
:1021500043EA08038DF80430E10409D59DF8043002
:10216000BF0007F0040723F004033B438DF804305D
:102170002B46314601226846FFF730FF31E01B272E
:1021800001AE384631462B4601228DF80070FFF72C
:10219000E3FE60BBA7070AD59DF8042095F8A93097
:1021A00022F0010203F0010313438DF804306007AD
:1021B0000BD595F8AA209DF80430520002F00202D7
:1021C00023F0020313438DF8043068462B460122A6
:1021D0003146FFF703FF14F0F00F6F460AD00028D6
:1021E00054D002B0BDE8F0814FF0FF30704714F0DA
:1021F000F00FF6D114F4E16F3FD00028F1D1192689
:10220000304669462B4601226F468DF80460FFF781
:10221000A3FE90BBE60595F8B01095F8B12095F8AF
:10222000B2300AD59DF8006095F8AF0026F001069F
:1022300000F0010030438DF80000A00509D59DF89D
:102240000000490001F0020120F0020001438DF876
:102250000010610509D59DF80010920002F00402FB
:1022600021F004010A438DF80020260778D439466E
:102270002B46012201A8FFF7B1FE14F4C05FB0D0D5
:1022800000283FF44BAFACE701AE6F464FF0000EB5
:102290002B46042231461C20ADF800E087F802E00E
:1022A000FFF75AFE0028A5D114F030081FD0E2062F
:1022B00095F8AC300AD59DF8041095F8AB2021F0C4
:1022C000070102F007020A438DF80420A10609D590
:1022D0009DF80420DB0003F0380322F0380213439A
:1022E0008DF804301C238DF800304FF001082206D1
:1022F00014D595F8AE30112B44D85AB29DF805305C
:1023000002A9414423F01F03134308F101081D20D3
:1023100001F8043C5FFA88F801F8080C630614D54C
:1023200095F8AD209DF80730520002A9414402F013
:102330000E0223F00E03134308F101081F2001F8D9
:10234000043C5FFA88F801F8080C95F8A830032BD4
:1023500011D04246314638462B46FFF73FFE49E74B
:102360009DF800209B0103F0400322F0400213433C
:102370008DF800307BE72846FFF786FC00287FF4C5
:1023800039AFE6E7112385F8AE301A46B6E700BF4D
:1023900010B582B07E22B6238DF804208DF805306A
:1023A000E0B14368D3B18368C3B1C368B3B1034636
:1023B000044601220DF106010320FFF7CDFD9DF833
:1023C0000630DB060ED568B9234601220DF1050162
:1023D00001A8FFF703FE40B102B010BD4FF0FF307F
:1023E00002B010BD6FF00300F6E7E36802209847E3
:1023F000234601220DF107010220FFF7ADFD9DF8F4
:1024000007309A07EED4002818BF6FF0030002B01F
:1024100010BD00BF30B589B000238DF8073010B370
:10242000426802B38268F2B1C268E2B18278012ADE
:102430001ED00123C3700346044601220DF107019B
:102440000020FFF789FD054650B99DF80730502B55
:1024500040F0F88023702046FFF79AFF054648B108
:10246000284609B030BD4FF0FF35284609B030BDD1
:10247000C370E0E702A92346152231200295039597
:102480000495059506958DF81C50FFF765FD9DF8A0
:10249000083005469DF8090043EA0020A4F88800AA
:1024A00002F006FF0022694B02F078FF9DF80B2036
:1024B0009DF80A3043EA0223C4E90401A4F88A30F3
:1024C000184602F0F5FE0022614B02F067FF9DF90D
:1024D0000C3084F88C30C4E90601184602F0F8FE8E
:1024E00000225C4B02F05AFF9DF80E209DF80D3043
:1024F00043EA02231BB2C4E90801A4F88E30A3F515
:10250000804002F0E5FE0022534B02F047FF9DF8A9
:1025100010209DF80F3043EA02231BB2C4E90A01E0
:10252000A4F89030A3F5804002F0D2FE00224B4B7D
:1025300002F034FF9DF9113084F89230C4E90C01A7
:10254000184602F0C5FE0022454B02F027FF9DF918
:10255000123084F89330C4E90E01184602F0B8FE38
:102560000022404B02F01AFF9DF814209DF8133012
:1025700043EA0223C4E91001A4F89430184602F09B
:1025800097FE0022384B02F009FF9DF816209DF8B7
:10259000153043EA0223C4E912011846A4F8963024
:1025A00002F086FE0022314B02F0F8FE9DF9173052
:1025B00084F89830C4E91401184602F089FE00221C
:1025C0002B4B02F0EBFE9DF9183084F89930C4E9EA
:1025D0001601184602F07CFE00224FF07C5302F0F8
:1025E000DDFE9DF81A209DF8193043EA02231BB244
:1025F000C4E91801A4F89A30184602F069FE0022D6
:10260000144B02F0CBFE9DF91B3084F89C30C4E9DA
:102610001A01184602F05CFE00220E4B02F0BEFECC
:102620009DF91C3084F89D30C4E91C01184602F065
:102630004FFE00220F4B02F0B1FEC4E91E012846F6
:1026400009B030BD6FF001050AE700BF000070401F
:102650000000103E0000F03C0000B03E0000203EB4
:102660000000F03D0000A03D000020400000903F31
:102670000000703F0000E03B91B14B6883B18B6874
:1026800073B1CB6863B110B504460B460122014615
:102690001B20FFF761FC2378C3F30113237010BDE7
:1026A0004FF0FF30704700BF70B5436882B0BBB1D8
:1026B0008368ABB1C3689BB1044601460DF10200CB
:1026C00094F8A860FFF7D8FF9DF80230054663B97B
:1026D0001DB9032E2BD0012E24D0284602B070BD88
:1026E0004FF0FF35284602B070BD1B25284601A9D2
:1026F000234601228DF80350FFF72EFC054668B9EA
:102700009DF8045001A925F03005234601220DF162
:1027100003008DF80450FFF761FC0546E3680520CF
:102720009847D5E72046FFF7B7FC0546D5E701A94E
:10273000234604221C20FFF70FFC9DF804309DF86F
:1027400005109DF8072003F0070601F01F01C3F3F1
:10275000C203C2F34202054684F8AB6084F8AC3091
:1027600084F8AE1084F8AD200028B6D12046FFF7DB
:102770008BFA05460028B0D12046FFF78DFC0546B0
:102780000028AAD1234601A901220220FFF7E4FB79
:1027900005460028A1D19DF8043013F0040F18BF9E
:1027A0006FF0040599E700BF2DE9F04184B00023E4
:1027B000ADF8043000930293039392B3536883B34C
:1027C000936873B3D36863B359B314460D46064692
:1027D0001346694606220420FFF7BEFBF0B99DF8B8
:1027E00002209DF805309DF801E09DF804709DF8E9
:1027F00000C09DF8038012041B0442EA0E2E43EA37
:10280000072747EA080704F110032A464EEA0C049A
:1028100002A9304602940397FFF7B8FA04B0BDE866
:10282000F0814FF0FF3004B0BDE8F081704700BF89
:1028300038B528220C4605460846002103F090FBD7
:102840000B220949204604F029F80022E272E868C8
:1028500006492061002301250320E5606262606172
:102860002162A361E36138BD8C7100000AD7233C6B
:1028700010B51421044600F04BFD204610BD00BFEA
:1028800030B4034D0560C1604271836030BC704755
:102890009C71000070B504464079A3680125A840EA
:1028A00083F85E5083F85D5083F83B00A0680368AE
:1028B0001B6816469847A068036831461B6898470E
:1028C0002946A068FEF788FD284670BDF8B50025AA
:1028D0002A460F46067C05743D210446FFF7DAFFC1
:1028E0001E2000F0CBFD192000F0C8FD2A4620462E
:1028F0000721FFF7CFFFAFB93A463F212046FFF748
:10290000C9FF0A2000F0BAFD3246267420463D2158
:10291000FFF7C0FF1E2000F0B1FD1420BDE8F84015
:1029200000F0ACBD80223F212046FFF7B3FFE8E76F
:10293000002238B53D21057C02740446FFF7AAFF4A
:102940001E2000F09BFD192000F098FD2046022279
:102950003E21FFF79FFF2A46257420463D21FFF7C1
:1029600099FF1E2000F08AFD1420BDE8384000F0D9
:1029700085BD00BF70B50025067C05742A463D2143
:102980000446FFF787FF1E2000F078FD192000F0B5
:1029900075FD2A4620463E21FFF77CFF324626740D
:1029A00020463D21FFF776FF1E2000F067FD142032
:1029B000BDE8704000F062BD38B5427983680125FA
:1029C000AA4083F83B2083F85E5083F85D500446AC
:1029D000806803681B6898472946A068FEF7FCFCDE
:1029E0002B462A466179A068FEF780FDA0680B4A55
:1029F00003685B6993420BD190F8383090F8392026
:102A00009A4208D95A19034480F83820187E38BDF4
:102A10009847C0B238BDFF2038BD00BF8910000004
:102A200038B5044680680D46FEF77EFB204600213F
:102A3000FFF7C2FFA0280BD04FF47A7000F01EFD04
:102A400000212046FFF7B8FFA02801D0002038BDA4
:102A5000002222743D212046FFF71CFF1E2000F0BB
:102A60000DFD20223F212046FFF714FF1E2000F01D
:102A700005FD01E000F002FD00212046FFF79CFF6C
:102A8000A0284FF00A00F5D1322000F0F7FC002218
:102A90003E212046FFF7FEFE0A2000F0EFFC002258
:102AA00007212046FFF7F6FE00223F212046FFF7D0
:102AB000F1FE0A2000F0E2FC2A463D212574204662
:102AC000FFF7E8FE1E2000F0D9FC142000F0D6FC31
:102AD000012038BD2DE9F041447905460127806881
:102AE000BC4080F83B4080F85E7080F85D70A8685C
:102AF0000468D4F800801E461446C0473946A868CA
:102B0000FEF76AFC3B4632466979A868FEF7EEFCA0
:102B10000EB3013E54FA86F6114F013C10E090F8D6
:102B2000383090F839209A4203F1010E00EB03018E
:102B300014D980F838E0087E04F8010FB4420AD0B6
:102B4000A86803685B69BB42E9D09847C0B204F843
:102B5000010FB442F4D10120BDE8F081FF20EBE782
:102B600089100000F0B5044683B0002516460846DB
:102B7000256031466560A560E560256165616A464E
:102B800006230095ADF80450FFF7A4FF9DF80370ED
:102B90009DF805509DF801009DF800109DF8022059
:102BA0009DF8043041EA002042EA072243EA052367
:102BB000083E00B217B21DB2262E2FD8DFE806F06D
:102BC000142E2E2E2E2E312E2E2E2E2E312E2E2E39
:102BD0002E2E312E2E2E2E2E2E2E2E2E2E2E2E2E12
:102BE000142E2E2E2E2E140002F072FB00221B4BF0
:102BF00002F0FEFCC4E90001384602F069FB002245
:102C0000164B02F0F5FCC4E90201284602F060FB15
:102C10000022124B02F0ECFCC4E90401204603B090
:102C2000F0BD02F055FB00220D4B02F0B7FBC4E9EA
:102C30000001384602F04CFB0022094B02F0AEFBCB
:102C4000C4E90201284602F043FB0022044B02F0D3
:102C5000A5FBC4E90401204603B0F0BD00005940C3
:102C60000000B03F70B5242688B00C4605463246B9
:102C70000846002103F074F9104BE9681B680193C2
:102C8000019B236103226160A26029461A2202A8E7
:102C90002660FFF767FFDDE9020102F0B1FD606128
:102CA000DDE9040102F0ACFDA061DDE9060102F0FE
:102CB000A7FDE061012008B070BD00BFC013FF1F79
:102CC00010B4EFF3108272B6437F33B9017F01294C
:102CD00008D0032910D00123437702B962B65DF80A
:102CE000044B7047114C2168A1B1114943610B6835
:102CF000836108605861EEE70E4C216881B10E498E
:102D000043610B688361086058610C4B4FF0805140
:102D10001960E0E7064B4161816120601860DAE7E5
:102D2000054B4161816120601860EEE7B413FF1F1D
:102D3000B013FF1FA413FF1FA813FF1F04ED00E033
:102D400070B5EFF3108272B60C4C206880B10C4E57
:102D500000254369236073B19D6102B962B645776E
:102D600083689847EFF3108272B620680028F0D18C
:102D700002B962B670BD3360EFE700BFA413FF1F56
:102D8000A813FF1FFFF7DCBF184A30B41468002CEB
:102D900027D0036821688B420ED2CB1A00218460B1
:102DA000C1602360E06010600223037530BC70478F
:102DB00011688B42144608D3A2685B1A0360002A8C
:102DC000F6D18260C460A060EEE7D268C260846021
:102DD000E060C568CB1A0222A8602360027530BC8F
:102DE00070478460C4601060DEE700BFAC13FF1F53
:102DF000F8B5224E34682CB32368002B3AD1204F0B
:102E00001D4604E03468ECB12368002B32D1A3687E
:102E100003B1DD6020693360036825751B68BB4220
:102E200021D1037F4560022BC46020D0FFF748FF0B
:102E30006368002BE6D023602046FFF7A5FF3468C7
:102E4000002CE1D1EFF3108372B60E4A0021106816
:102E5000116003B962B628B18468FFF795FF204678
:102E60000028F9D1F8BD224600219847E0E78368A1
:102E70009847DDE7013B2360E4E700BFAC13FF1F89
:102E8000AD0E0000BC13FF1F024A1368013313602C
:102E9000FFF7AEBFC013FF1F00B5064A03681288D4
:102EA0005B6883B001A9ADF804200222984703B003
:102EB0005DF804FBB071000070B50E4D82B02B6858
:102EC0000093009E044608E001F068FC2B68019323
:102ED000019BA2689B1B934207D2236820465B6933
:102EE00098470028F0DB02B070BD4FF0FF3002B011
:102EF00070BD00BFC013FF1FF8B50F461646002176
:102F0000054600F055F88EB1002404E00ED000F024
:102F1000AFF8A6420AD03846FFF7CEFF011E04F1F3
:102F20000104C9B22846F1DA01233B732846F8BDF3
:102F300010B50446006802F0EFFC204610BD00BF4B
:102F400038B543688B4201D3012038BD0D46044695
:102F50000131006803F056F80028F6D0A36884E831
:102F60002100002BF0D10370EEE700BFF8B5044656
:102F7000154632B9036803B11A700023A3602046D6
:102F8000F8BD0E461146FFF7DBFF074648B920683B
:102F900010B102F0C1FC276000236360A3602046EB
:102FA000F8BDA5603146206803F0A8FBE7E700BF45
:102FB00038B500230446036043608360037341B166
:102FC00008460D4603F0FCFB294602462046FFF763
:102FD000CDFF204638BD00BF10B582B000238DF86C
:102FE00004100360436083600373012201A9044657
:102FF0008DF80530FFF7BAFF204602B010BD00BFC4
:103000002DE9F84303680F46BB4204468168154624
:103010000AD85A18974207D2C3EB07094FF00108A4
:1030200035B92046BDE8F8834FF00008002DF8D0F0
:103030004E1931462046FFF783FF0028F1D0B8F142
:10304000000F0ED02368A0682A4603EB090118443C
:1030500000F04AF8236800229A55A6602046BDE891
:10306000F8832068A3683946184403F047FBF4E767
:1030700010B582B000238DF80410012201A9044686
:103080008DF80530FFF7BCFF204602B010BD00BF31
:10309000036853B1096811B1184603F0C5B98068D7
:1030A00010B118787047184670470B68002BFAD09B
:1030B00088680028F8D018784042704708B58268C0
:1030C0008B689A4201D0002008BDFFF7E1FFB0FAFB
:1030D00080F0400908BD00BF08B5FDF7B3FCFDF75F
:1030E0009FFD01F05BFBFAE7844641EA000313F021
:1030F00003036DD1403A41D351F8043B40F8043BFF
:1031000051F8043B40F8043B51F8043B40F8043BC1
:1031100051F8043B40F8043B51F8043B40F8043BB1
:1031200051F8043B40F8043B51F8043B40F8043BA1
:1031300051F8043B40F8043B51F8043B40F8043B91
:1031400051F8043B40F8043B51F8043B40F8043B81
:1031500051F8043B40F8043B51F8043B40F8043B71
:1031600051F8043B40F8043B51F8043B40F8043B61
:1031700051F8043B40F8043B403ABDD2303211D301
:1031800051F8043B40F8043B51F8043B40F8043B41
:1031900051F8043B40F8043B51F8043B40F8043B31
:1031A000103AEDD20C3205D351F8043B40F8043B01
:1031B000043AF9D2043208D0D2071CBF11F8013BFF
:1031C00000F8013B01D30B8803806046704700BFC5
:1031D000082A13D38B078DD010F003038AD0C3F1D4
:1031E0000403D21ADB071CBF11F8013B00F8013BB6
:1031F00080D331F8023B20F8023B7BE7043AD9D375
:10320000013A11F8013B00F8013BF9D20B78037049
:103210004B7843708B7883706046704708B5104CCC
:1032200008E0236859050DD423681A050FD42368D4
:10323000DB0411D423685803F3D500F001FB2368A5
:103240005905F1D501F098FB23681A05EFD501F077
:1032500029FC2368DB04EDD501F0BAFCEAE700BFE6
:103260003480044008B5FFF7D9FF00BF014B10229E
:103270001A80704700200540704700BF094908B513
:103280000B6830B16A461844A2F50052904202D24F
:103290000860184608BD02F009FB0C2303604FF0DC
:1032A000FF3008BDBC08FF1F084A1378802B01D0EF
:1032B000002070470649074B074808600021197035
:1032C0001378802BFCD00120704700BF03E007403B
:1032D0004480044001E0074000002822094A137896
:1032E000012B01D00020704703F1804303F5FC233C
:1032F000602119701378802BFCD1034B034A1A60AC
:103300000120704703E007404480044000000602AB
:1033100002F002BBF0B44D1E2E46002400E0013442
:10332000B0FBF2F302FB1300092800F130078ABF5B
:103330003730F8B2C0B206F8010F1846002BEED1B4
:103340000A1953704CB1107815F8016F28700133C9
:10335000E01A834202F80169F5DB0846F0BC7047C9
:1033600010B4114B53F8302092F8804234B101234D
:1033700079B182F880305DF8044B704703EBC003ED
:103380005B681A6851B922F002021A605DF8044BBA
:10339000704782F800315DF8044B704742F0030239
:1033A0001A605DF8044B7047B47100001C4A02EBD0
:1033B000C00301295B6811D004291BD052F83000EA
:1033C000002280F8802229B1022920D0032922D0AE
:1033D0001A6070474FF480721A60704752F83000DC
:1033E0004FF4A27280F880121A601A6822F020024C
:1033F0001A60704752F830104FF4A272012081F821
:1034000080021A601A6842F020021A60704740F287
:1034100003121A6070474FF481721A60704700BF40
:10342000B471000030B4054B054D064C002210214C
:103430001A602A602060196030BC704714D00340C5
:1034400004D0034000D003403F2801D8FFF788BFD5
:10345000704700BF3F2806D8044B53F8303093F82C
:103460000002C0B270470020704700BFB471000076
:103470003F2801D8FFF79ABF704700BF2DE9F843F6
:10348000054672B6224F234B234A1B683C681268DC
:1034900062B6520102D5322B88BF0134B5B3C3F5F1
:1034A0002F3303F21F331D4EDFF86890DFF868807A
:1034B0009B084FF47A72A6FB031302FB04F404EB9F
:1034C000930472B6D9F800103A68D8F800E062B6F2
:1034D000C1F52F3303F21F339B08A6FB03031EF035
:1034E000806FC4EB93034FF47A7002D0322988BF07
:1034F000013200FB0233B3F57A7F04D3013D05D0DE
:1035000004F57A74DDE701F049F9DAE7BDE8F883FC
:10351000C013FF1F18E000E004ED00E0176CC116B7
:10352000F8B54E4B4E48DFF85CC14E4C4E49DFF8C3
:1035300058E14E4E4E4D4F4F4FF000621A604FF023
:1035400080521A604FF000521A604FF080421A60A9
:103550004FF000421A600022026028234EF6FF70EE
:10356000CCF80000CEF8003023600EF5012E0B6081
:1035700033602B6006F500263B6005F50025A3624D
:1035800007F500278B6204F5012401F5012106F6F9
:10359000E87605F6E87507F57F6710310EF1100E35
:1035A000203433602B60CEF800303B600B6023602A
:1035B000314CBB618B6109212160A7F5002704F51F
:1035C0008054203F08343A602060BB60E36047F8D5
:1035D000041C04F5FD2407F5FE27043704F2FC74EF
:1035E00022603860A360FB6044F8041C083404F6D1
:1035F000FC74C7F8FC2F2060A4F5E124A4F2DC746D
:1036000033602B60C7F8F81F21681C4841F4007133
:10361000216001681A4C0EF57F4E0EF1E80E07F599
:10362000883706F5803605F5803541F00071016078
:10363000CEF8002047F6FF710822396033602B6016
:10364000226001F019F91920FFF718FF00F060FE61
:1036500040F21310BDE8F840FFF710BF04E100E0AE
:1036600004800340148003401C80034024800340F6
:103670002C800340348003400080034004800440D9
:1036800000900C40088003400C800340431E032B35
:1036900014D872B60A4951F8230068B170B4094CC5
:1036A000058834F81320466841F82360521B24F83B
:1036B000132062B670BC704762B670470020704736
:1036C0001C14FF1FF417FF1F013803280BD872B614
:1036D000074B53F8203043B100205B680130002BCA
:1036E000FBD162B67047002070471846F9E700BF6B
:1036F0007014FF1F30B472B62B4A13781D0706D51D
:103700002A4B196A002936D0996A002941D053788A
:103710001C0706D5254B196C00293ED0996C002951
:1037200039D09378190705D5204B196E002936D06A
:10373000996E89B1D3781B0707D51C4BD3F880202D
:103740007AB3D3F8882011213AB162B6184B00221F
:103750001A7030BC00F092BE0D21154C154D227828
:1037600043F8315003EBC1030830013A586022702E
:1037700062B630BC704704220D4C0F4D217843F8DF
:10378000325003EBC20308304A1E5860227062B602
:10379000EFE70521E1E70921DFE70822ECE70C224A
:1037A000EAE71022E8E700BFDC7300000000FF1F1B
:1037B0009914FF1FC800400088004000431E032BDF
:1037C0001DD81B4A400140F0100030B4104472B6BE
:1037D000184CE25C032A1BD8DFE802F0021215172E
:1037E00003220D88E25410F0080F14BFC823882369
:1037F00043EA054308310360416062B630BC70475C
:1038000008300222EDE70522EBE708300422E8E762
:10381000094A52F8230038B1084A52F8230041609F
:1038200042F8231062B6E9E742F82310034AF7E7AB
:103830000000FF1FA814FF1F7014FF1F8014FF1F3C
:103840002DE9F04FDFF80CB3DFF80CA387B044E0AC
:10385000AB4F4FEA930807EBC809013ED9F80420A3
:1038600003F00803F6B2A2F1080003F0FF04002BF6
:1038700040F0028157F838301B0C99B222F8081C2E
:10388000002B00F0F0809F4B22F8064C42F8044CCD
:1038900053F82620002A00F0C5829B4D55F82630AB
:1038A00058609A4C45F8260034F81630194424F82C
:1038B000161000F0C3FD002800F0AD82944A954B2D
:1038C00019F0080F00F1080018BF1346C9F80400EA
:1038D00047F8383008238BF800309BF80040E4B2FA
:1038E00061071AD58C4B1B78A3B18C490A7802F07A
:1038F000FF0322B1013BDBB20B7003B900BE884964
:103900000A7802F0FF032AB1013BDBB20B70002BF7
:1039100000F0578204238BF8003004F0080303F012
:10392000FF02002B00F0CC809AF80030DBB21E09B9
:103930008ED19C08DFF8C89159F8342009EBC401F6
:10394000C2F38302013A49680C2A00F28880DFE85A
:1039500002F07C7C86868686868647868686070079
:103960000868704D4A68704F704E286081B240F20E
:103970008160674B6A604FF0010E0022814249F876
:1039800034303A60C9F81020C9F8182086F800E0F1
:103990005B4C00F2E380B1F5D06F80F04683B1F567
:1039A000817F00F0FC8200F28D82802900F0778315
:1039B000822940F0FA82A98801F07F01042900F2EF
:1039C000F4825B485B4C8900084422706270027884
:1039D000930740F1588484F800E04FF0020E42E370
:1039E000514F3A6832B3544B504E5449188834788A
:1039F0000D784028864645F0020828BF4FF0400E5B
:103A0000002C84F001043470CEEB00000CBF88243D
:103A1000C82409EBC80680B285F0010544EA0E44CB
:103A20007260188049F8384072440D70002800F028
:103A300045813A603B4B1A88B2F5A06F0FD1002147
:103A40009A7859703E4B1A7009E0364A108842F253
:103A50002102904200F037812D4A49F83420394A3A
:103A60000123137036E72A4A2A4B19F0080F18BFB2
:103A7000134647F838302DE700F000FD324A33494D
:103A800052F82630002B00F0D18158688C5D42F846
:103A9000260003F10802C9F80420032C05D8DFE84A
:103AA00004F02C02292602228A551A8819F0080FE0
:103AB0000CBF8823C82343EA024347F8383009E79C
:103AC000E00700F18181210600F1F281A20706D50D
:103AD0001F4A204913780220DBB213700870E306F6
:103AE00002D51C4B10221A7007B0BDE8F08F0422DB
:103AF0008A55DAE705228A55D7E703228A55D4E7A3
:103B00000000FF1F1C14FF1FC813FF1FF417FF1F27
:103B1000C800400088004000A414FF1F2D14FF1FA0
:103B2000AC14FF1F9014FF1FC413FF1F2C14FF1FA2
:103B3000C02007409C14FF1FD813FF1F9814FF1FBD
:103B400098200740942007407014FF1FA814FF1FFF
:103B500088200740802007409020074042F2210043
:103B6000814200F02A8100F2D880B1F5086F00F0A0
:103B70007682B1F5106F40F01882226AB349A878B6
:103B80000870120600F13A83D9F82820B0491306CC
:103B900000F10C83D9F83020AD49150600F10183FE
:103BA000D9F83820AA49140600F1F682D9F8402045
:103BB000A749100600F14A83D9F84820A449120603
:103BC00000F13F83D9F85020A149130600F1348356
:103BD000D9F858209E49150600F12983D9F86020AC
:103BE0009B49140600F11E83D9F8682098491006F5
:103BF00000F11383D9F870209549120600F108836B
:103C0000D9F878209249130600F1FD82D9F8802076
:103C10008F49150600F13183D9F888208C491406A4
:103C200000F12583D9F890208949100600F1198305
:103C3000D9F898208649120600F10D838548864AF6
:103C4000864901908648874D874C04970023059646
:103C5000029580460F4616461D460394306828B1EB
:103C6000446800F00BFC2046002CF9D1002333609F
:103C7000029B38681A46002342F8253028B1446870
:103C800000F0FCFB2046002CF9D100223A60019A9A
:103C900098F800301146002241F8042B039A019154
:103CA000023B4FF0000122F81510032B00F22B818C
:103CB000DFE813F07001250170012501BEF1400F0E
:103CC00018BF0022B5E6694A0D7848781570507023
:103CD0008D78C8789570D07010680D791571862828
:103CE0004D7989795571917100F09B816049614EE0
:103CF0000A78307882F00105002842F002020D7047
:103D00000CBF8821C82149F8321009EBC20280F0AB
:103D100001000021307051609EE642F22120814274
:103D200040F0CB81544B554C5549A8781D6825600F
:103D3000CDF804E0087000200290804684460446D6
:103D40004B490D7845F0020E09EBCE030393019B1E
:103D5000002B039B5C600CBF8824C82444EA080342
:103D600085F0010449F83E3032700C70DFF8E0E075
:103D7000404BDFF8FC80002840F01E81BCF1400F72
:103D80001BD144F0020C09EBCC03029CDFF8C0E02D
:103D90005C60002A40F02681020442F088029DF80F
:103DA00004304EF83C20044433700D702346402804
:103DB00003D10020334A3B601080334A0123137043
:103DC0004DE600F0C7FCA5E5214B2F4828491A61B4
:103DD0004FF0020E80F800E02C4F0A702C49196059
:103DE00099602C4E2C4D2D4C9A610D213970FF217C
:103DF0003170DFF8B8E029702270294D294A8EF819
:103E000000109F27012406F8047C5D600470DA60CE
:103E100007B0BDE8F08F244A47F838001378013323
:103E2000137057E543F826000E4D3AE58B5D032BE2
:103E300000F2F08001A252F823F000BFD538000054
:103E4000D5380000F93E0000F33E0000A414FF1F27
:103E50000000FF1F8014FF1F1C14FF1F7014FF1FA2
:103E6000A814FF1FC813FF1FF417FF1FFC17FF1F25
:103E70009814FF1F2C14FF1FC013FF1F0418FF1FEF
:103E8000BC14FF1FD813FF1F94200740C020074019
:103E90008800400088200740802007409820074085
:103EA000DC13FF1F3014FF1F9914FF1F8C200740E5
:103EB000C149C24B80220D2008701A70A2077FF5FD
:103EC0000EAE05E640F20232914240F0EE80A98843
:103ED00001F07F01042968D86A88002A65D1B648B4
:103EE000CDF804E089000844017841F00201017036
:103EF00021E701238B55EDE400238B55EAE44FF0D5
:103F0000010388F800300135042D06F1040607F19D
:103F1000040708F101087FF4A1AEA94CA94B22784F
:103F2000A94D049F059E002129701A70130700F106
:103F300005816278A549DFF8A0820A7010074FF06A
:103F40000001C9F83010C9F8381000F1E080A0492C
:103F5000A2780A700021C9F85010C9F8581011074A
:103F6000DFF8748200F10181E2789A499A4C0A7074
:103F700000211207C9F87010C9F8781000F1B0805C
:103F800033780193002183F00102C9F89010C9F839
:103F90009810D0E64FF0000388F80030B3E7A98806
:103FA00001F07F01042940F28D80834A0F231370B2
:103FB0008A4A0123137052E540287FF6E2AE44F0AE
:103FC00002040EEBC401029E4E60BAB19DF80410CB
:103FD000834A19703346403888F8005040334EF811
:103FE0003420E7E69DF8043033700204029B0D7024
:103FF00042F0C80203444EF83C20D8E69DF8041075
:104000001970029B774A88F80050403840334EF8C8
:104010003420CFE619F0080F0CBF022303238B5581
:1040200058E4714A0F21117060E6704A5468002C00
:10403000BBD06888B5F804E003E00C325468002C6B
:10404000B3D013888342F8D153887345F5D1000A61
:1040500003280CBF94F800E0B2F808E003E0644ADB
:10406000644C12782270E888704580F03F81624984
:104070000D784028844645F0020E28BF4FF0400CD2
:1040800004EB0C0309EBCE02029301235460CCEB4A
:1040900000004FEA0C4800220193C8245EE6554C0C
:1040A0004FF0020E22706270DDE7B1F5A06F7FF471
:1040B0007CAF0123002201933DE642F2213291427E
:1040C000F7D072E76A88002A7FF46FAF3A48CDF8DC
:1040D00004E089000844017821F0020101702AE619
:1040E00000F0ACF9002800F0EF8008303D4AC4F839
:1040F0008400C4F8802000F0A1F9002800F0DE80E0
:104100000830374AC9F88C00C9F8882038E700F031
:1041100095F9002800F0C0800830324AC8F8440001
:10412000C8F8402000F08AF9002800F0AF8008307D
:104130002B4AC9F84C00C9F8482008E700F07EF97E
:10414000002800F0CD800830264AC9F82400C9F8BC
:10415000202000F073F9002800F0BC800830204ACD
:10416000C9F82C00C9F82820E3E600F067F9002818
:1041700000F09E8008301B4AC8F86400C8F8602030
:1041800000F05CF9002800F08D800830144AC9F86E
:104190006C00C9F86820E7E6C86B083800F06EF9D3
:1041A00004E5486B083800F069F9F9E4C86A083892
:1041B00000F064F9EEE400BFC02007408020074013
:1041C000DC730000C42007409914FF1FC82007407B
:1041D000CC200740D02007400000FF1F942007405C
:1041E000C8004000880040002D14FF1FE07300004D
:1041F000A414FF1F9C14FF1F9814FF1F606A083847
:1042000000F03CF9C0E4C86F083800F037F9FDE46D
:10421000486F083800F032F9F2E4C86E083800F050
:104220002DF9E7E4486E083800F028F9DCE4C86DA1
:10423000083800F023F9D1E4486D083800F01EF981
:10424000C6E4C86C083800F019F9BBE4486C0838BB
:1042500000F014F9B0E4D1F89C00083800F00EF931
:10426000ECE4D1F89400083800F008F9E0E4D1F863
:104270008C00083800F002F9D4E4D1F88400083842
:1042800000F0FCF8C8E44FF0020EECE62A78C9F81A
:10429000480001322A705AE62A78C8F840000132F4
:1042A0002A703FE72A78C9F8680001322A705BE675
:1042B0002A78C8F8600001322A7061E72A78C9F8C4
:1042C000880001322A705BE62A78C4F88000013247
:1042D0002A7010E72A78C9F8280001322A7028E6E7
:1042E0002A78C9F8200001322A7032E7BEF1400F67
:1042F000F44628BF4FF0400C04EB0C03029301235B
:10430000CCEB0E004FEA0C480022019318E500BFE9
:104310002DE9F04100F042FE314C324B3248DFF8DB
:10432000E480324EDFF8E0C0314F324DDFF8DCE0A0
:1043300000221A605A609A60DA601A615A619A61C2
:10434000DA611A625A629A62DA621A635A639A638B
:10435000DA631A645A649A64DA641A655A659A656B
:10436000DA651A665A669A66DA661A675A679A674B
:10437000DA67C3F880202168C3F8842041F48021E3
:104380002160016841F040710160032188F800104C
:10439000A020C3F307218CF8000004F52834317005
:1043A000C3F30740144938701B0E2B70CC34FF2325
:1043B0008EF80030114D0CF8B83C11480B700123F9
:1043C00006F8083C227070264FF40014102207F8FB
:1043D0002C3C2E70046081F8F820BDE8F08100BF0D
:1043E000348004400000FF1F00D800409C2007409C
:1043F000B0200740B42007401020074035E400E01B
:1044000004E100E0442107404021074080200740AC
:1044100000F0A4B800F07CB800F056B800F090B8F6
:1044200000F06CB900F046B90846114600F0B2B889
:10443000084600F033B900BF704700BF72B60D48A0
:104440000268B2FA82F30B2B10DC4FF00041D94026
:1044500022EA0102026062B6074803EBC303DB00F5
:10446000C2180021C15010465160704762B600204A
:10447000704700BFD008FF1FD003FF1F0D4B0E4A2F
:10448000C31AA2FB03231B090B2B0CD80B4A12786F
:1044900052B972B60A484FF00041026821FA03F39C
:1044A0001A43026062B67047064A1278002AF0D0BA
:1044B000FFF720B9D003FF1F398EE3389914FF1F8F
:1044C000D008FF1FA414FF1F38B50F4D286878B11E
:1044D00043880288C118013393420C7A02D2438088
:1044E000204638BDFFF7CAFF002320462B6038BDA9
:1044F000064B1B782BB10320FFF7C8F82860002873
:10450000E6D14FF0FF3038BDB814FF1FA414FF1FD1
:1045100010B5094C206818B143881844007A10BDC2
:10452000064B1B782BB10320FFF7B0F82060002862
:10453000F2D14FF0FF3010BDB814FF1FA414FF1FBD
:10454000044B054A1B6890881BB11A885B88D31AF4
:1045500018447047B814FF1FF417FF1F0B4B1B784C
:104560009BB110B50A4C206848B1FFF787FF0023C4
:1045700003202360FFF78AF830B1FFF77FFF0320A5
:10458000FFF784F80028F8D110BD7047A414FF1F6E
:10459000B814FF1F2DE9F04FDFF8F89083B0012227
:1045A00089F80020019169B3DFF8EC80354F019E56
:1045B0008346D8F80000B0B3334D4488C4F14001BD
:1045C000B14228BF314604EB010E00221FFA8EFED5
:1045D0002A70761AA0F802E000F1080251B1013CFD
:1045E000224459441BF8014B02F8014F8B45F9D185
:1045F000B0F802E0BEF13F0F0BD8244A052111703C
:10460000002ED6D10198002389F8003003B0BDE810
:10461000F08F4022028001460420FFF7CFF80022ED
:10462000C8F80020E9E73A7822B3194C164D4FF04C
:10463000010A07E0013C16D02A78A2B900F0AEF8D2
:104640003A78BAB10420FFF73FF80728F2D889F882
:1046500000A0FFF7F3FEC8F800000028ADD10D4B15
:10466000013C1870E8D101234FF0FF302B7003B0EC
:10467000BDE8F08F00234FF0FF3089F8003003B021
:10468000BDE8F08FA414FF1FB414FF1FAC14FF1F6C
:1046900021480100AD14FF1FB014FF1F00B583B007
:1046A00002AB012103F8010D1846FFF773FF03B0B9
:1046B0005DF804FB38B50E4D0E4C286801232370BD
:1046C00028B1408800232370C0F1400038BD0A4B58
:1046D0001B7813B90020207038BD0420FEF7F4FFCA
:1046E0000728F7D8FFF7AAFE28600028E9D1F1E7EC
:1046F000B014FF1FAD14FF1FA414FF1FF8B5114B1A
:104700001B788BB1104E114D346801272F7064B1A6
:104710000F4A638800271770214623800420FFF783
:104720004DF8376000232B70F8BDFFF787FE084B6C
:1047300028B1014604201C70FFF740F8F2E71F7013
:10474000F0E700BFA414FF1FB014FF1FAD14FF1F3C
:10475000AC14FF1F38B50E4B1B7873B90D4C216894
:1047600061B103F0FF054B880B800420FFF726F8AA
:10477000256038BD084B01221A7038BDFFF75EFE78
:104780000028F7D00146BDE838400420FFF716B8EE
:10479000AD14FF1FB014FF1FAC14FF1F38B52C4C15
:1047A000237803B138BD01232370FFF7C9FE002829
:1047B00042D100F0D1F800283BD100F063F9002885
:1047C00034D100F0F5F970BB00F06EFA40BB00F098
:1047D000E7FA10BB00F060FBE0B900232370EFF3B1
:1047E0000583002BDED1EFF3108172B6194B1868E8
:1047F00028B3194C227812BB45691D600123237030
:104800000DB3AA6101B962B6002545778368984760
:104810002570C7E700F02EF8DFE700F029F8D9E7A8
:1048200000F024F8D3E700F01FF8CDE700F01AF805
:10483000C7E700F015F8C0E7FFF7FEFDB9E700296C
:10484000B0D162B638BD054B1D600029DCD1DAE776
:10485000BD14FF1FB413FF1FB813FF1FB013FF1FBA
:10486000704700BF704700BF704700BF704700BF70
:10487000704700BF704700BF30B42948294A2A4B0F
:104880002A4D6024E121047011701B78284C082BFC
:1048900030D00A2B2748284937D00C2B0CBF3522A3
:1048A0005D2212232A60236002600B60234B24499F
:1048B0001B78244ABBB101230B601360224B2349B0
:1048C0001B78234A012B26D9042B0FD9082B1ED97C
:1048D000102B94BF862387230B6013601D4B01228E
:1048E0001A7030BC70470B601360E7E784230B60DD
:1048F0001360F3E700F58E200F49083021221323BF
:104900002A60236002600B60D0E73922F7E7852335
:104910000B601360E2E780230B601360DEE700BFEB
:104920000040074001400740D408FF1F08B0034083
:104930000CB0034008B00B400CB00B40BF14FF1F7D
:1049400020B0034020B00B40D508FF1F24B0034027
:1049500024B00B40BE14FF1F054A064B10781B788D
:10496000C0B2DBB2984238BF4030C01A704700BFB7
:10497000C414FF1FC514FF1FF0B4384B1A7912F08E
:10498000300F2CD072B6997D01F0FF0200293DD086
:1049900062B6334F334938780D78334E1C46C0B277
:1049A000EDB2431C402BE17928BF0023AB4202F15A
:1049B000FF32C9B21CBFF154184612F0FF02F0D109
:1049C0002A4B1B68C2B23A704BB1A84236BFC5F140
:1049D0004005401B40192728C4BF01221A701F49F7
:1049E000CA78D2B2150616D452060DD51B4B1B79C8
:1049F0005B0609D51E4B1F491B6800220A7003B1D4
:104A00001A70164B3C22DA70F0BC70474022D979FC
:104A10005A7462B6E3E70B791C06E5D5164B174EC0
:104A20001C783378E4B2DBB29C420ED0144D01E026
:104A3000A3420AD00133402B28BF00230879E85C49
:104A4000C0B2C871087D0728F2D9DBB203493370C0
:104A50000B79180644BF7C23CB70C5E700A0064045
:104A6000C414FF1FC514FF1F0815FF1FC014FF1F2C
:104A70004C15FF1F4815FF1F5015FF1F4915FF1F3D
:104A8000C814FF1F054A064B10781B78C0B2DBB272
:104A9000984238BF4030C01A704700BFC415FF1F8E
:104AA0005915FF1FF0B4384B1A7912F0300F2CD083
:104AB00072B6997D01F0FF0200293DD062B6334FF6
:104AC000334938780D78334E1C46C0B2EDB2431CE2
:104AD000402BE17928BF0023AB4202F1FF32C9B27B
:104AE0001CBFF154184612F0FF02F0D12A4B1B688C
:104AF000C2B23A704BB1A84236BFC5F14005401B67
:104B000040192728C4BF01221A701F49CA78D2B29F
:104B1000150616D452060DD51B4B1B795B0609D51D
:104B20001E4B1F491B6800220A7003B11A70164BF6
:104B30003C22DA70F0BC70474022D9795A7462B6D0
:104B4000E3E70B791C06E5D5164B174E1C78337836
:104B5000E4B2DBB29C420ED0144D01E0A3420AD075
:104B60000133282B28BF00230879E85CC0B2C87144
:104B7000087D0728F2D9DBB2034933700B79180698
:104B800044BF7C23CB70C5E700B00640C415FF1FAF
:104B90005915FF1F8415FF1F5415FF1FC815FF1F50
:104BA0005815FF1FCC15FF1FC515FF1F5C15FF1FF4
:104BB000054A064B10781B78C0B2DBB2984238BF6A
:104BC0004030C01A704700BFD415FF1FD515FF1F16
:104BD00030B42B4B1A7994061FD52A48DA7903781A
:104BE000294901333F2B0978C8BF00238B42D2B239
:104BF00003D0264CD9B2E2540170254A116861B144
:104C0000244A1278D2B2934236BFC2F140029B1AB4
:104C10009B18272BC4BF01230B70194AD378DBB232
:104C2000180611D45A060DD5154B1B795B0609D50C
:104C3000194B1A491B6800220A7003B11A70104BF5
:104C40002C22DA7030BC704711790906EAD5144974
:104C500010480C780178C9B28C420DD04A1C272A22
:104C600084BF00210A460F4D054C98BFD1B2AA5C03
:104C7000D2B2E2710170D5E76C21D170D2E700BFEA
:104C800000C00640D415FF1FD515FF1F0016FF1FDB
:104C9000D015FF1F4116FF1F4416FF1F4016FF1FB0
:104CA0004816FF1FD815FF1F054A064B10781B78C2
:104CB000C0B2DBB2984238BF4030C01A704700BF64
:104CC0005016FF1F5116FF1F30B42B4B1A79940654
:104CD0001FD52A48DA790378294901333F2B09780F
:104CE000C8BF00238B42D2B203D0264CD9B2E254C3
:104CF0000170254A116861B1244A1278D2B29342F8
:104D000036BFC2F140029B1A9B18272BC4BF012358
:104D10000B70194AD378DBB2180611D45A060DD598
:104D2000154B1B795B0609D5194B1A491B680022E4
:104D30000A7003B11A70104B2C22DA7030BC704725
:104D400011790906EAD5144910480C780178C9B2DE
:104D50008C420DD04A1C272A84BF00210A460F4DE1
:104D6000054C98BFD1B2AA5CD2B2E2710170D5E70E
:104D70006C21D170D2E700BF00D006405016FF1F53
:104D80005116FF1F7C16FF1F4C16FF1FBD16FF1F7D
:104D9000C016FF1FBC16FF1FC416FF1F5416FF1FAF
:104DA000054A064B10781B78C0B2DBB2984238BF78
:104DB0004030C01A704700BFCC16FF1FCD16FF1F32
:104DC00030B42B4B1A7994061FD52A48DA79037828
:104DD000294901333F2B0978C8BF00238B42D2B247
:104DE00003D0264CD9B2E2540170254A116861B152
:104DF000244A1278D2B2934236BFC2F140029B1AC3
:104E00009B18272BC4BF01230B70194AD378DBB240
:104E1000180611D45A060DD5154B1B795B0609D51A
:104E2000194B1A491B6800220A7003B11A70104B03
:104E30002C22DA7030BC704711790906EAD5144982
:104E400010480C780178C9B28C420DD04A1C272A30
:104E500084BF00210A460F4D054C98BFD1B2AA5C11
:104E6000D2B2E2710170D5E76C21D170D2E700BFF8
:104E700000A00E40CC16FF1FCD16FF1FF816FF1F17
:104E8000C816FF1F3917FF1F3C17FF1F3817FF1FDA
:104E90004017FF1FD016FF1F054A064B10781B78DE
:104EA000C0B2DBB2984238BF4030C01A704700BF72
:104EB0004817FF1F4917FF1F30B42C4B5A68940244
:104EC0001FD52B48DA6803782A4901333F2B09782C
:104ED000C8BF00238B4204D0274CD2B2D9B2E254CF
:104EE0000170264A116861B1254A1278D2B2934204
:104EF00036BFC2F140029B1A9B18272BC4BF012367
:104F00000B701A4A9368180202D55268110211D424
:104F10005A020DD5154B5B685B0209D5194B1A492E
:104F20001B6800220A7003B11A70184B00221A6025
:104F300030BC7047164A124910780A78D2B29042B3
:104F40000DD00132272A84BF00200246114D074CA4
:104F500098BFD0B2AA5CD2B2E2600870D8E70E481F
:104F60000A4A0024012104601160D1E700400C408E
:104F70004817FF1F4917FF1F7417FF1F4417FF1F14
:104F8000B517FF1FB817FF1FB417FF1F580188433D
:104F9000BC17FF1F4C17FF1F5C01884310B584B07E
:104FA00072B6FEF781F9184A184B19491160702240
:104FB00080211A701A46197013781B06FCD5154B00
:104FC0001C68FEF78BF962B6134B9C429CBF04EB46
:104FD000840464002046114C01A90A22FEF79AF9C4
:104FE00001A92046002311F8012B01333AB10A2B05
:104FF00020F8022FF7D11623237004B010BD5B00F8
:10500000DBB2237004B010BD040002400000024077
:10501000000007410C0002407F9698006409FF1FC2
:105020000B460146184600F03BBC00BF81F0004132
:1050300002E000BF83F0004330B54FEA41044FEA7D
:10504000430594EA050F08BF90EA020F1FBF54EA18
:10505000000C55EA020C7FEA645C7FEA655C00F0B4
:10506000E2804FEA5454D4EB5555B8BF6D420CDD85
:105070002C4480EA020281EA030382EA000083EA08
:10508000010180EA020281EA0303362D88BF30BDA8
:1050900011F0004F4FEA01314FF4801C4CEA1131FE
:1050A00002D0404261EB410113F0004F4FEA03335D
:1050B0004CEA133302D0524263EB430394EA050FE8
:1050C00000F0A780A4F10104D5F1200E0DDB02FA57
:1050D0000EFC22FA05F2801841F1000103FA0EF2EB
:1050E000801843FA05F359410EE0A5F120050EF1B1
:1050F000200E012A03FA0EFC28BF4CF0020C43FAE2
:1051000005F3C01851EBE37101F0004507D54FF0EE
:10511000000EDCF1000C7EEB00006EEB0101B1F53E
:10512000801F1BD3B1F5001F0CD349085FEA300084
:105130004FEA3C0C04F101044FEA445212F5800F8F
:1051400080F09A80BCF1004F08BF5FEA500C50F12C
:10515000000041EB045141EA050130BD5FEA4C0C0F
:10516000404141EB010111F4801FA4F10104E9D198
:1051700091F0000F04BF01460020B1FA81F308BF8F
:105180002033A3F10B03B3F120020CDA0C3208DD5B
:1051900002F1140CC2F10C0201FA0CF021FA02F136
:1051A0000CE002F11402D8BFC2F1200C01FA02F1A6
:1051B00020FA0CFCDCBF41EA0C019040E41AA2BFCB
:1051C00001EB0451294330BD6FEA04041F3C1CDA93
:1051D0000C340EDC04F11404C4F1200220FA04F0B3
:1051E00001FA02F340EA030021FA04F345EA03015D
:1051F00030BDC4F10C04C4F1200220FA02F001FA1F
:1052000004F340EA0300294630BD21FA04F02946A0
:1052100030BD94F0000F83F4801306BF81F4801139
:105220000134013D4EE77FEA645C18BF7FEA655CAC
:1052300029D094EA050F08BF90EA020F05D054EA7E
:10524000000C04BF1946104630BD91EA030F1EBF83
:105250000021002030BD5FEA545C05D14000494187
:1052600028BF41F0004130BD14F580043CBF01F57A
:10527000801130BD01F0004545F0FE4141F4700160
:105280004FF0000030BD7FEA645C1ABF194610463B
:105290007FEA655C1CBF0B46024650EA013406BF3C
:1052A00052EA033591EA030F41F4002130BD00BFFB
:1052B00090F0000F04BF0021704730B54FF48064B8
:1052C00004F132044FF000054FF0000150E700BF39
:1052D00090F0000F04BF0021704730B54FF4806498
:1052E00004F1320410F0004548BF40424FF0000185
:1052F0003EE700BF42004FEAE2014FEA31014FEAC8
:1053000002701FBF12F07F4393F07F4F81F0605116
:10531000704792F0000F14BF93F07F4F704730B585
:105320004FF4607401F0004521F0004120E700BF18
:1053300050EA010208BF704730B54FF000050AE09F
:1053400050EA010208BF704730B511F0004502D5A0
:10535000404261EB41014FF4806404F132045FEAA2
:10536000915C3FF4DCAE4FF003025FEADC0C18BF47
:1053700003325FEADC0C18BF033202EBDC02C2F13D
:10538000200300FA03FC20FA02F001FA03FE40EACF
:105390000E0021FA02F11444C1E600BF70B54FF0CF
:1053A000FF0C4CF4E06C1CEA11541DBF1CEA1355B1
:1053B00094EA0C0F95EA0C0F00F0DEF82C4481EA19
:1053C000030621EA4C5123EA4C5350EA013518BF39
:1053D00052EA033541F4801143F4801338D0A0FB26
:1053E00002CE4FF00005E1FB02E506F00042E0FBD3
:1053F00003E54FF00006E1FB03569CF0000F18BFD9
:105400004EF0010EA4F1FF04B6F5007F64F5407480
:1054100004D25FEA4E0E6D4146EB060642EAC62113
:1054200041EA55514FEAC52040EA5E504FEACE2E80
:10543000B4F1FD0C88BFBCF5E06F1ED8BEF1004F83
:1054400008BF5FEA500E50F1000041EB045170BDFF
:1054500006F0004646EA010140EA020081EA030143
:10546000B4EB5C04C2BFD4EB0C0541EA045170BD3F
:1054700041F480114FF0000E013C00F3AB8014F1B9
:10548000360FDEBF002001F0004170BDC4F1000402
:10549000203C35DA0C341BDC04F11404C4F1200583
:1054A00000FA05F320FA04F001FA05F240EA0200DE
:1054B00001F0004221F0004110EBD37021FA04F614
:1054C00042EB06015EEA430E08BF20EAD37070BDCE
:1054D000C4F10C04C4F1200500FA04F320FA05F02D
:1054E00001FA04F240EA020001F0004110EBD3702F
:1054F00041F100015EEA430E08BF20EAD37070BD9F
:10550000C4F1200500FA05F24EEA020E20FA04F377
:1055100001FA05F243EA020321FA04F001F0004126
:1055200021FA04F220EA020000EBD3705EEA430E97
:1055300008BF20EAD37070BD94F0000F0FD101F0C6
:105540000046400041EB010111F4801F08BF013CFF
:10555000F7D041EA060195F0000F18BF704703F03D
:105560000046520043EB030313F4801F08BF013DC4
:10557000F7D043EA0603704794EA0C0F0CEA135580
:1055800018BF95EA0C0F0CD050EA410618BF52EA3A
:105590004306D1D181EA030101F000414FF0000040
:1055A00070BD50EA410606BF1046194652EA43064E
:1055B00019D094EA0C0F02D150EA013613D195EAC2
:1055C0000C0F05D152EA03361CBF104619460AD10A
:1055D00081EA030101F0004141F0FE4141F4700114
:1055E0004FF0000070BD41F0FE4141F4780170BD04
:1055F00070B54FF0FF0C4CF4E06C1CEA11541DBF69
:105600001CEA135594EA0C0F95EA0C0F00F0A7F86A
:10561000A4EB050481EA030E52EA03354FEA013197
:1056200000F088804FEA03334FF0805545EA1313AA
:1056300043EA12634FEA022245EA111545EA106572
:105640004FEA00260EF000419D4208BF964244F109
:10565000FD0404F5407402D25B084FEA3202B61A28
:1056600065EB03055B084FEA32024FF480104FF4FC
:10567000002CB6EB020E75EB030E22BFB61A754670
:1056800040EA0C005B084FEA3202B6EB020E75EB03
:10569000030E22BFB61A754640EA5C005B084FEA6B
:1056A0003202B6EB020E75EB030E22BFB61A754638
:1056B00040EA9C005B084FEA3202B6EB020E75EB43
:1056C000030E22BFB61A754640EADC0055EA060E04
:1056D00018D04FEA051545EA16754FEA06164FEA47
:1056E000C30343EA52734FEAC2025FEA1C1CC0D1F3
:1056F00011F4801F0BD141EA00014FF000004FF080
:10570000004CB6E711F4801F04BF01430020B4F140
:10571000FD0C88BFBCF5E06F3FF6AFAEB5EB030CF8
:1057200004BFB6EB020C5FEA500C50F1000041EBF5
:10573000045170BD0EF0004E4EEA113114EB5C04C2
:10574000C2BFD4EB0C0541EA045170BD41F4801195
:105750004FF0000E013C90E645EA060E8DE60CEA9D
:10576000135594EA0C0F08BF95EA0C0F3FF43BAFBA
:1057700094EA0C0F0AD150EA01347FF434AF95EA71
:105780000C0F7FF425AF104619462CE795EA0C0F55
:1057900006D152EA03353FF4FDAE1046194622E722
:1057A00050EA410618BF52EA43067FF4C5AE50EAFC
:1057B00041047FF40DAF52EA43057FF4EBAE12E7EC
:1057C0004A0011D212F5001211D20DD56FF4787380
:1057D000B3EB62520ED44FEAC12343F0004343EAD5
:1057E000505323FA02F070474FF00000704750EA20
:1057F000013002D14FF0FF3070474FF0000070478A
:105800004FEA4102B2F1E04324BFB3F5001CDCF1E2
:10581000FE5C0DD901F0004C4FEAC0024CEA50701A
:10582000B2F1004F40EB830008BF20F00100704749
:1058300011F0804F21D113F13872BCBF01F000404C
:10584000704741F480114FEA5252C2F11802C2F17E
:10585000200C10FA0CF320FA02F018BF40F00100FF
:105860004FEAC1234FEAD32303FA0CFC40EA0C00B1
:1058700023FA02F34FEA4303CCE77FEA625307D1EE
:1058800050EA01331EBF4FF0FE4040F44000704725
:1058900001F0004040F0FE4040F40000704700BFBF
:1058A00013460A460146022001F02CB8014B186845
:1058B000704700BFA80DFF1F70B50F4E0F4D761B30
:1058C000B61018BF002405D0013455F8043B9847A2
:1058D000A642F9D10A4E0B4D761B01F0ADFDB61074
:1058E00018BF002406D0013455F8043B9847A6425F
:1058F000F9D170BD70BD00BF447400004474000055
:105900005474000044740000024B0146186800F013
:105910000BB800BFA80DFF1F024B0146186801F02D
:10592000B5B800BFA80DFF1F2DE9F04F01F10B0521
:10593000162D83B0064640F29F8035F0070500F132
:10594000BF80A94200F2BC8000F058FBB5F5FC7F97
:10595000C0F09C826B0A00F0BA80042B00F28381B5
:10596000A80900F1390E4FEA4E033830C44F07EB57
:105970008303A3F108015C68A14207D1ACE0002ACF
:1059800080F2AC80E468A14200F0A680636823F056
:1059900003035A1B0F2AF2DDB9493C6901F1080ED5
:1059A000744500F0B381636823F003035A1B0F2A88
:1059B00000F39981002AC1F814E0C1F810E080F2E8
:1059C0009E80B3F5007F80F06781DB0803F1010C56
:1059D00001229B1002FA03F34A6851F83C80C4F894
:1059E000088001EBCC091A43A9F10803E3604A607F
:1059F00041F83C40C8F80C40831001249C4094427C
:105A000000F28A80144206D120F0030064001442A0
:105A100000F10400FAD007EBC009CC468046DCF860
:105A20000C108C4507D173E1002A80F28181C9688E
:105A30008C4500F06D814B6823F003035A1B0F2A3D
:105A4000F2DD0C46D1F80CC054F8088F4B1945F024
:105A500001054D6042F00101C8F80CC03046CCF899
:105A600008807B613B61C3F80CE0C3F808E0596033
:105A70009A5000F0C5FA1FE0102921D800F0BEFAB4
:105A80001025062302207E4F07EB8303A3F10802B3
:105A90005C68944200F045816368E168A56823F082
:105AA0000303234430465A68E96042F001028D60E6
:105AB0005A6000F0A5FA0834204603B0BDE8F08F24
:105AC00000240C232046336003B0BDE8F08F802310
:105AD0004FF0400E3F2049E770465DE72344E16800
