:1000000000000320D1010000691A0000211A00003D
:10001000211A0000211A0000211A0000211A0000F4
:10002000211A0000211A0000211A0000691A00009C
:10003000691A0000211A0000453100004932000011
:10004000691A0000691A0000691A0000691A0000A4
:10005000691A0000691A0000691A0000691A000094
:10006000691A0000691A0000691A0000691A000084
:10007000691A0000691A0000691A0000691A000074
:10008000691A0000691A0000691A0000691A000064
:10009000691A0000691A0000691A0000691A000054
:1000A000610D00006D0D0000691A0000691A000062
:1000B000691A0000691A0000691A00007133000013
:1000C000691A00009D340000691A0000C93500005B
:1000D000691A0000C1360000691A0000691A0000A0
:1000E000691A0000691A0000691A0000691A000004
:1000F000691A0000691A0000691A0000691A0000F4
:10010000691A0000691A0000691A0000691A0000E3
:10011000691A000045200000691A0000691A0000F1
:10012000691A0000691A0000691A0000691A0000C3
:10013000691A0000691A0000691A0000691A0000B3
:10014000691A0000691A0000B9370000691A000036
:10015000691A0000691A0000691A0000691A000093
:10016000691A0000691A0000790D0000691A000080
:10017000691A0000691A0000691A0000691A000073
:10018000691A0000691A0000691A0000691A000063
:10019000691A0000691A0000B1380000691A0000ED
:1001A000691A0000691A0000691A0000691A000043
:1001B000691A0000691A0000691A0000691A000033
:1001C000691A0000691A0000691A0000691A000023
:1001D0005C4B4CF2205210B51A804DF628121A8052
:1001E00000BF00BF01F044FC574B4FF030621A6073
:1001F000564A9A60564ADA60564B4FF470021A60BB
:10020000554B564A1A60564B1A78110703D51A787F
:1002100042F008021A70534B5349AA221A70534AEB
:10022000534B8B4204D252F8040F43F8040BF8E707
:10023000504B514900228B4202D243F8042BFAE77B
:100240004E494F4A002352F8230041F8230001335E
:10025000742BF8D14B4B4C4A802103F8011B93427D
:10026000FBD14A4B454A1A60494B8A221A70A3F5C2
:10027000805324225A70A0221A709A799207FCD5D2
:100280009A79D406FCD4434A937903F00C03082BE3
:10029000FAD1414B60221A7002331A78802AFCD1BD
:1002A0003C4B01221A715D225A719A799006FCD555
:1002B0009979384A4906FBD5384B394919600021EC
:1002C000596020231370937903F00C030C2BFAD19F
:1002D000344B354A1A60354A354C136813F4807331
:1002E00003D123604FF4A8531360324B324A1A6093
:1002F00000225A60072243F8042C304AC3F80C2D20
:1003000062B601F00FFD2368DA0705D52C4801F02D
:100310008BFC2C4B2C4A1A602C4B1B785B0609D5A6
:10032000284C294B22689A4204D1254801F07CFCD4
:100330000023236004F074F801F0A0FB01F0CEFA72
:10034000FEE700BF0E20054030800440823F0400DD
:100350000100002B88ED00E0002008E0030000858C
:1003600002D0074000E00740B411FF1F6C530000AB
:100370003007FF1FB811FF1F0018FF1F0002FF1FEB
:100380000000000000E400E064E400E008ED00E0AC
:10039000005006400040064001E007404480044011
:1003A0000000060204800440C010070010D0034083
:1003B00014D0034014E000E01FBF02000000202022
:1003C000ABF5FB5D1CE00340A5C3945A00F0074069
:1003D000FFFFFFFFFFFFFFFFFFFFFFFFFFFFFFFF2D
:1003E000FFFFFFFFFFFFFFFFFFFFFFFFFFFFFFFF1D
:1003F000FFFFFFFFFFFFFFFFFFFFFFFFFFFFFFFF0D
:10040000FFFFFFFFFFFFFFFFFFFFFFFFDEF9FFFF23
:1004100010B5054C237833B9044B13B10448AFF33E
:1004200000800123237010BDB811FF1F00000000E1
:1004300068530000084B10B51BB108490848AFF3DA
:1004400000800848036803B910BD074B002BFBD0A0
:10045000BDE81040184700BF00000000BC11FF1F9E
:1004600068530000B411FF1F00000000002202606A
:10047000704700BF704700BF704700BF704700BFA4
:10048000704700BF10B507210F4802F085FC0F48E8
:1004900001F014FA0E4A0F48772100F065FE044679
:1004A00040B119210C4802F077FC084801F006FA27
:1004B000204610BD1821094802F06EFC034801F0E7
:1004C000FDF9204610BD00BF944E00007C08FF1FC0
:1004D000A007FF1FD811FF1FB84E00009C4E000060
:1004E000014B0360704700BF904E0000704700BF93
:1004F0004FF0FF31014800F021BE00BFD811FF1FAF
:10050000704700BFF0B5204F0446002587B03B463A
:1005100028224FF0FF3101F0D1F83B46C4F880505B
:100520002822C4F88450C4F88850C4F88C50C4F809
:100530009050C4F894503721C4F8985001A8C4F8DA
:100540009C50C4F8A050C4F8A450C4F8A850C4F8F3
:10055000AC5001F0B3F803989DF808709DF809605D
:1005600004999DF81420A0600023204684F8385098
:1005700027716671E16022746366A366E366236790
:100580006367A36707B0F0BDA007FF1F704700BFF8
:1005900010B50446FFF7B6FF04F1B000FFF7A0FF67
:1005A000204610BD10B50446B030FFF79FFF20462F
:1005B000FFF7ECFF204610BD002070470020704779
:1005C0000020704700207047002070474FF0FF3038
:1005D000704700BF00207047014B00221A7070471F
:1005E0008013FF1F10B5254C2378052B0FD8DFE8AB
:1005F00003F01921110A0403FEE72148FFF740FF29
:100600000523237010BD1F48FFF7DEFFD0B1042380
:10061000237010BD1B48FFF7D3FF0028F9D0032338
:10062000237010BD1748FFF7C7FF0028F1D0012342
:10063000237010BD1348FFF7C1FF0028E9D0022343
:10064000237010BD0F48FFF7BDFF40B10C48FFF706
:1006500015FF0C48FFF7B8FF0028FAD0D7E7094884
:10066000FFF7B4FF0028D4DD0648FFF7B3FFBDE86D
:10067000104001460248FFF7FFBE00BF8013FF1F76
:100680008413FF1FC812FF1F70B50A4E0A4D0B4C92
:100690003046FFF77DFF2A460949304603F0BCF992
:1006A0002046FFF7E3FE2A4620460649BDE8704093
:1006B00003F0B2B9C812FF1F3007FF1F8413FF1FDA
:1006C000A5050000750400000020704790F839204F
:1006D00090F83800101A704790F8383090F83920A8
:1006E0009A4205D95A1C034480F83820187E704776
:1006F0004FF0FF30704700BF90F8383090F8392045
:100700009A4286BF1B18187E4FF0FF30704700BF1B
:10071000704700BF38B50546B0F85E0090B195F857
:100720005D301446C3F1210294420CD805F13B0020
:100730001844224601F0DAF895F85D30234485F834
:100740005D30204638BD012014462871EEE700BF19
:10075000B0F85E306BB190F85D30202B07D8C2182E
:10076000013380F85D30012082F83B10704701238F
:1007700003710020704700BF0023426980F83830C1
:1007800080F8393080F85C3080F85D3080F85E3079
:1007900080F85F3006CA30B40D68046943662A43A6
:1007A00083660A60A370426990F861301649146844
:1007B00013441D7A5B7B01EBC5051B026D6803F4D6
:1007C000E06343F064032B6090F8623013449D7C37
:1007D000DB7D01EBC5011B02496803F4E06343F0D4
:1007E00064030B6021685368194205D003692C2209
:1007F0005A70036904229A71036920225A710369AD
:1008000080229A7030BC70473050000038B50269C1
:10081000D478E4B2E106054624D51023D3706306EC
:100820001FD504F0040404F0FF03002C5AD0424901
:100830006A6E00230B7085F85D30002A66D0904701
:1008400095F85D30002B61D02B69D0229A702B690E
:1008500095F83B201A712B69012285F85C20022251
:10086000DA7038BD04F0400303F0FF00002BD8D14C
:100870009379DBB203F0600160294ED0937803F0E6
:10088000100303F0FF01B3B114F0010437D195F860
:100890005C3095F85D1099424BD9591C2B4485F872
:1008A0005C1093F83B3013712B69D0229A702B693E
:1008B0000222DA70D5E785F86010937943F02003BF
:1008C00093712B6995F839101A791F29D2B2C6D8BD
:1008D000194800780028C2D06818013185F839100D
:1008E0000276BCE72A6985F83930C02393702B69FA
:1008F000114A1979012111700222DA70B1E7C0237F
:1009000093702B691A790222DA70AAE70122002378
:1009100085F85D2085F83B3096E703F0DF0393719F
:10092000AB6E23B185F8380095F8390098472A69ED
:10093000A4E71471B8E700BF8813FF1F2DE9F04743
:10094000374FDFF8E0903B68026982B006460093BB
:10095000DDF8008000214FF49675D3789B065BD5B7
:100960003B680193019BC8EB03030F2BF5D949B1F9
:10097000102BF2D000209070336980229A7002B060
:10098000BDE8F087726996F8613013440521187A42
:1009900001F070F9726996F861301344012193F8FF
:1009A00012A0504601F066F909240021504601F0DA
:1009B0004DF92B46013BFDD10121504601F046F98E
:1009C0002B46013BFDD1013CEFD1706996F86110D7
:1009D00001444FF416720C7A4B7B09EBC4011B02E5
:1009E000496803F4E06343F064030B6096F86230F7
:1009F0000344997CDB7D09EBC1011B02496803F4C8
:100A0000E06343F064030B60013AFDD13269D378AF
:100A10009B064FF00101A3D4012002B0BDE8F0878E
:100A20009413FF1F30500000F0B503691222DA70F2
:100A30000269937803F0200385B004460D46002B2D
:100A40005ED0B42393703C4922690B680093009EEA
:100A500005E00B680193019B9B1B042B42D8D378C4
:100A600003F0200303F0FF00002BF2D094F85D3078
:100A7000002B31D04FF0000E4FF0020C04EB0E03B0
:100A800093F83B3013710B680393039F206907E0D1
:100A90009B060DD50B680293029BDB1B052B28D808
:100AA000C378DBB203F0020202F0FF06002AEFD0A7
:100AB00080F803C02669F378DBB2DF0632462DD416
:100AC0009F062BD5DB0731D40EF1010E94F85D3073
:100AD0005FFA8EFE7345D1D800201DBB002384F839
:100AE0005E3004E09070236980229A70042005B083
:100AF000F0BD86702369802204209A7005B0F0BD95
:100B000003F0FF06FFF71AFF10B9042005B0F0BD8F
:100B1000236984F85F60B0229A7094E78023B370F1
:100B20000420DAE726698023B370D7E7BEF1000F0F
:100B30000CBF02200320F6E79413FF1F2DE9F041BC
:100B400006690025122780F8385080F83950F77070
:100B5000D0F810C09CF802E00EF0200E88B00446D9
:100B6000884615461E46BEF1000F49D0B4238CF8C6
:100B700002307A4B21691A680092DDF800E006E045
:100B80001A6801920198CEEB0000042830D8C8788A
:100B900000F0200000F0FF070028F1D04FEA4802E3
:100BA00042F00102D2B20A711A680292DDF808E03E
:100BB000206906E01A6803920399CEEB010105292A
:100BC0002AD8C17801F0020101F0FF070029F1D015
:100BD0004FF0020C80F803C02269D17811F01107A0
:100BE00022D12DBB002E0CBFA0238023937003E0E5
:100BF0008F70236980229A70384608B0BDE8F08172
:100C00000EF0FF07FFF79AFE0028F5D0236984F85D
:100C10005F70B0229A70ACE78770236980223846F3
:100C20009A7008B0BDE8F081802393700027E3E755
:100C3000012D78D0A021917021690A79BE466746BE
:100C40004FF0A80C1A680492049805E01A680592FF
:100C5000059A121A052A4DD8CA7802F0020202F04B
:100C6000FF08002AF2D0CF702169CA78D2B212F000
:100C7000100F08465DD192065BD5013DEDB2012D06
:100C80004CD0BEF11F0F3ED90A79012DDAD11A6876
:100C90000692069D05E01A680792079A521B052ADC
:100CA00056D8C27802F0020202F0FF01002AF2D008
:100CB0000223C3702269D378DBB2D9063BD49B06EA
:100CC00037D5B023BEF11F0F937043D8226904EBD0
:100CD0000E0312791A760EF1010E5FFA8EFE00BF36
:100CE00000BF00BF16B1236980229A7084F839E0F2
:100CF000774681E781F80280236980229A707746DF
:100D000084F839E078E704EB0E0291F8048082F869
:100D100018800EF1010E5FFA8EFEB6E781F802C070
:100D200021690846ADE7A82191702069BE46027985
:100D3000ADE7774660E710214FF49673D170013B21
:100D4000FDD12269937803F0F7037746937053E758
:100D50008170D1E723691B79C1E700BF9413FF1F9E
:100D60000148FFF753BD00BFA007FF1F0148FFF771
:100D70004DBD00BF0C08FF1F0148FFF747BD00BF76
:100D80003407FF1F00F07CBFF8B5114E34684000F7
:100D900084F83B002568012084F85E0084F85D003B
:100DA0001F4620462B68144698475FB17D1EADB2A2
:100DB00001352544306814F8011B03681B68984707
:100DC000AC42F7D130680121FFF72EFE0020F8BDBC
:100DD0008C13FF1F2DE9F0471E4E96F900305A1C68
:100DE0002AD0DFF878A0DFF8789047B207250024F2
:100DF0004FF0010801E096F90030D8B2002100F070
:100E000025FF08FA05F13940C9B29AF8000000F050
:100E10001DFF0121307800F019FF99F8000000F063
:100E20001BFF6400E4B2013D08B144F001046B1CF7
:100E3000E1D12046BDE8F087074B1A684FF0004328
:100E4000D3625063D36A002BFCDA906BC0B2BDE86A
:100E5000F08700BF8913FF1F3809FF1F9013FF1F82
:100E60008A13FF1F0D4AD37A1946B3B1D80703D5A9
:100E70000B49D069086019469B0703D5094B106AD6
:100E8000D17A1860480703D5074B506AD17A1860A9
:100E90000B0702D5054B926A1A6070473809FF1F8D
:100EA00000E100E004E100E008E100E00CE100E026
:100EB0002DE9F843244D2C68460084F83B608046B9
:100EC0000126206884F85E6084F85D60D0F80090A8
:100ED00020461F461446C84731462868FFF7A4FD40
:100EE00033464146FAB22868FFF728FE80B28742AF
:100EF00002D03046BDE8F8837E1EB6B2FFB101369F
:100F0000124F264410E090F8383090F839209A4279
:100F100003F1010E00EB030114D980F838E0087EDC
:100F200004F8010BA6420AD0286803685B69BB423B
:100F3000E9D09847C0B204F8010BA642F4D10020D2
:100F4000BDE8F883FF20EBE78C13FF1FD9060000F4
:100F50002DE9F843314E96F9005001350746894690
:100F60001446984621D00021384600F06FFE08F163
:100F7000FF354846FFF72EFFADB2B8F1000F07D09E
:100F80000135254414F8010BFFF724FFA542F9D1E0
:100F90003846012100F05AFE96F90030013301D1A4
:100FA000FFF760FF0020BDE8F8831D4BDA7A02B33B
:100FB00072B6D97ACD070A4606D51A48DA680568A6
:100FC0002A40DA6102600A46880706D51648196980
:100FD0000568DA7A294019620160510706D513487D
:100FE00059690568DA7A29405962016012070DD4FF
:100FF00062B61B680E4AD9689142B4D00D49196097
:101000000D480E49DA6018611960ACE70C499A691D
:10101000086802409A620A60EAE700BF8913FF1F6E
:101020003809FF1F80E100E084E100E088E100E092
:101030000540003801403F000540007800003F8037
:101040008CE100E02DE9F843324E96F9005001356D
:10105000074689461446984623D00021384600F0BA
:10106000F5FD08F1FF3549F08000FFF7B3FEADB2A2
:10107000B8F1000F08D0013525440020FFF7AAFE83
:1010800004F8010BA542F8D13846012100F0DEFD3D
:1010900096F90030013301D1FFF7E4FE0020BDE8EE
:1010A000F8831D4BDA7A02B372B6D97ACD070A46B5
:1010B00006D51A48DA6805682A40DA6102600A46ED
:1010C000880706D5164819690568DA7A2940196231
:1010D0000160510706D5134859690568DA7A294035
:1010E0005962016012070DD462B61B680E4AD968B6
:1010F0009142B2D00D4919600D480E49DA6018616D
:101100001960AAE70C499A69086802409A620A6065
:10111000EAE700BF8913FF1F3809FF1F80E100E0E5
:1011200084E100E088E100E00540003801403F0034
:101130000540007800003F808CE100E070B4074E6D
:10114000074D084C01770022FF2131702970217072
:10115000026282744274027470BC70479013FF1F65
:101160008A13FF1F8913FF1F38B5044690F91C002E
:101170002175451C3BD0C0B2012100F067FD207FE6
:10118000012100F077FD244B93F90000431C3ED071
:10119000C0B2012100F06EFD204B0121187800F053
:1011A00069FD1F4B0021187800F064FD217F1D4A66
:1011B0001D4B84F82910002184F82A10E262236371
:1011C0001A4B636304F1280000F01CF908B10020F9
:1011D00038BD012384F8D40084F8D30084F8D50006
:1011E00084F8D0306074A0742074184638BD104B59
:1011F00010460D461A60FFF7BFFA01210D4A0E4B4B
:1012000084F8295084F82A10E2622363D8E70B4857
:1012100002F0A2FCCAE700BF8913FF1F9013FF1F53
:101220008A13FF1F45100000510F0000850D0000BC
:101230008C13FF1FB10E0000890D00003809FF1F3D
:101240002DE9F84393F803E0D3F8049096440EF1A7
:10125000070424F0070400AFADEB040DB9F1000F53
:1012600026D09C6824B3DC6814B31D469B78012B00
:101270000C461646014620D01FFA8EF341F080013D
:101280006A466878C84766B1611EE8460024EB7874
:1012900008EB04020134D35C01F8013FA3B2B3426E
:1012A000F5D3002818BF6FF00600BD46BDE8F883EF
:1012B0004FF0FF30BD46BDE8F883334622466878DC
:1012C000C847EEE72DE9F8435400073424F007043B
:1012D00000AFADEB040D002B49D05C68002C46D06C
:1012E0009C68002C43D0DD68002D40D000283ED003
:1012F00000293CD0002A3FD09D780E788DF8006000
:10130000EE461DB3012AA0462FD9A2F102095FFAC9
:1013100089F909F1010981440546744615F801CFA0
:1013200011F8016F84F801C04D4504F8026FF5D142
:1013300051001C4672460B4601786078C047002871
:1013400018BF6FF00600BD46BDE8F883561E50FA80
:1013500086F6441E14F8015F05F07F05B44225703F
:10136000F8D1012AD3F80880CFD80121E1E74FF066
:10137000FF30BD46BDE8F8836FF00500E3E700BF2E
:1013800010B582B07E22B6238DF804208DF805308A
:10139000E0B14368D3B18368C3B1C368B3B1034656
:1013A000044601220DF106010320FFF749FF9DF8D5
:1013B0000630DB060ED568B9234601220DF1050182
:1013C00001A8FFF77FFF40B102B010BD4FF0FF3022
:1013D00002B010BD6FF00300F6E7E3680220984703
:1013E000234601220DF107010220FFF729FF9DF896
:1013F00007309A07EED4002818BF6FF0030002B040
:1014000010BD00BF30B589B000238DF8073010B390
:10141000426802B38268F2B1C268E2B18278012AFE
:101420001ED00123C3700346044601220DF10701BB
:101430000020FFF705FF054650B99DF80730502BF7
:1014400040F0F88023702046FFF79AFF054648B128
:10145000284609B030BD4FF0FF35284609B030BDF1
:10146000C370E0E702A923461522312002950395B7
:101470000495059506958DF81C50FFF7E1FE9DF843
:10148000083005469DF8090043EA0020A4F88800CA
:1014900002F0E2FC0022694B02F054FD9DF80B20A3
:1014A0009DF80A3043EA0223C4E90401A4F88A3013
:1014B000184602F0D1FC0022614B02F043FD9DF979
:1014C0000C3084F88C30C4E90601184602F0D4FCD4
:1014D00000225C4B02F036FD9DF80E209DF80D3089
:1014E00043EA02231BB2C4E90801A4F88E30A3F535
:1014F000804002F0C1FC0022534B02F023FD9DF816
:1015000010209DF80F3043EA02231BB2C4E90A0100
:10151000A4F89030A3F5804002F0AEFC00224B4BC3
:1015200002F010FD9DF9113084F89230C4E90C01ED
:10153000184602F0A1FC0022454B02F003FD9DF984
:10154000123084F89330C4E90E01184602F094FC7E
:101550000022404B02F0F6FC9DF814209DF8133059
:1015600043EA0223C4E91001A4F89430184602F0BB
:1015700073FC0022384B02F0E5FC9DF816209DF824
:10158000153043EA0223C4E912011846A4F8963044
:1015900002F062FC0022314B02F0D4FC9DF91730BE
:1015A00084F89830C4E91401184602F065FC002262
:1015B0002B4B02F0C7FC9DF9183084F89930C4E930
:1015C0001601184602F058FC00224FF07C5302F03E
:1015D000B9FC9DF81A209DF8193043EA02231BB28A
:1015E000C4E91801A4F89A30184602F045FC00221C
:1015F000144B02F0A7FC9DF91B3084F89C30C4E921
:101600001A01184602F038FC00220E4B02F09AFC38
:101610009DF91C3084F89D30C4E91C01184602F085
:101620002BFC00220F4B02F08DFCC4E91E01284662
:1016300009B030BD6FF001050AE700BF000070403F
:101640000000103E0000F03C0000B03E0000203ED4
:101650000000F03D0000A03D000020400000903F51
:101660000000703F0000E03B704700BF38B5282203
:101670000C4605460846002103F0C2F90B22094931
:10168000204603F021FA0022E272E8680649206150
:10169000002301250320E560626260612162A3618D
:1016A000E36138BD085000000AD7233C10B514216F
:1016B000044600F02FFA204610BD00BF30B4034DA1
:1016C0000560C1604271836030BC704718500000F3
:1016D0002DE9F0414479054601278068BC4080F837
:1016E0003B4080F85E7080F85D70A8680468D4F8AC
:1016F00000801E461446C0473946A868FFF794F993
:101700003B4632466979A868FFF718FA0EB3013EE6
:1017100054FA86F6114F013C10E090F8383090F8FA
:1017200039209A4203F1010E00EB030114D980F82D
:1017300038E0087E04F8010FB4420AD0A8680368B4
:101740005B69BB42E9D09847C0B204F8010FB442CC
:10175000F4D10120BDE8F081FF20EBE7D9060000BD
:10176000F0B5044683B0002516460846256031468C
:101770006560A560E560256165616A4606230095A0
:10178000ADF80450FFF7A4FF9DF803709DF80550D5
:101790009DF801009DF800109DF802209DF804308E
:1017A00041EA002042EA072243EA0523083E00B24C
:1017B00017B21DB2262E2FD8DFE806F0142E2E2EDB
:1017C0002E2E312E2E2E2E2E312E2E2E2E2E312E30
:1017D0002E2E2E2E2E2E2E2E2E2E2E2E142E2E2E43
:1017E0002E2E140002F048FB00221B4B02F0D4FC0A
:1017F000C4E90001384602F03FFB0022164B02F01C
:10180000CBFCC4E90201284602F036FB0022124B51
:1018100002F0C2FCC4E90401204603B0F0BD02F0AE
:101820002BFB00220D4B02F08DFBC4E90001384672
:1018300002F022FB0022094B02F084FBC4E9020102
:10184000284602F019FB0022044B02F07BFBC4E99E
:101850000401204603B0F0BD000059400000B03F35
:1018600070B5242688B00C4605463246084600214D
:1018700003F0C6F8104BE9681B680193019B2361D4
:1018800003226160A26029461A2202A82660FFF79F
:1018900067FFDDE9020102F067FD6061DDE9040137
:1018A00002F062FDA061DDE9060102F05DFDE0618C
:1018B000012008B070BD00BF9413FF1F00B5064A99
:1018C000036812885B6883B001A9ADF80420022286
:1018D000984703B05DF804FB2C50000008B5FEF7F4
:1018E0007BFEFEF77FFE01F05BFBFAE7844641EAF0
:1018F000000313F003036DD1403A41D351F8043B88
:1019000040F8043B51F8043B40F8043B51F8043BD9
:1019100040F8043B51F8043B40F8043B51F8043BC9
:1019200040F8043B51F8043B40F8043B51F8043BB9
:1019300040F8043B51F8043B40F8043B51F8043BA9
:1019400040F8043B51F8043B40F8043B51F8043B99
:1019500040F8043B51F8043B40F8043B51F8043B89
:1019600040F8043B51F8043B40F8043B51F8043B79
:1019700040F8043B51F8043B40F8043B403ABDD2E8
:10198000303211D351F8043B40F8043B51F8043B8A
:1019900040F8043B51F8043B40F8043B51F8043B49
:1019A00040F8043B103AEDD20C3205D351F8043B19
:1019B00040F8043B043AF9D2043208D0D2071CBFE5
:1019C00011F8013B00F8013B01D30B88038060460E
:1019D000704700BF082A13D38B078DD010F0030384
:1019E0008AD0C3F10403D21ADB071CBF11F8013BF4
:1019F00000F8013B80D331F8023B20F8023B7BE743
:101A0000043AD9D3013A11F8013B00F8013BF9D26D
:101A10000B7803704B7843708B7883706046704707
:101A200008B5104C08E0236859050DD423681A0541
:101A30000FD42368DB0411D423685803F3D500F0D6
:101A400001FB23685905F1D501F092FC23681A05C2
:101A5000EFD501F023FD2368DB04EDD501F0B4FDE3
:101A6000EAE700BF3480044008B5FFF7D9FF00BFA4
:101A7000014B10221A80704700200540704700BFBC
:101A8000094908B50B6830B16A461844A2F50052FE
:101A9000904202D20860184608BD02F0BBFC0C233D
:101AA00003604FF0FF3008BD7808FF1F084A137825
:101AB000802B01D0002070470649074B074808607B
:101AC000002119701378802BFCD00120704700BFD3
:101AD00003E007404480044001E007400000282262
:101AE000094A1378012B01D00020704703F180438D
:101AF00003F5FC23602119701378802BFCD1034B74
:101B0000034A1A600120704703E007404480044004
:101B10000000060202F0B4BCF0B44D1E2E460024B4
:101B200000E00134B0FBF2F302FB1300092800F1DE
:101B300030078ABF3730F8B2C0B206F8010F184636
:101B4000002BEED10A1953704CB1107815F8016FC3
:101B500028700133E01A834202F80169F5DB084678
:101B6000F0BC704710B4114B53F8302092F880420B
:101B700034B1012379B182F880305DF8044B7047AD
:101B800003EBC0035B681A6851B922F002021A60C5
:101B90005DF8044B704782F800315DF8044B7047E4
:101BA00042F003021A605DF8044B704730500000A9
:101BB0001C4A02EBC00301295B6811D004291BD029
:101BC00052F83000002280F8802229B1022920D06A
:101BD000032922D01A6070474FF480721A60704750
:101BE00052F830004FF4A27280F880121A601A681E
:101BF00022F020021A60704752F830104FF4A2729F
:101C0000012081F880021A601A6842F020021A60EE
:101C1000704740F203121A6070474FF481721A60E5
:101C2000704700BF3050000030B4054B054D064CE6
:101C3000002210211A602A602060196030BC7047B1
:101C400014D0034004D0034000D003403F2801D803
:101C5000FFF788BF704700BF3F2806D8044B53F8F2
:101C6000303093F80002C0B270470020704700BFC8
:101C7000305000003F2801D8FFF79ABF704700BFDF
:101C80002DE9F843054672B6224F234B234A1B68C1
:101C90003C68126862B6520102D5322B88BF01340B
:101CA000B5B3C3F52F3303F21F331D4EDFF8689031
:101CB000DFF868809B084FF47A72A6FB031302FBDF
:101CC00004F404EB930472B6D9F800103A68D8F81B
:101CD00000E062B6C1F52F3303F21F339B08A6FB69
:101CE00003031EF0806FC4EB93034FF47A7002D0AD
:101CF000322988BF013200FB0233B3F57A7F04D367
:101D0000013D05D004F57A74DDE701F049F9DAE721
:101D1000BDE8F8839413FF1F18E000E004ED00E035
:101D2000176CC116F8B54E4B4E48DFF85CC14E4CEF
:101D30004E49DFF858E14E4E4E4D4F4F4FF0006286
:101D40001A604FF080521A604FF000521A604FF044
:101D500080421A604FF000421A600022026028237D
:101D60004EF6FF70CCF80000CEF8003023600EF580
:101D7000012E0B6033602B6006F500263B6005F5F5
:101D80000025A36207F500278B6204F5012401F505
:101D9000012106F6E87605F6E87507F57F6710314C
:101DA0000EF1100E203433602B60CEF800303B6013
:101DB0000B602360314CBB618B6109212160A7F569
:101DC000002704F58054203F08343A602060BB604F
:101DD000E36047F8041C04F5FD2407F5FE270437EB
:101DE00004F2FC7422603860A360FB6044F8041CB9
:101DF000083404F6FC74C7F8FC2F2060A4F5E12435
:101E0000A4F2DC7433602B60C7F8F81F21681C480B
:101E100041F40071216001681A4C0EF57F4E0EF1FD
:101E2000E80E07F5883706F5803605F5803541F070
:101E300000710160CEF8002047F6FF71082239607A
:101E400033602B60226001F013FA1920FFF718FFAE
:101E500000F060FE40F21310BDE8F840FFF710BF3D
:101E600004E100E004800340148003401C80034030
:101E7000248003402C8003403480034000800340D2
:101E80000480044000900C40088003400C80034014
:101E9000431E032B14D872B60A4951F8230068B1C7
:101EA00070B4094C058834F81320466841F8236063
:101EB000521B24F8132062B670BC704762B670479C
:101EC00000207047F013FF1FE817FF1F0138032899
:101ED0000BD872B6074B53F8203043B100205B6833
:101EE0000130002BFBD162B67047002070471846C6
:101EF000F9E700BF4414FF1F30B472B62B4A1378C1
:101F00001D0706D52A4B196A002936D0996A00297F
:101F100041D053781C0706D5254B196C00293ED0BB
:101F2000996C002939D09378190705D5204B196E83
:101F3000002936D0996E89B1D3781B0707D51C4B81
:101F4000D3F880207AB3D3F8882011213AB162B651
:101F5000184B00221A7030BC00F092BE0D21154CB7
:101F6000154D227843F8315003EBC1030830013A94
:101F70005860227062B630BC704704220D4C0F4D81
:101F8000217843F8325003EBC20308304A1E5860F0
:101F9000227062B6EFE70521E1E70921DFE70822B9
:101FA000ECE70C22EAE71022E8E700BF58520000F5
:101FB0000000FF1F6D14FF1FC80040008800400094
:101FC000431E032B1DD81B4A400140F0100030B4C3
:101FD000104472B6184CE25C032A1BD8DFE802F00A
:101FE0000212151703220D88E25410F0080F14BFD7
:101FF000C823882343EA054308310360416062B681
:1020000030BC704708300222EDE70522EBE70830CC
:102010000422E8E7094A52F8230038B1084A52F886
:102020002300416042F8231062B6E9E742F823102A
:10203000034AF7E70000FF1F7C14FF1F4414FF1F33
:102040005414FF1F2DE9F04FDFF80CB3DFF80CA399
:1020500087B044E0AB4F4FEA930807EBC809013E55
:10206000D9F8042003F00803F6B2A2F1080003F047
:10207000FF04002B40F0028157F838301B0C99B256
:1020800022F8081C002B00F0F0809F4B22F8064C31
:1020900042F8044C53F82620002A00F0C5829B4DDC
:1020A00055F8263058609A4C45F8260034F816301A
:1020B000194424F8161000F0C3FD002800F0AD828A
:1020C000944A954B19F0080F00F1080018BF134609
:1020D000C9F8040047F8383008238BF800309BF823
:1020E0000040E4B261071AD58C4B1B78A3B18C4930
:1020F0000A7802F0FF0322B1013BDBB20B7003B997
:1021000000BE88490A7802F0FF032AB1013BDBB226
:102110000B70002B00F0578204238BF8003004F082
:10212000080303F0FF02002B00F0CC809AF8003087
:10213000DBB21E098ED19C08DFF8C89159F8342013
:1021400009EBC401C2F38302013A49680C2A00F288
:102150008880DFE802F07C7C8686868686864786D5
:10216000868607000868704D4A68704F704E286078
:1021700081B240F28160674B6A604FF0010E00222D
:10218000814249F834303A60C9F81020C9F8182063
:1021900086F800E05B4C00F2E380B1F5D06F80F090
:1021A0004683B1F5817F00F0FC8200F28D828029A8
:1021B00000F07783822940F0FA82A98801F07F013C
:1021C000042900F2F4825B485B4C890008442270C9
:1021D00062700278930740F1588484F800E04FF071
:1021E000020E42E3514F3A6832B3544B504E5449B9
:1021F000188834780D784028864645F0020828BFB4
:102200004FF0400E002C84F001043470CEEB00003F
:102210000CBF8824C82409EBC80680B285F00105EC
:1022200044EA0E447260188049F8384072440D70D8
:10223000002800F045813A603B4B1A88B2F5A06F48
:102240000FD100219A7859703E4B1A7009E0364A36
:10225000108842F22102904200F037812D4A49F85D
:102260003420394A0123137036E72A4A2A4B19F0E1
:10227000080F18BF134647F838302DE700F000FD6F
:10228000324A334952F82630002B00F0D181586889
:102290008C5D42F8260003F10802C9F80420032CE3
:1022A00005D8DFE804F02C02292602228A551A8874
:1022B00019F0080F0CBF8823C82343EA024347F8EC
:1022C000383009E7E00700F18181210600F1F28151
:1022D000A20706D51F4A204913780220DBB21370EB
:1022E0000870E30602D51C4B10221A7007B0BDE837
:1022F000F08F04228A55DAE705228A55D7E70322B0
:102300008A55D4E70000FF1FF013FF1F9C13FF1F27
:10231000E817FF1FC8004000880040007814FF1F26
:102320000114FF1F8014FF1F6414FF1F9813FF1F69
:102330000014FF1FC02007407014FF1FAC13FF1FC5
:102340006C14FF1F98200740942007404414FF1F7F
:102350007C14FF1F88200740802007409020074002
:1023600042F22100814200F02A8100F2D880B1F5CA
:10237000086F00F07682B1F5106F40F01882226A83
:10238000B349A8780870120600F13A83D9F82820DA
:10239000B049130600F10C83D9F83020AD49150679
:1023A00000F10183D9F83820AA49140600F1F68219
:1023B000D9F84020A749100600F14A83D9F84820EF
:1023C000A449120600F13F83D9F85020A149130611
:1023D00000F13483D9F858209E49150600F129836D
:1023E000D9F860209B49140600F11E83D9F86820B3
:1023F0009849100600F11383D9F870209549120608
:1024000000F10883D9F878209249130600F1FD8283
:10241000D9F880208F49150600F13183D9F888203A
:102420008C49140600F12583D9F8902089491006BB
:1024300000F11983D9F898208649120600F10D831E
:102440008548864A864901908648874D874C04977F
:1024500000230596029580460F4616461D460394B6
:10246000306828B1446800F00BFC2046002CF9D1FC
:1024700000233360029B38681A46002342F8253057
:1024800028B1446800F0FCFB2046002CF9D1002262
:102490003A60019A98F800301146002241F8042B66
:1024A000039A0191023B4FF0000122F81510032B13
:1024B00000F22B81DFE813F0700125017001250186
:1024C000BEF1400F18BF0022B5E6694A0D78487882
:1024D000157050708D78C8789570D07010680D792F
:1024E000157186284D7989795571917100F09B811C
:1024F0006049614E0A78307882F00105002842F088
:1025000002020D700CBF8821C82149F8321009EB76
:10251000C20280F001000021307051609EE642F25C
:102520002120814240F0CB81544B554C5549A8782D
:102530001D682560CDF804E00870002002908046F8
:10254000844604464B490D7845F0020E09EBCE0354
:102550000393019B002B039B5C600CBF8824C82461
:1025600044EA080385F0010449F83E3032700C70EB
:10257000DFF8E0E0404BDFF8FC80002840F01E81EF
:10258000BCF1400F1BD144F0020C09EBCC03029CC0
:10259000DFF8C0E05C60002A40F02681020442F0CF
:1025A00088029DF804304EF83C20044433700D70CE
:1025B0002346402803D10020334A3B601080334A31
:1025C000012313704DE600F0C7FCA5E5214B2F4811
:1025D00028491A614FF0020E80F800E02C4F0A7073
:1025E0002C49196099602C4E2C4D2D4C9A610D216F
:1025F0003970FF213170DFF8B8E029702270294D61
:10260000294A8EF800109F27012406F8047C5D609B
:102610000470DA6007B0BDE8F08F244A47F838004C
:1026200013780133137057E543F826000E4D3AE551
:102630008B5D032B00F2F08001A252F823F000BF63
:10264000D9200000D9200000FD260000F726000058
:102650007814FF1F0000FF1F5414FF1FF013FF1F0B
:102660004414FF1F7C14FF1F9C13FF1FE817FF1F5C
:10267000F017FF1F6C14FF1F0014FF1F9413FF1FA0
:10268000F817FF1F9014FF1FAC13FF1F9420074083
:10269000C020074088004000882007408020074075
:1026A00098200740B013FF1F0414FF1F6D14FF1F75
:1026B0008C200740C149C24B80220D2008701A703F
:1026C000A2077FF50EAE05E640F20232914240F0DD
:1026D000EE80A98801F07F01042968D86A88002A61
:1026E00065D1B648CDF804E089000844017841F08E
:1026F0000201017021E701238B55EDE400238B5586
:10270000EAE44FF0010388F800300135042D06F1AA
:10271000040607F1040708F101087FF4A1AEA94CF3
:10272000A94B2278A94D049F059E002129701A709B
:10273000130700F105816278A549DFF8A0820A70CD
:1027400010074FF00001C9F83010C9F8381000F137
:10275000E080A049A2780A700021C9F85010C9F899
:1027600058101107DFF8748200F10181E2789A496C
:102770009A4C0A7000211207C9F87010C9F8781035
:1027800000F1B08033780193002183F00102C9F891
:102790009010C9F89810D0E64FF0000388F8003088
:1027A000B3E7A98801F07F01042940F28D80834AB4
:1027B0000F2313708A4A0123137052E540287FF6D5
:1027C000E2AE44F002040EEBC401029E4E60BAB1C8
:1027D0009DF80410834A19703346403888F8005039
:1027E00040334EF83420E7E69DF80430337002049D
:1027F000029B0D7042F0C80203444EF83C20D8E61C
:102800009DF804101970029B774A88F800504038F0
:1028100040334EF83420CFE619F0080F0CBF0223E6
:1028200003238B5558E4714A0F21117060E6704AFA
:102830005468002CBBD06888B5F804E003E00C3283
:102840005468002CB3D013888342F8D15388734561
:10285000F5D1000A03280CBF94F800E0B2F808E0B4
:1028600003E0644A644C12782270E888704580F076
:102870003F8162490D784028844645F0020E28BF0A
:102880004FF0400C04EB0C0309EBCE020293012342
:102890005460CCEB00004FEA0C4800220193C8249E
:1028A0005EE6554C4FF0020E22706270DDE7B1F526
:1028B000A06F7FF47CAF0123002201933DE642F23A
:1028C00021329142F7D072E76A88002A7FF46FAF15
:1028D0003A48CDF804E089000844017821F002016B
:1028E00001702AE600F0ACF9002800F0EF80083013
:1028F0003D4AC4F88400C4F8802000F0A1F9002803
:1029000000F0DE800830374AC9F88C00C9F888200A
:1029100038E700F095F9002800F0C0800830324A0E
:10292000C8F84400C8F8402000F08AF9002800F0F8
:10293000AF8008302B4AC9F84C00C9F8482008E796
:1029400000F07EF9002800F0CD800830264AC9F852
:102950002400C9F8202000F073F9002800F0BC80A2
:102960000830204AC9F82C00C9F82820E3E600F016
:1029700067F9002800F09E8008301B4AC8F8640000
:10298000C8F8602000F05CF9002800F08D80083065
:10299000144AC9F86C00C9F86820E7E6C86B083823
:1029A00000F06EF904E5486B083800F069F9F9E4C5
:1029B000C86A083800F064F9EEE400BFC0200740A0
:1029C0008020074058520000C42007406D14FF1FAC
:1029D000C8200740CC200740D02007400000FF1F40
:1029E00094200740C8004000880040000114FF1FE9
:1029F0005C5200007814FF1F7014FF1F6C14FF1F3F
:102A0000606A083800F03CF9C0E4C86F083800F08C
:102A100037F9FDE4486F083800F032F9F2E4C86E87
:102A2000083800F02DF9E7E4486E083800F028F97E
:102A3000DCE4C86D083800F023F9D1E4486D0838AB
:102A400000F01EF9C6E4C86C083800F019F9BBE4C0
:102A5000486C083800F014F9B0E4D1F89C0008384C
:102A600000F00EF9ECE4D1F89400083800F008F911
:102A7000E0E4D1F88C00083800F002F9D4E4D1F891
:102A80008400083800F0FCF8C8E44FF0020EECE6D1
:102A90002A78C9F8480001322A705AE62A78C8F81C
:102AA000400001322A703FE72A78C9F868000132F5
:102AB0002A705BE62A78C8F8600001322A7061E764
:102AC0002A78C9F8880001322A705BE62A78C4F8AF
:102AD000800001322A7010E72A78C9F828000132F4
:102AE0002A7028E62A78C9F8200001322A7032E7D5
:102AF000BEF1400FF44628BF4FF0400C04EB0C032E
:102B000002930123CCEB0E004FEA0C480022019304
:102B100018E500BF2DE9F04100F03CFF314C324B8D
:102B20003248DFF8E480324EDFF8E0C0314F324DFA
:102B3000DFF8DCE000221A605A609A60DA601A61FD
:102B40005A619A61DA611A625A629A62DA621A63A7
:102B50005A639A63DA631A645A649A64DA641A6587
:102B60005A659A65DA651A665A669A66DA661A6767
:102B70005A679A67DA67C3F880202168C3F884200F
:102B800041F480212160016841F04071016003211E
:102B900088F80010A020C3F307218CF8000004F58A
:102BA00028343170C3F30740144938701B0E2B7062
:102BB000CC34FF238EF80030114D0CF8B83C11488E
:102BC0000B70012306F8083C227070264FF40014A5
:102BD000102207F82C3C2E70046081F8F820BDE824
:102BE000F08100BF348004400000FF1F00D8004087
:102BF0009C200740B0200740B42007401020074029
:102C000035E400E004E100E04421074040210740B2
:102C10008020074000F0A4B800F07CB800F056B85F
:102C200000F090B800F06CB900F046B908461146C3
:102C300000F0B2B8084600F033B900BF704700BFDB
:102C400072B60D480268B2FA82F30B2B10DC4FF01B
:102C50000041D94022EA0102026062B6074803EB54
:102C6000C303DB00C2180021C150104651607047F9
:102C700062B60020704700BF8C08FF1FD003FF1F03
:102C80000D4B0E4AC31AA2FB03231B090B2B0CD8B6
:102C90000B4A127852B972B60A484FF000410268E6
:102CA00021FA03F31A43026062B67047064A1278AB
:102CB000002AF0D0FFF720B9D003FF1F398EE33888
:102CC0006D14FF1F8C08FF1F7814FF1F38B50F4DC0
:102CD000286878B143880288C118013393420C7A7E
:102CE00002D24380204638BDFFF7CAFF00232046AA
:102CF0002B6038BD064B1B782BB10320FFF7C8F8BB
:102D000028600028E6D14FF0FF3038BD8C14FF1F3B
:102D10007814FF1F10B5094C206818B14388184477
:102D2000007A10BD064B1B782BB10320FFF7B0F8DB
:102D300020600028F2D14FF0FF3010BD8C14FF1F2F
:102D40007814FF1F044B054A1B6890881BB11A8832
:102D50005B88D31A184470478C14FF1FE817FF1FB5
:102D60000B4B1B789BB110B50A4C206848B1FFF79C
:102D700087FF002303202360FFF78AF830B1FFF7B5
:102D80007FFF0320FFF784F80028F8D110BD7047BB
:102D90007814FF1F8C14FF1F2DE9F04FDFF8F89017
:102DA00083B0012289F80020019169B3DFF8EC803B
:102DB000354F019E8346D8F80000B0B3334D4488A8
:102DC000C4F14001B14228BF314604EB010E00229C
:102DD0001FFA8EFE2A70761AA0F802E000F10802AF
:102DE00051B1013C224459441BF8014B02F8014FF8
:102DF0008B45F9D1B0F802E0BEF13F0F0BD8244A61
:102E000005211170002ED6D10198002389F80030D9
:102E100003B0BDE8F08F4022028001460420FFF796
:102E2000CFF80022C8F80020E9E73A7822B3194C1D
:102E3000164D4FF0010A07E0013C16D02A78A2B9DE
:102E400000F0AEF83A78BAB10420FFF73FF807284F
:102E5000F2D889F800A0FFF7F3FEC8F800000028B8
:102E6000ADD10D4B013C1870E8D101234FF0FF307C
:102E70002B7003B0BDE8F08F00234FF0FF3089F8CE
:102E8000003003B0BDE8F08F7814FF1F8814FF1FD7
:102E90008014FF1F214801008114FF1F8414FF1FAD
:102EA00000B583B002AB012103F8010D1846FFF70E
:102EB00073FF03B05DF804FB38B50E4D0E4C286867
:102EC0000123237028B1408800232370C0F1400003
:102ED00038BD0A4B1B7813B90020207038BD042080
:102EE000FEF7F4FF0728F7D8FFF7AAFE28600028AE
:102EF000E9D1F1E78414FF1F8114FF1F7814FF1F2D
:102F0000F8B5114B1B788BB1104E114D3468012769
:102F10002F7064B10F4A6388002717702146238001
:102F20000420FFF74DF8376000232B70F8BDFFF742
:102F300087FE084B28B1014604201C70FFF740F8BB
:102F4000F2E71F70F0E700BF7814FF1F8414FF1F23
:102F50008114FF1F8014FF1F38B50E4B1B7873B907
:102F60000D4C216861B103F0FF054B880B800420F4
:102F7000FFF726F8256038BD084B01221A7038BDCE
:102F8000FFF75EFE0028F7D00146BDE83840042078
:102F9000FFF716B88114FF1F8414FF1F8014FF1F52
:102FA00038B52C4C237803B138BD01232370FFF7CB
:102FB000C9FE002842D100F0CBF900283BD100F037
:102FC0005DFA002834D100F0EFFA70BB00F068FB26
:102FD00040BB00F0E1FB10BB00F05AFCE0B900235D
:102FE0002370EFF30583002BDED1EFF3108172B66F
:102FF000194B186828B3194C227812BB45691D601B
:10300000012323700DB3AA6101B962B6002545778B
:10301000836898472570C7E700F028F9DFE700F0DC
:1030200023F9D9E700F01EF9D3E700F019F9CDE74D
:1030300000F014F9C7E700F00FF9C0E7FFF7FEFD55
:10304000B9E70029B0D162B638BD054B1D60002933
:10305000DCD1DAE79114FF1FA414FF1FA814FF1F8F
:10306000A014FF1F10B4EFF3108272B6437F33B980
:10307000017F012908D0032910D00123437702B929
:1030800062B65DF8044B7047114C2168A1B111493B
:1030900043610B68836108605861EEE70E4C21685C
:1030A00081B10E4943610B688361086058610C4B24
:1030B0004FF080511960E0E7064B4161816120606B
:1030C0001860DAE7054B4161816120601860EEE726
:1030D000A414FF1FA014FF1F9414FF1F9814FF1FB8
:1030E00004ED00E010B4047F4160022CC26003D004
:1030F0005DF8044BFFF7B6BF83685DF8044B1847D3
:1031000070B5EFF3108272B60C4C206880B10C4E93
:1031100000254369236073B19D6102B962B64577AA
:1031200083689847EFF3108272B620680028F0D1C8
:1031300002B962B670BD3360EFE700BF9414FF1FA1
:103140009814FF1FFFF7DCBF184A30B41468002C36
:1031500027D0036821688B420ED2CB1A00218460ED
:10316000C1602360E06010600223037530BC7047CB
:1031700011688B42144608D3A2685B1A0360002AC8
:10318000F6D18260C460A060EEE7D268C26084605D
:10319000E060C568CB1A0222A8602360027530BCCB
:1031A00070478460C4601060DEE700BF9C14FF1F9E
:1031B000F8B5224E34682CB32368002B3AD1204F47
:1031C0001D4604E03468ECB12368002B32D1A368BB
:1031D00003B1DD6020693360036825751B68BB425D
:1031E00021D1037F4560022BC46020D0FFF73AFF56
:1031F0006368002BE6D023602046FFF7A5FF346804
:10320000002CE1D1EFF3108372B60E4A0021106852
:10321000116003B962B628B18468FFF795FF2046B4
:103220000028F9D1F8BD224600219847E0E78368DD
:103230009847DDE7013B2360E4E700BF9C14FF1FD4
:10324000E5300000AC14FF1F024A1368013313601D
:10325000FFF7AEBF9413FF1F704700BF704700BF5A
:10326000704700BF704700BF704700BF704700BF86
:1032700030B42948294A2A4B2A4D6024E1210470A0
:1032800011701B78284C082B30D00A2B274828496E
:1032900037D00C2B0CBF35225D2212232A6023600D
:1032A00002600B60234B24491B78244ABBB10123E5
:1032B0000B601360224B23491B78234A012B26D92C
:1032C000042B0FD9082B1ED9102B94BF86238723DC
:1032D0000B6013601D4B01221A7030BC70470B60ED
:1032E0001360E7E784230B601360F3E700F58E209B
:1032F0000F490830212213232A60236002600B60EB
:10330000D0E73922F7E785230B601360E2E78023DB
:103310000B601360DEE700BF00400740014007403C
:103320009008FF1F08B003400CB0034008B00B40EA
:103330000CB00B40B114FF1F20B0034020B00B4075
:103340009108FF1F24B0034024B00B40B014FF1FAE
:10335000054A064B10781B78C0B2DBB2984238BFE2
:103360004030C01A704700BFB814FF1FB914FF1FC8
:10337000F0B4384B1A7912F0300F2CD072B6997D18
:1033800001F0FF0200293DD062B6334F334938784F
:103390000D78334E1C46C0B2EDB2431C402BE17990
:1033A00028BF0023AB4202F1FF32C9B21CBFF15467
:1033B000184612F0FF02F0D12A4B1B68C2B23A70D5
:1033C0004BB1A84236BFC5F14005401B4019272824
:1033D000C4BF01221A701F49CA78D2B2150616D48A
:1033E00052060DD51B4B1B795B0609D51E4B1F4999
:1033F0001B6800220A7003B11A70164B3C22DA7067
:10340000F0BC70474022D9795A7462B6E3E70B7971
:103410001C06E5D5164B174E1C783378E4B2DBB2A8
:103420009C420ED0144D01E0A3420AD00133402B40
:1034300028BF00230879E85CC0B2C871087D07285E
:10344000F2D9DBB2034933700B79180644BF7C23F1
:10345000CB70C5E700A00640B814FF1FB914FF1FCA
:10346000FC14FF1FB414FF1F4015FF1F3C15FF1F66
:103470004415FF1F3D15FF1FBC14FF1F054A064BD7
:1034800010781B78C0B2DBB2984238BF4030C01A07
:10349000704700BFB815FF1F4D15FF1FF0B4384B24
:1034A0001A7912F0300F2CD072B6997D01F0FF021C
:1034B00000293DD062B6334F334938780D78334E0A
:1034C0001C46C0B2EDB2431C402BE17928BF00235B
:1034D000AB4202F1FF32C9B21CBFF154184612F0E0
:1034E000FF02F0D12A4B1B68C2B23A704BB1A8421E
:1034F00036BFC5F14005401B40192728C4BF012233
:103500001A701F49CA78D2B2150616D452060DD5C4
:103510001B4B1B795B0609D51E4B1F491B680022FC
:103520000A7003B11A70164B3C22DA70F0BC704777
:103530004022D9795A7462B6E3E70B791C06E5D5C7
:10354000164B174E1C783378E4B2DBB29C420ED097
:10355000144D01E0A3420AD00133282B28BF0023D9
:103560000879E85CC0B2C871087D0728F2D9DBB2DF
:10357000034933700B79180644BF7C23CB70C5E731
:1035800000B00640B815FF1F4D15FF1F7815FF1F2F
:103590004815FF1FBC15FF1F4C15FF1FC015FF1F4F
:1035A000B915FF1F5015FF1F054A064B10781B78F1
:1035B000C0B2DBB2984238BF4030C01A704700BF7B
:1035C000C815FF1FC915FF1F30B42B4B1A7994067D
:1035D0001FD52A48DA790378294901333F2B097826
:1035E000C8BF00238B42D2B203D0264CD9B2E254DA
:1035F0000170254A116861B1244A1278D2B293420F
:1036000036BFC2F140029B1A9B18272BC4BF01236F
:103610000B70194AD378DBB2180611D45A060DD5AF
:10362000154B1B795B0609D5194B1A491B680022FB
:103630000A7003B11A70104B2C22DA7030BC70473C
:1036400011790906EAD5144910480C780178C9B2F5
:103650008C420DD04A1C272A84BF00210A460F4DF8
:10366000054C98BFD1B2AA5CD2B2E2710170D5E725
:103670006C21D170D2E700BF00C00640C815FF1F03
:10368000C915FF1FF415FF1FC415FF1F3516FF1FB7
:103690003816FF1F3416FF1F3C16FF1FCC15FF1FE7
:1036A000054A064B10781B78C0B2DBB2984238BF8F
:1036B0004030C01A704700BF4416FF1F4516FF1F59
:1036C00030B42B4B1A7994061FD52A48DA7903783F
:1036D000294901333F2B0978C8BF00238B42D2B25E
:1036E00003D0264CD9B2E2540170254A116861B169
:1036F000244A1278D2B2934236BFC2F140029B1ADA
:103700009B18272BC4BF01230B70194AD378DBB257
:10371000180611D45A060DD5154B1B795B0609D531
:10372000194B1A491B6800220A7003B11A70104B1A
:103730002C22DA7030BC704711790906EAD5144999
:1037400010480C780178C9B28C420DD04A1C272A47
:1037500084BF00210A460F4D054C98BFD1B2AA5C28
:10376000D2B2E2710170D5E76C21D170D2E700BF0F
:1037700000D006404416FF1F4516FF1F7016FF1F9E
:103780004016FF1FB116FF1FB416FF1FB016FF1F14
:10379000B816FF1F4816FF1F054A064B10781B7806
:1037A000C0B2DBB2984238BF4030C01A704700BF89
:1037B000C016FF1FC116FF1F30B42B4B1A79940699
:1037C0001FD52A48DA790378294901333F2B097834
:1037D000C8BF00238B42D2B203D0264CD9B2E254E8
:1037E0000170254A116861B1244A1278D2B293421D
:1037F00036BFC2F140029B1A9B18272BC4BF01237E
:103800000B70194AD378DBB2180611D45A060DD5BD
:10381000154B1B795B0609D5194B1A491B68002209
:103820000A7003B11A70104B2C22DA7030BC70474A
:1038300011790906EAD5144910480C780178C9B203
:103840008C420DD04A1C272A84BF00210A460F4D06
:10385000054C98BFD1B2AA5CD2B2E2710170D5E733
:103860006C21D170D2E700BF00A00E40C016FF1F30
:10387000C116FF1FEC16FF1FBC16FF1F2D17FF1FE1
:103880003017FF1F2C17FF1F3417FF1FC416FF1F11
:10389000054A064B10781B78C0B2DBB2984238BF9D
:1038A0004030C01A704700BF3C17FF1F3D17FF1F75
:1038B00030B42C4B5A6894021FD52B48DA68037831
:1038C0002A4901333F2B0978C8BF00238B4204D01B
:1038D000274CD2B2D9B2E2540170264A116861B1C4
:1038E000254A1278D2B2934236BFC2F140029B1AE7
:1038F0009B18272BC4BF01230B701A4A9368180228
:1039000002D55268110211D45A020DD5154B5B68CD
:103910005B0209D5194B1A491B6800220A7003B1D2
:103920001A70184B00221A6030BC7047164A1249B0
:1039300010780A78D2B290420DD00132272A84BF83
:1039400000200246114D074C98BFD0B2AA5CD2B2FB
:10395000E2600870D8E70E480A4A0024012104609A
:103960001160D1E700400C403C17FF1F3D17FF1FBF
:103970006817FF1F3817FF1FA917FF1FAC17FF1F7E
:10398000A817FF1F58018843B017FF1F4017FF1FDC
:103990005C01884310B584B072B6FEF787F8184A08
:1039A000184B19491160702280211A701A4619703B
:1039B00013781B06FCD5154B1C68FEF791F862B610
:1039C000134B9C429CBF04EB840464002046114CC2
:1039D00001A90A22FEF7A0F801A92046002311F848
:1039E000012B01333AB10A2B20F8022FF7D116230D
:1039F000237004B010BD5B00DBB2237004B010BDB7
:103A00000400024000000240000007410C00024098
:103A10007F9698002009FF1F0B460146184600F0CC
:103A2000F3BC00BFF0B4464B464A986B5C6B01791F
:103A30001170454922790A701A6B00790870002AC2
:103A400046D05968C9688A423ED82168CC8B240484
:103A500002F1FF3065D4C0F30E00C883C88B80B27A
:103A6000C882996B0968C88B000452D4C2F30E0057
:103A7000C883C88B002480B212F1FF32C88218BFFD
:103A800001221C63596B2E4809680D6800F12C0453
:103A9000A54236D00068C46814F0804F0C680D68E9
:103AA00015BF248824780235013544F000440D60A8
:103AB0004463996B254B09791970214912B14A6BFE
:103AC00012791A70F0BC7047521A1A630122D9E7B2
:103AD000D86B196805681E4C0A63CC62CC682D68E7
:103AE0001C4E24F080440327B542CC6083F82D702F
:103AF0001FD1037F4260022BC2601ED0F0BCFFF7D3
:103B0000B1BA016890F82C00CC6840F000404863DE
:103B1000CFE7CC8BC2F3080004F47E442043C88373
:103B2000A7E7CC8BC0F3080004F47E442043C8838D
:103B300094E72B461146F0BC18478368F0BC184741
:103B40003809FF1F1F8000401C8000401B80004080
:103B500000000FFFE530000090E80C00F0B41C6896
:103B600059682568164F174E29432160164D17498D
:103B70001760D66015611160417A154A5C180C31E6
:103B800094F82C4053F8215002EBC40149680D60B1
:103B9000017A5C1803EB8101247ECD6902EBC4013C
:103BA00049680D60817A581803EB810390F8400052
:103BB000596C02EBC002F0BC53681960704700BF3B
:103BC00001401F00011000380110007800001F8024
:103BD0003050000081F0004102E000BF83F000435C
:103BE00030B54FEA41044FEA430594EA050F08BF98
:103BF00090EA020F1FBF54EA000C55EA020C7FEA5C
:103C0000645C7FEA655C00F0E2804FEA5454D4EBD8
:103C10005555B8BF6D420CDD2C4480EA020281EAA2
:103C2000030382EA000083EA010180EA020281EADA
:103C30000303362D88BF30BD11F0004F4FEA01312C
:103C40004FF4801C4CEA113102D0404261EB41013B
:103C500013F0004F4FEA03334CEA133302D05242C1
:103C600063EB430394EA050F00F0A780A4F101047D
:103C7000D5F1200E0DDB02FA0EFC22FA05F28018B7
:103C800041F1000103FA0EF2801843FA05F359419D
:103C90000EE0A5F120050EF1200E012A03FA0EFC1C
:103CA00028BF4CF0020C43FA05F3C01851EBE37146
:103CB00001F0004507D54FF0000EDCF1000C7EEB63
:103CC00000006EEB0101B1F5801F1BD3B1F5001FA1
:103CD0000CD349085FEA30004FEA3C0C04F10104C0
:103CE0004FEA445212F5800F80F09A80BCF1004FE9
:103CF00008BF5FEA500C50F1000041EB045141EA6B
:103D0000050130BD5FEA4C0C404141EB010111F46B
:103D1000801FA4F10104E9D191F0000F04BF014616
:103D20000020B1FA81F308BF2033A3F10B03B3F1F4
:103D300020020CDA0C3208DD02F1140CC2F10C0284
:103D400001FA0CF021FA02F10CE002F11402D8BFE2
:103D5000C2F1200C01FA02F120FA0CFCDCBF41EAAE
:103D60000C019040E41AA2BF01EB0451294330BD7D
:103D70006FEA04041F3C1CDA0C340EDC04F114045A
:103D8000C4F1200220FA04F001FA02F340EA030031
:103D900021FA04F345EA030130BDC4F10C04C4F177
:103DA000200220FA02F001FA04F340EA0300294657
:103DB00030BD21FA04F0294630BD94F0000F83F4A1
:103DC000801306BF81F480110134013D4EE77FEA84
:103DD000645C18BF7FEA655C29D094EA050F08BFD0
:103DE00090EA020F05D054EA000C04BF19461046B1
:103DF00030BD91EA030F1EBF0021002030BD5FEAF5
:103E0000545C05D14000494128BF41F0004130BD1C
:103E100014F580043CBF01F5801130BD01F0004570
:103E200045F0FE4141F470014FF0000030BD7FEAE3
:103E3000645C1ABF194610467FEA655C1CBF0B46DE
:103E4000024650EA013406BF52EA033591EA030FF5
:103E500041F4002130BD00BF90F0000F04BF0021ED
:103E6000704730B54FF4806404F132044FF0000520
:103E70004FF0000150E700BF90F0000F04BF002199
:103E8000704730B54FF4806404F1320410F00045FF
:103E900048BF40424FF000013EE700BF42004FEAFA
:103EA000E2014FEA31014FEA02701FBF12F07F4377
:103EB00093F07F4F81F06051704792F0000F14BF74
:103EC00093F07F4F704730B54FF4607401F00045B8
:103ED00021F0004120E700BF50EA010208BF70470F
:103EE00030B54FF000050AE050EA010208BF704704
:103EF00030B511F0004502D5404261EB41014FF46D
:103F0000806404F132045FEA915C3FF4DCAE4FF070
:103F100003025FEADC0C18BF03325FEADC0C18BF57
:103F2000033202EBDC02C2F1200300FA03FC20FAA8
:103F300002F001FA03FE40EA0E0021FA02F11444F5
:103F4000C1E600BF70B54FF0FF0C4CF4E06C1CEA0A
:103F500011541DBF1CEA135594EA0C0F95EA0C0F7F
:103F600000F0DEF82C4481EA030621EA4C5123EAF2
:103F70004C5350EA013518BF52EA033541F4801121
:103F800043F4801338D0A0FB02CE4FF00005E1FBD4
:103F900002E506F00042E0FB03E54FF00006E1FB1E
:103FA00003569CF0000F18BF4EF0010EA4F1FF0461
:103FB000B6F5007F64F5407404D25FEA4E0E6D41A1
:103FC00046EB060642EAC62141EA55514FEAC520B2
:103FD00040EA5E504FEACE2EB4F1FD0C88BFBCF52E
:103FE000E06F1ED8BEF1004F08BF5FEA500E50F1DF
:103FF000000041EB045170BD06F0004646EA0101A5
:1040000040EA020081EA0301B4EB5C04C2BFD4EBD6
:104010000C0541EA045170BD41F480114FF0000ECF
:10402000013C00F3AB8014F1360FDEBF002001F03D
:10403000004170BDC4F10004203C35DA0C341BDCB7
:1040400004F11404C4F1200500FA05F320FA04F089
:1040500001FA05F240EA020001F0004221F00041BD
:1040600010EBD37021FA04F642EB06015EEA430E30
:1040700008BF20EAD37070BDC4F10C04C4F1200560
:1040800000FA04F320FA05F001FA04F240EA020013
:1040900001F0004110EBD37041F100015EEA430EE4
:1040A00008BF20EAD37070BDC4F1200500FA05F204
:1040B0004EEA020E20FA04F301FA05F243EA020383
:1040C00021FA04F001F0004121FA04F220EA020092
:1040D00000EBD3705EEA430E08BF20EAD37070BDD8
:1040E00094F0000F0FD101F00046400041EB0101B8
:1040F00011F4801F08BF013CF7D041EA060195F09A
:10410000000F18BF704703F00046520043EB030353
:1041100013F4801F08BF013DF7D043EA0603704740
:1041200094EA0C0F0CEA135518BF95EA0C0F0CD04B
:1041300050EA410618BF52EA4306D1D181EA030191
:1041400001F000414FF0000070BD50EA410606BF8B
:104150001046194652EA430619D094EA0C0F02D1D0
:1041600050EA013613D195EA0C0F05D152EA033615
:104170001CBF104619460AD181EA030101F0004133
:1041800041F0FE4141F470014FF0000070BD41F07C
:10419000FE4141F4780170BD70B54FF0FF0C4CF456
:1041A000E06C1CEA11541DBF1CEA135594EA0C0F75
:1041B00095EA0C0F00F0A7F8A4EB050481EA030EC2
:1041C00052EA03354FEA013100F088804FEA0333A9
:1041D0004FF0805545EA131343EA12634FEA022277
:1041E00045EA111545EA10654FEA00260EF0004138
:1041F0009D4208BF964244F1FD0404F5407402D28A
:104200005B084FEA3202B61A65EB03055B084FEA1A
:1042100032024FF480104FF4002CB6EB020E75EB17
:10422000030E22BFB61A754640EA0C005B084FEA3F
:104230003202B6EB020E75EB030E22BFB61A7546BC
:1042400040EA5C005B084FEA3202B6EB020E75EB07
:10425000030E22BFB61A754640EA9C005B084FEA7F
:104260003202B6EB020E75EB030E22BFB61A75468C
:1042700040EADC0055EA060E18D04FEA051545EA7B
:1042800016754FEA06164FEAC30343EA52734FEA24
:10429000C2025FEA1C1CC0D111F4801F0BD141EA9D
:1042A00000014FF000004FF0004CB6E711F4801F02
:1042B00004BF01430020B4F1FD0C88BFBCF5E06FE2
:1042C0003FF6AFAEB5EB030C04BFB6EB020C5FEAF2
:1042D000500C50F1000041EB045170BD0EF0004E47
:1042E0004EEA113114EB5C04C2BFD4EB0C0541EA79
:1042F000045170BD41F480114FF0000E013C90E676
:1043000045EA060E8DE60CEA135594EA0C0F08BF39
:1043100095EA0C0F3FF43BAF94EA0C0F0AD150EA38
:1043200001347FF434AF95EA0C0F7FF425AF1046CB
:1043300019462CE795EA0C0F06D152EA03353FF4F3
:10434000FDAE1046194622E750EA410618BF52EA70
:1043500043067FF4C5AE50EA41047FF40DAF52EA44
:1043600043057FF4EBAE12E74FEA4102B2F1E043BE
:1043700024BFB3F5001CDCF1FE5C0DD901F0004C4C
:104380004FEAC0024CEA5070B2F1004F40EB83009C
:1043900008BF20F00100704711F0804F21D113F1C8
:1043A0003872BCBF01F00040704741F480114FEA01
:1043B0005252C2F11802C2F1200C10FA0CF320FA8A
:1043C00002F018BF40F001004FEAC1234FEAD323A7
:1043D00003FA0CFC40EA0C0023FA02F34FEA430311
:1043E000CCE77FEA625307D150EA01331EBF4FF09A
:1043F000FE4040F44000704701F0004040F0FE40B5
:1044000040F40000704700BF13460A4601460220F0
:1044100000F08EBB014B1868704700BFA00DFF1F56
:1044200070B50F4E0F4D761BB61018BF002405D087
:10443000013455F8043B9847A642F9D10A4E0B4D7A
:10444000761B00F081FFB61018BF002406D001349F
:1044500055F8043B9847A642F9D170BD70BD00BF26
:1044600054530000545300006453000054530000A0
:10447000024B0146186800F00BB800BFA00DFF1FEB
:10448000024B0146186800F017BC00BFA00DFF1FCB
:104490002DE9F04F01F10B05162D83B0064640F2D1
:1044A0009F8035F0070500F1BF80A94200F2BC8073
:1044B00000F0F4FAB5F5FC7FC0F09C826B0A00F0C6
:1044C000BA80042B00F28381A80900F1390E4FEA6B
:1044D0004E033830C44F07EB8303A3F108015C6837
:1044E000A14207D1ACE0002A80F2AC80E468A1428E
:1044F00000F0A680636823F003035A1B0F2AF2DD45
:10450000B9493C6901F1080E744500F0B381636854
:1045100023F003035A1B0F2A00F39981002AC1F8E4
:1045200014E0C1F810E080F29E80B3F5007F80F0C7
:104530006781DB0803F1010C01229B1002FA03F3EF
:104540004A6851F83C80C4F8088001EBCC091A4352
:10455000A9F10803E3604A6041F83C40C8F80C4008
:10456000831001249C40944200F28A80144206D1B8
:1045700020F003006400144200F10400FAD007EBBD
:10458000C009CC468046DCF80C108C4507D173E19D
:10459000002A80F28181C9688C4500F06D814B68EA
:1045A00023F003035A1B0F2AF2DD0C46D1F80CC08E
:1045B00054F8088F4B1945F001054D6042F0010198
:1045C000C8F80CC03046CCF808807B613B61C3F86A
:1045D0000CE0C3F808E059609A5000F061FA1FE05F
:1045E000102921D800F05AFA1025062302207E4F08
:1045F00007EB8303A3F108025C68944200F0458155
:104600006368E168A56823F00303234430465A68D1
:10461000E96042F001028D605A6000F041FA08340E
:10462000204603B0BDE8F08F00240C232046336001
:1046300003B0BDE8F08F80234FF0400E3F2049E7E4
:1046400070465DE72344E1685A68A56842F00102BC
:10465000E96030468D605A6000F022FA0834204646
:1046600003B0BDE8F08F234430465A6842F001029F
:104670005A6000F015FA0834204603B0BDE8F08F08
:10468000BC68636823F00308A84504D3C5EB08039E
:104690000F2B00F38C80554BDFF860911A68D9F826
:1046A000003001332A4404EB080A00F0608102F56F
:1046B00080520F3222F47F6222F00F021146304600
:1046C000019200F0EFF9B0F1FF3F8346019A00F04C
:1046D0005881824500F2FC80454B1968DA45114447
:1046E000196000F05381D9F80000DFF810E10130C3
:1046F0001BBFCAEB0B0A5144CEF800B019601BF087
:10470000070100F01781C1F10800C1F58051834411
:1047100008315A44C2F30B02C2EB01094946304644
:10472000019300F0BFF9431C019B00F03F81CBEBEC
:1047300000024A4442F001021968C7F808B049442F
:10474000BC42CBF804201960DFF8A49016D0B8F171
:104750000F0F40F2FD806268A8F10C0323F00703FD
:10476000E01802F001024FF0050E1A430F2B6260B1
:10477000C0F804E0C0F808E000F21C811D4BBC68E2
:104780001A68914288BF19601B4B1A68914262688F
:1047900088BF196022F003029542A2EB050301D8FD
:1047A0000F2B04DC304600F07BF9002438E7621957
:1047B00043F0010345F0010565603046BA6053607F
:1047C00000F06EF90834204603B0BDE8F08F142BDA
:1047D00071D9542B00F2A480280B00F16F0E4FEA20
:1047E0004E036E3076E600BFA40DFF1FBC17FF1FFF
:1047F000C017FF1FB817FF1FB417FF1FB011FF1F0F
:104800005A0A042A5ED9142A00F2B38002F15C012C
:1048100049005B3207EB810C57F82110DFF8DC818F
:10482000ACF1080C8C4500F088804A6822F0030245
:10483000934202D289688C45F7D1D1F80CC07A68CE
:10484000C4F80CC0A160CCF80840CC6088E66319BD
:1048500042F0010745F00105656030464B610B6190
:10486000C3F80CE0C3F808E05F609A50083400F029
:1048700017F9D5E64A6873E608F1010818F0030F46
:104880000CF1080C7FF47FAE30E0DC68A34208BF77
:1048900002303FF435AEB3E60B440C465A68C968A3
:1048A00054F8085F42F001025A603046E9608D60BA
:1048B00000F0F6F8B4E603F15C0E03F15B004FEA9A
:1048C0004E0307E69A0902F1390149003832A1E79F
:1048D000BC424A4B3FF400AF9C68626822F003027E
:1048E0005AE759F80839994540F0828010F0030FD3
:1048F00000F1FF30F5D17B6823EA04037B6064009C
:104900009C423FF6BDAE002C3FF4BAAE1C4240467E
:104910007FF435AE64001C4200F10400FAD02EE6AC
:10492000B3F5AA7F18D8E80B00F1780E4FEA4E03D2
:104930007730CFE54FF48051EBE60121D8F8043011
:10494000921001FA02F21A43C8F80420614677E790
:104950000123CBF8043025E740F25452934220D88B
:10496000A80C00F17D0E4FEA4E037C30B2E5103208
:10497000A4E6542A26D81A0B02F16F0149006E32C0
:1049800048E7BC68626822F0030205E7CAF30B003F
:1049900000287FF4A8AE4244BB6842F001025A608E
:1049A000ECE6FE234FF07F0E7E2093E501224FF0D0
:1049B0000009C1E604F10801304600F07DF9D9F89C
:1049C0000010DBE6B2F5AA7F05D8DA0B02F1780118
:1049D000490077321EE740F254518A4205D89A0CBA
:1049E00002F17D0149007C3214E7FE217E2211E7AD
:1049F0007B6884E7E808431C5B00F8E5A40DFF1F13
:104A000070B4840746D0541E002A41D0CDB203466C
:104A100002E0621EE4B3144603F8015B9A07F8D182
:104A2000032C2ED9CDB245EA05250F2C45EA0545C4
:104A300019D903F110022646103E0F2E42F8105CE1
:104A400042F80C5C42F8085C42F8045C02F1100287
:104A5000F2D8A4F1100222F00F0204F00F04103279
:104A6000032C13440DD91E462246043A032A46F865
:104A7000045BFAD8221F22F003020432134404F02C
:104A800003042CB1C9B21C4403F8011BA342FBD19F
:104A900070BC704714460346C2E700BF704700BFB2
:104AA000704700BF38B5074C002305460846236011
:104AB000FCF7E6FF431C00D038BD2368002BFBD079
:104AC0002B6038BDFC17FF1F40EA01039B0770B441
:104AD0002BD1032A29D90C460346214654F8046BEE
:104AE000A6F1013525EA060515F0803F06D1043A06
:104AF000032A43F8046B2146EFD8A2B10C781C704E
:104B0000013A013301313CB16AB111F8014B03F8AC
:104B1000014B013A002CF7D12AB11A44002103F8C5
:104B2000011B9A42FBD170BC70470346E5E700BF0A
:104B30002DE9F047254C2568D5F8484106468846BA
:104B400092469946C4B360681F2817DC431C76B1AF
:104B500004EB80050122C5F888A0D4F888118240B2
:104B60001143022EC4F88811C5F808911ED00230F6
:104B7000636044F820800020BDE8F087144B03B345
:104B80004FF4C870FFF774FC0446D0B1D5F8483133
:104B9000002780E88800C5F8484138460123C4F85A
:104BA0008871C4F88C71002EE1D0D1E7D4F88C1153
:104BB0000A43C4F88C21DAE705F5A674C5F8484124
:104BC000C1E74FF0FF30BDE8F08700BF445300005D
:104BD00071440000024B13B1024800F005B8704761
:104BE00000000000F54B0000002301461A4618465D
:104BF000FFF79EBF38B5074D074C2C1BA41005D0FE
:104C0000013C55F8043D9847002CF9D1BDE83840E7
:104C100000F0A8BB0000000000000000F8B5234F22
:104C20000C460646FFF73AFFBB685D6825F00305B2
:104C3000291B01F6EF7121F47F6121F00F01A1F52D
:104C40008054B4F5805F07DB00213046FFF72AFF70
:104C5000BB682B44984204D03046FFF721FF002068
:104C6000F8BD61423046FFF71DFF01300DD0104BFB
:104C7000BA6819682D1B45F001053046091B5560BF
:104C80001960FFF70DFF0120F8BD00213046FFF746
:104C900009FFBA68831A0F2BDEDD064C044924682D
:104CA00043F00103001B53600860D5E7A40DFF1F0C
:104CB000C017FF1FB011FF1F002945D02DE9F0419B
:104CC0000D468046FFF7EAFE55F8047C6A4927F056
:104CD0000103A5F10804E2188E685068B24220F082
:104CE000030062D0FE0750600BD455F8087CE41B2B
:104CF00001F1080EA56875453B446FD0E768EF6089
:104D0000BD6015186D68ED0742D543F00102626081
:104D1000E350B3F5007F18D2DB085A1C4D6851F8F8
:104D20003270A76001209B1000FA03F301EBC20070
:104D30001D430838E0604D6041F83240FC60404659
:104D4000BDE8F041FFF7ACBE70475A0A042A53D8B9
:104D50009A0902F139077F0002F1380501EB87005B
:104D600051F827204449083890424DD0516821F02D
:104D700003018B4202D292689042F7D1D068E06082
:104D8000A2608460D4604046BDE8F041FFF788BE71
:104D900095683A4FBD4203443FD0D068E86043F085
:104DA000010285606260E350B3E7FF07034407D464
:104DB00055F8082CA41A1344A068E268C2609060F9
:104DC0002F4A126843F00100934260608C60B6D3B2
:104DD0002C4B40461968FFF721FFB0E711184968CE
:104DE000C90744D49168D268CA60034443F0010003
:104DF00091606060E350A2E7142A17D802F15C07C3
:104E00007F0002F15B05A9E7AA104B68012505FAAE
:104E100002F213434B600246B1E743F001024C61DA
:104E20000C61E560A5606260E35088E7542A06D80B
:104E30001A0B02F16F077F0002F16E058EE7B2F5E3
:104E4000AA7F06D8DA0B02F178077F0002F1770516
:104E500084E740F25450824206D89A0C02F17D0752
:104E60007F0002F17C0579E7FE277E2576E743F097
:104E700001026260E35062E7A40DFF1FAC0DFF1F4B
:104E8000AC11FF1FBC17FF1F000000000000000056
:104E900085040000696E6974696E6700436F756C04
:104EA000646E277420696E697420616C74696D6525
:104EB0007465722100000000416C74696D65746551
:104EC0007220696E697420737563636573736675A8
:104ED0006C00000043616E6E6F7420706F6C6C200C
:104EE000616C746974756465202D2D2D2067726F57
:104EF000756E64207072657373757265206E6F7461
:104F00002079657420736574210000004661696C26
:104F1000656420746F20706572666F726D207265B3
:104F20006164696E67203A280000000074656D7046
:104F30003A2025660A70726573737572653A20258A
:104F4000660A616C743A2025660A0000416C746937
:104F50006D65746572206661696C656420746F208C
:104F6000656E61626C650000416C74696D657465A5
:104F700072206661696C656420746F206469736176
:104F8000626C650034800440400000001211220869
:104F9000300202050702131021072F020205070243
:104FA000180000003480044080000000263AFFFF13
:104FB000FF0206000000253BFFFFFF020600000085
:104FC00019000000288004404000000004FFFFFF9B
:104FD000FF0500000000031AFFFFFF0505000000A9
:104FE0004A0000000000000000000000510700001F
:104FF00015070000C906000011070000CD060000DB
:10500000D9060000F9060000424E4F303535000049
:10501000000000000000000069160000AD1600004E
:1050200001050000611800006D1600000D0AFFFF69
:105030004008FE4340A004404408FE4344A004400E
:105040000018FE4300C004403000FE43309004408E
:105050003400FE43349004401C18FE431CC004403E
:105060001018FE4310C004400818FE4308C0044056
:105070000C18FE430CC004400C10FE430CB004405E
:105080001010FE4310B004401810FE4318B0044046
:105090001C10FE431CB004401410FE4314B0044026
:1050A0000418FE4304C004400010FE4300B0044056
:1050B0000008FE4300A004400408FE4304A004408E
:1050C0000C08FE430CA004400808FE4308A004405E
:1050D0001418FE4314C004401818FE4318C00440BE
:1050E0000410FE4304B004400810FE4308B004401E
:1050F0006820FE4368D004401400FE43149004402E
:105100003800FE43389004403C00FE433C9004408D
:105110004000FE43409004404808FE4348A004403D
:105120004C08FE434CA004402808FE4328A004403D
:105130002C08FE432CA004406020FE4360D00440B5
:105140006420FE4364D004402010FE4320B004409D
:105150002410FE4324B004402810FE4328B004402D
:105160002C10FE432CB004404400FE434490044005
:105170007000FE43709004407400FE43749004403D
:105180006800FE43689004405008FE4350A004406D
:105190005808FE4358A004405C08FE435CA004404D
:1051A0005408FE4354A004402018FE4320C004408D
:1051B0002418FE4324C004401008FE4310A00440FD
:1051C0001408FE4314A004403818FE4338C00440BD
:1051D0003418FE4334C004403018FE4330C004404D
:1051E0003C18FE433CC004402C18FE432CC0044035
:1051F0002820FE4328D004402C20FE432CD004401D
:105200000020FE4300D004400420FE4304D00440AC
:105210000820FE4308D004400C20FE430CD004407C
:105220001020FE4310D004401420FE4314D004404C
:105230000000000000000000352C00002D2C0000B4
:10524000292C0000252C0000212C00001D2C000022
:10525000192C0000152C0000001519150001000084
:105260009408FF1F1200000000020000C008FF1F8A
:1052700043000000000300001C09FF1F00000000A5
:1052800001030904A808FF1F00000000020309042D
:105290000409FF1F00000000030309042009FF1F89
:1052A00000000000000000000000000000000000FE
:1052B0003C80044000100000041A0000FF7F000042
:1052C0000F0E0000253A00000C0827FF0002000026
:1052D0000002000000020000000000000B071CFF9D
:1052E00000020000000200000002000000000000B8
:1052F0000D0E1B0000020000000200000002000072
:105300000A020906141715160F1A2D0000020000D4
:105310000002000000020000000200000002000085
:105320000002000000020000000200000002000075
:10533000000200000003000001010202040408084A
:10534000100120007809FF1FF8B500BFF8BC08BCA9
:105350009E467047D54B000035040000F104000064
:0453600089060000BA
:04536400F8B500BFD9
:08536800B0E6FF7F0100000028
:1053700000000000EC4F000000000000E803000007
:105380000000000000600E40C44F0000000000005C
:10539000000000000000000000000000000000000D
:1053A00000000000000000000000000000000000FD
:1053B00000000000000000000000000000000000ED
:1053C00000000000000000000000000000000000DD
:1053D00000000000000000000000000000000000CD
:1053E000EC4F000000000000E80300000000000097
:1053F00000600640844F0000000000000000000034
:10540000000000000000000000000000000000009C
:10541000000000000000000000000000000000008C
:10542000000000000000000000000000000000007C
:10543000000000000000000000000000000000006C
:10544000000000000000000000000000EC4F000021
:1054500000000000E80300000000000000700640AB
:10546000A44F000000000000000000000000000049
:10547000000000000000000000000000000000002C
:10548000000000000000000000000000000000001C
:10549000000000000000000000000000000000000C
:1054A00000000000000000000000000000000000FC
:1054B00000000000000000000018FF1F385200002C
:1054C00000000000E803000000000000FFFFFFFFF5
:1054D0000A0400001201100102000040C0168304FB
:1054E0007702010203010000180354006500650003
:1054F0006E00730079006400750069006E006F0033
:1055000009024300020100C0320904000001020246
:1055100001000524001001052401010104240206F4
:10552000052406000107058203100040090401005C
:10553000020A00000007050302400000070584027C
:1055400040000000160355005300420020005300A5
:1055500065007200690061006C000000040309042A
:105560000C0300000000000000000000000000002C
:10557000000000000000000000C00240B052000027
:10558000000000000000000000000000000000001B
:10559000000000000000000000000000000000000B
:1055A00000000000000000000000000000000000FB
:1055B000000000000000000000000000640CFF1F5D
:1055C000CC0CFF1F340DFF1F000000000000000086
:1055D00000000000000000000000000000000000CB
:1055E00000000000000000000000000000000000BB
:1055F00000000000000000000000000000000000AB
:10560000000000000000000000000000000000009A
:10561000000000000000000000000000000000008A
:10562000000000000000000000000000000000007A
:10563000000000000000000000000000000000006A
:10564000000000000000000000000000000000005A
:10565000000000000000000000000000000000004A
:1056600001000000000000000E33CDAB34126DE6E7
:10567000ECDE05000B000000000000000000000050
:10568000000000000000000000000000000000001A
:10569000000000000000000000000000000000000A
:1056A00000000000000000000000000000000000FA
:1056B00000000000000000000000000000000000EA
:1059E0007809FF1F0000000000000000A40DFF1F49
:1059F000A40DFF1FAC0DFF1FAC0DFF1FB40DFF1F4B
:105A0000B40DFF1FBC0DFF1FBC0DFF1FC40DFF1FFA
:105A1000C40DFF1FCC0DFF1FCC0DFF1FD40DFF1FAA
:105A2000D40DFF1FDC0DFF1FDC0DFF1FE40DFF1F5A
:105A3000E40DFF1FEC0DFF1FEC0DFF1FF40DFF1F0A
:105A4000F40DFF1FFC0DFF1FFC0DFF1F040EFF1FB9
:105A5000040EFF1F0C0EFF1F0C0EFF1F140EFF1F66
:105A6000140EFF1F1C0EFF1F1C0EFF1F240EFF1F16
:105A7000240EFF1F2C0EFF1F2C0EFF1F340EFF1FC6
:105A8000340EFF1F3C0EFF1F3C0EFF1F440EFF1F76
:105A9000440EFF1F4C0EFF1F4C0EFF1F540EFF1F26
:105AA000540EFF1F5C0EFF1F5C0EFF1F640EFF1FD6
:105AB000640EFF1F6C0EFF1F6C0EFF1F740EFF1F86
:105AC000740EFF1F7C0EFF1F7C0EFF1F840EFF1F36
:105AD000840EFF1F8C0EFF1F8C0EFF1F940EFF1FE6
:105AE000940EFF1F9C0EFF1F9C0EFF1FA40EFF1F96
:105AF000A40EFF1FAC0EFF1FAC0EFF1FB40EFF1F46
:105B0000B40EFF1FBC0EFF1FBC0EFF1FC40EFF1FF5
:105B1000C40EFF1FCC0EFF1FCC0EFF1FD40EFF1FA5
:105B2000D40EFF1FDC0EFF1FDC0EFF1FE40EFF1F55
:105B3000E40EFF1FEC0EFF1FEC0EFF1FF40EFF1F05
:105B4000F40EFF1FFC0EFF1FFC0EFF1F040FFF1FB4
:105B5000040FFF1F0C0FFF1F0C0FFF1F140FFF1F61
:105B6000140FFF1F1C0FFF1F1C0FFF1F240FFF1F11
:105B7000240FFF1F2C0FFF1F2C0FFF1F340FFF1FC1
:105B8000340FFF1F3C0FFF1F3C0FFF1F440FFF1F71
:105B9000440FFF1F4C0FFF1F4C0FFF1F540FFF1F21
:105BA000540FFF1F5C0FFF1F5C0FFF1F640FFF1FD1
:105BB000640FFF1F6C0FFF1F6C0FFF1F740FFF1F81
:105BC000740FFF1F7C0FFF1F7C0FFF1F840FFF1F31
:105BD000840FFF1F8C0FFF1F8C0FFF1F940FFF1FE1
:105BE000940FFF1F9C0FFF1F9C0FFF1FA40FFF1F91
:105BF000A40FFF1FAC0FFF1FAC0FFF1FB40FFF1F41
:105C0000B40FFF1FBC0FFF1FBC0FFF1FC40FFF1FF0
:105C1000C40FFF1FCC0FFF1FCC0FFF1FD40FFF1FA0
:105C2000D40FFF1FDC0FFF1FDC0FFF1FE40FFF1F50
:105C3000E40FFF1FEC0FFF1FEC0FFF1FF40FFF1F00
:105C4000F40FFF1FFC0FFF1FFC0FFF1F0410FF1FAF
:105C50000410FF1F0C10FF1F0C10FF1F1410FF1F5C
:105C60001410FF1F1C10FF1F1C10FF1F2410FF1F0C
:105C70002410FF1F2C10FF1F2C10FF1F3410FF1FBC
:105C80003410FF1F3C10FF1F3C10FF1F4410FF1F6C
:105C90004410FF1F4C10FF1F4C10FF1F5410FF1F1C
:105CA0005410FF1F5C10FF1F5C10FF1F6410FF1FCC
:105CB0006410FF1F6C10FF1F6C10FF1F7410FF1F7C
:105CC0007410FF1F7C10FF1F7C10FF1F8410FF1F2C
:105CD0008410FF1F8C10FF1F8C10FF1F9410FF1FDC
:105CE0009410FF1F9C10FF1F9C10FF1FA410FF1F8C
:105CF000A410FF1FAC10FF1FAC10FF1FB410FF1F3C
:105D0000B410FF1FBC10FF1FBC10FF1FC410FF1FEB
:105D1000C410FF1FCC10FF1FCC10FF1FD410FF1F9B
:105D2000D410FF1FDC10FF1FDC10FF1FE410FF1F4B
:105D3000E410FF1FEC10FF1FEC10FF1FF410FF1FFB
:105D4000F410FF1FFC10FF1FFC10FF1F0411FF1FAA
:105D50000411FF1F0C11FF1F0C11FF1F1411FF1F57
:105D60001411FF1F1C11FF1F1C11FF1F2411FF1F07
:105D70002411FF1F2C11FF1F2C11FF1F3411FF1FB7
:105D80003411FF1F3C11FF1F3C11FF1F4411FF1F67
:105D90004411FF1F4C11FF1F4C11FF1F5411FF1F17
:105DA0005411FF1F5C11FF1F5C11FF1F6411FF1FC7
:105DB0006411FF1F6C11FF1F6C11FF1F7411FF1F77
:105DC0007411FF1F7C11FF1F7C11FF1F8411FF1F27
:105DD0008411FF1F8C11FF1F8C11FF1F9411FF1FD7
:105DE0009411FF1F9C11FF1F9C11FF1F0000020058
:045DF000FFFFFFFFB3
:00000001FF
