:1000000000000320D1010000E11E0000991E000045
:10001000991E0000991E0000991E0000991E000004
:10002000991E0000991E0000991E0000E11E0000AC
:10003000E11E0000991E00008D1C0000911D0000B3
:10004000E11E0000E11E0000E11E0000E11E0000B4
:10005000E11E0000E11E0000E11E0000E11E0000A4
:10006000E11E0000E11E0000E11E0000E11E000094
:10007000E11E0000E11E0000E11E0000E11E000084
:10008000E11E0000E11E0000E11E0000E11E000074
:10009000E11E0000E11E0000E11E0000E11E000064
:1000A000E11E0000E11E0000E11E0000E11E000054
:1000B000E11E0000E11E0000E11E0000811F0000A3
:1000C000E11E0000AD200000E11E0000D92100006B
:1000D000E11E0000D1220000E11E0000E11E000030
:1000E000E11E0000E11E0000E11E0000E11E000014
:1000F000E11E0000E11E0000E11E0000E11E000004
:10010000E11E0000E11E0000E11E0000E11E0000F3
:10011000E11E0000B10C0000E11E0000E11E000025
:10012000E11E0000E11E0000E11E0000E11E0000D3
:10013000E11E0000E11E0000E11E0000E11E0000C3
:10014000E11E0000E11E0000C9230000E11E0000C6
:10015000E11E0000E11E0000E11E0000E11E0000A3
:10016000E11E0000E11E0000E11E0000E11E000093
:10017000E11E0000E11E0000E11E0000E11E000083
:10018000E11E0000E11E0000E11E0000E11E000073
:10019000E11E0000E11E0000C1240000E11E00007D
:1001A000E11E0000E11E0000E11E0000E11E000053
:1001B000E11E0000E11E0000E11E0000E11E000043
:1001C000E11E0000E11E0000E11E0000E11E000033
:1001D0005C4B4CF2205210B51A804DF628121A8052
:1001E00000BF00BF01F080FE574B4FF030621A6035
:1001F000564A9A60564ADA60564B4FF470021A60BB
:10020000554B564A1A60564B1A78110703D51A787F
:1002100042F008021A70534B5349AA221A70534AEB
:10022000534B8B4204D252F8040F43F8040BF8E707
:10023000504B514900228B4202D243F8042BFAE77B
:100240004E494F4A002352F8230041F8230001335E
:10025000742BF8D14B4B4C4A802103F8011B93427D
:10026000FBD14A4B454A1A60494B8A221A70A3F5C2
:10027000805324225A70A0221A709A799207FCD5D2
:100280009A79D406FCD4434A937903F00C03082BE3
:10029000FAD1414B60221A7002331A78802AFCD1BD
:1002A0003C4B01221A715D225A719A799006FCD555
:1002B0009979384A4906FBD5384B394919600021EC
:1002C000596020231370937903F00C030C2BFAD19F
:1002D000344B354A1A60354A354C136813F4807331
:1002E00003D123604FF4A8531360324B324A1A6093
:1002F00000225A60072243F8042C304AC3F80C2D20
:1003000062B600F063FB2368DA0705D52C4800F0DD
:10031000F9FA2C4B2C4A1A602C4B1B785B0609D53A
:10032000284C294B22689A4204D1254800F0EAFA69
:100330000023236002F0ACF901F0DCFD00F0DAFAF2
:10034000FEE700BF0E20054030800440823F0400DD
:100350000100002B88ED00E0002008E0030000858C
:1003600002D0074000E00740080CFF1F44290000AE
:100370003007FF1F080CFF1FE010FF1F0002FF1FC8
:100380000000000000E400E064E400E008ED00E0AC
:10039000005006400040064001E007404480044011
:1003A0000000060204800440C010070010D0034083
:1003B00014D0034014E000E01FBF02000000202022
:1003C0001440FD5D1CE00340A5C3945A00F00740B3
:1003D000FFFFFFFFFFFFFFFFFFFFFFFFFFFFFFFF2D
:1003E000FFFFFFFFFFFFFFFFFFFFFFFFFFFFFFFF1D
:1003F000FFFFFFFFFFFFFFFFFFFFFFFFFFFFFFFF0D
:10040000FFFFFFFFFFFFFFFFFFFFFFFFDEF9FFFF23
:1004100010B5054C237833B9044B13B10448AFF33E
:1004200000800123237010BD080CFF1F0000000096
:1004300040290000084B10B51BB108490848AFF32C
:1004400000800848036803B910BD074B002BFBD0A0
:10045000BDE81040184700BF000000000C0CFF1F53
:1004600040290000080CFF1F00000000704700BF7B
:10047000C0B201F0DDBA00BF01F0E6BA704700BFBC
:10048000704700BF00B5064B83B019681423009372
:1004900000221D23322000F07DF903B05DF804FB3B
:1004A000240CFF1F00B5064B83B01968142300937A
:1004B00000222823642000F06DF903B05DF804FBEE
:1004C000240CFF1F00B5064B83B0196800221423CB
:1004D00000931046332300F05DF903B05DF804FB90
:1004E000240CFF1F704700BF704700BF08B54FF4D2
:1004F000FA6000F019FA0248BDE8084000F0A8B917
:10050000E827000008B540220849094800F074F9BE
:1005100042220849084800F06FF944220749084878
:1005200000F06AF9BDE8084000F0A4B90028000016
:10053000850400001C280000A504000034280000E9
:10054000C5040000054B064A064910B400241C608F
:1005500018465DF8044B02F08FB800BF240CFF1F53
:100560003007FF1F8104000009281CD970B5012441
:1005700004EB84046400B0FBF4F3092BF8D80C4EB0
:100580000546B5FBF4F3A6FB0320C00800EB800092
:10059000A3EB40003030C0B2A6FB0434FFF768FF85
:1005A000E408EED170BD3030C0B2FFF761BF00BFCC
:1005B000CDCCCCCC10B5041E04DB2046BDE81040E9
:1005C000FFF7D2BF2D206442FFF752FF2046BDE85F
:1005D0001040FFF7C9BF00BF082928BF0821A1B1FB
:1005E00038B50C460546013CE4B2A30025FA03F3F6
:1005F00003F00F03092B03F13000C8BF03F13700EC
:10060000FFF736FF002CEED138BD704780B310B530
:100610000378044683B91CE00D2B22D00A2B19D095
:10062000FFF726FF7820FFF723FF02212078FFF74E
:10063000D3FF14F8013F63B1A3F120025E2A4FF00B
:100640005C00E9D81846FFF713FF14F8013F002BB0
:10065000F2D110BD5C20FFF70BFF6E20FFF708FF03
:10066000E7E75C20FFF704FF7220FFF701FFE0E7F8
:10067000704700BF10B50C46FFF7C8FF3A20FFF7E0
:10068000F7FE2046FFF796FF3A20FFF7F1FE044BF6
:100690005868FFF7BBFF3A20BDE81040FFF7E8BEFF
:1006A0004810FF1F08B5064B01461868FFF7E2FF28
:1006B0000448FFF7ABFF3A20BDE80840FFF7D8BE7B
:1006C0004810FF1F74280000E8B138B50E4D0446ED
:1006D0000E48FFF79BFFAB6883B10D48FFF796FF0D
:1006E000A868FFF793FFEB682BB10A48FFF78EFF6E
:1006F000E868FFF78BFF0548FFF788FF2046BDE855
:100700003840FFF783BF70474810FF1F5C28000088
:100710004C28000060280000CA0614D48A0610D4B1
:1007200038B5054630200C46FFF7A2FE7820FFF7CB
:100730009FFE04F00F0128464900BDE83840FFF74E
:100740004BBFFFF711BFFFF735BF00BF10B50F4C10
:10075000636A73B9236A83B1A3690133A361002378
:100760000A2023626362FFF783FEBDE81040FFF7B3
:1007700083BEE3690133E361F1E720682169FFF794
:1007800079FF0348FFF742FFE9E700BF4810FF1F6A
:10079000C02800002DE9F041144C9DF81870256A1E
:1007A0001DB9656A0DB9884201D1BDE8F0810646E0
:1007B000184690460D46FFF775FF0D48FFF726FFD8
:1007C00039463046FFF7A8FF0A48FFF71FFF3946B2
:1007D0002846FFF7A1FF4046FFF776FF01231946A1
:1007E00004F12800236201F081FF00BF4810FF1FC1
:1007F0007C2800006C28000010B5134B82B05C69A7
:10080000596001900021013403F128001A615C61F4
:100810009960D96001F064FF38B10C4801F060FFC5
:1008200060B1FFF793FF02B010BDFFF75BFE019BC5
:100830009847064801F054FF0028F2D1FFF754FE14
:10084000FFF784FF02B010BD4810FF1F7010FF1F9C
:10085000074B002218604FF416505A601A615A6113
:100860009A61DA611A625A629A60DA60FFF7FEBD35
:100870004810FF1F10B50A20174CFFF7F9FD174865
:10088000FFF7C4FE0A20FFF7F3FD6069FFF792FE51
:100890001348FFF7BBFEA069FFF78CFE1148FFF776
:1008A000B5FEE069FFF786FE0F48FFF7AFFE0A20AE
:1008B000FFF7DEFDA3695BB10C48FFF7A7FE0A2036
:1008C000FFF7D6FDFFF7D8FDFFF7D8FDA06910BDF3
:1008D0000748FFF79BFEF2E74810FF1F882800003B
:1008E000B8280000A0280000AC28000074280000F0
:1008F0005828000008B5FFF7F9FDFFF703FE01F0E7
:10090000F3F8FAE730B4054B054D064C00221021F0
:100910001A602A602060196030BC704714D0034010
:1009200004D0034000D003402DE9F843054672B6D9
:10093000224F234B234A1B683C68126862B652015F
:1009400002D5322B88BF0134B5B3C3F52F3303F280
:100950001F331D4EDFF86890DFF868809B084FF466
:100960007A72A6FB031302FB04F404EB930472B641
:10097000D9F800103A68D8F800E062B6C1F52F3314
:1009800003F21F339B08A6FB03031EF0806FC4EB2A
:1009900093034FF47A7002D0322988BF013200FBF2
:1009A0000233B3F57A7F04D3013D05D004F57A74A0
:1009B000DDE701F099F8DAE7BDE8F883280CFF1FBE
:1009C00018E000E004ED00E0176CC116F8B54E4BDE
:1009D0004E48DFF85CC14E4C4E49DFF858E14E4EB0
:1009E0004E4D4F4F4FF000621A604FF080521A6028
:1009F0004FF000521A604FF080421A604FF00042F0
:100A00001A600022026028234EF6FF70CCF8000026
:100A1000CEF8003023600EF5012E0B6033602B60A2
:100A200006F500263B6005F50025A36207F50027C3
:100A30008B6204F5012401F5012106F6E87605F63E
:100A4000E87507F57F6710310EF1100E2034336022
:100A50002B60CEF800303B600B602360314CBB61F3
:100A60008B6109212160A7F5002704F58054203F00
:100A700008343A602060BB60E36047F8041C04F56A
:100A8000FD2407F5FE27043704F2FC742260386069
:100A9000A360FB6044F8041C083404F6FC74C7F837
:100AA000FC2F2060A4F5E124A4F2DC7433602B60F9
:100AB000C7F8F81F21681C4841F4007121600168E3
:100AC0001A4C0EF57F4E0EF1E80E07F5883706F545
:100AD000803605F5803541F000710160CEF80020C8
:100AE00047F6FF710822396033602B60226001F005
:100AF00063F91920FFF718FF00F042FE40F21310CF
:100B0000BDE8F840FFF710BF04E100E004800340B7
:100B1000148003401C800340248003402C80034049
:100B200034800340008003400480044000900C4067
:100B3000088003400C800340013803280BD872B6AC
:100B4000074B53F8203043B100205B680130002B85
:100B5000FBD162B67047002070471846F9E700BF26
:100B6000D80CFF1F30B472B62B4A13781D0706D578
:100B70002A4B196A002936D0996A002941D0537846
:100B80001C0706D5254B196C00293ED0996C00290D
:100B900039D09378190705D5204B196E002936D026
:100BA000996E89B1D3781B0707D51C4BD3F88020E9
:100BB0007AB3D3F8882011213AB162B6184B0022DB
:100BC0001A7030BC00F07CBE0D21154C154D2278FA
:100BD00043F8315003EBC1030830013A58602270EA
:100BE00062B630BC704704220D4C0F4D217843F89B
:100BF000325003EBC20308304A1E5860227062B6BE
:100C0000EFE70521E1E70921DFE70822ECE70C2205
:100C1000EAE71022E8E700BFC82800000000FF1F35
:100C2000010DFF1FC800400088004000431E032B39
:100C30001DD81B4A400140F0100030B4104472B679
:100C4000184CE25C032A1BD8DFE802F002121517E9
:100C500003220D88E25410F0080F14BFC823882324
:100C600043EA054308310360416062B630BC704717
:100C700008300222EDE70522EBE708300422E8E71E
:100C8000094A52F8230038B1084A52F8230041605B
:100C900042F8231062B6E9E742F82310034AF7E767
:100CA0000000FF1F100DFF1FD80CFF1FE80CFF1FD7
:100CB0002DE9F04FDFF80CB3DFF80CA387B044E068
:100CC000AB4F4FEA930807EBC809013ED9F804205F
:100CD00003F00803F6B2A2F1080003F0FF04002BB2
:100CE00040F0028157F838301B0C99B222F8081CEA
:100CF000002B00F0F0809F4B22F8064C42F8044C89
:100D000053F82620002A00F0C5829B4D55F8263066
:100D100058609A4C45F8260034F81630194424F8E7
:100D2000161000F0ADFD002800F0AD82944A954BFE
:100D300019F0080F00F1080018BF1346C9F80400A5
:100D400047F8383008238BF800309BF80040E4B2B5
:100D500061071AD58C4B1B78A3B18C490A7802F035
:100D6000FF0322B1013BDBB20B7003B900BE88491F
:100D70000A7802F0FF032AB1013BDBB20B70002BB3
:100D800000F0578204238BF8003004F0080303F0CE
:100D9000FF02002B00F0CC809AF80030DBB21E0975
:100DA0008ED19C08DFF8C89159F8342009EBC401B2
:100DB000C2F38302013A49680C2A00F28880DFE816
:100DC00002F07C7C86868686868647868686070035
:100DD0000868704D4A68704F704E286081B240F2CA
:100DE0008160674B6A604FF0010E0022814249F832
:100DF00034303A60C9F81020C9F8182086F800E0AD
:100E00005B4C00F2E380B1F5D06F80F04683B1F522
:100E1000817F00F0FC8200F28D82802900F07783D0
:100E2000822940F0FA82A98801F07F01042900F2AA
:100E3000F4825B485B4C890008442270627002783F
:100E4000930740F1588484F800E04FF0020E42E32B
:100E5000514F3A6832B3544B504E54491888347845
:100E60000D784028864645F0020828BF4FF0400E16
:100E7000002C84F001043470CEEB00000CBF8824F9
:100E8000C82409EBC80680B285F0010544EA0E4487
:100E90007260188049F8384072440D70002800F0E4
:100EA00045813A603B4B1A88B2F5A06F0FD1002103
:100EB0009A7859703E4B1A7009E0364A108842F20F
:100EC0002102904200F037812D4A49F83420394AF6
:100ED0000123137036E72A4A2A4B19F0080F18BF6E
:100EE000134647F838302DE700F0EAFC324A334920
:100EF00052F82630002B00F0D18158688C5D42F802
:100F0000260003F10802C9F80420032C05D8DFE805
:100F100004F02C02292602228A551A8819F0080F9B
:100F20000CBF8823C82343EA024347F8383009E757
:100F3000E00700F18181210600F1F281A20706D5C8
:100F40001F4A204913780220DBB213700870E306B1
:100F500002D51C4B10221A7007B0BDE8F08F042296
:100F60008A55DAE705228A55D7E703228A55D4E75E
:100F70000000FF1F840CFF1F300CFF1FCC10FF1F51
:100F8000C8004000880040000C0DFF1F950CFF1F9B
:100F9000140DFF1FF80CFF1F2C0CFF1F940CFF1FDC
:100FA000C0200740040DFF1F400CFF1F000DFF1F56
:100FB0009820074094200740D80CFF1F100DFF1FFA
:100FC00088200740802007409020074042F22100FF
:100FD000814200F02A8100F2D880B1F5086F00F05C
:100FE0007682B1F5106F40F01882226AB349A87872
:100FF0000870120600F13A83D9F82820B049130688
:1010000000F10C83D9F83020AD49150600F10183B9
:10101000D9F83820AA49140600F1F682D9F8402000
:10102000A749100600F14A83D9F84820A4491206BE
:1010300000F13F83D9F85020A149130600F1348311
:10104000D9F858209E49150600F12983D9F8602067
:101050009B49140600F11E83D9F8682098491006B0
:1010600000F11383D9F870209549120600F1088326
:10107000D9F878209249130600F1FD82D9F8802032
:101080008F49150600F13183D9F888208C49140660
:1010900000F12583D9F890208949100600F11983C1
:1010A000D9F898208649120600F10D838548864AB2
:1010B000864901908648874D874C04970023059602
:1010C000029580460F4616461D460394306828B1A7
:1010D000446800F0F5FB2046002CF9D10023336072
:1010E000029B38681A46002342F8253028B144682C
:1010F00000F0E6FB2046002CF9D100223A60019A6C
:1011000098F800301146002241F8042B039A01910F
:10111000023B4FF0000122F81510032B00F22B8147
:10112000DFE813F07001250170012501BEF1400FC9
:1011300018BF0022B5E6694A0D78487815705070DE
:101140008D78C8789570D07010680D7915718628E3
:101150004D7989795571917100F09B816049614E9B
:101160000A78307882F00105002842F002020D7002
:101170000CBF8821C82149F8321009EBC20280F067
:1011800001000021307051609EE642F22120814230
:1011900040F0CB81544B554C5549A8781D682560CB
:1011A000CDF804E008700020029080468446044692
:1011B0004B490D7845F0020E09EBCE030393019BDA
:1011C000002B039B5C600CBF8824C82444EA0803FE
:1011D00085F0010449F83E3032700C70DFF8E0E031
:1011E000404BDFF8FC80002840F01E81BCF1400F2E
:1011F0001BD144F0020C09EBCC03029CDFF8C0E0E9
:101200005C60002A40F02681020442F088029DF8CA
:1012100004304EF83C20044433700D7023464028BF
:1012200003D10020334A3B601080334A01231370FE
:101230004DE600F035FCA5E5214B2F4828491A6101
:101240004FF0020E80F800E02C4F0A702C49196014
:1012500099602C4E2C4D2D4C9A610D213970FF2137
:101260003170DFF8B8E029702270294D294A8EF8D4
:1012700000109F27012406F8047C5D600470DA608A
:1012800007B0BDE8F08F244A47F8380013780133DF
:10129000137057E543F826000E4D3AE58B5D032B9E
:1012A00000F2F08001A252F823F000BF450D0000CB
:1012B000450D000069130000631300000C0DFF1FB3
:1012C0000000FF1FE80CFF1F840CFF1FD80CFF1F3E
:1012D000100DFF1F300CFF1FCC10FF1FD410FF1F7D
:1012E000000DFF1F940CFF1F280CFF1FDC10FF1FB9
:1012F000240DFF1F400CFF1F94200740C020074013
:101300008800400088200740802007409820074040
:10131000440CFF1F980CFF1F010DFF1F8C2007407E
:10132000C149C24B80220D2008701A70A2077FF5B8
:101330000EAE05E640F20232914240F0EE80A988FE
:1013400001F07F01042968D86A88002A65D1B6486F
:10135000CDF804E089000844017841F002010170F1
:1013600021E701238B55EDE400238B55EAE44FF090
:10137000010388F800300135042D06F1040607F159
:10138000040708F101087FF4A1AEA94CA94B22780B
:10139000A94D049F059E002129701A70130700F1C2
:1013A00005816278A549DFF8A0820A7010074FF026
:1013B0000001C9F83010C9F8381000F1E080A049E8
:1013C000A2780A700021C9F85010C9F85810110706
:1013D000DFF8748200F10181E2789A499A4C0A7030
:1013E00000211207C9F87010C9F8781000F1B08018
:1013F00033780193002183F00102C9F89010C9F8F5
:101400009810D0E64FF0000388F80030B3E7A988C1
:1014100001F07F01042940F28D80834A0F2313706D
:101420008A4A0123137052E540287FF6E2AE44F069
:1014300002040EEBC401029E4E60BAB19DF8041086
:10144000834A19703346403888F8005040334EF8CC
:101450003420E7E69DF8043033700204029B0D70DF
:1014600042F0C80203444EF83C20D8E69DF8041030
:101470001970029B774A88F80050403840334EF884
:101480003420CFE619F0080F0CBF022303238B553D
:1014900058E4714A0F21117060E6704A5468002CBC
:1014A000BBD06888B5F804E003E00C325468002C27
:1014B000B3D013888342F8D153887345F5D1000A1D
:1014C00003280CBF94F800E0B2F808E003E0644A97
:1014D000644C12782270E888704580F03F81624940
:1014E0000D784028844645F0020E28BF4FF0400C8E
:1014F00004EB0C0309EBCE02029301235460CCEB06
:1015000000004FEA0C4800220193C8245EE6554CC7
:101510004FF0020E22706270DDE7B1F5A06F7FF42C
:101520007CAF0123002201933DE642F22132914239
:10153000F7D072E76A88002A7FF46FAF3A48CDF897
:1015400004E089000844017821F0020101702AE6D4
:1015500000F096F9002800F0EF8008303D4AC4F80A
:101560008400C4F8802000F08BF9002800F0DE80B1
:101570000830374AC9F88C00C9F8882038E700F0ED
:101580007FF9002800F0C0800830324AC8F84400D3
:10159000C8F8402000F074F9002800F0AF8008304F
:1015A0002B4AC9F84C00C9F8482008E700F068F950
:1015B000002800F0CD800830264AC9F82400C9F878
:1015C000202000F05DF9002800F0BC800830204A9F
:1015D000C9F82C00C9F82820E3E600F051F90028EA
:1015E00000F09E8008301B4AC8F86400C8F86020EC
:1015F00000F046F9002800F08D800830144AC9F840
:101600006C00C9F86820E7E6C86B083800F058F9A4
:1016100004E5486B083800F053F9F9E4C86A083863
:1016200000F04EF9EEE400BFC020074080200740E4
:10163000C8280000C4200740010DFF1FC820074034
:10164000CC200740D02007400000FF1F9420074017
:10165000C800400088004000950CFF1FCC28000007
:101660000C0DFF1F040DFF1F000DFF1F606A0838DF
:1016700000F026F9C0E4C86F083800F021F9FDE455
:10168000486F083800F01CF9F2E4C86E083800F022
:1016900017F9E7E4486E083800F012F9DCE4C86D89
:1016A000083800F00DF9D1E4486D083800F008F969
:1016B000C6E4C86C083800F003F9BBE4486C08388D
:1016C00000F0FEF8B0E4D1F89C00083800F0F8F81B
:1016D000ECE4D1F89400083800F0F2F8E0E4D1F836
:1016E0008C00083800F0ECF8D4E4D1F88400083815
:1016F00000F0E6F8C8E44FF0020EECE62A78C9F8EC
:10170000480001322A705AE62A78C8F840000132AF
:101710002A703FE72A78C9F8680001322A705BE630
:101720002A78C8F8600001322A7061E72A78C9F87F
:10173000880001322A705BE62A78C4F88000013202
:101740002A7010E72A78C9F8280001322A7028E6A2
:101750002A78C9F8200001322A7032E7BEF1400F22
:10176000F44628BF4FF0400C04EB0C030293012316
:10177000CCEB0E004FEA0C480022019318E500BFA5
:101780002DE9F04100F00EFF314C324B3248DFF8CA
:10179000E480324EDFF8E0C0314F324DDFF8DCE05C
:1017A00000221A605A609A60DA601A615A619A617E
:1017B000DA611A625A629A62DA621A635A639A6347
:1017C000DA631A645A649A64DA641A655A659A6527
:1017D000DA651A665A669A66DA661A675A679A6707
:1017E000DA67C3F880202168C3F8842041F480219F
:1017F0002160016841F040710160032188F8001008
:10180000A020C3F307218CF8000004F528343170C0
:10181000C3F30740144938701B0E2B70CC34FF23E0
:101820008EF80030114D0CF8B83C11480B700123B4
:1018300006F8083C227070264FF40014102207F8B6
:101840002C3C2E70046081F8F820BDE8F08100BFC8
:10185000348004400000FF1F00D800409C20074057
:10186000B0200740B42007401020074035E400E0D6
:1018700004E100E044210740402107408020074068
:1018800072B60D480268B2FA82F30B2B10DC4FF0EF
:101890000041D94022EA0102026062B6074803EB28
:1018A000C303DB00C2180021C150104651607047CD
:1018B00062B60020704700BF3407FF1FD003FF1F30
:1018C0000D4B0E4AC31AA2FB03231B090B2B0CD88A
:1018D0000B4A127852B972B60A484FF000410268BA
:1018E00021FA03F31A43026062B67047064A12787F
:1018F000002AF0D0FFF736B9D003FF1F398EE33846
:10190000010DFF1F3407FF1F0C0DFF1F044B054A7D
:101910001B6890881BB11A885B88D31A18447047DB
:10192000200DFF1FCC10FF1F2DE9F04FDFF8F890BE
:1019300083B0012289F80020019169B3DFF8EC80BF
:10194000354F019E8346D8F80000B0B3334D44882C
:10195000C4F14001B14228BF314604EB010E002220
:101960001FFA8EFE2A70761AA0F802E000F1080233
:1019700051B1013C224459441BF8014B02F8014F7C
:101980008B45F9D1B0F802E0BEF13F0F0BD8244AE5
:1019900005211170002ED6D10198002389F800305E
:1019A00003B0BDE8F08F4022028001460420FFF71B
:1019B0003DF90022C8F80020E9E73A7822B3194C33
:1019C000164D4FF0010A07E0013C16D02A78A2B963
:1019D00000F08AF83A78BAB10420FFF7ADF807288A
:1019E000F2D889F800A0FFF74BFFC8F800000028E4
:1019F000ADD10D4B013C1870E8D101234FF0FF3001
:101A00002B7003B0BDE8F08F00234FF0FF3089F852
:101A1000003003B0BDE8F08F0C0DFF1F1C0DFF1F41
:101A2000140DFF1F21480100150DFF1F180DFF1F8A
:101A300000B583B002AB012103F8010D1846FFF792
:101A400073FF03B05DF804FBF8B5114B1B788BB145
:101A5000104E114D346801272F7064B10F4A63880E
:101A600000271770214623800420FFF7DFF8376036
:101A700000232B70F8BDFFF703FF084B28B1014688
:101A800004201C70FFF7D2F8F2E71F70F0E700BFE8
:101A90000C0DFF1F180DFF1F150DFF1F140DFF1F4D
:101AA00038B50E4B1B7873B90D4C216861B103F04A
:101AB000FF054B880B800420FFF7B8F8256038BD80
:101AC000084B01221A7038BDFFF7DAFE0028F7D064
:101AD0000146BDE838400420FFF7A8B8150DFF1FE8
:101AE000180DFF1F140DFF1F38B52C4C237803B1C0
:101AF00038BD01232370FFF709FF002842D100F011
:101B00002FFA00283BD100F0C1FA002834D100F0B0
:101B100053FB70BB00F0CCFB40BB00F045FC10BB9E
:101B200000F0BEFCE0B900232370EFF30583002B27
:101B3000DED1EFF3108172B6194B186828B3194C37
:101B4000227812BB45691D60012323700DB3AA6181
:101B500001B962B600254577836898472570C7E7C5
:101B600000F028F9DFE700F023F9D9E700F01EF9CB
:101B7000D3E700F019F9CDE700F014F9C7E700F05A
:101B80000FF9C0E700F050FDB9E70029B0D162B607
:101B900038BD054B1D600029DCD1DAE7250DFF1F9C
:101BA000380DFF1F3C0DFF1F340DFF1F10B4EFF366
:101BB000108272B6437F33B9017F012908D003290F
:101BC00010D00123437702B962B65DF8044B704729
:101BD000114C2168A1B1114943610B688361086010
:101BE0005861EEE70E4C216881B10E4943610B68E4
:101BF0008361086058610C4B4FF080511960E0E739
:101C0000064B4161816120601860DAE7054B416154
:101C1000816120601860EEE7380DFF1F340DFF1F53
:101C2000280DFF1F2C0DFF1F04ED00E010B4047FF2
:101C30004160022CC26003D05DF8044BFFF7B6BFD1
:101C400083685DF8044B184770B5EFF3108272B6E5
:101C50000C4C206880B10C4E00254369236073B1A1
:101C60009D6102B962B6457783689847EFF31082A9
:101C700072B620680028F0D102B962B670BD336038
:101C8000EFE700BF280DFF1F2C0DFF1FFFF7DCBF84
:101C9000184A30B41468002C27D0036821688B429E
:101CA0000ED2CB1A00218460C1602360E060106016
:101CB0000223037530BC704711688B42144608D369
:101CC000A2685B1A0360002AF6D18260C460A0603B
:101CD000EEE7D268C2608460E060C568CB1A022279
:101CE000A8602360027530BC70478460C4601060D7
:101CF000DEE700BF300DFF1FF8B5224E34682CB36D
:101D00002368002B3AD1204F1D4604E03468ECB123
:101D10002368002B32D1A36803B1DD6020693360F2
:101D2000036825751B68BB4221D1037F4560022BE8
:101D3000C46020D0FFF73AFF6368002BE6D0236031
:101D40002046FFF7A5FF3468002CE1D1EFF31083A4
:101D500072B60E4A00211068116003B962B628B14C
:101D60008468FFF795FF20460028F9D1F8BD224688
:101D700000219847E0E783689847DDE7013B23604F
:101D8000E4E700BF300DFF1F2D1C0000400DFF1FBA
:101D9000024A136801331360FFF7AEBF280CFF1F20
:101DA000704700BF704700BF704700BF704700BF5B
:101DB000704700BF704700BF30B42948294A2A4BFA
:101DC0002A4D6024E121047011701B78284C082BE7
:101DD00030D00A2B2748284937D00C2B0CBF35228E
:101DE0005D2212232A60236002600B60234B24498A
:101DF0001B78244ABBB101230B601360224B23499B
:101E00001B78234A012B26D9042B0FD9082B1ED966
:101E1000102B94BF862387230B6013601D4B012278
:101E20001A7030BC70470B601360E7E784230B60C7
:101E30001360F3E700F58E200F49083021221323A9
:101E40002A60236002600B60D0E73922F7E7852320
:101E50000B601360E2E780230B601360DEE700BFD6
:101E600000400740014007403807FF1F08B003400B
:101E70000CB0034008B00B400CB00B40450DFF1FE9
:101E800020B0034020B00B403907FF1F24B00340AF
:101E900024B00B40440DFF1F08B5104C08E0236828
:101EA00059050DD423681A050FD42368DB0411D417
:101EB00023685803F3D5FEF7FBFE23685905F1D5D7
:101EC00000F05EF823681A05EFD500F0EFF82368FC
:101ED000DB04EDD500F080F9EAE700BF3480044070
:101EE00008B5FFF7D9FF00BF014B10221A807047D9
:101EF00000200540704700BF084A1378802B01D0AE
:101F0000002070470649074B0748086000211970F8
:101F10001378802BFCD00120704700BF03E00740FE
:101F20004480044001E0074000002822094A137859
:101F3000012B01D00020704703F1804303F5FC23FF
:101F4000602119701378802BFCD1034B034A1A606F
:101F50000120704703E0074044800440000006026F
:101F6000054A064B10781B78C0B2DBB2984238BFE6
:101F70004030C01A704700BF4C0DFF1F4D0DFF1FB2
:101F8000F0B4384B1A7912F0300F2CD072B6997D1C
:101F900001F0FF0200293DD062B6334F3349387853
:101FA0000D78334E1C46C0B2EDB2431C402BE17994
:101FB00028BF0023AB4202F1FF32C9B21CBFF1546B
:101FC000184612F0FF02F0D12A4B1B68C2B23A70D9
:101FD0004BB1A84236BFC5F14005401B4019272828
:101FE000C4BF01221A701F49CA78D2B2150616D48E
:101FF00052060DD51B4B1B795B0609D51E4B1F499D
:102000001B6800220A7003B11A70164B3C22DA706A
:10201000F0BC70474022D9795A7462B6E3E70B7975
:102020001C06E5D5164B174E1C783378E4B2DBB2AC
:102030009C420ED0144D01E0A3420AD00133402B44
:1020400028BF00230879E85CC0B2C871087D072862
:10205000F2D9DBB2034933700B79180644BF7C23F5
:10206000CB70C5E700A006404C0DFF1F4D0DFF1FB4
:10207000900DFF1F480DFF1FD40DFF1FD00DFF1F38
:10208000D80DFF1FD10DFF1F500DFF1F054A064B36
:1020900010781B78C0B2DBB2984238BF4030C01A0B
:1020A000704700BF4C0EFF1FE10DFF1FF0B4384B0F
:1020B0001A7912F0300F2CD072B6997D01F0FF0220
:1020C00000293DD062B6334F334938780D78334E0E
:1020D0001C46C0B2EDB2431C402BE17928BF00235F
:1020E000AB4202F1FF32C9B21CBFF154184612F0E4
:1020F000FF02F0D12A4B1B68C2B23A704BB1A84222
:1021000036BFC5F14005401B40192728C4BF012236
:102110001A701F49CA78D2B2150616D452060DD5C8
:102120001B4B1B795B0609D51E4B1F491B68002200
:102130000A7003B11A70164B3C22DA70F0BC70477B
:102140004022D9795A7462B6E3E70B791C06E5D5CB
:10215000164B174E1C783378E4B2DBB29C420ED09B
:10216000144D01E0A3420AD00133282B28BF0023DD
:102170000879E85CC0B2C871087D0728F2D9DBB2E3
:10218000034933700B79180644BF7C23CB70C5E735
:1021900000B006404C0EFF1FE10DFF1F0C0EFF1F8D
:1021A000DC0DFF1F500EFF1FE00DFF1F540EFF1F21
:1021B0004D0EFF1FE40DFF1F054A064B10781B78DC
:1021C000C0B2DBB2984238BF4030C01A704700BF7F
:1021D0005C0EFF1F5D0EFF1F30B42B4B1A79940667
:1021E0001FD52A48DA790378294901333F2B09782A
:1021F000C8BF00238B42D2B203D0264CD9B2E254DE
:102200000170254A116861B1244A1278D2B2934212
:1022100036BFC2F140029B1A9B18272BC4BF012373
:102220000B70194AD378DBB2180611D45A060DD5B3
:10223000154B1B795B0609D5194B1A491B680022FF
:102240000A7003B11A70104B2C22DA7030BC704740
:1022500011790906EAD5144910480C780178C9B2F9
:102260008C420DD04A1C272A84BF00210A460F4DFC
:10227000054C98BFD1B2AA5CD2B2E2710170D5E729
:102280006C21D170D2E700BF00C006405C0EFF1F7A
:102290005D0EFF1F880EFF1F580EFF1FC90EFF1F88
:1022A000CC0EFF1FC80EFF1FD00EFF1F600EFF1FBA
:1022B000054A064B10781B78C0B2DBB2984238BF93
:1022C0004030C01A704700BFD80EFF1FD90EFF1F45
:1022D00030B42B4B1A7994061FD52A48DA79037843
:1022E000294901333F2B0978C8BF00238B42D2B262
:1022F00003D0264CD9B2E2540170254A116861B16D
:10230000244A1278D2B2934236BFC2F140029B1ADD
:102310009B18272BC4BF01230B70194AD378DBB25B
:10232000180611D45A060DD5154B1B795B0609D535
:10233000194B1A491B6800220A7003B11A70104B1E
:102340002C22DA7030BC704711790906EAD514499D
:1023500010480C780178C9B28C420DD04A1C272A4B
:1023600084BF00210A460F4D054C98BFD1B2AA5C2C
:10237000D2B2E2710170D5E76C21D170D2E700BF13
:1023800000D00640D80EFF1FD90EFF1F040FFF1FFD
:10239000D40EFF1F450FFF1F480FFF1F440FFF1FE5
:1023A0004C0FFF1FDC0EFF1F054A064B10781B78F1
:1023B000C0B2DBB2984238BF4030C01A704700BF8D
:1023C000540FFF1F550FFF1F30B42B4B1A79940683
:1023D0001FD52A48DA790378294901333F2B097838
:1023E000C8BF00238B42D2B203D0264CD9B2E254EC
:1023F0000170254A116861B1244A1278D2B2934221
:1024000036BFC2F140029B1A9B18272BC4BF012381
:102410000B70194AD378DBB2180611D45A060DD5C1
:10242000154B1B795B0609D5194B1A491B6800220D
:102430000A7003B11A70104B2C22DA7030BC70474E
:1024400011790906EAD5144910480C780178C9B207
:102450008C420DD04A1C272A84BF00210A460F4D0A
:10246000054C98BFD1B2AA5CD2B2E2710170D5E737
:102470006C21D170D2E700BF00A00E40540FFF1FA7
:10248000550FFF1F800FFF1F500FFF1FC10FFF1FB2
:10249000C40FFF1FC00FFF1FC80FFF1F580FFF1FE4
:1024A000054A064B10781B78C0B2DBB2984238BFA1
:1024B0004030C01A704700BFD00FFF1FD10FFF1F61
:1024C00030B42C4B5A6894021FD52B48DA68037835
:1024D0002A4901333F2B0978C8BF00238B4204D01F
:1024E000274CD2B2D9B2E2540170264A116861B1C8
:1024F000254A1278D2B2934236BFC2F140029B1AEB
:102500009B18272BC4BF01230B701A4A936818022B
:1025100002D55268110211D45A020DD5154B5B68D1
:102520005B0209D5194B1A491B6800220A7003B1D6
:102530001A70184B00221A6030BC7047164A1249B4
:1025400010780A78D2B290420DD00132272A84BF87
:1025500000200246114D074C98BFD0B2AA5CD2B2FF
:10256000E2600870D8E70E480A4A0024012104609E
:102570001160D1E700400C40D00FFF1FD10FFF1FAB
:10258000FC0FFF1FCC0FFF1F3D10FF1F4010FF1F50
:102590003C10FF1F580188434410FF1FD40FFF1F3A
:1025A0005C01884310B584B072B6FFF7A5FC184AE9
:1025B000184B19491160702280211A701A4619703F
:1025C00013781B06FCD5154B1C68FFF7AFFC62B6F1
:1025D000134B9C429CBF04EB840464002046114CC6
:1025E00001A90A2200F022F801A92046002311F8CF
:1025F000012B01333AB10A2B20F8022FF7D1162311
:10260000237004B010BD5B00DBB2237004B010BDBA
:102610000400024000000240000007410C0002409C
:102620007F969800C807FF1F704700BFF0B44D1E8B
:102630002E46002400E00134B0FBF2F302FB13004D
:10264000092800F130078ABF3730F8B2C0B206F867
:10265000010F1846002BEED10A1953704CB11078B7
:1026600015F8016F28700133E01A834202F80169FE
:10267000F5DB0846F0BC70470B460146184600F0F3
:1026800001B800BF13460A460146022000F036B8E2
:1026900070B50F4E0F4D761BB61018BF002405D035
:1026A000013455F8043B9847A642F9D10A4E0B4D28
:1026B000761B00F037F9B61018BF002406D001349D
:1026C00055F8043B9847A642F9D170BD70BD00BFD4
:1026D00030290000302900003C290000302900008A
:1026E000EC46A0E8F05F4FF000007047B0E8F05F04
:1026F000E546080008BF0120704700BF2DE9F047FC
:10270000254C2568D5F848410646884692469946A4
:10271000C4B360681F2817DC431C76B104EB800546
:102720000122C5F888A0D4F8881182401143022EF6
:10273000C4F88811C5F808911ED00230636044F8CF
:1027400020800020BDE8F087144B03B34FF4C8701D
:10275000AFF300800446D0B1D5F84831002780E8B7
:102760008800C5F8484138460123C4F88871C4F888
:102770008C71002EE1D0D1E7D4F88C110A43C4F853
:102780008C21DAE705F5A674C5F84841C1E74FF09A
:10279000FF30BDE8F08700BF2029000000000000E6
:1027A000024B13B1024800F005B87047000000006A
:1027B000C1270000002301461A461846FFF79EBFB6
:1027C00038B5074D074C2C1BA41005D0013C55F81B
:1027D000043D9847002CF9D1BDE8384000F0AEB870
:1027E0000000000000000000746573742F746573AE
:1027F000742D4169726272616B652E6370700000A6
:10280000746573745F7365744162736F6C7574651E
:102810004465706C6F796D656E74000074657374D7
:102820005F6465706C6F79436F6D706C6574656C17
:1028300079000000746573745F726574726163740B
:10284000436F6D706C6574656C79000046756E63DE
:1028500074696F6E2000FFFF4F4B00FF2E2000FFBA
:1028600020417267756D656E742000FF205761739B
:102870002000FFFF4641494C00FFFFFF20457870D4
:1028800065637465642000FF2D2D2D2D2D2D2D2DBC
:102890002D2D2D2D2D2D2D2D2D2D2D2D2D2D2D0095
:1028A000204661696C757265732000FF2049676E70
:1028B0006F7265642000FFFF2054657374732000FD
:1028C0005041535300FFFFFF001519150001000090
:1028D0003C07FF1F12000000000200006807FF1FF6
:1028E0004300000000030000C407FF1F00000000B9
:1028F000010309045007FF1F000000000203090440
:10290000AC07FF1F0000000003030904C807FF1FF6
:1029100000000000000000000000000000000000B7
:10292000E007FF1FF8B500BFF8BC08BC9E46704723
:0C293000A1270000350400004505000050
:04293C00F8B500BF2B
:0829400038FDFF7F01000000DB
:1029480000000000FFFFFFFF0A0400001201100151
:1029580002000040C0168304770201020301000050
:1029680018035400650065006E0073007900640068
:10297800750069006E006F0009024300020100C083
:1029880032090400000102020100052400100105BB
:10299800240101010424020605240600010705821A
:1029A8000310004009040100020A000000070503A3
:1029B800024000000705840240000000160355008D
:1029C8005300420020005300650072006900610056
:1029D8006C000000040309040C0300000000000060
:1029E80000000000000000000000000000000000DF
:1029F80000000000CC0AFF1F340BFF1F9C0BFF1FB9
:102A080000000000000000000000000000000000BE
:102A180000000000000000000000000000000000AE
:102A2800000000000000000000000000000000009E
:102A3800000000000000000000000000000000008E
:102A4800000000000000000000000000000000007E
:102A5800000000000000000000000000000000006E
:102A6800000000000000000000000000000000005E
:102A7800000000000000000000000000000000004E
:102A8800000000000000000000000000000000003E
:102A9800000000000000000001000000000000002D
:102AA8000E33CDAB34126DE6ECDE05000B000000F2
:102AB800000000000000000000000000000000000E
:102AC80000000000000000000000000000000000FE
:102AD80000000000000000000000000000000000EE
:102AE80000000000000000000000000000000000DE
:00000001FF
