:1000000000000320D1010000795C0000315C000099
:10001000315C0000315C0000315C0000315C0000AC
:10002000315C0000315C0000315C0000795C000054
:10003000795C0000315C0000D1730000D5740000D1
:10004000795C0000795C0000795C0000795C00005C
:10005000795C0000795C0000795C0000795C00004C
:10006000795C0000795C0000795C0000795C00003C
:10007000795C0000795C0000795C0000795C00002C
:10008000795C0000795C0000795C0000795C00001C
:10009000795C0000795C0000795C0000795C00000C
:1000A000ED420000F9420000795C0000795C00003C
:1000B000795C0000795C0000795C0000FD7500004F
:1000C000795C000029770000795C00005578000019
:1000D000795C00004D790000795C0000795C0000DB
:1000E000795C0000795C0000795C0000795C0000BC
:1000F000795C0000795C0000795C0000795C0000AC
:10010000795C0000795C0000795C0000795C00009B
:10011000795C0000D1620000795C0000795C00002D
:10012000795C0000795C0000795C0000795C00007B
:10013000795C0000795C0000795C0000795C00006B
:10014000795C0000795C0000457A0000795C000071
:10015000795C0000795C0000795C0000795C00004B
:10016000795C0000795C000005430000795C0000C8
:10017000795C0000795C0000795C0000795C00002B
:10018000795C0000795C0000795C0000795C00001B
:10019000795C0000795C00003D7B0000795C000028
:1001A000795C0000795C0000795C0000795C0000FB
:1001B000795C0000795C0000795C0000795C0000EB
:1001C000795C0000795C0000795C0000795C0000DB
:1001D0005C4B4CF2205210B51A804DF628121A8052
:1001E00000BF00BF05F04CFD574B4FF030621A6066
:1001F000564A9A60564ADA60564B4FF470021A60BB
:10020000554B564A1A60564B1A78110703D51A787F
:1002100042F008021A70534B5349AA221A70534AEB
:10022000534B8B4204D252F8040F43F8040BF8E707
:10023000504B514900228B4202D243F8042BFAE77B
:100240004E494F4A002352F8230041F8230001335E
:10025000742BF8D14B4B4C4A802103F8011B93427D
:10026000FBD14A4B454A1A60494B8A221A70A3F5C2
:10027000805324225A70A0221A709A799207FCD5D2
:100280009A79D406FCD4434A937903F00C03082BE3
:10029000FAD1414B60221A7002331A78802AFCD1BD
:1002A0003C4B01221A715D225A719A799006FCD555
:1002B0009979384A4906FBD5384B394919600021EC
:1002C000596020231370937903F00C030C2BFAD19F
:1002D000344B354A1A60354A354C136813F4807331
:1002E00003D123604FF4A8531360324B324A1A6093
:1002F00000225A60072243F8042C304AC3F80C2D20
:1003000062B605F055FE2368DA0705D52C4805F0DE
:10031000ADFD2C4B2C4A1A602C4B1B785B0609D583
:10032000284C294B22689A4204D1254805F09EFDAD
:100330000023236008F078FB05F0A8FC05F0D6FB4D
:10034000FEE700BF0E20054030800440823F0400DD
:100350000100002B88ED00E0002008E0030000858C
:1003600002D0074000E007402813FF1FC0E700004D
:100370003007FF1F2813FF1FC819FF1F0002FF1FB0
:100380000000000000E400E064E400E008ED00E0AC
:10039000005006400040064001E007404480044011
:1003A0000000060204800440C010070010D0034083
:1003B00014D0034014E000E01FBF02000000202022
:1003C000ED3BFD5D1CE00340A5C3945A00F00740DF
:1003D000FFFFFFFFFFFFFFFFFFFFFFFFFFFFFFFF2D
:1003E000FFFFFFFFFFFFFFFFFFFFFFFFFFFFFFFF1D
:1003F000FFFFFFFFFFFFFFFFFFFFFFFFFFFFFFFF0D
:10040000FFFFFFFFFFFFFFFFFFFFFFFFDEF9FFFF23
:1004100010B5054C237833B9044B13B10448AFF33E
:1004200000800123237010BD2813FF1F000000006F
:10043000BCE70000084B10B51BB108490848AFF3F2
:1004400000800848036803B910BD074B002BFBD0A0
:10045000BDE81040184700BF000000002C13FF1F2C
:10046000BCE700002813FF1F00000000002202600C
:10047000704700BF704700BF704700BF704700BFA4
:10048000704700BF10B507210F4806F0CBFD0F489D
:1004900005F004FA0E4A0F48772104F02BF90446C0
:1004A00040B119210C4806F0BDFD084805F0F6F9E9
:1004B000204610BD1821094806F0B4FD034805F098
:1004C000EDF9204610BD00BF3CDC00008408FF1F92
:1004D000A807FF1F4813FF1F60DC000044DC00007A
:1004E000014B0360704700BF38DC0000704700BF5D
:1004F00008B5034804F0AAF9024B83ED000A08BDD1
:100500004813FF1F3407FF1F4FF0FF31014804F06D
:10051000DBB800BF4813FF1F704700BF82B0F0B4C4
:1005200004AC84E80C00CF6FD1F88060CD6E0C6F06
:100530004A6F8B6F0A960B950C9409970D9208934E
:1005400004AD06460FCD34460FC40FCD0FC495E859
:10055000030084E803003046F0BC02B0704700BFDF
:1005600082B0F0B501F108068FB00C4614AD1C3115
:100570000746304685E80C0005F062F91A2231463C
:1005800008A805F0DDF804F1A00508AA04F1880325
:10059000F2E80201E3E80201AB42F9D1D4E9220119
:1005A00008F0E6F9A067D4E9240108F0E1F9E06772
:1005B000D4E9260108F0DCF90822C4F880003146AD
:1005C00008A805F0BDF808AB04F1B802F3E8020191
:1005D000E5E802019542F9D1D4E9280108F0C8F90B
:1005E000E066D4E92A0108F0C3F92067D4E92C01B8
:1005F00008F0BEF916AE60670FCE6D460FC596E8DF
:100600000F0085E80F00236821465C6814AB38466C
:100610000CCBA04738460FB0BDE8F04002B07047A1
:1006200010B50B210446064806F0FCFC054805F011
:1006300035F904F10800BDE8104004F089BF00BF9F
:100640002CDD00008408FF1F10B50C21044606486D
:1006500006F0E8FC054805F021F904F10800BDE8C2
:10066000104004F053BF00BF38DD00008408FF1FB6
:1006700070B5064600F108050A240C21284604F04E
:10068000BDFF3C2150B90E4806F0CCFC0D4805F0EA
:1006900005F9642005F03AFC013CEED12846012121
:1006A00004F002FF2021084806F0BCFC054805F0D4
:1006B000F5F833683046DB689847002070BD00BF0E
:1006C0006CDD00008408FF1F48DD0000F0B5224FFC
:1006D000224B0446002587B040F8083B28223B46C1
:1006E0004FF0FF3104F0BAFE3B46C4F88850282290
:1006F000C4F88C50C4F89050C4F89450C4F8985082
:10070000C4F89C503721C4F8A05001A8C4F8A450E4
:10071000C4F8A850C4F8AC50C4F8B050C4F8B450F1
:1007200004F09CFE03989DF808709DF809600499F8
:100730009DF8142020610023204684F84050277340
:10074000667361612276E36623676367A367E36785
:10075000C4F8803007B0F0BDA807FF1FB4DD00006B
:10076000704700BF10B50446FFF7B0FF04F1B800B2
:10077000FFF7B6FE204610BD10B50446B830FFF7AF
:10078000B5FE2046FFF7ECFF204610BD0020704765
:100790000020704700207047002070474FF0FF3066
:1007A000704700BF00207047F8B50A790B7B0373D0
:1007B00002710C464B7B437309696269237E0376A1
:1007C0000161426104F11C0705460FCF05F11C06CB
:1007D0000FC60FCF0FC63B68336094F8403085F8E2
:1007E000403004F144070FCF05F144060FC60FCF88
:1007F0000FC697E8030086E80300A16FE26FD4F804
:100800008030E76E266F606F6867A967EA67C5F892
:100810008030EF662E6704F1880205F1880104F14B
:10082000A003F2E802679A42E1E80267F9D1B8341E
:1008300005F1A002F3E80201A342E2E80201F9D1C6
:1008400005F1B8042046FFF71DFE2046FFF750FED5
:100850002846BDE8F840FFF70BBF00BF70B592B067
:100860000AAD06460FCD6C460FC495E80F0084E82C
:100870000F0008AD314695E80C002846FFF770FEE2
:10088000DDED0B7A9FED0A7AF4EEC77AF1EE10FAFD
:100890000ADB9FED087AF4EEC77AF1EE10FA94BF06
:1008A0000120002012B070BD002012B070BD00BF4A
:1008B00000B0654500D06845002070474FF0FF301C
:1008C000704700BF027C02F0080202F0FF0332B161
:1008D000C36A406A181A48BF6FF000407047184654
:1008E000704700BF10B5034B03600446FFF7FEFDE1
:1008F000204610BD1CDE000010B5054B0360044609
:10090000FFF7F4FD2046034905F01EFA204610BD0E
:100910001CDE0000F0467F0000B583B001220DF11F
:100920000701103000F0DEFD01280CBF9DF8070024
:100930004FF0FF3003B05DF804FB00BF103000F053
:100940008FBF00BF00B583B002AB012203F8011DC9
:100950001030194600F084FF03B05DF804FB00BFBF
:10096000103000F08BBE00BF103000F073BF00BF2E
:100970002DE9F041064690B000F58D64071D4FF457
:100980007A7508E00E21524806F04CFB514804F0FD
:1009900085FF013D22D04FF00001204602F0CAFD44
:1009A0002046C6F86444002CECD002F073F900280D
:1009B000E8D10122D6F86414384601F0CFFC0028B3
:1009C000E0D006F58868404600F00EFD3946404606
:1009D00000F082FD0028D5D03F4B1F604FF47A70A5
:1009E0003E4D05F093FA00243D4B039339462346D0
:1009F00072598DF8104007A84FF47A778DF8184097
:100A00008DF81C408DF81D408DF81E40059700F0B4
:100A10005BFD9DF81C40002C52D0324D06F29444F0
:100A200035442146042207A800F05CFD0422A118E9
:100A300007A800F057FD04F10801042207A800F000
:100A400051FD04F10C01042207A800F04BFD04F154
:100A50001001042207A800F045FD04F1140104224E
:100A600007A800F03FFD04F11801042207A800F0D8
:100A700039FD04F11C01042207A800F033FD04F144
:100A80002001042207A800F02DFD04F12401042216
:100A900007A800F027FD04220DEB020107A800F0D3
:100AA00021FD2834042202A907A800F01BFDA5425D
:100AB000B7D107A800F098FC012010B0BDE8F08184
:100AC0007159094808F0ACFB204610B0BDE8F08130
:100AD00004DE00008408FF1F0015FF1FE0467F00B2
:100AE000D0DD0000DC467F00ECDD00002DE9F041A8
:100AF00004468846FFF7F4FC114B124A44F8038081
:100B0000114F124E124D1348C4F88C0400232821B3
:100B10002760C4F86864C4F8745484F88414A3503B
:100B2000E37284F8403484F8413484F8423484F821
:100B3000703484F88734C4F888342046BDE8F081E6
:100B4000E0467F00DC467F001CDE0000B4E00000D1
:100B50005CE000000320003882B0F0B404AC84E80C
:100B60000C00CF6FD1F88060CD6E0C6F4A6F8B6F29
:100B70000A960B950C9409970D92089304AD0646BE
:100B80000FCD34460FC40FCD0FC495E8030084E8A1
:100B900003003046F0BC02B0704700BF82B02DE9C0
:100BA000F04FD1F848C50CEB8C06F60089B08C19D3
:100BB0008E4604F5AA6412A9074681E80C000FCC02
:100BC00012AD0FC50FCC0FC506F5AA63734494E8A8
:100BD00003009A69DC69D3F82090D3F82480D3F815
:100BE00010B0D3F814A0CEF878B00CF10103CEF811
:100BF000483585E8030014AECEF87CA0199418920D
:100C0000CDF86890CDF86C80CDF858B0CDF85CA0E8
:100C1000CEF880200FCEDEF80050CEF86C406C4647
:100C20006D68CEF870900FC496E80F00CEF874800F
:100C300084E80F0012AB384671460CCBA847384603
:100C400009B0BDE8F04F02B0704700BF704700BF69
:100C500010B5034B03600446FFF782FD204610BD2C
:100C600030DE000010B5054B03600446FFF778FD49
:100C70002046034905F068F8204610BD30DE00002C
:100C800098477F002DE9F041064690B000F21C54D1
:100C900000F1B8074FF47A7508E00E21524806F0CB
:100CA000C1F9524804F0FAFD013D22D04FF0000195
:100CB000204602F03FFC2046C6F81845002CECD038
:100CC00001F0E8FF0028E8D10122D6F818153846CF
:100CD00001F044FB0028E0D006F2F448404600F062
:100CE00083FB3946404600F0F7FB0028D5D0404B47
:100CF0001F604FF47A7005F009F900243D4B03930F
:100D0000D6F84C258DF810402346394607A84FF4F5
:100D10007A758DF818408DF81C408DF81D408DF8BF
:100D20001E40059500F0D0FB9DF81C40002C52D0D1
:100D3000314D06F5AA6435442146042207A800F087
:100D4000D1FB0422A11807A800F0CCFB04F1080194
:100D5000042207A800F0C6FB04F10C01042207A836
:100D600000F0C0FB04F11001042207A800F0BAFB58
:100D700004F11401042207A800F0B4FB04F11801E7
:100D8000042207A800F0AEFB04F11C01042207A80E
:100D900000F0A8FB04F12001042207A800F0A2FB48
:100DA00004F12401042207A800F09CFB04220DEBAF
:100DB000020107A800F096FB2834042202A907A824
:100DC00000F090FBA542B7D107A800F00DFB012071
:100DD00010B0BDE8F081D6F84C15084808F020FAAC
:100DE000204610B0BDE8F08104DE00008408FF1F3B
:100DF0000015FF1FD0DD000098477F00ECDD0000EC
:100E000070B50446AEB00D46FFF760FC144B154AB2
:100E1000236028210023144E1448C4F8280584F8C0
:100E20003815C4F8402584F8BF3084F8F43484F8C9
:100E3000F53484F8F63484F8243584F83B35C4F866
:100E40003C35C4F84835C4F81C656846FFF73EFCDD
:100E50006846FFF785FC2046C4F84C552EB070BD9F
:100E600030DE000003200038B4E000005CE0000049
:100E700030B5844C237889B0052B56D8DFE803F0D1
:100E8000BE8B59190B0312217F4806F0CBF87F481F
:100E900004F004FDFEE717217D4806F0C3F87B4807
:100EA00004F0FCFC7B48FFF7EBFA0523237009B044
:100EB00030BD2621784806F0B5F8744804F0EEFC01
:100EC0003A21764806F0AEF8704804F0E7FC06F0E8
:100ED0007FF80028FBD0782268466C4904F016FDA4
:100EE000632104A804F082FD04A9684604F0F0FD23
:100EF000054604A804F026FD684604F023FD002DF5
:100F0000D5D0032366482370FFF746FC68B96448D0
:100F1000FFF7A4FC002800F0A6805E48FFF7AEFAB9
:100F20005F48FFF739FC0028FAD00423237009B08A
:100F300030BD17215B4806F075F8544804F0AEFC4C
:100F40007221594806F06EF8504804F0A7FC06F0EC
:100F50003FF80028FBD0782268464C4904F0D6FCC4
:100F6000632104A804F042FD04A9684604F0B0FD22
:100F7000054604A804F0E6FC684604F0E3FC002DF6
:100F800095D00325464825703E4CFFF703FC00280A
:100F900066D109B030BD1621444806F043F83B48FD
:100FA00004F07CFC5521424806F03CF8374804F038
:100FB00075FC06F00DF80028FBD07822684633490E
:100FC00004F0A4FC632104A804F010FD04A9684601
:100FD00004F07EFD054604A804F0B4FC684604F065
:100FE000B1FC002D3FF463AF02252D482570254C40
:100FF000FFF7CEFB002833D109B030BD0C212D48BE
:1010000006F010F8214804F049FC53212A4806F064
:1010100009F81E4804F042FC05F0DAFF0028FBD076
:1010200078226846194904F071FC632104A804F091
:10103000DDFC04A9684604F04BFD054604A804F055
:1010400081FC684604F07EFC002D3FF430AF0125A2
:10105000134825700B4CFFF799FB00283FF427AF8E
:10106000257009B030BD0E48FFF798FB00287FF7C8
:101070001EAF0B48FFF796FB01460648FFF7FCF949
:1010800009B030BDF814FF1F28E000008408FF1FDE
:1010900010E00000FC14FF1FACDF0000D4DF0000F4
:1010A0003814FF1F20DF000038DF0000B0DE000032
:1010B000C8DE00004CDE00005CDE000070B50A4EA9
:1010C0000A4D0B4C3046FFF74DFB2A460949304686
:1010D00006F0E8FD2046FFF7C9F92A4620460649F2
:1010E000BDE8704006F0DEBD3814FF1F3007FF1F5B
:1010F000FC14FF1F79070000750400002DE9F04380
:101100000DF17F4D0DF5B83D414C424B42492DB09C
:101110006C44002220461A7004F11C06FFF770FE92
:101120003D4930A8FFF7E2FC0FCE09AD0FC50FCE49
:101130000FC521798DF80C10217E8DF820103749CC
:101140003068227B364B677B28606944256960697B
:10115000344E8DF81420344A04968DF81570069597
:101160000790CA5004F1440694F840308DF8483096
:101170000FCE13AD0FC50FCE0FC596E80300D4F800
:101180006C90D4F87080D4F874C0D4F878E0E76F2D
:10119000CDF8749085E80300CDF87880CDF87CC058
:1011A000CDF880E02197D4F88030229304F18802B2
:1011B00024A904F1A003F2E802679A42E1E8026779
:1011C000F9D12AAA04F1B805F3E80201AB42E2E83A
:1011D0000201F9D11149154B154A16486944CA5004
:1011E00001AA02A9FFF7E0FA01A8FFF77FF902A818
:1011F000FFF7B6FA30A8FFF775FB2046FFF728FD8A
:101200000DF57E0D0DF50F4D13B0BDE8F08300BF59
:10121000B0477F00F814FF1F3CE00000488FFE003D
:10122000C07001FFE8E10000B4DD0000BC7001FF08
:1012300038DC00003814FF1F38B504460D46242260
:10124000002107F09BFFA560EB79102B08D0202B25
:1012500004D1402301202370A07038BD002038BD88
:10126000202301202370A07038BD00BF024638B58E
:1012700052F8105F04462946806801F00FF850B11B
:1012800055B123690135AB42A37818BF03F0BF0302
:1012900063F07F03A37038BDA37843F04003F7E702
:1012A0002DE9F041037803F020032BB903F0FF048C
:1012B00041691F4B994203D900263046BDE8F081B1
:1012C0000546FFF7D3FF06460028F5D02969A86830
:1012D00000F072FF0746A86839462430052200F066
:1012E00033FF80460028E7D04FF40072214607F014
:1012F00045FFAB681A79012A10D9012403E0AB68D5
:101300001A79A2420AD918680368E1199B69424612
:1013100098470134E4B20028F1D1CDE79B7969699F
:101320004FF4007202FA03F311FA83F36B61C4E71E
:10133000FFFD1F0010B5044680680A462430A169ED
:1013400000F002FF20B1A38803F00F0300EB43106D
:1013500010BD00BF70B590F90230002B82B004467A
:1013600019DBA56805F1240000F01EFF30B9637891
:1013700043F001036370002002B070BD05F50C70EE
:1013800000F012FF0028F2D0286803685B699847D4
:101390000028ECD0F0E70121FFF7CCFF054600283C
:1013A000E5D00378E52BE2D023780E4A1B0744BF33
:1013B000E369C361236A166843831B0C838266B1A9
:1013C0000DF103020DF1060101A8B047BDF804308C
:1013D000BDF806202B836B82EA82A37803F07F039B
:1013E000A370BEE74C15FF1F10B50378044623B960
:1013F00000232370A370012010BDFFF7ABFF002373
:101400002370A37010BD00BF2DE9F041064692B0D5
:101410003578019200208DF824008DF825008DF894
:1014200026002DB998460B7813F0700F0C4603D1A7
:10143000002012B0BDE8F08113782F2B104625D084
:10144000002703E001983770B77009AC01AA03A91F
:1014500000F00EFB03AA214600230028E8D0019DDE
:101460002D7830460DB300F085FC354609AC0028D8
:10147000DED00FCD0FC40FCD0FC433782A682260A1
:10148000002BDFD03046FFF765FFDBE7013001902E
:1014900003782F2BFAD08BB1A16809A8FFF7CCFEF7
:1014A0000028C5D0019809ACCAE7434603AA2146E3
:1014B000304600F05FFC12B0BDE8F081A168304614
:1014C000FFF7BAFEB5E700BF19B101F23C41FFF7E3
:1014D0009BBF0846704700BF03780BB100207047E0
:1014E000FFF7AABE2DE9F04F8378DF0783B00546EA
:1014F00040F18F800F4601780E07914600F19280EF
:101500008C0608D5826843691289C3EB42139BB2EB
:10151000994528BF9946B9F1000F00F0A9806B6981
:10152000AA6888064E464FF0000805F1100AC3F37A
:10153000080B3ED5116A01EB5321BBF1000F52D1CC
:10154000B6F5007F4FD3D36A99424CD0B6F5806F81
:1015500071D3287880064FEA562B05D41079C8EB52
:101560000000834528BF834699424FEA4B240BD89D
:101570005B44994208D202F12400019100F014FE6C
:10158000002846D0AA680199106802685B46D2F824
:101590000CB03A46D84700283BD06B69361B234431
:1015A00027446B6164D02978AA688806C3F3080BC6
:1015B000C0D492F8058008EA5328BBF1000F38D157
:1015C000B8F1000F35D1002B3FD149064CBF116A4D
:1015D000296A2961104600F0EFFDAA6808EB0001B6
:1015E000BBF1000FACD002F12400002200F0ACFDF2
:1015F00078B1CBF50074B44228BF344600EB0B0140
:101600002246384604F07AFAC7E72B7813F0700FB9
:101610002FD16B784FF0FF3043F002036B7003B0B3
:10162000BDE8F08FC36942699B1A994528BF994666
:1016300071E72969CEE7106803683A469B689847C6
:101640000028E6D04FF40074A7E70B0705D5AB7868
:101650005C0602D529690131BBE71046296952466B
:1016600000F0B0FD0028D4DBCFD0AA682969B1E72B
:101670000026C6EB090003B0BDE8F08F70B582B05C
:1016800001220DF10701044646690569FFF72AFFAB
:10169000012808BF9DF80700666118BF4FF0FF30B2
:1016A000256102B070BD00BF30B54369C3F3431577
:1016B00083B0044605B189B901220DF10701204626
:1016C000FFF710FF40B201280BD163691F3363613C
:1016D000A068303000EB451003B030BD20334361CB
:1016E000F6E7002003B030BD2DE9F041037807692B
:1016F0000446B3B142698A420E463AD041B92161EB
:10170000A378666123F02003A3700120BDE8F08177
:1017100018070AD499060BD5A3681B89B6EB431F9B
:10172000EED927610020BDE8F081E1698E42F8D84A
:10173000D4F808E09EF806500935E9B2501E751E2F
:10174000C840CD40A84200D8B2B95B064CBFDEF815
:101750002030236A236104F110084246002DCFD0C7
:101760002169A06800F02EFD002805F1FF35F4DCAA
:10177000D7E70120BDE8F0812D1AECE72DE9F04113
:101780000D4690460021242204461F469DF818600D
:1017900007F0F4FCA8682B6AE36000F1300208F05F
:1017A0000F0302EB4312A060A4F80480D17A0D0766
:1017B00012D401F017012170D37AE67013F0180FDC
:1017C00008BF41F0080107F0030308BF2170012B97
:1017D00007D0022B29D01BB300202070A070BDE8D9
:1017E000F0810223A370217811F0110FF4D159B2C6
:1017F00007F4806507F008030B43DBB2A370B2F86F
:1018000014E0518BC66AA66141EA0E4185B1D1B997
:1018100063F07F03A3707B040ED40120BDE8F08148
:1018200017F48065D8D10121E4E70323A370DAE738
:101830002162D369E361EEE7E1692046FFF754FFD7
:101840000028EAD1C8E700F06BFD0028C4D0A378D7
:10185000DEE700BF03780BB1FFF77CBD01207047C6
:101860002DE9F04783789D07044607D4637843F059
:10187000010363704FF0FF30BDE8F08791461A070F
:10188000884600F1BF806269D3439945EED8B9F12B
:10189000000F00F0BE804E464FF0000A30E00029F5
:1018A00079D0A3785B067DD5E36993427AD901317B
:1018B000216100F081FCB6F5007F01463DD26269EE
:1018C000E369A068B6F5007F354628BF4FF4007580
:1018D0009A4278D30522243000F036FC0028C5D087
:1018E00038442A4641462F4404F008F9B7F5007FF2
:1018F00077D06269761B2A44A844626100F089802F
:10190000A0682169437913EA5225C2F308070CD174
:10191000002FC4D000F050FC0146C7F50075B54259
:1019200028BF3546A0680122D5E700F045FC2918FC
:10193000002FF2D1B6F5007FC1D3B6F5806FA26853
:101940001BD31379D76A5B1B700A834228BF0346F7
:101950008F424FEA432508D31F448F4205D982F8AE
:1019600024A04FF0FF30D062A26810680268D769E7
:101970004246B8470028BCD178E7D36A8B4229D0C9
:101980001068036842469B69984700283FF46EAF91
:101990004FF40075ADE7216A51B3216100F00CFCF2
:1019A0000146C7E704F1100200F00CFC0028FFF626
:1019B0005DAF05D12046FFF759FC00283FF456AF34
:1019C000A0682169EAE7A37813F0200F0CBF012279
:1019D000052280E782F824A04FF0FF33D362A2688B
:1019E000CEE7A068243000F0DFFB002881D13DE77E
:1019F0002046FFF73BFC00283FF438AF2169216205
:101A0000A068CBE7C169FFF76FFE00283FF42EAF57
:101A100039E7E369934209D30A4B1B6873B1A37892
:101A200063F07F03A3704846BDE8F087A378E261C6
:101A300063F07F03A3704846BDE8F0874846BDE8E1
:101A4000F08700BF4C15FF1F04290CD90A2906D9BD
:101A50000C299ABF00EB4101C8880020704700EBB9
:101A600041018888704700EB4101B1F801007047DF
:101A70002DE9F04F0378202B03D110F8013F202BE4
:101A8000FBD088600378002B00F007812F2B2FD02C
:101A90005C2B22D0A3F12204E4B21D2C20D9DFF864
:101AA00018E2461C00247C2BA3F12005374614D0F5
:101AB0005E2D12D816F8013BA3F12205EDB20134D8
:101AC000002B00F0D3802F2B13D05C2B2EFA05F7C0
:101AD00003D01D2DE7D8FF07E5D50020BDE8F08F26
:101AE000754D25FA04F4E407D9D50020BDE8F08F40
:101AF000002407193E4625462F2302E016F8013F31
:101B00000135202BFAD02F2BF8D0054415604CB1AD
:101B10003A4612F8013D2E2B02D0202B40F0A9802E
:101B2000013CF6D14FF0FF3523464B6001F117061B
:101B300001F10C03202203F8012FB342FBD1461E12
:101B4000002200E0013216F8013F2E2BFAD0202BA4
:101B5000F8D0B2FA82FC6E1C4FEA5C1C0CD0475DD8
:101B60002E2F00EB050604D106E016F8017D2E2F7E
:101B700002D015F1FF35F8D2A2424FF0000980F2F1
:101B800091804E46CA4607274FF0080825E02E2BC5
:101B900047D0222B0BD07C2B09D0A3F12A0EBEF10B
:101BA000050F48D9A3F13A0EBEF1050F58D895425A
:101BB00039D0B74229D34FF0000C5F2306F1010E54
:101BC00001EB060B5FFA8EF6062E8BF80D3000D86F
:101BD0000E730132A24207DA835C202BD7D1013287
:101BE000A2424FF0000CF7DB4B7B202B3FF475AF8C
:101BF000BCF1000F47D01AEA090F18BF4FF00209D5
:101C000081F800900120BDE8F08F0A2F37D095426F
:101C100035DB2A460A2708264FF010084FF0000C43
:101C2000D7E79542DBD10A2F29D02A460A27082672
:101C30004FF01008CDE72D2BB9D1A3F1210EBEF145
:101C40005D0FB4D89542EED0B742DED3A3F1610E5A
:101C5000BEF1190F28D8203BDBB248EA0909ADE7ED
:101C6000A3F15B0EBEF1020FA1D9E6E717600719D9
:101C70004EE7FF2C3FF731AF651E234655E74B7B00
:101C8000202B3FF42AAF0B7B0B4401207E24312212
:101C900008705C739A73BDE8F08F10601C464FF0BB
:101CA000FF3542E7CA469FE7A3F1410EBEF1190F87
:101CB00098BF48EA0A0A81E7010100352DE9F84397
:101CC0000F7B0E46044601F10D054FF002084FF060
:101CD0007E097068B16808EB00039BB240B108440C
:101CE00011F8012B03EB4313534088429BB2F7D109
:101CF000032F28BF03273A1DD2B203F00F01B018FB
:101D0000013A0929D2B294BF3031373197424FEAB4
:101D100013134173F1D3F319002183F80D9020467A
:101D2000FFF7E2FC01212046FFF7BEFC0B22034631
:101D30000146A8B193F800E02846BEF1000F15D087
:101D4000DB7A1B07EED407F083F90028EAD108F10B
:101D500001081FFA88F8B8F1640FBAD1BDE8F8831A
:101D60006078B0FA80F04009BDE8F8830120BDE852
:101D7000F88300BF2DE9F04F0C7814F0700F8DB090
:101D800001D004781CB100200DB0BDE8F08F1478AC
:101D9000D2F804A0A40742D14FF001080E469346A2
:101DA0000990002130460F460793FFF79DFC0BF189
:101DB0000D03069703973C46B94605970493012106
:101DC00030467569FFF770FCC5F34F1503460028D0
:101DD00000F08C800278E52A3AD0002A38D04445B9
:101DE00038BF00242E2A30D0D97A0F293ED001F0F6
:101DF000080101F0FF0241BBB9F1000F40F0628120
:101E000018460B22049907F023F90028D7D19BF834
:101E10000030D80740F16A8101230593CFE7B54D23
:101E20000AF10C04A5FB04484FEA980808F10108E0
:101E30005FFA88F8B2E703990139C9B28A4203917F
:101E400003D15A7B069991421BD04FF00009B6E7A7
:101E5000002C08BF2F4644453CBF0134E4B2002AA1
:101E600048D0E52ABED14FF00009A8E7B9F1000F2C
:101E7000E1D15506A3D502F01F095A7BCDF80C908D
:101E80000692039A013A02EB420502EB8505AA4548
:101E90002A46DAD905F10D01CDF82090894613E0E4
:101EA000DBF80800825CBCF1190F98BF2031A2F169
:101EB000410098BFC9B219289CBF2032D2B28A42D1
:101EC000C3D1CE4542D07246511BC9B21846FFF766
:101ED000BBFDC1B29245A1F1410C02F1010E00F02F
:101EE000EA80FF28DCD94FF0000968E77378002BFF
:101EF0007FF449AF079A13469A057FF544AF03F084
:101F00000303013B012B3FF63EAF002C08BF2F46D9
:101F1000444503D31DE0DCB2A0451AD90021304668
:101F2000FFF7C2FB631C0028F5D1737823B12AE7C1
:101F3000B3681B79012B0CD8A0450AD93046FFF7AE
:101F4000AFF91034E4B20028F2D11CE7DDF820909C
:101F500035E7059B33B159463046FFF7AFFE002801
:101F60003FF411AF79013046FFF7BEFB00283FF484
:101F70000AAF08F1FF3818F0FF0959D049F04004C2
:101F8000E4B24D46002700213046FFF78DFB0028C4
:101F90003FF4F9AEB26892F82430A94543F001034A
:101FA0004FF00F0C14BF2946214682F824300BF164
:101FB0000C0E80F80BC0077301700BF1170C002397
:101FC0001EF8018F5A0842EAC31358FA83F3E64514
:101FD000DBB2F5D101F01F010139437301EB41027E
:101FE000DBF808E0478301EB8202043000230FE0B6
:101FF000042B1EF8021014D90A2B94BF01804180D3
:102000000133DBB20D2B02F1010200F102000BD013
:102010009245EDD814BF4FF0FF310021042B89B257
:10202000EAD820F8031CEBE7013D15F0FF05AAD123
:10203000002130467569FFF737FBC5F34F1504469D
:1020400000283FF4A0AE2022002107F097F85B465D
:10205000294A53F80D1F58686060216019899B7ADE
:10206000A37221819BF80030176803F018032373D3
:102070008FB10DF12B020DF12E010BA8B847BDF861
:102080002C30BDF82E209DF82B10617323826382C3
:102090002383E281E282B26892F8243043F00103A4
:1020A00082F82430CDF80090079B09982A463146E3
:1020B000FFF764FB68E60028DDF8209018BF4FF0BA
:1020C00000097CE6039901297FF45DAE5C1E0A33AA
:1020D00014F8010F510841EAC21250FA82F29C42F0
:1020E000D2B2F5D1069B93427FF44DAE079B190502
:1020F000D8D548E64FECC44E4C15FF1FF8B54368E1
:10210000816800F10C0604461868036832469B6932
:10211000984740B123789A07054607D423F0010376
:1021200023702846F8BD00252846F8BD6368A168DD
:1021300018681F690368324639449B69984700282C
:10214000F1D02378EAE700BFF8B583688B420646F2
:1021500014460FD00378DA070F4612D4630716D55A
:1021600006F10C05002304F003041C4334702846D8
:10217000B760F8BD10F90C3B04F003041C43347045
:10218000F8BDFFF7BBFF0028E8D10020F8BD736859
:102190001868036806F10C059B682A46394698477B
:1021A0000028DFD1F1E700BF0378DB0701D401206D
:1021B0007047FFF7A3BF00BF837940690239994098
:1021C00008447047012931D9C36999422ED870B5A6
:1021D000C379202B164605460C4618D0102B13D178
:1021E0008369C1F307211944022200F50C70FFF73F
:1021F000ABFF48B1E1B230F81130EA6993429ABFBF
:1022000001203360002070BD4FF0FF3070BD816948
:10221000022201EBD41100F50C70FFF795FF0028A6
:10222000F2D004F07F0150F82130E6E74FF0FF30A4
:10223000704700BF01291DD938B5C369994206D836
:10224000C379202B15460C4616D0102B01D0002048
:1022500038BD8369C1F30721194400F50C700322CE
:10226000FFF772FF03460028F1D0E1B2012023F806
:10227000115038BD002070478169032200F50C70B1
:1022800001EBD411FFF760FF03460028DFD004F014
:102290007F01012043F8215038BD00BF2DE9F041F6
:1022A000C4688C4282B005460F4690463ABF0C4641
:1022B00000260126EB6901349C4201AA28462146EA
:1022C00009D93EBBEC6801349C424FF0010601AADB
:1022D00028462146F5D8A7421CD0FFF773FF0028F7
:1022E00018DBE7D0019B002BE4D106B1EC606FF066
:1022F000704221462846FFF79DFF064650B117B9A8
:10230000C8F8004007E0394628462246FFF792FF0A
:102310000028F5D10026304602B0BDE8F08100BFAC
:1023200070B5054682B00C460AE0FFF783FF90B116
:10233000EB689C423CBF04F1FF34EC60019C5EB151
:1023400001AA21462846FFF73DFF061E21464FF011
:1023500000022846E9DA002002B070BDF8B5044654
:10236000002301254FF0FF30E5602160A462C4F82E
:102370003442E37184F8243084F83032E062C4F8E7
:1023800038021546DAB1042A01D90020F8BD04F15B
:1023900024061A4619463046FFF7D6FE05F1805549
:1023A000013D2D0100F5DF735A190028EDD0117998
:1023B0000029EAD05B5D5B06E7D1956801E004F196
:1023C0002406304600222946FFF7BEFE0028DCD056
:1023D000037C022BD9D1B0F80B30B3F5007FD4D1F8
:1023E000467B2671731E0022012E6371A2710FD0ED
:1023F0000122114600E01A464900C9B2531C8E4220
:10240000DBB204D0092BF6D1A2710020F8BDA27175
:10241000C18A216109B9416A2161C789B0F81130C7
:1024200023812F445B0107EB410603F2FF13B0F851
:102430001310A76106EB63232662636101B9016A89
:10244000ED1A0D4425FA02F240F6F473511C9A423B
:10245000E1610AD94FF6F4739A4285BFC36A2362D9
:1024600010232023E3710120F8BD0C23E3718CE7D6
:10247000007C7047807C704710B40468E4680123D6
:10248000A4465DF8044B6047C07C704710B40468F4
:10249000E4690123A4465DF8044B6047704700BF20
:1024A00010B51421044603F04FFC204610BD00BFB8
:1024B0002DE9F0410E46017A0229044615461F46D1
:1024C00007D0236820465B699847D8B90020BDE84B
:1024D000F0814368B342F4D100265FB123682946F6
:1024E0005B6C20469847013605F500750028EDD055
:1024F000B742F3D16368627A1F4467606AB901200A
:10250000BDE8F081236831469B6C2046984700283F
:10251000DCD0022366602372DEE7236820465B6915
:10252000BDE8F041184700BF10B50446C06801F08F
:10253000D3FAE3680021187A03F0AAFC012363743C
:1025400010BD00BF10B5C36804460121187A03F01E
:102550009FFCE068FF2101F049FBE06801F004FB0B
:102560000023637410BD00BF70B5467C05460EB9EC
:10257000FFF7DAFF0824E86801F01AFBFF2804F1EE
:10258000FF330DD013F0FF04F5D101240EB96B7C9D
:102590000BB9204670BD2846FFF7D4FF204670BD1A
:1025A0000024F3E72DE9F041214D82B02B68009320
:1025B000009C80460E461746A4B207E02B680193A4
:1025C000019B9BB21B1BB3F5967F16DCD8F80C0061
:1025D00001F0EEFAFF2888F81200EFD0FE2810D0A4
:1025E000182388F8103098F8110018B14046FFF70A
:1025F000A9FF002002B0BDE8F0811D2388F810304B
:10260000F1E73A463146D8F80C0001F0DFFA88F8D5
:10261000120018B1242388F81030E4E7D8F80C0031
:1026200001F0C6FAD8F80C0001F0C2FA0120E1E787
:102630005C15FF1FF0B50D4D83B02B680093009C17
:1026400006460F46A4B206E02B680193019B9BB29D
:102650001B1BBB4207DCF06801F0AAFAFF28F3D18C
:10266000012003B0F0BD002003B0F0BD5C15FF1FDA
:10267000F0B5437C83B004460F4601920BB9FFF7D7
:1026800053FF37BB47F04001E06801F0AFFA01AEFD
:1026900002AD15F8011DE06801F0A8FAB542F8D1C5
:1026A000002F0CBF95218721E06801F09FFAE068B8
:1026B00001F07EFA0B25E06801F07AFA0306A074B7
:1026C00001D403B0F0BD6B1E13F0FF05F3D103B0CE
:1026D000F0BD4FF496712046FFF7ACFFD2E700BF84
:1026E000036870B55B6904460E4698472046002291
:1026F0003A21FFF7BDFF60B9351DE06801F058FAD7
:1027000005F8010DB542F8D1657C6DB90125284663
:1027100070BD657C12232374002DF8D0204600255F
:10272000FFF710FF284670BD2046FFF70BFF284635
:1027300070BD00BF036870B55B6904460D46164660
:102740009847294620460022FFF792FF40B11B23FD
:102750002374607C18B12046FFF7F4FE002070BDA2
:10276000314610222046FFF71DFF0028F1D0657C7E
:10277000002DF4D02046FFF7E5FE284670BD00BFCF
:102780000A460921FFF7D6BF0A460A21FFF7D2BF42
:1027900030B50368234A5B6B934285B02FD16A46FC
:1027A0000921FFF7C7FF38B19DF8003013F0C003CF
:1027B00004D0402B26D0002005B030BD9DF8094044
:1027C0009DF806309DF807209DF80A009DF8051039
:1027D0009DF8085004F003046400920003F0030322
:1027E00044EAD01001F00F0142EA8323084443EA8F
:1027F00095130133073803FA00F005B030BD694680
:102800009847D0E79DF809309DF807109DF808001B
:102810005A1C01F03F0302EB034303EB002080024C
:1028200005B030BD8127000030B50368114D1B6C29
:10283000AB4283B004460A4617D1C07C032818BFB8
:10284000520212212046FFF713FF58B1607C0C237F
:10285000237408B903B030BD2046FFF773FE002093
:1028600003B030BD012003B030BD01919847019AFB
:10287000E4E700BF892400002DE9F0410D46017A0C
:102880000129064614461F4607D0336830465B6967
:102890009847E0B90020BDE8F0814368AB42F4D12D
:1028A000002567B121464FF400723046FFF77AFEEB
:1028B000013504F500740028ECD0AF42F2D1736802
:1028C000727A1F44776062B90120BDE8F081294621
:1028D0003046FFF7A9FF0028DCD001237560337272
:1028E000DEE7336830465B69BDE8F041184700BF5A
:1028F00038B500220C210546FFF7BAFE6C7C20B1EA
:1029000009232B7454B9204638BD14B9012420463C
:1029100038BD2846FFF716FE204638BD284600245D
:10292000FFF710FE204638BD30B50368114D1B6C13
:10293000AB4283B004460A4617D1C07C032818BFB7
:10294000520219212046FFF793FE58B1607C0E23F6
:10295000237408B903B030BD2046FFF7F3FD002013
:1029600003B030BD012003B030BD01919847019AFA
:10297000E4E700BF89240000F0B503682B4F5B6BD0
:10298000BB4285B004460D4616462DD16A46092144
:10299000FFF7D0FE90B19DF80A305A0616D5E37CB9
:1029A000032B18BF6D022A464FF02001204618BFA6
:1029B0007602FFF75DFED0B125232374607C18B149
:1029C0002046FFF7BFFD002005B0F0BD03F03F0338
:1029D0009DF80B105B00721C43EAD1132A4313428B
:1029E000DDD026232374E9E769469847D2E73246CB
:1029F00021212046FFF73CFE0028DDD1024626219A
:102A00002046FFF735FE0028D6D142F2107120464D
:102A1000FFF710FE10B927232374CFE7657C002D44
:102A2000D2D02046FFF78EFD2846CDE78127000053
:102A300070B54FF416710546FFF7FCFD064658B910
:102A40006C7C1E232B740CB9204670BD284634467E
:102A5000FFF778FD204670BDFD21E86801F0C6F85B
:102A60006C7C14B93446204670BD2846FFF76AFDD9
:102A7000EAE700BF10B5037A012B044605D0022B0C
:102A800009D000232372012010BDFFF731FF002879
:102A9000F7D1002010BDFFF7CBFF0028F1D1F8E7F8
:102AA00038B504461546C06801F0A0F84FF400722E
:102AB0002946E06801F0A6F8E068FF2101F096F8E9
:102AC000E068FF2101F092F8E06801F071F800F091
:102AD0001F03052BA07409D0607C1F23237400B949
:102AE00038BD2046FFF72EFD002038BD012038BD3F
:102AF00038B50D464FF416710446FFF79BFD40B9FB
:102B000023232374607C18B12046FFF71BFD0020AF
:102B100038BD2A46FC212046FFF7C2FF0028F1D02D
:102B200038BD00BF10B4074C074A084908480023C5
:102B3000236014680C60096811605DF8044B037031
:102B4000704700BF38100B4030100B402815FF1F96
:102B50004015FF1F034B04481B681840B0FA80F073
:102B60004009704730100B4001000F00024B1868FD
:102B700000F00100704700BF24100B40014B187893
:102B8000704700BF4015FF1F034B186880F40060BA
:102B9000C0F3C020704700BF24100B40034B1868DF
:102BA00080F48060C0F38020704700BF24100B4089
:102BB000034B04481B681840B0FA80F04009704786
:102BC00030100B4002007F114FF47A722C4B02FB45
:102BD00000F09842F0B44BD82A4D08220121490058
:102BE0000B01B5FBF3F39842264C3DD2013AF6D1E6
:102BF000B4FBF1F44B081F02A0423DD2214E4B0022
:102C0000012200E02346B6FBF3F4A04202F10105E5
:102C100003EB010426D2102D2A46F3D1F0221A4EDE
:102C20001A4C18481A494FF47A7505FB03F3B0FBA8
:102C3000F3F33360236823F008032360206820F453
:102C40007F2323F47F6343F460233B431A432260D2
:102C50000B681B07FCD50D4A136843F0080313608B
:102C6000F0BC70471201DAE7B4FBF1F4CF01C3E71F
:102C7000044C00270121BFE70B460022CFE700BF2D
:102C80004FA9AB000095BA0A4415FF1F2C100B404A
:102C900024100B40014B1878704700BF3807FF1F06
:102CA000014B1868704700BF2815FF1F30B4054C52
:102CB0000D460FCC28606960AA60EB60012030BC33
:102CC000704700BF0815FF1F30B4054C0D460FCCF0
:102CD00028606960AA60EB60012030BC704700BFCB
:102CE0003015FF1F024B1B680B600120704700BFAF
:102CF0002015FF1F704700BFF8B5054603F0E2F846
:102D0000064F064604E003F0DDF8801BB84203D806
:102D1000A84704460028F6D12046F8BD40420F00DF
:102D20002DE9F041DFF840800E4FC8F8000005465D
:102D300003F0C8F8064606E003F0C4F8801BB8426A
:102D40000AD804F073FAA84704460028F4D1C8F85A
:102D500000002046BDE8F0810023C8F8003020467E
:102D6000BDE8F08140420F001815FF1F10B50C217F
:102D7000044602F0E9FF204610BD00BF054B1B785A
:102D800033B1054B1B78002B14BF03200220704782
:102D9000012070470415FF1F1C15FF1F38B504469E
:102DA0000F480D46FFF7A8FF08B1002038BD0D4AB7
:102DB0000D4B15600D481C60FFF79EFF0028F4D1F5
:102DC0000B4A0C4B11681960196811601A68D20718
:102DD000EBD51B6813F4702FE7D1012038BD00BF7D
:102DE0006D2B000008100B400C100B40552B000001
:102DF00030100B402815FF1F08B5044B0448196814
:102E0000FFF7CCFF08B1034B186808BD2415FF1F5E
:102E100000001A0D10100B4030B5154B85B00D4653
:102E20001968FFF7BBFF00B3124A134B12680092F8
:102E30001968019159680291083305F10F041B6864
:102E40000393002301E051F8102C03F00301C900A3
:102E50000133CA400DF1100E23F003010F2B714412
:102E600004F8012DEFD10023EB7305B030BD00BF96
:102E70002415FF1F10100B4014100B4008B5074B12
:102E800007481968FFF78AFF30B1064B186880F4CD
:102E90008070C0F3002008BD012008BD2415FF1F6D
:102EA00000001A0D10100B40044B1B6803B11847AB
:102EB000034B187800B97047FFF7E0BF1815FF1FE4
:102EC0002C15FF1F054B186810F0020005D01B6879
:102ED00003481840B0FA80F0400970472815FF1FDA
:102EE00000007F11F8B5940700D143B91F49204B6A
:102EF000242040F2D31208701A600020F8BD064664
:102F00001C481C460F461546FFF70AFF18BB1A4916
:102F10001A4ADFF880E04FF0010C8EF800C023045D
:102F20000860174C1560174A1749184843F4007396
:102F3000236013780860B3B979023046FFF72EFF9B
:102F40000028DAD01248FFF7EBFE0028D5D1BDE803
:102F5000F840FFF7B7BF0549054B0A204FF4EB7265
:102F600008701A60C9E73946E7E700BF3807FF1F56
:102F70004815FF1F7D2E00002815FF1F00100B4075
:102F800004100B401C15FF1F38100B4002007F116E
:102F90007D2B00004015FF1F70B419490B7813F00A
:102FA000C00311D0402B02D0002070BC70474B7A78
:102FB000CC79087A5A1C04F03F0302EB034303EB7D
:102FC0000020800270BC70474D7A8B79CA794C79A9
:102FD0000E7A887A05F00301490003F0030392009A
:102FE00041EAD01042EA832304F00F0143EA96132A
:102FF00008440738013303FA00F070BC704700BF83
:103000003015FF1F70B52C4EB37A03F04000154603
:1030100058B903F03F03F27A00F0FF045B00681C2C
:1030200043EAD2130843034221D1244B1B780BB946
:1030300049026D022248FFF7B1FE044640B921491A
:10304000214B0F2040F2B12208701A60204670BD5B
:1030500029461E48FFF7A2FE044688B919491A4BB3
:1030600010204FF42D7208701A60204670BD15496B
:10307000154B262040F2A92208701A60204670BD28
:1030800000211348FFF78AFE044638B90D490E4B5C
:10309000112040F2B72208701A60D7E70D48FFF7F9
:1030A0002BFE0028D2D00749074B272040F2BA2236
:1030B00008701A600024C9E73015FF1F1C15FF1F98
:1030C00000001A203807FF1F4815FF1F00001A21B3
:1030D00000001B267D2E000070B500211548FFF76B
:1030E0005DFE044640B91449144B092040F21922F0
:1030F00008701A60204670BD1148FFF711FE70B9C4
:1031000010481149114D06680B682A6823F4803372
:1031100042F080622A6006600B60204670BD06495E
:10312000064B0A204FF40772087000241A602046EC
:1031300070BD00BF0000DB0C3807FF1F4815FF1FE4
:103140007D2E000034100B4028100B402C100B403B
:10315000FFF7C2BF38B5284B1B68D8050D4608D409
:10316000264B1A6822F480321A601A6842F4003240
:103170001A60224A2248136843F480331360FFF731
:10318000BBFD00282ED11C4C1E482B1F05F5FE75DB
:1031900022685105FCD503F1400153F8042F026069
:1031A0009942FAD18D420B46F2D11748FFF7A4FDA0
:1031B00078B9164A164B11681960196811601A68B7
:1031C000920717D51B6813481840B0FA80F04009E1
:1031D00038BD1149114B232040F2863208701A6025
:1031E000002038BD0C490D4B202040F27B32087086
:1031F0001A60002038BD00BF24100B4028100B407F
:103200009D2B000020100B40B12B000030100B4014
:103210002815FF1F00007F113807FF1F4815FF1FEB
:1032200038B514480C46FFF77BFDC8B9124A13495C
:1032300013681348134D23F4803313600B78056033
:1032400063B961021048FFF7A9FD30B90F49104B6F
:103250000E2440F2DB320C701A6038BD2146F1E7D3
:103260000A490B4B0A2040F2CF3208701A60002046
:1032700038BD00BF7D2E000028100B401C15FF1F1D
:1032800004100B400002FFFF22003A193807FF1F0D
:103290004815FF1FF8B50646007AC0070C461546CC
:1032A0001F4613D483B10F4401E0BC420CD03368F5
:1032B0002A4621469B6830469847013405F500753B
:1032C0000028F2D10020F8BD0120F8BD900712D0EF
:1032D000002BF9D00F4401E0A742F5D033682A460D
:1032E00021469B6830469847013405F50075002853
:1032F000F2D10020F8BD0648FFF7F4FD0028E3D125
:103300000449054B0C2440F231320C701A60F8BDB0
:1033100037003A123807FF1F4815FF1FF8B5064659
:10332000007AC0070C4615461F4613D483B10F44DC
:1033300001E0BC420CD033682A4621469B693046E6
:103340009847013405F500750028F2D10020F8BD3A
:103350000120F8BD900712D0002BF9D00F4401E0F6
:10336000A742F5D033682A4621469B6930469847E4
:10337000013405F500750028F2D10020F8BD06489B
:10338000FFF7B0FD0028E3D10449054B0E2440F2BD
:10339000C1320C701A60F8BD27003A193807FF1FB8
:1033A0004815FF1F70B5037A1546DA07ADF5007DA5
:1033B0000E4619D5AB0706D0294668464FF4007271
:1033C00002F09CFB6D462A46314601231E48FFF75A
:1033D00089FD30B91D491E4B0D244FF466720C70E7
:1033E0001A600DF5007D70BD437A022B044608D0AB
:1033F000236820465B699847D8B900200DF5007D09
:1034000070BD43689942F3D1236829465B6C20461E
:1034100098470028F1D063680E4A0133636013684F
:103420001B0C1B04002BDCD1236820465B699847EA
:10343000D7E7236831469B6C204698470028DCD0AC
:10344000022366606372DFE701003A183807FF1F46
:103450004815FF1F04100B40437A012B0CD0022BA0
:1034600001D001207047002103684172DB6C054ADE
:10347000934205D1FFF730BE00234372FFF72CBE05
:10348000184700BF51310000F8B505461D480C46ED
:10349000FFF732FC40B11C491C4B0A204FF4BB72B1
:1034A00008701A600020F8BD194ADFF884E0194F4F
:1034B000194E1A4B4FF0010C8EF800C029461060CF
:1034C000174D184A3C60184835601A60FFF766FCD3
:1034D00038B90D490D4B042440F27D120C701A606E
:1034E000F8BD1248FFF71CFC18B9FFF7EBFC00B160
:1034F000F8BD0549054B24204FF4C07208701A60CE
:103500000020F8BD7D2E00003807FF1F4815FF1F63
:103510002815FF1F00100B4004100B4038100B4003
:103520004000010002007F1111003A067D2B0000CF
:103530004015FF1F2DE9F04F8E4D8F4CDFF8AC8208
:103540008E4F8F4E017200232B70437288F800302B
:103550003B70337023688B4A8B488C49DFF890E2CC
:1035600043F040632360136804F57E3443F4003372
:1035700013600C3402F5D12240F2031302F2FC7204
:103580000360CEF800300B6023600361CB601368EA
:1035900043F0807343F4004391B0136013687C4C94
:1035A000D901FBD44FF4C870FFF70EFBDFF8D8C188
:1035B000DFF83CE27549774A774840F24343CCF85C
:1035C0000030CEF800304FF4886EC1F800E0136090
:1035D00002F5C822283203607048CB601060704941
:1035E000512002F03BFC6F4B6F4960204FF40032DA
:1035F00008701A60236843F000632360216811F0AB
:103600000061FBD10846FFF7C9FB044600284ED0F5
:1036100003244FF4D5716548FFF7C0FB00285DD146
:10362000013CF6D13378624E002B08BF4FF44016B0
:1036300002F048FC5F4C814600215F48FFF7AEFB7B
:1036400050B95E4A40F26A21172311602B700024A2
:10365000204611B0BDE8F08F31465948FFF79EFB78
:103660000028EED002F02EFC564B524AC9EB000067
:103670009842E6D82368002BDEDA534B11681960B4
:10368000136852485A0048BF01234FF0000148BF59
:103690003B70FFF783FB044698B9484A40F2732118
:1036A0000223204611602B7011B0BDE8F08F434A11
:1036B00040F259210123204611602B7011B0BDE862
:1036C000F08F00214248FFF769FB0446B8B93B4A36
:1036D00040F27621032311602B70B9E7354B1B684C
:1036E000B3F5D57F07D0354A40F25F21062311603C
:1036F0002B700024ACE7012333702D4E98E72D4B3F
:10370000344E1B68344935481B0C1B043360FFF7EB
:1037100083FB044630B9294A40F27B21072311601C
:103720002B7095E72E492F48FFF776FB044630B9FA
:10373000224A40F27E21082311602B7088E731680D
:103740002948FFF72BFB044630B91C4A40F281217F
:10375000052311602B707BE731681748FFF71EFBCC
:10376000002847D1154A40F28521142311602B709F
:1037700000246DE73807FF1F00D800401C15FF1F0D
:103780000415FF1F3080044000D0044008D00440DE
:103790002C100B400CD0044010D004400B007F11C3
:1037A000252B000008E100E051E400E000001A08C9
:1037B0000000304010100B4000001A374815FF1F62
:1037C0000000022940420F002015FF1F00000902DF
:1037D00000001A032415FF1F3015FF1F0000090900
:1037E0000815FF1F0000090A00001B072C15FF1F0A
:1037F00004D0044002212A48FFF7D0FA04460028EA
:10380000B0D0284B28481A6822F006021A601A68BD
:103810004FF0101542F002021A60694605606FF021
:103820007F40FFF731FE18B19DF80D309B0728D47B
:1038300046F2A810DFF884B0DFF884A0DFF88490A7
:103840001A4F1B4E1B4D40F20313CBF80030CAF841
:103850000030C9F800303B6033602B60FFF7B4F9EB
:1038600040F243434FF488610122CBF80030CAF89C
:103870000030C9F800103B6033602B6088F80020EE
:10388000E6E669460C48FFF7FFFD0028D0D09DF81A
:10389000103003F00F03012BCAD14CF25030C9E7AE
:1038A00000001A0628100B4044100B400CD00440B6
:1038B00010D0044014D00440F1FFFF8000D0044039
:1038C00004D0044008D0044038B5284B1B68980544
:1038D0000D460ED4264B1A6822F480321A6072B656
:1038E0001A6842F400321A601A6842F480321A6090
:1038F00062B62048FFF700FA00282ED11B4C1E4864
:103900002B1F05F5FE7522681105FCD503F140015A
:10391000026843F8042F9942FAD18D420B46F2D146
:103920001648FFF7E9F978B9154A164B116819607E
:10393000196811601A68920717D51B681248184059
:10394000B0FA80F0400938BD1049114B1D204FF4EA
:103950003D7208701A60002038BD0C490C4B1A20CB
:1039600040F2E92208701A60002038BD24100B4094
:1039700028100B40892B000020100B40B12B0000B9
:1039800030100B402815FF1F00007F113807FF1F64
:103990004815FF1F38B514480C46FFF7C1F9C8B9E0
:1039A000124A134913681348134D43F480331360CC
:1039B0000B78056063B961021048FFF7EFF930B981
:1039C0000F49104B0C2440F24D320C701A6038BD78
:1039D0002146F1E70A490B4B0A2040F241320870B8
:1039E0001A60002038BD00BF7D2E000028100B405B
:1039F0001C15FF1F04100B400002FFFF32003A129B
:103A00003807FF1F4815FF1F70B5037ADC07ADF5B7
:103A1000007D154612D593071FD06A4601232A4818
:103A2000FFF760FAF8B1694628464FF4007202F0D9
:103A300065F8012528460DF5007D70BD437A012B00
:103A400004460E461BD0236820465B69984748BB56
:103A5000002528460DF5007D70BD01231A48FFF7AB
:103A600041FA0028E5D11949194B0B20002540F2F5
:103A70000732087028461A600DF5007D70BD436856
:103A80009942E0D129462046FFF71EFF054600284F
:103A9000DED0104B1B681B0C1B046BB16368013339
:103AA0006360D6E731462046FFF774FF0028CFD089
:103AB000012366606372E5E7236820465B699847E7
:103AC0000028EBD1C4E700BF11003A113807FF1FEF
:103AD0004815FF1F04100B4010B403684268D97AE0
:103AE000F9B172B6D97AC80706D51948D9680468F9
:103AF0002140D9610160D97A8C0706D5154819692A
:103B00000468214019620160D97A480706D5124835
:103B100059690468214059620160D97A09070FD4B4
:103B200062B61B68D968914207D00C4818600C49EE
:103B3000DA6042F08040186119605DF8044B70470C
:103B4000084899690468214099620160E8E700BF6C
:103B500080E100E084E100E088E100E001403F0016
:103B600000003F808CE100E00268D37AB3B1D9074E
:103B700003D50B4BD1691960D37A980703D5094B4C
:103B8000116A1960D37A590703D5074B516A196036
:103B9000D37A1B0702D5054B926A1A60704700BFA3
:103BA00000E100E004E100E008E100E00CE100E0F9
:103BB00003681A684FF00041FF23D1625363D36A50
:103BC000002BFCDA906BC0B2704700BF70B50546A1
:103BD0000C4616460846FF2105F0D0FA2868334601
:103BE0002246214604F038FA002070BD03681A68A6
:103BF0004FF00043D3625163D36A002BFCDA936B1E
:103C0000704700BF30B5551EB5F5007FADF5017D9D
:103C1000134612D372B102681268C8184FF00044FC
:103C200011F8013BD4625363D36A002BFCDA814262
:103C3000936BF5D10DF5017D30BD05461446684600
:103C400001F05CFF23466A466946286804F004FADE
:103C50000DF5017D30BD00BF90F8392090F8380097
:103C6000101A704790F8383090F839209A4205D9E8
:103C70005A1C034480F83820187E70474FF0FF30FC
:103C8000704700BF90F8383090F839209A4286BFCC
:103C90001B18187E4FF0FF30704700BF704700BF01
:103CA00038B50546B0F85E0090B195F85D30144621
:103CB000C3F1210294420CD805F13B00184422467E
:103CC00001F01CFF95F85D30234485F85D302046F7
:103CD00038BD012014462871EEE700BFB0F85E3011
:103CE0006BB190F85D30202B07D8C218013380F8F3
:103CF0005D30012082F83B107047012303710020E2
:103D0000704700BF0023426980F8383080F83930AE
:103D100080F85C3080F85D3080F85E3080F85F308D
:103D200006CA30B40D68046943662A4383660A6094
:103D3000A370426990F861301649146813441D7AE3
:103D40005B7B01EBC5051B026D6803F4E06343F088
:103D500064032B6090F8623013449D7CDB7D01EBA3
:103D6000C5011B02496803F4E06343F064030B6080
:103D700021685368194205D003692C225A700369DF
:103D800004229A71036920225A71036980229A7071
:103D900030BC704700E2000038B50269D478E4B264
:103DA000E106054624D51023D37063061FD504F021
:103DB000040404F0FF03002C5AD042496A6E002329
:103DC0000B7085F85D30002A66D0904795F85D301D
:103DD000002B61D02B69D0229A702B6995F83B207B
:103DE0001A712B69012285F85C200222DA7038BD35
:103DF00004F0400303F0FF00002BD8D19379DBB22D
:103E000003F0600160294ED0937803F0100303F0B3
:103E1000FF01B3B114F0010437D195F85C3095F887
:103E20005D1099424BD9591C2B4485F85C1093F8CE
:103E30003B3013712B69D0229A702B690222DA7001
:103E4000D5E785F86010937943F0200393712B69CF
:103E500095F839101A791F29D2B2C6D819480078B6
:103E60000028C2D06818013185F839100276BCE705
:103E70002A6985F83930C02393702B69114A197962
:103E8000012111700222DA70B1E7C02393702B690F
:103E90001A790222DA70AAE70122002385F85D2050
:103EA00085F83B3096E703F0DF039371AB6E23B1E7
:103EB00085F8380095F8390098472A69A4E7147105
:103EC000B8E700BF5015FF1F2DE9F047374FDFF867
:103ED000E0903B68026982B006460093DDF80080FE
:103EE00000214FF49675D3789B065BD53B68019310
:103EF000019BC8EB03030F2BF5D949B1102BF2D06E
:103F000000209070336980229A7002B0BDE8F0877B
:103F1000726996F8613013440521187A01F0CCFFDC
:103F2000726996F861301344012193F812A050464B
:103F300001F0C2FF09240021504601F0A9FF2B46E1
:103F4000013BFDD10121504601F0A2FF2B46013B70
:103F5000FDD1013CEFD1706996F8611001444FF436
:103F600016720C7A4B7B09EBC4011B02496803F4FF
:103F7000E06343F064030B6096F862300344997C7D
:103F8000DB7D09EBC1011B02496803F4E06343F0E8
:103F900064030B60013AFDD13269D3789B064FF080
:103FA0000101A3D4012002B0BDE8F0875C15FF1F1A
:103FB00000E20000F0B503691222DA70026993781A
:103FC00003F0200385B004460D46002B5ED0B423D9
:103FD00093703C4922690B680093009E05E00B68D2
:103FE0000193019B9B1B042B42D8D37803F0200341
:103FF00003F0FF00002BF2D094F85D30002B31D09D
:104000004FF0000E4FF0020C04EB0E0393F83B3020
:1040100013710B680393039F206907E09B060DD57E
:104020000B680293029BDB1B052B28D8C378DBB2FD
:1040300003F0020202F0FF06002AEFD080F803C06E
:104040002669F378DBB2DF0632462DD49F062BD5E6
:10405000DB0731D40EF1010E94F85D305FFA8EFE6D
:104060007345D1D800201DBB002384F85E3004E0E6
:104070009070236980229A70042005B0F0BD86708C
:104080002369802204209A7005B0F0BD03F0FF067A
:10409000FFF71AFF10B9042005B0F0BD236984F8BA
:1040A0005F60B0229A7094E78023B3700420DAE74F
:1040B00026698023B370D7E7BEF1000F0CBF022042
:1040C0000320F6E75C15FF1F2DE9F0410669002586
:1040D000122780F8385080F83950F770D0F810C0A7
:1040E0009CF802E00EF0200E88B004468846154683
:1040F0001E46BEF1000F49D0B4238CF802307A4B33
:1041000021691A680092DDF800E006E01A68019261
:104110000198CEEB0000042830D8C87800F02000C9
:1041200000F0FF070028F1D04FEA480242F00102F8
:10413000D2B20A711A680292DDF808E0206906E03E
:104140001A6803920399CEEB010105292AD8C17898
:1041500001F0020101F0FF070029F1D04FF0020C3D
:1041600080F803C02269D17811F0110722D12DBB4C
:10417000002E0CBFA0238023937003E08F7023696F
:1041800080229A70384608B0BDE8F0810EF0FF0733
:10419000FFF79AFE0028F5D0236984F85F70B022FB
:1041A0009A70ACE787702369802238469A7008B00D
:1041B000BDE8F081802393700027E3E7012D78D0DC
:1041C000A021917021690A79BE4667464FF0A80C7C
:1041D0001A680492049805E01A680592059A121A62
:1041E000052A4DD8CA7802F0020202F0FF08002A20
:1041F000F2D0CF702169CA78D2B212F0100F0846FF
:104200005DD192065BD5013DEDB2012D4CD0BEF1E2
:104210001F0F3ED90A79012DDAD11A680692069D40
:1042200005E01A680792079A521B052A56D8C278E9
:1042300002F0020202F0FF01002AF2D00223C37052
:104240002269D378DBB2D9063BD49B0637D5B0239D
:10425000BEF11F0F937043D8226904EB0E0312794D
:104260001A760EF1010E5FFA8EFE00BF00BF00BF8E
:1042700016B1236980229A7084F839E0774681E785
:1042800081F80280236980229A70774684F839E0A9
:1042900078E704EB0E0291F8048082F818800EF1A2
:1042A000010E5FFA8EFEB6E781F802C0216908466A
:1042B000ADE7A82191702069BE460279ADE7774647
:1042C00060E710214FF49673D170013BFDD1226954
:1042D000937803F0F7037746937053E78170D1E743
:1042E00023691B79C1E700BF5C15FF1F0148FFF779
:1042F00053BD00BFA807FF1F0148FFF74DBD00BF1A
:104300001408FF1F0148FFF747BD00BF3C07FF1F10
:1043100001F0FCBDF8B5114E3468400084F83B0054
:104320002568012084F85E0084F85D001F46204661
:104330002B68144698475FB17D1EADB20135254408
:10434000306814F8011B03681B689847AC42F7D12A
:1043500030680121FFF72EFE0020F8BD5415FF1F25
:104360002DE9F0471E4E96F900305A1C2AD0DFF88E
:1043700078A0DFF8789047B2072500244FF00108B5
:1043800001E096F90030D8B2002101F081FD08FA71
:1043900005F13940C9B29AF8000001F079FD012118
:1043A000307801F075FD99F8000001F077FD6400A8
:1043B000E4B2013D08B144F001046B1CE1D1204698
:1043C000BDE8F087074B1A684FF00043D362506393
:1043D000D36A002BFCDA906BC0B2BDE8F08700BF57
:1043E0005115FF1F4009FF1F5815FF1F5215FF1FD2
:1043F0000D4AD37A1946B3B1D80703D50B49D06912
:10440000086019469B0703D5094B106AD17A1860DA
:10441000480703D5074B506AD17A18600B0702D5BD
:10442000054B926A1A6070474009FF1F00E100E0E7
:1044300004E100E008E100E00CE100E02DE9F843D0
:10444000244D2C68460084F83B6080460126206895
:1044500084F85E6084F85D60D0F8009020461F46C6
:104460001446C84731462868FFF7A4FD3346414645
:10447000FAB22868FFF728FE80B2874202D03046A1
:10448000BDE8F8837E1EB6B2FFB10136124F264456
:1044900010E090F8383090F839209A4203F1010E7C
:1044A00000EB030114D980F838E0087E04F8010B12
:1044B000A6420AD0286803685B69BB42E9D09847E6
:1044C000C0B204F8010BA642F4D10020BDE8F88385
:1044D000FF20EBE75415FF1F653C00002DE9F84372
:1044E000314E96F9005001350746894614469846E4
:1044F00021D00021384601F0CBFC08F1FF354846B9
:10450000FFF72EFFADB2B8F1000F07D001352544FB
:1045100014F8010BFFF724FFA542F9D13846012119
:1045200001F0B6FC96F90030013301D1FFF760FFCE
:104530000020BDE8F8831D4BDA7A02B372B6D97A4F
:10454000CD070A4606D51A48DA6805682A40DA61B6
:1045500002600A46880706D5164819690568DA7A9E
:10456000294019620160510706D513485969056849
:10457000DA7A29405962016012070DD462B61B68CD
:104580000E4AD9689142B4D00D4919600D480E49C0
:10459000DA6018611960ACE70C499A690868024052
:1045A0009A620A60EAE700BF5115FF1F4009FF1F2A
:1045B00080E100E084E100E088E100E005400038AF
:1045C00001403F000540007800003F808CE100E0A2
:1045D0002DE9F843324E96F90050013507468946D9
:1045E0001446984623D00021384601F051FC08F1CA
:1045F000FF3549F08000FFF7B3FEADB2B8F1000F10
:1046000008D0013525440020FFF7AAFE04F8010B6D
:10461000A542F8D13846012101F03AFC96F9003064
:10462000013301D1FFF7E4FE0020BDE8F8831D4B04
:10463000DA7A02B372B6D97ACD070A4606D51A4895
:10464000DA6805682A40DA6102600A46880706D5FA
:10465000164819690568DA7A29401962016051071C
:1046600006D5134859690568DA7A2940596201600C
:1046700012070DD462B61B680E4AD9689142B2D0B7
:104680000D4919600D480E49DA6018611960AAE7F2
:104690000C499A69086802409A620A60EAE700BF1A
:1046A0005115FF1F4009FF1F80E100E084E100E099
:1046B00088E100E00540003801403F0005400078F7
:1046C00000003F808CE100E070B4074E074D084CBD
:1046D00001770022FF2131702970217002628274FB
:1046E0004274027470BC70475815FF1F5215FF1FAB
:1046F0005115FF1F38B5044690F91C002175451C63
:104700003BD0C0B2012101F0C3FB207F012101F0A9
:10471000D3FB244B93F90000431C3ED0C0B20121CF
:1047200001F0CAFB204B0121187801F0C5FB1F4B9B
:104730000021187801F0C0FB217F1D4A1D4B84F831
:104740002910002184F82A10E26223631A4B636364
:1047500004F1280000F04CFC08B1002038BD012312
:1047600084F8D40084F8D30084F8D50084F8D030DD
:104770006074A0742074184638BD104B10460D4666
:104780001A60FFF7BFFA01210D4A0E4B84F8295039
:1047900084F82A10E2622363D8E70B4803F01EFC7A
:1047A000CAE700BF5115FF1F5815FF1F5215FF1F05
:1047B000D1450000DD440000114300005415FF1FE7
:1047C0003D440000154300004009FF1FF0B5417C47
:1047D000827C044600294FF0010380F8D23085B076
:1047E00015BF262006202421042184F8D1300AB1E7
:1047F00041F01200237C0BB140F04000E37C0BB190
:1048000040F0800004F12805294600F057FA10B165
:10481000002005B0F0BD012384F8D030284600F018
:1048200031FD0028F4D12A466946032000F0AAFD94
:10483000DDE90067DDE90223B0FA80F04009C4E950
:104840000067C4E9022305B0F0BD00BF10B50446FF
:10485000FFF7BCFFD4E9020104F08AF800EE100A69
:1048600010BD00BF2DE9F041054694B048223749FC
:1048700002A801F043F995F8A90098B395F8AB4068
:10488000002C5DD0324F00263B463246304639463A
:1048900003F0ECFB631E13F0FF0406460F46F3D152
:1048A00000222C4B03F094FD2B4B002203F0DEFB87
:1048B00004F03EF8294B80B2A3FB003895F8AA30EB
:1048C0004FEA98189BB995F8AE3014AA02EB83030F
:1048D00053F8483C434594BF6FF00200002014B0E9
:1048E000BDE8F081804695F8AA30002BEBD095F812
:1048F000AC4044B3164F00263B463246304639465C
:1049000003F0B4FB631E13F0FF0406460F46F3D119
:1049100004F02EF89FED127ADFED127A0F4A06EEC0
:10492000900AE6EE877AFCEEE77ACDED017ABDF8E3
:104930000430A2FB03239B0998441FFA88F8C2E7BE
:104940004FF00208CFE70223F6E700BF88E100003E
:104950000000F03F00409F4000807840D34D62103F
:104960000000FA4400809C432DE9F04F89B00029F3
:1049700000F0DC80002A00F0D980002B00F0D68007
:1049800010F0030F8A461C461546834640F0AA8065
:104990001BF0010B00F0A280D4E91C8942464B4673
:1049A0004046494603F014FD02460B46CDE900019E
:1049B0004046494603F00CFDCDE90201DAF800005B
:1049C00003F090FC02460B468B46824603F000FD46
:1049D000D4E90823CDE904014046494603F0F8FC38
:1049E000D4E9062303F042FBD4E90A2306460F4626
:1049F000DDE9000103F0ECFC02460B463046394687
:104A000003F034FBD4E90C2306460F46DDE902012E
:104A100003F0DEFC02460B463046394603F026FB27
:104A20005B46524603F0D4FCD4E91023CDE90601DD
:104A30004046494603F0CCFCD4E90E2303F016FBB4
:104A4000D4E9122306460F46DDE9000103F0C0FC5D
:104A500002460B463046394603F008FBD4E91423DE
:104A600006460F46DDE9020103F0B2FC02460B46A2
:104A70003046394603F0FAFA02460B46DDE90601F4
:104A800003F0F4FAD4E9182306460F464046494697
:104A900003F09EFCD4E9162303F0E8FADDE90423D1
:104AA00003F096FCDDE904238046894650465946CA
:104AB00003F08EFCD4E91A2303F08AFC02460B466D
:104AC0004046494603F0D2FA02460B463046394684
:104AD00003F0CCFAC5E902014FF0000B584609B0CB
:104AE000BDE8F08F486803F0FDFBD4E9002303F034
:104AF000BBFA02460B4606460F4603F069FCD4E9B2
:104B0000042303F065FCD4E902238046894630463D
:104B1000394603F05DFC02460B464046494603F029
:104B2000A5FAC4E91C01C5E9000131E74FF0FF3BDC
:104B3000D4E700BF2DE9F84393F803E0D3F80490DD
:104B400096440EF1070424F0070400AFADEB040D0A
:104B5000B9F1000F26D09C6824B3DC6814B31D465D
:104B60009B78012B0C461646014620D01FFA8EF387
:104B700041F080016A466878C84766B1611EE84620
:104B80000024EB7808EB04020134D35C01F8013F08
:104B9000A3B2B342F5D3002818BF6FF00600BD469C
:104BA000BDE8F8834FF0FF30BD46BDE8F8833346DB
:104BB00022466878C847EEE72DE9F84354000734E9
:104BC00024F0070400AFADEB040D002B49D05C6866
:104BD000002C46D09C68002C43D0DD68002D40D0CE
:104BE00000283ED000293CD0002A3FD09D780E7886
:104BF0008DF80060EE461DB3012AA0462FD9A2F120
:104C000002095FFA89F909F10109814405467446F0
:104C100015F801CF11F8016F84F801C04D4504F873
:104C2000026FF5D151001C4672460B460178607840
:104C3000C047002818BF6FF00600BD46BDE8F883E6
:104C4000561E50FA86F6441E14F8015F05F07F05E3
:104C5000B4422570F8D1012AD3F80880CFD80121B9
:104C6000E1E74FF0FF30BD46BDE8F8836FF0050087
:104C7000E3E700BF70B5054682B01B2603460DF181
:104C800007013046012295F8A8408DF80660FFF72D
:104C900051FF88B99DF80730240104F0300223F059
:104CA000300414432B460DF1070101220DF10600DB
:104CB0008DF80740FFF780FF02B070BD002900F0BB
:104CC00081804B68002B7DD08B68002B7AD0CB681D
:104CD000002B77D02DE9F04110F0060F82B00D4681
:104CE00004463AD110F0F00F40F0BC8010F4E16FB0
:104CF00073D110F4C05062D01A2701AE3846314645
:104D00002B4601228DF8007095F8B38095F8B470A9
:104D1000FFF710FF002852D120050BD59DF8043075
:104D20004FEA480808F0020823F0020343EA0803A8
:104D30008DF80430E10409D59DF80430BF0007F078
:104D4000040723F004033B438DF804302B4631461F
:104D500001226846FFF730FF31E01B2701AE3846DD
:104D600031462B4601228DF80070FFF7E3FE60BB51
:104D7000A7070AD59DF8042095F8A93022F0010272
:104D800003F0010313438DF8043060070BD595F849
:104D9000AA209DF80430520002F0020223F0020320
:104DA00013438DF8043068462B4601223146FFF745
:104DB00003FF14F0F00F6F460AD0002854D002B061
:104DC000BDE8F0814FF0FF30704714F0F00FF6D1DE
:104DD00014F4E16F3FD00028F1D11926304669461E
:104DE0002B4601226F468DF80460FFF7A3FE90BBAF
:104DF000E60595F8B01095F8B12095F8B2300AD5CF
:104E00009DF8006095F8AF0026F0010600F0010063
:104E100030438DF80000A00509D59DF80000490039
:104E200001F0020120F0020001438DF8001061053D
:104E300009D59DF80010920002F0040221F004014F
:104E40000A438DF80020260778D439462B460122E4
:104E500001A8FFF7B1FE14F4C05FB0D000283FF402
:104E60004BAFACE701AE6F464FF0000E2B4604226D
:104E700031461C20ADF800E087F802E0FFF75AFE4B
:104E80000028A5D114F030081FD0E20695F8AC3008
:104E90000AD59DF8041095F8AB2021F0070102F027
:104EA00007020A438DF80420A10609D59DF80420C5
:104EB000DB0003F0380322F0380213438DF804308E
:104EC0001C238DF800304FF00108220614D595F808
:104ED000AE30112B44D85AB29DF8053002A9414496
:104EE00023F01F03134308F101081D2001F8043CBF
:104EF0005FFA88F801F8080C630614D595F8AD2020
:104F00009DF80730520002A9414402F00E0223F03E
:104F10000E03134308F101081F2001F8043C5FFA57
:104F200088F801F8080C95F8A830032B11D04246F8
:104F3000314638462B46FFF73FFE49E79DF80020F3
:104F40009B0103F0400322F0400213438DF8003030
:104F50007BE72846FFF786FC00287FF439AFE6E7B9
:104F6000112385F8AE301A46B6E700BF10B582B0FF
:104F70007E22B6238DF804208DF80530E0B1436819
:104F8000D3B18368C3B1C368B3B1034604460122F9
:104F90000DF106010320FFF7CDFD9DF80630DB067D
:104FA0000ED568B9234601220DF1050101A8FFF7CE
:104FB00003FE40B102B010BD4FF0FF3002B010BD93
:104FC0006FF00300F6E7E3680220984723460122CA
:104FD0000DF107010220FFF7ADFD9DF807309A079C
:104FE000EED4002818BF6FF0030002B010BD00BF60
:104FF00030B589B000238DF8073010B3426802B392
:105000008268F2B1C268E2B18278012A1ED001231F
:10501000C3700346044601220DF107010020FFF78B
:1050200089FD054650B99DF80730502B40F0F880B7
:1050300023702046FFF79AFF054648B1284609B07D
:1050400030BD4FF0FF35284609B030BDC370E0E7F2
:1050500002A9234615223120029503950495059552
:1050600006958DF81C50FFF765FD9DF80830054644
:105070009DF8090043EA0020A4F8880003F032F903
:105080000022694B03F0A4F99DF80B209DF80A302B
:1050900043EA0223C4E90401A4F88A30184603F065
:1050A00021F90022614B03F093F99DF90C3084F84B
:1050B0008C30C4E90601184603F024F900225C4B49
:1050C00003F086F99DF80E209DF80D3043EA022387
:1050D0001BB2C4E90801A4F88E30A3F5804003F0A8
:1050E00011F90022534B03F073F99DF810209DF83D
:1050F0000F3043EA02231BB2C4E90A01A4F890303E
:10510000A3F5804003F0FEF800224B4B03F060F95A
:105110009DF9113084F89230C4E90C01184603F06F
:10512000F1F80022454B03F053F99DF9123084F851
:105130009330C4E90E01184603F0E4F80022404B16
:1051400003F046F99DF814209DF8133043EA02233A
:10515000C4E91001A4F89430184603F0C3F8002203
:10516000384B03F035F99DF816209DF8153043EAC9
:105170000223C4E912011846A4F8963003F0B2F8ED
:105180000022314B03F024F99DF9173084F8983050
:10519000C4E91401184603F0B5F800222B4B03F0C4
:1051A00017F99DF9183084F89930C4E916011846AA
:1051B00003F0A8F800224FF07C5303F009F99DF8A2
:1051C0001A209DF8193043EA02231BB2C4E91801E2
:1051D000A4F89A30184603F095F80022144B03F017
:1051E000F7F89DF91B3084F89C30C4E91A01184681
:1051F00003F088F800220E4B03F0EAF89DF91C300A
:1052000084F89D30C4E91C01184603F07BF80022A5
:105210000F4B03F0DDF8C4E91E01284609B030BD8C
:105220006FF001050AE700BF000070400000103E6B
:105230000000F03C0000B03E0000203E0000F03DC9
:105240000000A03D000020400000903F0000703FA3
:105250000000E03B91B14B6883B18B6873B1CB68C0
:1052600063B110B504460B46012201461B20FFF72F
:1052700061FC2378C3F30113237010BD4FF0FF309E
:10528000704700BF70B5436882B0BBB18368ABB1F3
:10529000C3689BB1044601460DF1020094F8A86072
:1052A000FFF7D8FF9DF80230054663B91DB9032EFC
:1052B0002BD0012E24D0284602B070BD4FF0FF3510
:1052C000284602B070BD1B25284601A923460122AD
:1052D0008DF80350FFF72EFC054668B99DF8045081
:1052E00001A925F03005234601220DF103008DF8B8
:1052F0000450FFF761FC0546E36805209847D5E7B1
:105300002046FFF7B7FC0546D5E701A9234604224E
:105310001C20FFF70FFC9DF804309DF805109DF848
:10532000072003F0070601F01F01C3F3C203C2F315
:105330004202054684F8AB6084F8AC3084F8AE10C5
:1053400084F8AD200028B6D12046FFF78BFA054639
:105350000028B0D12046FFF78DFC05460028AAD1D1
:10536000234601A901220220FFF7E4FB054600289D
:10537000A1D19DF8043013F0040F18BF6FF004059D
:1053800099E700BF2DE9F04184B00023ADF8043067
:1053900000930293039392B3536883B3936873B3F8
:1053A000D36863B359B314460D460646134669469F
:1053B00006220420FFF7BEFBF0B99DF802209DF8FD
:1053C00005309DF801E09DF804709DF800C09DF83F
:1053D000038012041B0442EA0E2E43EA072747EA21
:1053E000080704F110032A464EEA0C0402A93046CD
:1053F00002940397FFF7B8FA04B0BDE8F0814FF0CC
:10540000FF3004B0BDE8F081704700BF38B52822F6
:105410000C4605460846002103F0B0FE0B22094960
:10542000204604F05BFB0022E272E8680649206136
:10543000002301250320E560626260612162A361AF
:10544000E36138BDD8E100000AD7233C10B5142130
:10545000044600F079FC204610BD00BF30B4034D77
:105460000560C1604271836030BC7047E8E10000B4
:1054700070B504464079A3680125A84083F85E50C2
:1054800083F85D5083F83B00A06803681B681646EC
:105490009847A068036831461B6898472946A0686A
:1054A000FEF788FD284670BDF8B500252A460F4650
:1054B000067C05743D210446FFF7DAFF1E2000F04C
:1054C00025FD192000F022FD2A4620460721FFF77E
:1054D000CFFFAFB93A463F212046FFF7C9FF0A2068
:1054E00000F014FD3246267420463D21FFF7C0FF30
:1054F0001E2000F00BFD1420BDE8F84000F006BDB2
:1055000080223F212046FFF7B3FFE8E7002238B5AD
:105510003D21057C02740446FFF7AAFF1E2000F01F
:10552000F5FC192000F0F2FC204602223E21FFF794
:105530009FFF2A46257420463D21FFF799FF1E2034
:1055400000F0E4FC1420BDE8384000F0DFBC00BFF0
:1055500070B50025067C05742A463D210446FFF7F8
:1055600087FF1E2000F0D2FC192000F0CFFC2A4655
:1055700020463E21FFF77CFF3246267420463D211F
:10558000FFF776FF1E2000F0C1FC1420BDE870403C
:1055900000F0BCBC38B5427983680125AA4083F885
:1055A0003B2083F85E5083F85D50044680680368B2
:1055B0001B6898472946A068FEF7FCFC2B462A4644
:1055C0006179A068FEF780FDA0680B4A03685B69FB
:1055D00093420BD190F8383090F839209A4208D98C
:1055E0005A19034480F83820187E38BD9847C0B255
:1055F00038BDFF2038BD00BF653C000038B504460B
:1056000080680D46FEF77EFB20460021FFF7C2FFB3
:10561000A0280BD04FF47A7000F078FC00212046CF
:10562000FFF7B8FFA02801D0002038BD0022227467
:105630003D212046FFF71CFF1E2000F067FC2022C2
:105640003F212046FFF714FF1E2000F05FFC01E021
:1056500000F05CFC00212046FFF79CFFA0284FF0E3
:105660000A00F5D1322000F051FC00223E212046F4
:10567000FFF7FEFE0A2000F049FC00220721204629
:10568000FFF7F6FE00223F212046FFF7F1FE0A2039
:1056900000F03CFC2A463D2125742046FFF7E8FE39
:1056A0001E2000F033FC142000F030FC012038BD37
:1056B0002DE9F0414479054601278068BC4080F817
:1056C0003B4080F85E7080F85D70A8680468D4F88C
:1056D00000801E461446C0473946A868FEF76AFC9B
:1056E0003B4632466979A868FEF7EEFC0EB3013EF0
:1056F00054FA86F6114F013C10E090F8383090F8DB
:1057000039209A4203F1010E00EB030114D980F80D
:1057100038E0087E04F8010FB4420AD0A868036894
:105720005B69BB42E9D09847C0B204F8010FB442AC
:10573000F4D10120BDE8F081FF20EBE7653C0000DB
:10574000F0B5044683B0002516460846256031466C
:105750006560A560E560256165616A460623009580
:10576000ADF80450FFF7A4FF9DF803709DF80550B5
:105770009DF801009DF800109DF802209DF804306E
:1057800041EA002042EA072243EA0523083E00B22C
:1057900017B21DB2262E2FD8DFE806F0142E2E2EBB
:1057A0002E2E312E2E2E2E2E312E2E2E2E2E312E10
:1057B0002E2E2E2E2E2E2E2E2E2E2E2E142E2E2E23
:1057C0002E2E140002F09EFD00221B4B02F02AFF39
:1057D000C4E90001384602F095FD0022164B02F0A4
:1057E00021FFC4E90201284602F08CFD0022124B81
:1057F00002F018FFC4E90401204603B0F0BD02F036
:1058000081FD00220D4B02F0E3FDC4E900013846A2
:1058100002F078FD0022094B02F0DAFDC4E9020132
:10582000284602F06FFD0022044B02F0D1FDC4E9CE
:105830000401204603B0F0BD000059400000B03F15
:1058400070B5242688B00C4605463246084600212D
:1058500003F094FC104BE9681B680193019B2361E2
:1058600003226160A26029461A2202A82660FFF77F
:1058700067FFDDE9020103F07BF86061DDE9040107
:1058800003F076F8A061DDE9060103F071F8E0614C
:10589000012008B070BD00BF5C15FF1F00B5064AAF
:1058A000036812885B6883B001A9ADF80420022266
:1058B000984703B05DF804FBFCE1000010B50368F5
:1058C00014465B689847204610BD00BF70B50E4D6A
:1058D00082B02B680093009E044608E001F0A6FC0D
:1058E0002B680193019BA2689B1B934207D22368FC
:1058F00020465B6998470028F0DB02B070BD4FF08E
:10590000FF3002B070BD00BF5C15FF1FF8B50F4639
:1059100016460021054600F055F88EB1002404E03B
:105920000ED000F0AFF8A6420AD03846FFF7CEFFFF
:10593000011E04F10104C9B22846F1DA01233B73C8
:105940002846F8BD10B50446006803F0ABF82046C1
:1059500010BD00BF38B543688B4201D3012038BD6C
:105960000D4604460131006803F06EFC0028F6D0B5
:10597000A36884E82100002BF0D10370EEE700BF9C
:10598000F8B50446154632B9036803B11A7000230E
:10599000A3602046F8BD0E461146FFF7DBFF074621
:1059A00048B9206810B103F07DF8276000236360D8
:1059B000A3602046F8BDA5603146206803F0BEFF15
:1059C000E7E700BF38B50023044603604360836007
:1059D000037341B108460D4604F012F82946024609
:1059E0002046FFF7CDFF204638BD00BF10B582B07E
:1059F00000238DF804100360436083600373012269
:105A000001A904468DF80530FFF7BAFF204602B021
:105A100010BD00BF2DE9F84303680F46BB420446A2
:105A2000816815460AD85A18974207D2C3EB07096E
:105A30004FF0010835B92046BDE8F8834FF0000863
:105A4000002DF8D04E1931462046FFF783FF00287D
:105A5000F1D0B8F1000F0ED02368A0682A4603EBFE
:105A60000901184400F04AF8236800229A55A660FC
:105A70002046BDE8F8832068A3683946184403F03F
:105A80005DFFF4E710B582B000238DF80410012209
:105A900001A904468DF80530FFF7BCFF204602B08F
:105AA00010BD00BF036853B1096811B1184603F077
:105AB000DBBD806810B118787047184670470B68D6
:105AC000002BFAD088680028F8D018784042704738
:105AD00008B582688B689A4201D0002008BDFFF7A4
