:1000000000000320D101000025440000DD43000072
:10001000DD430000DD430000DD430000DD43000060
:10002000DD430000DD430000DD4300002544000007
:1000300025440000DD430000B95A0000BD5B00000C
:10004000254400002544000025440000254400000C
:1000500025440000254400002544000025440000FC
:1000600025440000254400002544000025440000EC
:1000700025440000254400002544000025440000DC
:1000800025440000254400002544000025440000CC
:1000900025440000254400002544000025440000BC
:1000A000E13F0000ED3F0000254400002544000032
:1000B000254400002544000025440000E55C0000C4
:1000C00025440000115E0000254400003D5F000053
:1000D0002544000035600000254400002544000050
:1000E000254400002544000025440000254400006C
:1000F000254400002544000025440000254400005C
:10010000254400002544000025440000254400004B
:1001100025440000B94900002544000025440000A2
:10012000254400002544000025440000254400002B
:10013000254400002544000025440000254400001B
:1001400025440000254400002D61000025440000E6
:1001500025440000254400002544000025440000FB
:100160002544000025440000F93F0000254400001C
:1001700025440000254400002544000025440000DB
:1001800025440000254400002544000025440000CB
:10019000254400002544000025620000254400009D
:1001A00025440000254400002544000025440000AB
:1001B000254400002544000025440000254400009B
:1001C000254400002544000025440000254400008B
:1001D0005C4B4CF2205210B51A804DF628121A8052
:1001E00000BF00BF04F022F9574B4FF030621A6095
:1001F000564A9A60564ADA60564B4FF470021A60BB
:10020000554B564A1A60564B1A78110703D51A787F
:1002100042F008021A70534B5349AA221A70534AEB
:10022000534B8B4204D252F8040F43F8040BF8E707
:10023000504B514900228B4202D243F8042BFAE77B
:100240004E494F4A002352F8230041F8230001335E
:10025000742BF8D14B4B4C4A802103F8011B93427D
:10026000FBD14A4B454A1A60494B8A221A70A3F5C2
:10027000805324225A70A0221A709A799207FCD5D2
:100280009A79D406FCD4434A937903F00C03082BE3
:10029000FAD1414B60221A7002331A78802AFCD1BD
:1002A0003C4B01221A715D225A719A799006FCD555
:1002B0009979384A4906FBD5384B394919600021EC
:1002C000596020231370937903F00C030C2BFAD19F
:1002D000344B354A1A60354A354C136813F4807331
:1002E00003D123604FF4A8531360324B324A1A6093
:1002F00000225A60072243F8042C304AC3F80C2D20
:1003000062B604F0C9F92368DA0705D52C4804F071
:1003100035F92C4B2C4A1A602C4B1B785B0609D5FF
:10032000284C294B22689A4204D1254804F026F92A
:100330000023236006F0D2FE04F07EF803F0ACFF49
:10034000FEE700BF0E20054030800440823F0400DD
:100350000100002B88ED00E0002008E0030000858C
:1003600002D0074000E00740E812FF1FD0890000DC
:100370003007FF1FE812FF1FC818FF1F0002FF1FF2
:100380000000000000E400E064E400E008ED00E0AC
:10039000005006400040064001E007404480044011
:1003A0000000060204800440C010070010D0034083
:1003B00014D0034014E000E01FBF02000000202022
:1003C00028721B5E1CE00340A5C3945A00F007404E
:1003D000FFFFFFFFFFFFFFFFFFFFFFFFFFFFFFFF2D
:1003E000FFFFFFFFFFFFFFFFFFFFFFFFFFFFFFFF1D
:1003F000FFFFFFFFFFFFFFFFFFFFFFFFFFFFFFFF0D
:10040000FFFFFFFFFFFFFFFFFFFFFFFFDEF9FFFF23
:1004100010B5054C237833B9044B13B10448AFF33E
:1004200000800123237010BDE812FF1F00000000B0
:10043000CC890000084B10B51BB108490848AFF340
:1004400000800848036803B910BD074B002BFBD0A0
:10045000BDE81040184700BF00000000EC12FF1F6D
:10046000CC890000E812FF1F00000000002202609B
:10047000704700BF704700BF704700BF704700BFA4
:10048000704700BF4FF0FF31014803F0BBBD00BF14
:100490000813FF1F704700BF704700BF10B51368F7
:1004A00080E8060004461B681046984760680368A9
:1004B0005B699847206803681B68984715210448C2
:1004C00005F024F90348BDE8104003F0B1BD00BFBA
:1004D000808200008008FF1FF0B50B219DB004460C
:1004E000114805F013F914AD104803F0A1FD0FCD2C
:1004F00026686C4637680FC495E80F0084E80F0043
:1005000012ACBD68314608A894E80C00A84708ADB5
:100510000FCD0FC40FCD0FC495E8030084E803008E
:1005200000201DB0F0BD00BF988200008008FF1FB2
:10053000002070470020704700207047002070475F
:100540004FF0FF30704700BF002070470120704718
:1005500082B070B401F2E44503AE01F59C6401F28F
:10056000DC4186E80C0024682A680B680594069232
:100570000493354606460FCD34460FC40FCD0FC445
:1005800095E8030084E80300304670BC02B0704771
:10059000704700BF70B5354B0C46054640F8043B2C
:1005A00000F04EFB6068A168E26823696B61A86097
:1005B000E9602A6104F1140105F118004FF48C621E
:1005C00003F072FED4F87434C5F8783494F88134AA
:1005D00094F88014D4F87C2485F8841485F8853444
:1005E000D4F88834C5F88C34C5F8802494F88C3459
:1005F00085F89034D4F8903494F88D2485F89124BB
:10060000C5F8943494F8943485F8983494F8953473
:1006100085F8993494F8963485F89A3494F8973498
:1006200085F89B34D4F89804D4F89C14C5F8A01429
:10063000C5F89C0494F8A03485F8A43494F8A83440
:1006400085F8AC34D4F8AC34C5F8B03494F8B03490
:1006500085F8B43404F2B4440FCC05F597660FC6A0
:100660000FCC0FC623683360284670BDAC820000F3
:1006700010B5044B044640F8043B00F05DF82046FA
:1006800010BD00BFAC82000010B5064B044640F818
:10069000043B00F051F820464FF49D6103F018FF31
:1006A000204610BDAC82000082B02DE9F04192B02E
:1006B0000F461AAD18A981E80C0080460FCD6C4694
:1006C0000FC495E80F0084E80F0018AB391D08A887
:1006D0000CCB08AC00F028F90FCC18AE0FC60FCC2D
:1006E0000FC694E8030018AD86E8030007F2DC4467
:1006F0000FCDDDF864C0C4F800C007F59C64DDF8D8
:1007000068E0C4F800E007F2E4471B9E3E60444600
:100710000FC40FCD0FC495E8030084E803004046E2
:1007200012B0BDE8F04102B0704700BF0020704732
:100730004FF0FF30704700BF704700BF027C02F0EF
:10074000080202F0FF0332B1C36A406A181A48BFB8
:100750006FF0004070471846704700BF10B54FF467
:100760009B61044603F0B4FE204610BD103001F03A
:100770005BB800BF00B583B001220DF10701103056
:1007800000F04EFF01280CBF9DF807004FF0FF302E
:1007900003B05DF804FB00BF103001F031B900BFB9
:1007A000103001F033B900BF00B583B002AB0122B5
:1007B00003F8011D1030194601F028F903B05DF867
:1007C00004FB00BF2DE9F04106468EB04FF47A706D
:1007D00003F010FF11214C4804F098FF4B4803F040
:1007E00027FC06F58F6406F114074FF47A7508E0CC
:1007F0000E21474804F08AFF444803F019FC013DEC
:1008000025D0642003F0F6FE4FF00001204602F0F0
:1008100067FF2046C6F87444002CE9D002F010FBB4
:100820000028E5D10122D6F87414384601F06CFE98
:100830000028DDD006F58A68404600F061FE3946A2
:10084000404600F0E7FE0028D2D0324B1F60002463
:100850004FF47A7003F0CEFE32698DF804402346DF
:10086000394601A88DF805408DF8064000F0B8FE25
:10087000002841D01021284804F048FF234803F005
:10088000D7FB0024254B32690193394623464FF4A8
:100890007A758DF808408DF810408DF814408DF869
:1008A00015408DF8164005A805AC039500F098FE9C
:1008B0000FCC9DF80870039D86F8A874C6F8AC5458
:1008C0009DF8107086F8B07406F2B4450FC50FCCD1
:1008D0000FC523682B6096F8B43433B9162110483D
:1008E00004F014FF094803F0A3FB4FF47A7003F0FF
:1008F00081FE0EB0BDE8F08118210A4804F006FF21
:10090000024803F095FBBCE7088300008008FF1F46
:10091000648300000814FF1F1C830000D4820000C1
:100920004C8300003083000082B02DE9F04FC14DB0
:10093000DFF808838FB007460C4618AE2621BE4864
:1009400086E80C0004F2B44604F0E0FE284603F00A
:100950006FFB21693046002200F04AFE00230A2284
:100960000BA9304600F028FF0BA806F0C9FF01468E
:100970000BA804F0CBFE2846002403F059FB4346A5
:1009800008A930460922099408948DF8284000F0FF
:1009900013FF2246214608A807F016F943460490A3
:1009A00008A930460922089409948DF8284000F0DF
:1009B00003FF2246214608A807F006F906F03CFB93
:1009C0004346019008A930460922089409948DF8FD
:1009D000284000F0F1FE2246214608A807F0F4F86E
:1009E00006F02AFB4346029008A9304609220894E3
:1009F00009948DF8284000F0DFFE2246214608A821
:100A000007F0E2F806F018FB4346039008A93046C9
:100A10000922089409948DF8284000F0CDFE224662
:100A2000214608A807F0D0F806F006FB43460590DB
:100A300008A930460922089409948DF8284000F04E
:100A4000BBFE2246214608A807F0BEF806F0F4FADD
:100A50004346069008A930460922089409948DF867
:100A6000284000F0A9FE2246214608A807F0ACF86D
:100A700006F0E2FA4346079008A930460922089496
:100A800009948DF8284000F097FE2246214608A8D8
:100A900007F09AF806F0D0FA4346834608A9304694
:100AA0000922089409948DF8284000F085FE22461A
:100AB000214608A807F088F806F0BEFA43468246A9
:100AC00008A930460922089409948DF8284000F0BE
:100AD00073FE2246214608A807F076F806F0ACFA25
:100AE0004346814608A930460922089409948DF8A6
:100AF000284000F061FE2346092208A930460894E8
:100B000009948DF8284000F057FE0499284603F018
:100B1000DFFA284603F08CFA019805F0A1FE41ECBB
:100B2000100B0221284603F0DBFA284603F080FA76
:100B3000029805F095FE41EC100B0221284603F0C7
:100B4000CFFA284603F074FA039805F089FE41ECC9
:100B5000100B0221284603F0C3FA284603F068FA76
:100B6000DDF81480404605F07BFE41EC100B0221BD
:100B7000284603F0B5FA284603F05AFA069E304696
:100B800005F06EFE41EC100B0221284603F0A8FA96
:100B9000284603F04DFA079C204605F061FE41EC23
:100BA000100B0221284603F09BFA284603F040FA76
:100BB000584605F055FE41EC100B0221284603F083
:100BC0008FFA284603F034FA504605F049FE41EC0E
:100BD000100B0221284603F083FA284603F028FA76
:100BE000484605F03DFE41EC100B0221284603F07B
:100BF00077FA284603F01CFADDED017A049BC7ED75
:100C0000017ADDED027A3B60C7ED027ADDED037A11
:100C1000C7F810803846C7ED037A7E61BC61C7F81B
:100C20001CB0C7F820A0C7F824900FB0BDE8F04F63
:100C300002B070478008FF1F748300009C8300008F
:100C4000F0B4194E194C1A4A1A4F1B4D1B49066035
:100C5000046128264FF47A74C0F878240022C0F882
:100C6000847480F89464C0F89C54C0F8AC44C0F814
:100C7000A414C260C27680F8502480F8512480F811
:100C8000522480F8802480F89724C0F8982480F8B3
:100C9000A82480F8B02480F8B42480F8B52480F823
:100CA000B624F0BC704700BFF8820000A0830000AB
:100CB00030850000D884000003200038D482000072
:100CC000F0B5194ADFF870E0184F194D194C016161
:100CD00028264FF47A71C0F878240022C0F800E08A
:100CE000C0F8847480F89464C0F89C54C0F8AC14C4
:100CF000C0F8A444C260C27680F8502480F8512421
:100D000080F8522480F8802480F89724C0F8982432
:100D100080F8A82480F8B02480F8B42480F8B524A2
:100D200080F8B624F0BD00BF30850000D8840000F4
:100D300003200038D4820000F882000001207047B0
:100D400082B0F0B50DF1140E8EE80C0001F2EC4704
:100D500001F2E44301F59E6601F2DC4501F59C6475
:100D600001F59D6124681A683F6836682D680B6834
:100D70000B960C950D940A970E92099375460646AC
:100D80000FCD34460FC40FCD0FC495E8030084E89F
:100D900003003046BDE8F04002B07047704700BF26
:100DA00070B5354B0C46054640F8043BFFF748FF4D
:100DB0006068A168E26823696B61A860E9602A61E4
:100DC00004F1140105F118004FF48C6203F06CFA81
:100DD000D4F87434C5F8783494F8813494F88014D5
:100DE000D4F87C2485F8841485F88534D4F88834C4
:100DF000C5F88C34C5F8802494F88C3485F8903488
:100E0000D4F8903494F88D2485F89124C5F894345E
:100E100094F8943485F8983494F8953485F8993496
:100E200094F8963485F89A3494F8973485F89B347E
:100E3000D4F89804D4F89C14C5F8A014C5F89C0400
:100E400094F8A03485F8A43494F8A83485F8AC3428
:100E5000D4F8AC34C5F8B03494F8B03485F8B43470
:100E600004F2B4440FCC05F597660FC60FCC0FC63D
:100E700023683360284670BDB483000010B5044B6E
:100E8000044640F8043BFFF757FC204610BD00BF66
:100E9000B483000010B5064B044640F8043BFFF74E
:100EA0004BFC204640F2F44103F012FB204610BDFB
:100EB000B483000082B0F0B593B00E46074614210B
:100EC00018AC294884E80C001AAD04F01FFC274830
:100ED00003F0AEF80FCD6C460FC495E80F0084E820
:100EE0000F0018AB311D08A80CCB08ACFFF71CFD98
:100EF0000FCC18AD0FC50FCC0FC594E8030006F555
:100F00009D6485E8030006F2EC431C9D25601D9955
:100F1000196006F59E65DDF878C0C5F800C006F2D8
:100F2000DC4406F59C6106F2E4432098219ADDF842
:100F30007CE0C4F800E01AAD08601A60D6F800E062
:100F40000FCD6C460FC495E80F0084E80F0018AB76
:100F500038463146DEF804400CCBA047384613B083
:100F6000BDE8F04002B07047D08300008008FF1F4A
:100F700010B53C4C642003F03DFB2378052B25D8AD
:100F8000DFE803F0364527180B031221364804F03A
:100F9000BDFB364803F04CF8FEE71721344804F057
:100FA000B5FB324803F044F83248FFF769FA0523ED
:100FB000237010BD2621304804F0A8FB2B4803F015
:100FC00037F82E48FFF7BAFA00282FD004232370F1
:100FD00010BD17212A4804F099FB244803F028F893
:100FE0002648FFF7A7FA0028F2D00323237010BD8C
:100FF0000C21244804F08AFB1C4803F019F81F4810
:10100000FFF76AFA0028E3D00123237010BD1621F0
:101010001D4804F07BFB154803F00AF81748FFF75A
:1010200087FA0028D4D00223237010BD1348FFF79D
:1010300083FA40B10F48FFF721FA1048FFF77EFA14
:101040000028FAD0C2E70D48FFF77AFA0028BFDD82
:101050000A48FFF779FABDE8104001460548FFF756
:101060000BBA00BF0014FF1F688400008008FF1F38
:10107000508400000414FF1F28840000F813FF1F91
:1010800010840000E8830000F883000070B50A4E69
:101090000A4D0B4C3046FFF7FDF92A460949304608
:1010A00005F074F92046FFF7E1F92A462046064983
:1010B000BDE8704005F06AB9F813FF1F3007FF1F45
:1010C0000414FF1F99040000750400002DE9F04F7F
:1010D000ADF59C5D85B0944CDFF868B2DFF868929E
:1010E000DFF868824FF4FA6003F084FA08218F4831
:1010F00004F00CFB204602F09BFF8D4B8D48002234
:101100001C211A7004F002FB204602F091FF8A496C
:1011100001A80DF6B414FFF7D3FD01A8FFF752FBA9
:1011200006AF029ADDF80CE0049B059D62604FF467
:101130008C6A394652460DF6C810C4F808E0E360E0
:101140002561C4F800B003F0AFF80DF29C4393E8BA
:101150000700DDF88054DDF87834C4F87434C4F83E
:101160007C549DF88534DDF88C549DF884E484F833
:1011700081349DF8913484F880E484F88D349DF8AE
:1011800098E49DF8993484F894E42E469DF89054A0
:10119000C4F8886484F88C54DDF894649DF89A54FB
:1011A0009DF89BE484F895340DF64C63C4F8906484
:1011B00084F8965484F897E483E80700C4F8789498
:1011C000C4F884849DF8AC34DDF8B02484F8A834E5
:1011D0000DF5976516460FCD9DF8B4E484F8B0E49C
:1011E0000DF6686EC4F8AC64AEE80F000FCDAEE843
:1011F0000F002B68CEF80030504BC4F8A4342146C1
:101200000DF69C60FFF7CCFD2046FFF795FA059A96
:10121000DDF808C0DDF80CE0049BCDF8E8340DF2F1
:10122000DC451646394652460DF59E60C5F804C0A9
:10123000C5F808E02E61C5F800B003F035F80DF2EE
:101240009C4393E80700DDF88064DDF878349DF86E
:1012500084C4DDF88C74C5F878949DF890949DF85A
:1012600085E4C5F88484C5F874349DF89184DDF86C
:101270009434C5F87C6485F880C49DF898649DF822
:1012800099C49DF89AA4C5F8887485F88C949DF843
:101290009B7485F881E40DF6741985F8946485F8DB
:1012A00095C485F8977489E8070085F88D840DF555
:1012B000976EC5F8903485F896A49DF8AC3485F8FF
:1012C000A834BEE80F000DF519670FC7BEE80F0080
:1012D0000FC79DF8B4C4DEF80030184ADDF8B064DA
:1012E00085F8B0C43B60C5F8A42429462046C5F85B
:1012F000AC64FFF74FF92846FFF71EFA22460DF6B9
:101300009C610F48FFF7CAF82046FFF7B1F90DF6C8
:101310009C60FFF7B3FD01A8FFF70EFA0DF59C5D89
:1013200005B0BDE8F08F00BF8008FF1FA484000057
:101330000014FF1FB0840000A0830000D4820000CE
:10134000F813FF1FF882000030850000D8840000E9
:1013500038B504460D462422002106F0FBF9A560AD
:10136000EB79102B08D0202B04D1402301202370CF
:10137000A07038BD002038BD202301202370A0704C
:1013800038BD00BF024638B552F8105F0446294602
:10139000806801F059F850B155B123690135AB426D
:1013A000A37818BF03F0BF0363F07F03A37038BDB9
:1013B000A37843F04003F7E72DE9F041037803F009
:1013C00020032BB903F0FF0441691F4B994203D955
:1013D00000263046BDE8F0810546FFF7D3FF0646FC
:1013E0000028F5D02969A86800F0BCFF0746A86866
:1013F00039462430052200F07DFF80460028E7D0E2
:101400004FF40072214606F0A5F9AB681A79012A5B
:1014100010D9012403E0AB681A79A2420AD91868EE
:101420000368E1199B69424698470134E4B20028F9
:10143000F1D1CDE79B7969694FF4007202FA03F3A9
:1014400011FA83F36B61C4E7FFFD1F0010B504467A
:1014500080680A462430A16900F04CFF20B1A388BF
:1014600003F00F0300EB431010BD00BF70B590F9FF
:101470000230002B82B0044619DBA56805F1240078
:1014800000F068FF30B9637843F001036370002017
:1014900002B070BD05F50C7000F05CFF0028F2D0C2
:1014A000286803685B6998470028ECD0F0E70121C1
:1014B000FFF7CCFF05460028E5D00378E52BE2D006
:1014C00023780E4A1B0744BFE369C361236A166889
:1014D00043831B0C838266B10DF103020DF10601FB
:1014E00001A8B047BDF80430BDF806202B836B82FD
:1014F000EA82A37803F07F03A370BEE75414FF1FB2
:1015000010B50378044623B900232370A37001208B
:1015100010BDFFF7ABFF00232370A37010BD00BF09
:101520002DE9F041064692B03578019200208DF801
:1015300024008DF825008DF826002DB998460B78EB
:1015400013F0700F0C4603D1002012B0BDE8F081FB
:1015500013782F2B104625D0002703E00198377011
:10156000B77009AC01AA03A900F058FB03AA2146F1
:1015700000230028E8D0019D2D7830460DB300F0FF
:10158000CFFC354609AC0028DED00FCD0FC40FCDFF
:101590000FC433782A682260002BDFD03046FFF773
:1015A00065FFDBE70130019003782F2BFAD08BB178
:1015B000A16809A8FFF7CCFE0028C5D0019809ACA6
:1015C000CAE7434603AA2146304600F0A9FC12B000
:1015D000BDE8F081A1683046FFF7BAFEB5E700BF6D
:1015E00019B101F23C41FFF79BBF0846704700BFAD
:1015F000074B10B41C683CB113460A4604F23C4148
:101600005DF8044BFFF78CBF20465DF8044B704734
:101610000814FF1F03780BB100207047FFF798BE36
:101620002DE9F04F8378DF0783B0054640F18F80C6
:101630000F4601780E07914600F192808C0608D57E
:10164000826843691289C3EB42139BB2994528BF54
:101650009946B9F1000F00F0A9806B69AA68880665
:101660004E464FF0000805F1100AC3F3080B3ED5B3
:10167000116A01EB5321BBF1000F52D1B6F5007F87
:101680004FD3D36A99424CD0B6F5806F71D3287886
:1016900080064FEA562B05D41079C8EB000083452D
:1016A00028BF834699424FEA4B240BD85B449942AA
:1016B00008D202F12400019100F04CFE002846D02F
:1016C000AA680199106802685B46D2F80CB03A46E5
:1016D000D84700283BD06B69361B234427446B61F5
:1016E00064D02978AA688806C3F3080BC0D492F89E
:1016F000058008EA5328BBF1000F38D1B8F1000F7C
:1017000035D1002B3FD149064CBF116A296A2961A6
:10171000104600F027FEAA6808EB0001BBF1000F9D
:10172000ACD002F12400002200F0E4FD78B1CBF54A
:101730000074B44228BF344600EB0B012246384601
:1017400002F0B2FDC7E72B7813F0700F2FD16B7842
:101750004FF0FF3043F002036B7003B0BDE8F08F31
:10176000C36942699B1A994528BF994671E729695F
:10177000CEE7106803683A469B6898470028E6D091
:101780004FF40074A7E70B0705D5AB785C0602D5CC
:1017900029690131BBE710462969524600F0E8FD8E
:1017A0000028D4DBCFD0AA682969B1E70026C6EBB0
:1017B000090003B0BDE8F08F2DE9F047824682B002
:1017C000894690461D464FF0FF37002601244445C8
:1017D00008DB002F22DB0023304609F8063002B078
:1017E000BDE8F08701220DF107015046FFF718FF11
:1017F00001280746EDD19DF807300D2B28461946E4
:10180000E5D009F806302DB106F008F820B92646D3
:101810000134DCE70A2BFAD12646DCE74FF0FF3033
:1018200002B0BDE8F08700BF70B582B001220DF1B3
:101830000701044646690569FFF7F2FE012808BF63
:101840009DF80700666118BF4FF0FF30256102B0B8
:1018500070BD00BF30B54369C3F3431583B0044680
:1018600005B189B901220DF107012046FFF7D8FE25
:1018700040B201280BD163691F336361A068303027
:1018800000EB451003B030BD20334361F6E7002084
:1018900003B030BD2DE9F041037807690446B3B1C8
:1018A00042698A420E463AD041B92161A378666105
:1018B00023F02003A3700120BDE8F08118070AD4AB
:1018C00099060BD5A3681B89B6EB431FEED9276198
:1018D0000020BDE8F081E1698E42F8D8D4F808E034
:1018E0009EF806500935E9B2501E751EC840CD401D
:1018F000A84200D8B2B95B064CBFDEF82030236A9C
:10190000236104F110084246002DCFD02169A06860
:1019100000F02EFD002805F1FF35F4DCD7E70120AB
:10192000BDE8F0812D1AECE72DE9F0410D46904617
:101930000021242204461F469DF8186005F00AFF86
:10194000A8682B6AE36000F1300208F00F0302EB95
:101950004312A060A4F80480D17A0D0712D401F0DC
:1019600017012170D37AE67013F0180F08BF41F009
:10197000080107F0030308BF2170012B07D0022BD9
:1019800029D01BB300202070A070BDE8F081022395
:10199000A370217811F0110FF4D159B207F48065CA
:1019A00007F008030B43DBB2A370B2F814E0518BCD
:1019B000C66AA66141EA0E4185B1D1B963F07F03E1
:1019C000A3707B040ED40120BDE8F08117F480657C
:1019D000D8D10121E4E70323A370DAE72162D369B8
:1019E000E361EEE7E1692046FFF754FF0028EAD102
:1019F000C8E700F06BFD0028C4D0A378DEE700BF85
:101A000003780BB1FFF732BD012070472DE9F04795
:101A100083789D07044607D4637843F0010363701D
:101A20004FF0FF30BDE8F08791461A07884600F175
:101A3000BF806269D3439945EED8B9F1000F00F039
:101A4000BE804E464FF0000A30E0002979D0A378DE
:101A50005B067DD5E36993427AD90131216100F0BB
:101A600081FCB6F5007F01463DD26269E369A0685A
:101A7000B6F5007F354628BF4FF400759A4278D3FB
:101A80000522243000F036FC0028C5D038442A4610
:101A900041462F4402F008FCB7F5007F77D0626919
:101AA000761B2A44A844626100F08980A0682169FD
:101AB000437913EA5225C2F308070CD1002FC4D092
:101AC00000F050FC0146C7F50075B54228BF354609
:101AD000A0680122D5E700F045FC2918002FF2D1BB
:101AE000B6F5007FC1D3B6F5806FA2681BD313791A
:101AF000D76A5B1B700A834228BF03468F424FEAB6
:101B0000432508D31F448F4205D982F824A04FF003
:101B1000FF30D062A26810680268D7694246B847B1
:101B20000028BCD178E7D36A8B4229D010680368BB
:101B300042469B69984700283FF46EAF4FF400750A
:101B4000ADE7216A51B3216100F00CFC0146C7E703
:101B500004F1100200F00CFC0028FFF65DAF05D187
:101B60002046FFF70FFC00283FF456AFA06821691C
:101B7000EAE7A37813F0200F0CBF0122052280E7CB
:101B800082F824A04FF0FF33D362A268CEE7A068AA
:101B9000243000F0DFFB002881D13DE72046FFF72D
:101BA000F1FB00283FF438AF21692162A068CBE740
:101BB000C169FFF76FFE00283FF42EAF39E7E369F4
:101BC000934209D30A4B1B6873B1A37863F07F0378
:101BD000A3704846BDE8F087A378E26163F07F0315
:101BE000A3704846BDE8F0874846BDE8F08700BFCF
:101BF0005414FF1F04290CD90A2906D90C299ABFAD
:101C000000EB4101C8880020704700EB4101888843
:101C1000704700EB4101B1F8010070472DE9F04F2A
:101C20000378202B03D110F8013F202BFBD08860D4
:101C30000378002B00F007812F2B2FD05C2B22D0B4
:101C4000A3F12204E4B21D2C20D9DFF818E2461CCF
:101C500000247C2BA3F12005374614D05E2D12D82A
:101C600016F8013BA3F12205EDB20134002B00F080
:101C7000D3802F2B13D05C2B2EFA05F703D01D2D0C
:101C8000E7D8FF07E5D50020BDE8F08F754D25FAB0
:101C900004F4E407D9D50020BDE8F08F002407192B
:101CA0003E4625462F2302E016F8013F0135202B42
:101CB000FAD02F2BF8D0054415604CB13A4612F8F3
:101CC000013D2E2B02D0202B40F0A980013CF6D103
:101CD0004FF0FF3523464B6001F1170601F10C036D
:101CE000202203F8012FB342FBD1461E002200E060
:101CF000013216F8013F2E2BFAD0202BF8D0B2FA81
:101D000082FC6E1C4FEA5C1C0CD0475D2E2F00EB52
:101D1000050604D106E016F8017D2E2F02D015F13C
:101D2000FF35F8D2A2424FF0000980F291804E4672
:101D3000CA4607274FF0080825E02E2B47D0222B54
:101D40000BD07C2B09D0A3F12A0EBEF1050F48D988
:101D5000A3F13A0EBEF1050F58D8954239D0B742DB
:101D600029D34FF0000C5F2306F1010E01EB060BA7
:101D70005FFA8EF6062E8BF80D3000D80E73013206
:101D8000A24207DA835C202BD7D10132A2424FF066
:101D9000000CF7DB4B7B202B3FF475AFBCF1000F41
:101DA00047D01AEA090F18BF4FF0020981F80090D6
:101DB0000120BDE8F08F0A2F37D0954235DB2A4647
:101DC0000A2708264FF010084FF0000CD7E795427D
:101DD000DBD10A2F29D02A460A2708264FF01008FF
:101DE000CDE72D2BB9D1A3F1210EBEF15D0FB4D8F3
:101DF0009542EED0B742DED3A3F1610EBEF1190FCA
:101E000028D8203BDBB248EA0909ADE7A3F15B0E15
:101E1000BEF1020FA1D9E6E7176007194EE7FF2CC4
:101E20003FF731AF651E234655E74B7B202B3FF430
:101E30002AAF0B7B0B4401207E24312208705C7397
:101E40009A73BDE8F08F10601C464FF0FF3542E7F3
:101E5000CA469FE7A3F1410EBEF1190F98BF48EAA9
:101E60000A0A81E7010100352DE9F8430F7B0E4690
:101E7000044601F10D054FF002084FF07E0970682D
:101E8000B16808EB00039BB240B1084411F8012B84
:101E900003EB4313534088429BB2F7D1032F28BF73
:101EA00003273A1DD2B203F00F01B018013A0929F5
:101EB000D2B294BF3031373197424FEA1313417396
:101EC000F1D3F319002183F80D902046FFF7E2FCCF
:101ED00001212046FFF7BEFC0B2203460146A8B1B4
:101EE00093F800E02846BEF1000F15D0DB7A1B07FF
:101EF000EED405F0FDFB0028EAD108F101081FFA35
:101F000088F8B8F1640FBAD1BDE8F8836078B0FA08
:101F100080F04009BDE8F8830120BDE8F88300BFE8
:101F20002DE9F04F0C7814F0700F8DB001D00478CB
:101F30001CB100200DB0BDE8F08F1478D2F804A0D9
:101F4000A40742D14FF001080E46934609900021A4
:101F500030460F460793FFF79DFC0BF10D030697E4
:101F600003973C46B94605970493012130467569AD
:101F7000FFF770FCC5F34F150346002800F08C8076
:101F80000278E52A3AD0002A38D0444538BF0024E8
:101F90002E2A30D0D97A0F293ED001F0080101F065
:101FA000FF0241BBB9F1000F40F0628118460B22DD
:101FB000049905F09DFB0028D7D19BF80030D80785
:101FC00040F16A8101230593CFE7B54D0AF10C0476
:101FD000A5FB04484FEA980808F101085FFA88F861
:101FE000B2E703990139C9B28A42039103D15A7BFE
:101FF000069991421BD04FF00009B6E7002C08BFAC
:102000002F4644453CBF0134E4B2002A48D0E52ABB
:10201000BED14FF00009A8E7B9F1000FE1D1550694
:10202000A3D502F01F095A7BCDF80C900692039AB3
:10203000013A02EB420502EB8505AA452A46DAD9A8
:1020400005F10D01CDF82090894613E0DBF808007A
:10205000825CBCF1190F98BF2031A2F1410098BFFA
:10206000C9B219289CBF2032D2B28A42C3D1CE4510
:1020700042D07246511BC9B21846FFF7BBFDC1B230
:102080009245A1F1410C02F1010E00F0EA80FF2817
:10209000DCD94FF0000968E77378002B7FF449AF73
:1020A000079A13469A057FF544AF03F00303013BFB
:1020B000012B3FF63EAF002C08BF2F46444503D30B
:1020C0001DE0DCB2A0451AD900213046FFF7C2FB63
:1020D000631C0028F5D1737823B12AE7B3681B7914
:1020E000012B0CD8A0450AD93046FFF765F910340A
:1020F000E4B20028F2D11CE7DDF8209035E7059B1B
:1021000033B159463046FFF7AFFE00283FF411AF18
:1021100079013046FFF7BEFB00283FF40AAF08F113
:10212000FF3818F0FF0959D049F04004E4B24D4699
:10213000002700213046FFF78DFB00283FF4F9AE61
:10214000B26892F82430A94543F001034FF00F0C18
:1021500014BF2946214682F824300BF10C0E80F87A
:102160000BC0077301700BF1170C00231EF8018FD1
:102170005A0842EAC31358FA83F3E645DBB2F5D1B5
:1021800001F01F010139437301EB4102DBF808E064
:10219000478301EB8202043000230FE0042B1EF87A
:1021A000021014D90A2B94BF018041800133DBB2A5
:1021B0000D2B02F1010200F102000BD09245EDD887
:1021C00014BF4FF0FF310021042B89B2EAD820F868
:1021D000031CEBE7013D15F0FF05AAD100213046B5
:1021E0007569FFF737FBC5F34F15044600283FF428
:1021F000A0AE2022002105F0ADFA5B46294A53F833
:102200000D1F58686060216019899B7AA372218133
:102210009BF80030176803F0180323738FB10DF19A
:102220002B020DF12E010BA8B847BDF82C30BDF8DC
:102230002E209DF82B106173238263822383E28119
:10224000E282B26892F8243043F0010382F824302D
:10225000CDF80090079B09982A463146FFF764FBAA
:1022600068E60028DDF8209018BF4FF000097CE6F2
:10227000039901297FF45DAE5C1E0A3314F8010F47
:10228000510841EAC21250FA82F29C42D2B2F5D110
:10229000069B93427FF44DAE079B1905D8D548E6BF
:1022A0004FECC44E5414FF1FF8B54368816800F129
:1022B0000C0604461868036832469B69984740B18B
:1022C00023789A07054607D423F001032370284694
:1022D000F8BD00252846F8BD6368A16818681F6925
:1022E0000368324639449B6998470028F1D0237827
:1022F000EAE700BFF8B583688B42064614460FD064
:102300000378DA070F4612D4630716D506F10C05D9
:10231000002304F003041C4334702846B760F8BD62
:1023200010F90C3B04F003041C433470F8BDFFF7B4
:10233000BBFF0028E8D10020F8BD73681868036867
:1023400006F10C059B682A46394698470028DFD1DC
:10235000F1E700BF0378DB0701D401207047FFF7E6
:10236000A3BF00BF83794069023999400844704790
:10237000012931D9C36999422ED870B5C379202B70
:10238000164605460C4618D0102B13D18369C1F3AD
:1023900007211944022200F50C70FFF7ABFF48B18A
:1023A000E1B230F81130EA6993429ABF01203360FC
:1023B000002070BD4FF0FF3070BD8169022201EB3B
:1023C000D41100F50C70FFF795FF0028F2D004F04F
:1023D0007F0150F82130E6E74FF0FF30704700BF33
:1023E00001291DD938B5C369994206D8C379202B74
:1023F00015460C4616D0102B01D0002038BD83693D
:10240000C1F30721194400F50C700322FFF772FF96
:1024100003460028F1D0E1B2012023F8115038BD65
:10242000002070478169032200F50C7001EBD41184
:10243000FFF760FF03460028DFD004F07F01012092
:1024400043F8215038BD00BF2DE9F041C4688C42EB
:1024500082B005460F4690463ABF0C46002601263C
:10246000EB6901349C4201AA2846214609D93EBBAA
:10247000EC6801349C424FF0010601AA284621462F
:10248000F5D8A7421CD0FFF773FF002818DBE7D070
:10249000019B002BE4D106B1EC606FF07042214645
:1024A0002846FFF79DFF064650B117B9C8F800400F
:1024B00007E0394628462246FFF792FF0028F5D16B
:1024C0000026304602B0BDE8F08100BF70B5054679
:1024D00082B00C460AE0FFF783FF90B1EB689C42A4
:1024E0003CBF04F1FF34EC60019C5EB101AA2146BF
:1024F0002846FFF73DFF061E21464FF00002284602
:10250000E9DA002002B070BDF8B5044600230125C9
:102510004FF0FF30E5602160A462C4F83442E371FB
:1025200084F8243084F83032E062C4F8380215466A
:10253000DAB1042A01D90020F8BD04F124061A46B4
:1025400019463046FFF7D6FE05F18055013D2D01B5
:1025500000F5DF735A190028EDD011790029EAD06F
:102560005B5D5B06E7D1956801E004F12406304627
:1025700000222946FFF7BEFE0028DCD0037C022B98
:10258000D9D1B0F80B30B3F5007FD4D1467B26719A
:10259000731E0022012E6371A2710FD00122114619
:1025A00000E01A464900C9B2531C8E42DBB204D087
:1025B000092BF6D1A2710020F8BDA271C18A216158
:1025C00009B9416A2161C789B0F8113023812F44CC
:1025D0005B0107EB410603F2FF13B0F81310A7618C
:1025E00006EB63232662636101B9016AED1A0D44AB
:1025F00025FA02F240F6F473511C9A42E1610AD9BD
:102600004FF6F4739A4285BFC36A236210232023D6
:10261000E3710120F8BD0C23E3718CE7007C704767
:10262000807C704710B40468E4680123A4465DF818
:10263000044B6047C07C704710B40468E469012310
:10264000A4465DF8044B6047704700BF10B51421E5
:10265000044601F03DFF204610BD00BF2DE9F041CA
:102660000E46017A0229044615461F4607D0236804
:1026700020465B699847D8B90020BDE8F0814368DF
:10268000B342F4D100265FB1236829465B6C204633
:102690009847013605F500750028EDD0B742F3D113
:1026A0006368627A1F4467606AB90120BDE8F081FF
:1026B000236831469B6C204698470028DCD00223D3
:1026C00066602372DEE7236820465B69BDE8F0415F
:1026D000184700BF10B50446C06801F0D3FAE3689C
:1026E0000021187A01F05CFF0123637410BD00BF64
:1026F00010B5C36804460121187A01F051FFE06863
:10270000FF2101F049FBE06801F004FB0023637442
:1027100010BD00BF70B5467C05460EB9FFF7DAFF65
:102720000824E86801F01AFBFF2804F1FF330DD0FC
:1027300013F0FF04F5D101240EB96B7C0BB92046D0
:1027400070BD2846FFF7D4FF204670BD0024F3E794
:102750002DE9F041214D82B02B680093009C80460A
:102760000E461746A4B207E02B680193019B9BB26B
:102770001B1BB3F5967F16DCD8F80C0001F0EEFABF
:10278000FF2888F81200EFD0FE2810D0182388F810
:10279000103098F8110018B14046FFF7A9FF00204B
:1027A00002B0BDE8F0811D2388F81030F1E73A4609
:1027B0003146D8F80C0001F0DFFA88F8120018B1A1
:1027C000242388F81030E4E7D8F80C0001F0C6FAAA
:1027D000D8F80C0001F0C2FA0120E1E75C14FF1FF9
:1027E000F0B50D4D83B02B680093009C06460F4654
:1027F000A4B206E02B680193019B9BB21B1BBB425A
:1028000007DCF06801F0AAFAFF28F3D1012003B039
:10281000F0BD002003B0F0BD5C14FF1FF0B5437C99
:1028200083B004460F4601920BB9FFF753FF37BB45
:1028300047F04001E06801F0AFFA01AE02AD15F8D3
:10284000011DE06801F0A8FAB542F8D1002F0CBFD5
:1028500095218721E06801F09FFAE06801F07EFA97
:102860000B25E06801F07AFA0306A07401D403B0E6
:10287000F0BD6B1E13F0FF05F3D103B0F0BD4FF4B4
:1028800096712046FFF7ACFFD2E700BF036870B532
:102890005B6904460E469847204600223A21FFF71E
:1028A000BDFF60B9351DE06801F058FA05F8010D6B
:1028B000B542F8D1657C6DB90125284670BD657CAF
:1028C00012232374002DF8D020460025FFF710FFB7
:1028D000284670BD2046FFF70BFF284670BD00BF9D
:1028E000036870B55B6904460D461646984729464D
:1028F00020460022FFF792FF40B11B232374607C27
:1029000018B12046FFF7F4FE002070BD31461022BA
:102910002046FFF71DFF0028F1D0657C002DF4D084
:102920002046FFF7E5FE284670BD00BF0A46092194
:10293000FFF7D6BF0A460A21FFF7D2BF30B50368BA
:10294000234A5B6B934285B02FD16A460921FFF77A
:10295000C7FF38B19DF8003013F0C00304D0402BFE
:1029600026D0002005B030BD9DF809409DF8063006
:102970009DF807209DF80A009DF805109DF8085065
:1029800004F003046400920003F0030344EAD0104F
:1029900001F00F0142EA8323084443EA951301330F
:1029A000073803FA00F005B030BD69469847D0E714
:1029B0009DF809309DF807109DF808005A1C01F099
:1029C0003F0302EB034303EB0020800205B030BD60
:1029D0002D29000030B50368114D1B6CAB4283B04C
:1029E00004460A4617D1C07C032818BF52021221A0
:1029F0002046FFF713FF58B1607C0C23237408B9FD
:102A000003B030BD2046FFF773FE002003B030BD99
:102A1000012003B030BD01919847019AE4E700BF5F
:102A2000352600002DE9F0410D46017A01290646C0
:102A300014461F4607D0336830465B699847E0B9B3
:102A40000020BDE8F0814368AB42F4D1002567B1B6
:102A500021464FF400723046FFF77AFE013504F547
:102A600000740028ECD0AF42F2D17368727A1F4430
:102A7000776062B90120BDE8F08129463046FFF752
:102A8000A9FF0028DCD0012375603372DEE73368CC
:102A900030465B69BDE8F041184700BF38B50022F9
:102AA0000C210546FFF7BAFE6C7C20B109232B747C
:102AB00054B9204638BD14B90124204638BD2846F3
:102AC000FFF716FE204638BD28460024FFF710FE0B
:102AD000204638BD30B50368114D1B6CAB4283B046
:102AE00004460A4617D1C07C032818BF5202192198
:102AF0002046FFF793FE58B1607C0E23237408B97B
:102B000003B030BD2046FFF7F3FD002003B030BD19
:102B1000012003B030BD01919847019AE4E700BF5E
:102B200035260000F0B503682B4F5B6BBB4285B0C8
:102B300004460D4616462DD16A460921FFF7D0FE00
:102B400090B19DF80A305A0616D5E37C032B18BFC6
:102B50006D022A464FF02001204618BF7602FFF78B
:102B60005DFED0B125232374607C18B12046FFF7A9
:102B7000BFFD002005B0F0BD03F03F039DF80B1032
:102B80005B00721C43EAD1132A431342DDD0262393
:102B90002374E9E769469847D2E732462121204667
:102BA000FFF73CFE0028DDD1024626212046FFF734
:102BB00035FE0028D6D142F210712046FFF710FEF4
:102BC00010B927232374CFE7657C002DD2D020468F
:102BD000FFF78EFD2846CDE72D29000070B54FF494
:102BE00016710546FFF7FCFD064658B96C7C1E239E
:102BF0002B740CB9204670BD28463446FFF778FD8B
:102C0000204670BDFD21E86801F0C6F86C7C14B95F
:102C10003446204670BD2846FFF76AFDEAE700BF4C
:102C200010B5037A012B044605D0022B09D00023EE
:102C30002372012010BDFFF731FF0028F7D10020DB
:102C400010BDFFF7CBFF0028F1D1F8E738B50446F7
:102C50001546C06801F0A0F84FF400722946E068FC
:102C600001F0A6F8E068FF2101F096F8E068FF2186
:102C700001F092F8E06801F071F800F01F03052BF5
:102C8000A07409D0607C1F23237400B938BD20468E
:102C9000FFF72EFD002038BD012038BD38B50D46A8
:102CA0004FF416710446FFF79BFD40B923232374AC
:102CB000607C18B12046FFF71BFD002038BD2A4676
:102CC000FC212046FFF7C2FF0028F1D038BD00BF2D
:102CD00010B4074C074A08490848002323601468C9
:102CE0000C60096811605DF8044B0370704700BF09
:102CF00038100B4030100B403014FF1F4814FF1FDA
:102D0000034B04481B681840B0FA80F04009704734
:102D100030100B4001000F00024B186800F001005A
:102D2000704700BF24100B40014B1878704700BF5C
:102D30004814FF1F034B186880F40060C0F3C020E4
:102D4000704700BF24100B40034B186880F480606C
:102D5000C0F38020704700BF24100B40034B044891
:102D60001B681840B0FA80F04009704730100B40E3
:102D700002007F114FF47A722C4B02FB00F0984254
:102D8000F0B44BD82A4D0822012149000B01B5FBB4
:102D9000F3F39842264C3DD2013AF6D1B4FBF1F45C
:102DA0004B081F02A0423DD2214E4B00012200E001
:102DB0002346B6FBF3F4A04202F1010503EB010444
:102DC00026D2102D2A46F3D1F0221A4E1A4C18485A
:102DD0001A494FF47A7505FB03F3B0FBF3F3336044
:102DE000236823F008032360206820F47F2323F462
:102DF0007F6343F460233B431A4322600B681B0745
:102E0000FCD50D4A136843F008031360F0BC70470B
:102E10001201DAE7B4FBF1F4CF01C3E7044C002759
:102E20000121BFE70B460022CFE700BF4FA9AB004F
:102E30000095BA0A4C14FF1F2C100B4024100B40B5
:102E4000014B1878704700BF3407FF1F014B18680B
:102E5000704700BF3014FF1F30B4054C0D460FCC37
:102E600028606960AA60EB60012030BC704700BF39
:102E70001014FF1F30B4054C0D460FCC286069605C
:102E8000AA60EB60012030BC704700BF3814FF1F00
:102E9000024B1B680B600120704700BF2814FF1F06
:102EA000704700BFF8B5054601F080FB064F0646A7
:102EB00004E001F07BFB801BB84203D8A84704461E
:102EC0000028F6D12046F8BD40420F002DE9F04120
:102ED000DFF840800E4FC8F80000054601F066FBA1
:102EE000064606E001F062FB801BB8420AD802F0F9
:102EF00011FDA84704460028F4D1C8F80000204678
:102F0000BDE8F0810023C8F800302046BDE8F0811C
:102F100040420F002014FF1F10B50C21044601F0A1
:102F2000D7FA204610BD00BF054B1B7833B1054BC7
:102F30001B78002B14BF032002207047012070472C
:102F40000C14FF1F2414FF1F38B504460F480D460C
:102F5000FFF7A8FF08B1002038BD0D4A0D4B1560E2
:102F60000D481C60FFF79EFF0028F4D10B4A0C4B64
:102F700011681960196811601A68D207EBD51B68CF
:102F800013F4702FE7D1012038BD00BF192D0000C8
:102F900008100B400C100B40012D000030100B40AE
:102FA0003014FF1F08B5044B04481968FFF7CCFF25
:102FB00008B1034B186808BD2C14FF1F00001A0D40
:102FC00010100B4030B5154B85B00D461968FFF752
:102FD000BBFF00B3124A134B1268009219680191AB
:102FE00059680291083305F10F041B68039300230D
:102FF00001E051F8102C03F00301C9000133CA406D
:103000000DF1100E23F003010F2B714404F8012D74
:10301000EFD10023EB7305B030BD00BF2C14FF1FB0
:1030200010100B4014100B4008B5074B07481968E7
:10303000FFF78AFF30B1064B186880F48070C0F348
:10304000002008BD012008BD2C14FF1F00001A0D30
:1030500010100B40044B1B6803B11847034B187842
:1030600000B97047FFF7E0BF2014FF1F3414FF1FA3
:10307000054B186810F0020005D01B680348184083
:10308000B0FA80F0400970473014FF1F00007F1134
:10309000F8B5940700D143B91F49204B242040F2D2
:1030A000D31208701A600020F8BD06461C481C4662
:1030B0000F461546FFF70AFF18BB1A491A4ADFF8F0
:1030C00080E04FF0010C8EF800C023040860174C1C
:1030D0001560174A1749184843F4007323601378A2
:1030E0000860B3B979023046FFF72EFF0028DAD026
:1030F0001248FFF7EBFE0028D5D1BDE8F840FFF7F6
:10310000B7BF0549054B0A204FF4EB7208701A60EF
:10311000C9E73946E7E700BF3407FF1F5014FF1F18
:10312000293000003014FF1F00100B4004100B402A
:103130002414FF1F38100B4002007F11292D0000BE
:103140004814FF1F70B419490B7813F0C00311D055
:10315000402B02D0002070BC70474B7ACC79087AA3
:103160005A1C04F03F0302EB034303EB00208002F0
:1031700070BC70474D7A8B79CA794C790E7A887A0F
:1031800005F00301490003F00303920041EAD01067
:1031900042EA832304F00F0143EA961308440738F8
:1031A000013303FA00F070BC704700BF3814FF1FF2
:1031B00070B52C4EB37A03F04000154658B903F0B1
:1031C0003F03F27A00F0FF045B00681C43EAD2136D
:1031D0000843034221D1244B1B780BB949026D02ED
:1031E0002248FFF7B1FE044640B92149214B0F2088
:1031F00040F2B12208701A60204670BD29461E4870
:10320000FFF7A2FE044688B919491A4B10204FF463
:103210002D7208701A60204670BD1549154B262086
:1032200040F2A92208701A60204670BD00211348A0
:10323000FFF78AFE044638B90D490E4B112040F2C3
:10324000B72208701A60D7E70D48FFF72BFE002859
:10325000D2D00749074B272040F2BA2208701A60E3
:103260000024C9E73814FF1F2414FF1F00001A2090
:103270003407FF1F5014FF1F00001A2100001B26F7
:103280002930000070B500211548FFF75DFE0446A7
:1032900040B91449144B092040F2192208701A60F1
:1032A000204670BD1148FFF711FE70B91048114952
:1032B000114D06680B682A6823F4803342F080625F
:1032C0002A6006600B60204670BD0649064B0A2046
:1032D0004FF40772087000241A60204670BD00BFCA
:1032E0000000DB0C3407FF1F5014FF1F29300000C3
:1032F00034100B4028100B402C100B40FFF7C2BFBE
:1033000038B5284B1B68D8050D4608D4264B1A68DB
:1033100022F480321A601A6842F400321A60224A9B
:103320002248136843F480331360FFF7BBFD002885
:103330002ED11C4C1E482B1F05F5FE752268510529
:10334000FCD503F1400153F8042F02609942FAD1F1
:103350008D420B46F2D11748FFF7A4FD78B9164A03
:10336000164B11681960196811601A68920717D511
:103370001B6813481840B0FA80F0400938BD114965
:10338000114B232040F2863208701A60002038BDAD
:103390000C490D4B202040F27B3208701A6000204F
:1033A00038BD00BF24100B4028100B40492D0000F1
:1033B00020100B405D2D000030100B403014FF1F1B
:1033C00000007F113407FF1F5014FF1F38B5144849
:1033D0000C46FFF77BFDC8B9124A1349136813481E
:1033E000134D23F4803313600B78056063B96102D9
:1033F0001048FFF7A9FD30B90F49104B0E2440F2D9
:10340000DB320C701A6038BD2146F1E70A490B4BDC
:103410000A2040F2CF3208701A60002038BD00BF89
:103420002930000028100B402414FF1F04100B400B
:103430000002FFFF22003A193407FF1F5014FF1F3C
:10344000F8B50646007AC0070C4615461F4613D449
:1034500083B10F4401E0BC420CD033682A462146B8
:103460009B6830469847013405F500750028F2D175
:103470000020F8BD0120F8BD900712D0002BF9D034
:103480000F4401E0A742F5D033682A4621469B68E5
:1034900030469847013405F500750028F2D1002028
:1034A000F8BD0648FFF7F4FD0028E3D10449054BB9
:1034B0000C2440F231320C701A60F8BD37003A1219
:1034C0003407FF1F5014FF1FF8B50646007AC007E7
:1034D0000C4615461F4613D483B10F4401E0BC428D
:1034E0000CD033682A4621469B6930469847013400
:1034F00005F500750028F2D10020F8BD0120F8BDC7
:10350000900712D0002BF9D00F4401E0A742F5D06C
:1035100033682A4621469B6930469847013405F5B1
:1035200000750028F2D10020F8BD0648FFF7B0FD75
:103530000028E3D10449054B0E2440F2C1320C703F
:103540001A60F8BD27003A193407FF1F5014FF1FF7
:1035500070B5037A1546DA07ADF5007D0E4619D52C
:10356000AB0706D0294668464FF4007200F09CFE77
:103570006D462A46314601231E48FFF789FD30B9C2
:103580001D491E4B0D244FF466720C701A600DF528
:10359000007D70BD437A022B044608D02368204684
:1035A0005B699847D8B900200DF5007D70BD436870
:1035B0009942F3D1236829465B6C2046984700283E
:1035C000F1D063680E4A0133636013681B0C1B045F
:1035D000002BDCD1236820465B699847D7E7236836
:1035E00031469B6C204698470028DCD00223666059
:1035F0006372DFE701003A183407FF1F5014FF1F02
:1036000004100B40437A012B0CD0022B01D0012077
:103610007047002103684172DB6C054A934205D173
:10362000FFF730BE00234372FFF72CBE184700BFE0
:10363000FD320000F8B505461D480C46FFF732FC88
:1036400040B11C491C4B0A204FF4BB7208701A6031
:103650000020F8BD194ADFF884E0194F194E1A4BC3
:103660004FF0010C8EF800C029461060174D184A23
:103670003C60184835601A60FFF766FC38B90D49A0
:103680000D4B042440F27D120C701A60F8BD1248F4
:10369000FFF71CFC18B9FFF7EBFC00B1F8BD0549BA
:1036A000054B24204FF4C07208701A600020F8BD4A
:1036B000293000003407FF1F5014FF1F3014FF1F74
:1036C00000100B4004100B4038100B40400001006C
:1036D00002007F1111003A06292D00004814FF1F37
:1036E0002DE9F04F8E4D8F4CDFF8AC828E4F8F4E10
:1036F000017200232B70437288F800303B703370E6
:1037000023688B4A8B488C49DFF890E243F0406392
:103710002360136804F57E3443F4003313600C34E3
:1037200002F5D12240F2031302F2FC720360CEF8DC
:1037300000300B6023600361CB60136843F080733B
:1037400043F4004391B0136013687C4CD901FBD45F
:103750004FF4C870FFF70EFBDFF8D8C1DFF83CE28A
:103760007549774A774840F24343CCF80030CEF8A9
:1037700000304FF4886EC1F800E0136002F5C822F3
:10378000283203607048CB6010607049512000F00F
:10379000EDFE6F4B6F4960204FF4003208701A60E5
:1037A000236843F000632360216811F00061FBD1BE
:1037B0000846FFF7C9FB044600284ED003244FF407
:1037C000D5716548FFF7C0FB00285DD1013CF6D1FB
:1037D0003378624E002B08BF4FF4401600F0E6FE2F
:1037E0005F4C814600215F48FFF7AEFB50B95E4A4F
:1037F00040F26A21172311602B700024204611B07B
:10380000BDE8F08F31465948FFF79EFB0028EED007
:1038100000F0CCFE564B524AC9EB00009842E6D865
:103820002368002BDEDA534B116819601368524885
:103830005A0048BF01234FF0000148BF3B70FFF71B
:1038400083FB044698B9484A40F27321022320467C
:1038500011602B7011B0BDE8F08F434A40F259213E
:103860000123204611602B7011B0BDE8F08F0021BC
:103870004248FFF769FB0446B8B93B4A40F276215B
:10388000032311602B70B9E7354B1B68B3F5D57F67
:1038900007D0354A40F25F21062311602B700024C7
:1038A000ACE7012333702D4E98E72D4B344E1B6847
:1038B000344935481B0C1B043360FFF783FB044677
:1038C00030B9294A40F27B21072311602B7095E71C
:1038D0002E492F48FFF776FB044630B9224A40F2C2
:1038E0007E21082311602B7088E731682948FFF793
:1038F0002BFB044630B91C4A40F28121052311609C
:103900002B707BE731681748FFF71EFB002847D173
:10391000154A40F28521142311602B7000246DE7B5
:103920003407FF1F00D800402414FF1F0C14FF1F92
:103930003080044000D0044008D004402C100B40DC
:103940000CD0044010D004400B007F11D12C00009B
:1039500008E100E051E400E000001A0800003040F7
:1039600010100B4000001A375014FF1F00000229EE
:1039700040420F002814FF1F0000090200001A0334
:103980002C14FF1F3814FF1F000009091014FF1F1B
:103990000000090A00001B073414FF1F04D0044074
:1039A00002212A48FFF7D0FA04460028B0D0284B5D
:1039B00028481A6822F006021A601A684FF010159B
:1039C00042F002021A60694605606FF07F40FFF71F
:1039D00031FE18B19DF80D309B0728D446F2A8108F
:1039E000DFF884B0DFF884A0DFF884901A4F1B4E14
:1039F0001B4D40F20313CBF80030CAF80030C9F871
:103A000000303B6033602B60FFF7B4F940F2434372
:103A10004FF488610122CBF80030CAF80030C9F8B1
:103A200000103B6033602B6088F80020E6E66946B2
:103A30000C48FFF7FFFD0028D0D09DF8103003F0B0
:103A40000F03012BCAD14CF25030C9E700001A060F
:103A500028100B4044100B400CD0044010D0044000
:103A600014D00440F1FFFF8000D0044004D0044093
:103A700008D0044038B5284B1B6898050D460ED475
:103A8000264B1A6822F480321A6072B61A6842F421
:103A900000321A601A6842F480321A6062B6204816
:103AA000FFF700FA00282ED11B4C1E482B1F05F5EE
:103AB000FE7522681105FCD503F14001026843F848
:103AC000042F9942FAD18D420B46F2D11648FFF7E6
:103AD000E9F978B9154A164B11681960196811602F
:103AE0001A68920717D51B6812481840B0FA80F080
:103AF000400938BD1049114B1D204FF43D7208702C
:103B00001A60002038BD0C490C4B1A2040F2E92203
:103B100008701A60002038BD24100B4028100B409C
:103B2000352D000020100B405D2D000030100B40A3
:103B30003014FF1F00007F113407FF1F5014FF1FB8
:103B400038B514480C46FFF7C1F9C8B9124A1349F1
:103B500013681348134D43F4803313600B780560EA
:103B600063B961021048FFF7EFF930B90F49104B04
:103B70000C2440F24D320C701A6038BD2146F1E73A
:103B80000A490B4B0A2040F2413208701A600020AB
:103B900038BD00BF2930000028100B402414FF1F3F
:103BA00004100B400002FFFF32003A123407FF1FDF
:103BB0005014FF1F70B5037ADC07ADF5007D154684
:103BC00012D593071FD06A4601232A48FFF760FAEF
:103BD000F8B1694628464FF4007200F065FB0125F4
:103BE00028460DF5007D70BD437A012B04460E4634
:103BF0001BD0236820465B69984748BB00252846B0
:103C00000DF5007D70BD01231A48FFF741FA002829
:103C1000E5D11949194B0B20002540F207320870F5
:103C200028461A600DF5007D70BD43689942E0D1C9
:103C300029462046FFF71EFF05460028DED0104B20
:103C40001B681B0C1B046BB1636801336360D6E710
:103C500031462046FFF774FF0028CFD0012366606D
:103C60006372E5E7236820465B6998470028EBD13B
:103C7000C4E700BF11003A113407FF1F5014FF1FA3
:103C800004100B4010B403684268D97AF9B172B6D7
:103C9000D97AC80706D51948D96804682140D9617E
:103CA0000160D97A8C0706D5154819690468214046
:103CB00019620160D97A480706D512485969046823
:103CC000214059620160D97A09070FD462B61B6896
:103CD000D968914207D00C4818600C49DA6042F06C
:103CE0008040186119605DF8044B70470848996975
:103CF0000468214099620160E8E700BF80E100E0CC
:103D000084E100E088E100E001403F0000003F80E6
:103D10008CE100E00268D37AB3B1D90703D50B4B2D
:103D2000D1691960D37A980703D5094B116A1960D4
:103D3000D37A590703D5074B516A1960D37A1B0709
:103D400002D5054B926A1A60704700BF00E100E09F
:103D500004E100E008E100E00CE100E003681A681B
:103D60004FF00041FF23D1625363D36A002BFCDA8A
:103D7000906BC0B2704700BF70B505460C46164642
:103D80000846FF2103F0E6FC286833462246214618
:103D900002F0FEFB002070BD03681A684FF000437C
:103DA000D3625163D36A002BFCDA936B704700BF78
:103DB00030B5551EB5F5007FADF5017D134612D324
:103DC00072B102681268C8184FF0004411F8013B44
:103DD000D4625363D36A002BFCDA8142936BF5D132
:103DE0000DF5017D30BD05461446684600F05CFACD
:103DF00023466A466946286802F0CAFB0DF5017D34
:103E000030BD00BF90F8392090F83800101A704784
:103E100090F8383090F839209A4205D95A1C03445A
:103E200080F83820187E70474FF0FF30704700BF91
:103E300090F8383090F839209A4286BF1B18187EC7
:103E40004FF0FF30704700BF704700BF38B50546E0
:103E5000B0F85E0090B195F85D301446C3F12102D0
:103E600094420CD805F13B001844224600F01CFA9D
:103E700095F85D30234485F85D30204638BD01203B
:103E800014462871EEE700BFB0F85E306BB190F8D1
:103E90005D30202B07D8C218013380F85D30012037
:103EA00082F83B107047012303710020704700BF68
:103EB00038B50269D478E4B2E106054624D510236A
:103EC000D37063061FD504F0040404F0FF03002C34
:103ED0005AD042496A6E00230B7085F85D30002A83
:103EE00066D0904795F85D30002B61D02B69D022C9
:103EF0009A702B6995F83B201A712B69012285F87D
:103F00005C200222DA7038BD04F0400303F0FF00A9
:103F1000002BD8D19379DBB203F0600160294ED039
:103F2000937803F0100303F0FF01B3B114F0010420
:103F300037D195F85C3095F85D1099424BD9591CF2
:103F40002B4485F85C1093F83B3013712B69D02219
:103F50009A702B690222DA70D5E785F860109379A0
:103F600043F0200393712B6995F839101A791F29B2
:103F7000D2B2C6D8194800780028C2D068180131DA
:103F800085F839100276BCE72A6985F83930C023F4
:103F900093702B69114A1979012111700222DA708C
:103FA000B1E7C02393702B691A790222DA70AAE76D
:103FB0000122002385F85D2085F83B3096E703F069
:103FC000DF039371AB6E23B185F8380095F83900A3
:103FD00098472A69A4E71471B8E700BF5814FF1F77
:103FE0000148FFF765BF00BFA407FF1F0148FFF7A7
:103FF0005FBF00BF1008FF1F0148FFF759BF00BF98
:104000003807FF1F70B4074E074D084C0177002298
:10401000FF2131702970217002628274427402742F
:1040200070BC70475B14FF1F5A14FF1F5914FF1F09
:1040300000B5064A036812885B6883B001A9ADF831
:1040400004200222984703B05DF804FB04860000B8
:10405000F0B507468BB0002A33D0012A08BF0A22E8
:1040600051B3212400E0F4B2B1FBF2F502FB1511CB
:10407000C8B2092900F1300198BFC8B20AA988BFA7
:104080003730214488BFC0B201F8240C661E29468F
:10409000002DE8D133B1013CE4B20AAB23442D2218
:1040A00003F8242C3B6801AA11195B683846C4F157
:1040B000220298470BB0F0BD30228DF82520212434
:1040C000E8E70368C9B21B6898470BB0F0BD00BFB2
:1040D0000029BABF49422D2300230A22FFF7B8BFA7
:1040E0002DE9F04357EC106B85B005460C4610EEF9
:1040F000102A3B4610EE100A394602F09FFE0028B7
:1041000040F0B28027F00049304649464FF0FF3278
:10411000594B02F093FE90B9304649464FF0FF32BA
:10412000554B02F06DFE50B92B6854495B68284628
:10413000032298478046404605B0BDE8F0834FF023
:1041400060424F4B3046394602F06EFE002872D175
:104150004FF060424B4B3046394602F047FE002894
:1041600069D1002200233046394602F03FFE002884
:1041700064D18146002C67D0434900204FF00008ED
:104180003BA3D3E9002308F1010802F0BDFB5FFA6D
:1041900088F39C42F4D802460B463046394602F07A
:1041A00001FA0F46064602F05FFE804602F036FB3B
:1041B00002460B463046394602F0F2F94B460646B7
:1041C0000F460A2241462846FFF742FF0F2C28BF20
:1041D0000F2404F101092E2380465FFA89F98DF836
:1041E000003001240022294B3046394602F08CFB76
:1041F0000F46064602F038FE04AB2344C0B200F17D
:10420000300203F8102C02F019FB02460B46304630
:10421000394602F0C5F90134E4B24C4506460F4672
:10422000E0D12B6822465B6828466946984740469D
:1042300005B0BDE8F0832B68154977E707F1004327
:104240001F464FF0010995E700220F4B30463946D3
:1042500002F0A8F902F008FE4B4601460A22284661
:10426000FFF7F6FE804666E72B680A495EE700BF67
:10427000000000A09999B93FFFFFEF7F1086000072
:10428000FFFFEF41FFFFEFC10000E03F00002440CF
:104290000C8600000886000008B5FCF717FFFCF745
:1042A00067FE01F037FBFAE7844641EA000313F0AA
:1042B00003036DD1403A41D351F8043B40F8043B2D
:1042C00051F8043B40F8043B51F8043B40F8043BF0
:1042D00051F8043B40F8043B51F8043B40F8043BE0
:1042E00051F8043B40F8043B51F8043B40F8043BD0
:1042F00051F8043B40F8043B51F8043B40F8043BC0
:1043000051F8043B40F8043B51F8043B40F8043BAF
:1043100051F8043B40F8043B51F8043B40F8043B9F
:1043200051F8043B40F8043B51F8043B40F8043B8F
:1043300051F8043B40F8043B403ABDD2303211D32F
:1043400051F8043B40F8043B51F8043B40F8043B6F
:1043500051F8043B40F8043B51F8043B40F8043B5F
:10436000103AEDD20C3205D351F8043B40F8043B2F
:10437000043AF9D2043208D0D2071CBF11F8013B2D
:1043800000F8013B01D30B8803806046704700BFF3
:10439000082A13D38B078DD010F003038AD0C3F102
:1043A0000403D21ADB071CBF11F8013B00F8013BE4
:1043B00080D331F8023B20F8023B7BE7043AD9D3A3
:1043C000013A11F8013B00F8013BF9D20B78037078
:1043D0004B7843708B7883706046704708B5104CFB
:1043E00008E0236859050DD423681A050FD4236803
:1043F000DB0411D423685803F3D500F0DDFA2368F9
:104400005905F1D501F06EFC23681A05EFD501F0CE
:10441000FFFC2368DB04EDD501F090FDEAE700BF67
:104420003480044008B5FFF7D9FF00BF014B1022CC
:104430001A80704700200540704700BF094908B541
:104440000B6830B16A461844A2F50052904202D27D
:104450000860184608BD02F03BFE0C2303604FF0D5
:10446000FF3008BD7C08FF1F084A1378802B01D05D
:10447000002070470649074B074808600021197063
:104480001378802BFCD00120704700BF03E0074069
:104490004480044001E0074000002822094A1378C4
:1044A000012B01D00020704703F1804303F5FC236A
:1044B000602119701378802BFCD1034B034A1A60DA
:1044C0000120704703E007404480044000000602DA
:1044D00002F038BEF0B44D1E2E46002400E0013438
:1044E000B0FBF2F302FB1300092800F130078ABF8A
:1044F0003730F8B2C0B206F8010F1846002BEED1E3
:104500000A1953704CB1107815F8016F28700133F7
:10451000E01A834202F80169F5DB0846F0BC7047F7
:1045200010B4114B53F8302092F8804234B101237B
:1045300079B182F880305DF8044B704703EBC0031B
:104540005B681A6851B922F002021A605DF8044BE8
:10455000704782F800315DF8044B704742F0030267
:104560001A605DF8044B7047148600001030024B4F
:1045700043F82010704700BF0002FF1F30B4054B06
:10458000054D064C002210211A602A602060196037
:1045900030BC704714D0034004D0034000D0034027
:1045A0003F2801D8FFF7BCBF704700BF72B60D4966
:1045B0000D4B0E4A1B680868126862B6520102D59C
:1045C000322B88BF0130C3F52F33094903F21F3363
:1045D0004FF47A729B08A1FB031302FB00F000EB7F
:1045E000930070475C14FF1F18E000E004ED00E04A
:1045F000176CC1162DE9F843054672B6224F234BBE
:10460000234A1B683C68126862B6520102D5322BFD
:1046100088BF0134B5B3C3F52F3303F21F331D4EEA
:10462000DFF86890DFF868809B084FF47A72A6FB89
:10463000031302FB04F404EB930472B6D9F80010E0
:104640003A68D8F800E062B6C1F52F3303F21F33A1
:104650009B08A6FB03031EF0806FC4EB93034FF48B
:104660007A7002D0322988BF013200FB0233B3F5E1
:104670007A7F04D3013D05D004F57A74DDE701F0BB
:1046800049F9DAE7BDE8F8835C14FF1F18E000E0A1
:1046900004ED00E0176CC116F8B54E4B4E48DFF83C
:1046A0005CC14E4C4E49DFF858E14E4E4E4D4F4FD7
:1046B0004FF000621A604FF080521A604FF00052C3
:1046C0001A604FF080421A604FF000421A600022D8
:1046D000026028234EF6FF70CCF80000CEF80030C0
:1046E00023600EF5012E0B6033602B6006F500266B
:1046F0003B6005F50025A36207F500278B6204F5F2
:10470000012401F5012106F6E87605F6E87507F5BE
:104710007F6710310EF1100E203433602B60CEF81D
:1047200000303B600B602360314CBB618B61092121
:104730002160A7F5002704F58054203F08343A6033
:104740002060BB60E36047F8041C04F5FD2407F516
:10475000FE27043704F2FC7422603860A360FB601B
:1047600044F8041C083404F6FC74C7F8FC2F2060DD
:10477000A4F5E124A4F2DC7433602B60C7F8F81FC1
:1047800021681C4841F40071216001681A4C0EF543
:104790007F4E0EF1E80E07F5883706F5803605F5F1
:1047A000803541F000710160CEF8002047F6FF71BE
:1047B0000822396033602B60226001F013FA19205F
:1047C000FFF718FF00F060FE40F21310BDE8F8405C
:1047D000FFF710BF04E100E00480034014800340B1
:1047E0001C800340248003402C800340348003401D
:1047F000008003400480044000900C400880034087
:104800000C800340431E032B14D872B60A4951F89A
:10481000230068B170B4094C058834F81320466849
:1048200041F82360521B24F8132062B670BC704715
:1048300062B6704700207047B814FF1FB018FF1F02
:10484000013803280BD872B6074B53F8203043B118
:1048500000205B680130002BFBD162B6704700205E
:1048600070471846F9E700BF0C15FF1F30B472B649
:104870002B4A13781D0706D52A4B196A002936D012
:10488000996A002941D053781C0706D5254B196C2D
:1048900000293ED0996C002939D09378190705D5A5
:1048A000204B196E002936D0996E89B1D3781B0739
:1048B00007D51C4BD3F880207AB3D3F88820112178
:1048C0003AB162B6184B00221A7030BC00F092BEAA
:1048D0000D21154C154D227843F8315003EBC103DF
:1048E0000830013A5860227062B630BC704704222A
:1048F0000D4C0F4D217843F8325003EBC2030830C2
:104900004A1E5860227062B6EFE70521E1E70921EF
:10491000DFE70822ECE70C22EAE71022E8E700BF15
:104920003C8800000000FF1F3515FF1FC800400035
:1049300088004000431E032B1DD81B4A400140F055
:10494000100030B4104472B6184CE25C032A1BD835
:10495000DFE802F00212151703220D88E25410F06E
:10496000080F14BFC823882343EA054308310360B6
:10497000416062B630BC704708300222EDE7052284
:10498000EBE708300422E8E7094A52F8230038B17F
:10499000084A52F82300416042F8231062B6E9E762
:1049A00042F82310034AF7E70000FF1F4415FF1FDA
:1049B0000C15FF1F1C15FF1F2DE9F04FDFF80CB37E
:1049C000DFF80CA387B044E0AB4F4FEA930807EB46
:1049D000C809013ED9F8042003F00803F6B2A2F199
:1049E000080003F0FF04002B40F0028157F8383034
:1049F0001B0C99B222F8081C002B00F0F0809F4B92
:104A000022F8064C42F8044C53F82620002A00F005
:104A1000C5829B4D55F8263058609A4C45F82600C3
:104A200034F81630194424F8161000F0C3FD00289D
:104A300000F0AD82944A954B19F0080F00F1080080
:104A400018BF1346C9F8040047F8383008238BF81C
:104A500000309BF80040E4B261071AD58C4B1B78FC
:104A6000A3B18C490A7802F0FF0322B1013BDBB20B
:104A70000B7003B900BE88490A7802F0FF032AB11F
:104A8000013BDBB20B70002B00F0578204238BF844
:104A9000003004F0080303F0FF02002B00F0CC808C
:104AA0009AF80030DBB21E098ED19C08DFF8C8915D
:104AB00059F8342009EBC401C2F38302013A496872
:104AC0000C2A00F28880DFE802F07C7C86868686ED
:104AD00086864786868607000868704D4A68704F4C
:104AE000704E286081B240F28160674B6A604FF07F
:104AF000010E0022814249F834303A60C9F8102092
:104B0000C9F8182086F800E05B4C00F2E380B1F5AC
:104B1000D06F80F04683B1F5817F00F0FC8200F217
:104B20008D82802900F07783822940F0FA82A9885B
:104B300001F07F01042900F2F4825B485B4C89009C
:104B40000844227062700278930740F1588484F818
:104B500000E04FF0020E42E3514F3A6832B3544B3B
:104B6000504E5449188834780D784028864645F0D0
:104B7000020828BF4FF0400E002C84F0010434706E
:104B8000CEEB00000CBF8824C82409EBC80680B215
:104B900085F0010544EA0E447260188049F83840F7
:104BA00072440D70002800F045813A603B4B1A8832
:104BB000B2F5A06F0FD100219A7859703E4B1A7050
:104BC00009E0364A108842F22102904200F0378113
:104BD0002D4A49F83420394A0123137036E72A4A0E
:104BE0002A4B19F0080F18BF134647F838302DE745
:104BF00000F000FD324A334952F82630002B00F015
:104C0000D18158688C5D42F8260003F10802C9F88A
:104C10000420032C05D8DFE804F02C022926022208
:104C20008A551A8819F0080F0CBF8823C82343EA55
:104C3000024347F8383009E7E00700F18181210697
:104C400000F1F281A20706D51F4A204913780220FD
:104C5000DBB213700870E30602D51C4B10221A70E9
:104C600007B0BDE8F08F04228A55DAE705228A559D
:104C7000D7E703228A55D4E70000FF1FB814FF1FAF
:104C80006414FF1FB018FF1FC800400088004000D8
:104C90004015FF1FC914FF1F4815FF1F2C15FF1FCC
:104CA0006014FF1FC814FF1FC02007403815FF1FE6
:104CB0007414FF1F3415FF1F9820074094200740ED
:104CC0000C15FF1F4415FF1F882007408020074058
:104CD0009020074042F22100814200F02A8100F238
:104CE000D880B1F5086F00F07682B1F5106F40F012
:104CF0001882226AB349A8780870120600F13A8334
:104D0000D9F82820B049130600F10C83D9F83020D7
:104D1000AD49150600F10183D9F83820AA491406D7
:104D200000F1F682D9F84020A749100600F14A8325
:104D3000D9F84820A449120600F13F83D9F8502041
:104D4000A149130600F13483D9F858209E4915066D
:104D500000F12983D9F860209B49140600F11E83D5
:104D6000D9F868209849100600F11383D9F870200B
:104D70009549120600F10883D9F878209249130664
:104D800000F1FD82D9F880208F49150600F13183AA
:104D9000D9F888208C49140600F12583D9F8902091
:104DA0008949100600F11983D9F89820864912061E
:104DB00000F10D838548864A864901908648874DD3
:104DC000874C049700230596029580460F461646A9
:104DD0001D460394306828B1446800F00BFC20465F
:104DE000002CF9D100233360029B38681A46002357
:104DF00042F8253028B1446800F0FCFB2046002C26
:104E0000F9D100223A60019A98F800301146002248
:104E100041F8042B039A0191023B4FF0000122F864
:104E20001510032B00F22B81DFE813F07001250130
:104E300070012501BEF1400F18BF0022B5E6694A96
:104E40000D784878157050708D78C8789570D0704E
:104E500010680D79157186284D7989795571917190
:104E600000F09B816049614E0A78307882F001053C
:104E7000002842F002020D700CBF8821C82149F8B9
:104E8000321009EBC20280F0010000213070516045
:104E90009EE642F22120814240F0CB81544B554C9A
:104EA0005549A8781D682560CDF804E008700020F9
:104EB00002908046844604464B490D7845F0020E28
:104EC00009EBCE030393019B002B039B5C600CBF9B
:104ED0008824C82444EA080385F0010449F83E30D8
:104EE00032700C70DFF8E0E0404BDFF8FC80002807
:104EF00040F01E81BCF1400F1BD144F0020C09EBC5
:104F0000CC03029CDFF8C0E05C60002A40F0268100
:104F1000020442F088029DF804304EF83C2004441C
:104F200033700D702346402803D10020334A3B6084
:104F30001080334A012313704DE600F0C7FCA5E54D
:104F4000214B2F4828491A614FF0020E80F800E0EB
:104F50002C4F0A702C49196099602C4E2C4D2D4C09
:104F60009A610D213970FF213170DFF8B8E02970A6
:104F70002270294D294A8EF800109F27012406F837
:104F8000047C5D600470DA6007B0BDE8F08F244AED
:104F900047F8380013780133137057E543F82600BB
:104FA0000E4D3AE58B5D032B00F2F08001A252F822
:104FB00023F000BF4D4A00004D4A00007150000030
:104FC0006B5000004015FF1F0000FF1F1C15FF1F46
:104FD000B814FF1F0C15FF1F4415FF1F6414FF1F9B
:104FE000B018FF1FB818FF1F3415FF1FC814FF1F8C
:104FF0005C14FF1FC018FF1F5815FF1F7414FF1FFC
:1050000094200740C02007408800400088200740C7
:1050100080200740982007407814FF1FCC14FF1F02
:105020003515FF1F8C200740C149C24B80220D203F
:1050300008701A70A2077FF50EAE05E640F2023244
:10504000914240F0EE80A98801F07F01042968D8E0
:105050006A88002A65D1B648CDF804E08900084482
:10506000017841F00201017021E701238B55EDE445
:1050700000238B55EAE44FF0010388F80030013536
:10508000042D06F1040607F1040708F101087FF476
:10509000A1AEA94CA94B2278A94D049F059E0021E1
:1050A00029701A70130700F105816278A549DFF8AD
:1050B000A0820A7010074FF00001C9F83010C9F83B
:1050C000381000F1E080A049A2780A700021C9F8E8
:1050D0005010C9F858101107DFF8748200F10181EF
:1050E000E2789A499A4C0A7000211207C9F87010A8
:1050F000C9F8781000F1B08033780193002183F073
:105100000102C9F89010C9F89810D0E64FF00003DA
:1051100088F80030B3E7A98801F07F01042940F244
:105120008D80834A0F2313708A4A0123137052E53E
:1051300040287FF6E2AE44F002040EEBC401029E6A
:105140004E60BAB19DF80410834A19703346403856
:1051500088F8005040334EF83420E7E69DF80430DC
:1051600033700204029B0D7042F0C80203444EF8F3
:105170003C20D8E69DF804101970029B774A88F805
:105180000050403840334EF83420CFE619F0080F75
:105190000CBF022303238B5558E4714A0F21117071
:1051A00060E6704A5468002CBBD06888B5F804E00B
:1051B00003E00C325468002CB3D013888342F8D13A
:1051C00053887345F5D1000A03280CBF94F800E01A
:1051D000B2F808E003E0644A644C12782270E88870
:1051E000704580F03F8162490D784028844645F043
:1051F000020E28BF4FF0400C04EB0C0309EBCE026B
:10520000029301235460CCEB00004FEA0C480022CB
:105210000193C8245EE6554C4FF0020E2270627076
:10522000DDE7B1F5A06F7FF47CAF0123002201938D
:105230003DE642F221329142F7D072E76A88002AB5
:105240007FF46FAF3A48CDF804E089000844017854
:1052500021F0020101702AE600F0ACF9002800F00C
:10526000EF8008303D4AC4F88400C4F8802000F084
:10527000A1F9002800F0DE800830374AC9F88C0018
:10528000C9F8882038E700F095F9002800F0C080C0
:105290000830324AC8F84400C8F8402000F08AF9C3
:1052A000002800F0AF8008302B4AC9F84C00C9F83C
:1052B000482008E700F07EF9002800F0CD80083093
:1052C000264AC9F82400C9F8202000F073F9002804
:1052D00000F0BC800830204AC9F82C00C9F828200A
:1052E000E3E600F067F9002800F09E8008301B4AD2
:1052F000C8F86400C8F8602000F05CF9002800F0ED
:105300008D800830144AC9F86C00C9F86820E7E6B7
:10531000C86B083800F06EF904E5486B083800F0F7
:1053200069F9F9E4C86A083800F064F9EEE400BFEE
:10533000C0200740802007403C880000C420074070
:105340003515FF1FC8200740CC200740D02007405C
:105350000000FF1F94200740C80040008800400064
:10536000C914FF1F408800004015FF1F3815FF1F9C
:105370003415FF1F606A083800F03CF9C0E4C86FBC
:10538000083800F037F9FDE4486F083800F032F9CA
:10539000F2E4C86E083800F02DF9E7E4486E0838EA
:1053A00000F028F9DCE4C86D083800F023F9D1E4F6
:1053B000486D083800F01EF9C6E4C86C083800F0E3
:1053C00019F9BBE4486C083800F014F9B0E4D1F8DE
:1053D0009C00083800F00EF9ECE4D1F8940008388D
:1053E00000F008F9E0E4D1F88C00083800F002F988
:1053F000D4E4D1F88400083800F0FCF8C8E44FF099
:10540000020EECE62A78C9F8480001322A705AE602
:105410002A78C8F8400001322A703FE72A78C9F894
:10542000680001322A705BE62A78C8F86000013211
:105430002A7061E72A78C9F8880001322A705BE691
:105440002A78C4F8800001322A7010E72A78C9F857
:10545000280001322A7028E62A78C9F82000013293
:105460002A7032E7BEF1400FF44628BF4FF0400CDF
:1054700004EB0C0302930123CCEB0E004FEA0C4823
:105480000022019318E500BF2DE9F04100F03CFF38
:10549000314C324B3248DFF8E480324EDFF8E0C066
:1054A000314F324DDFF8DCE000221A605A609A601A
:1054B000DA601A615A619A61DA611A625A629A6212
:1054C000DA621A635A639A63DA631A645A649A64F2
:1054D000DA641A655A659A65DA651A665A669A66D2
:1054E000DA661A675A679A67DA67C3F88020216814
:1054F000C3F8842041F480212160016841F04071AB
:105500000160032188F80010A020C3F307218CF864
:10551000000004F528343170C3F307401449387093
:105520001B0E2B70CC34FF238EF80030114D0CF87D
:10553000B83C11480B70012306F8083C2270702615
:105540004FF40014102207F82C3C2E70046081F8F0
:10555000F820BDE8F08100BF348004400000FF1F48
:1055600000D800409C200740B0200740B4200740EE
:105570001020074035E400E004E100E0442107404A
:10558000402107408020074000F0A4B800F07CB81C
:1055900000F056B800F090B800F06CB900F046B9D1
:1055A0000846114600F0B2B8084600F033B900BF13
:1055B000704700BF72B60D480268B2FA82F30B2B37
:1055C00010DC4FF00041D94022EA0102026062B6CD
:1055D000074803EBC303DB00C2180021C15010468B
:1055E0005160704762B60020704700BF9008FF1FEF
:1055F000D003FF1F0D4B0E4AC31AA2FB03231B0946
:105600000B2B0CD80B4A127852B972B60A484FF0DD
:105610000041026821FA03F31A43026062B6704740
:10562000064A1278002AF0D0FFF720B9D003FF1FF6
:10563000398EE3383515FF1F9008FF1F4015FF1FF7
:1056400038B50F4D286878B143880288C1180133F6
:1056500093420C7A02D24380204638BDFFF7CAFF3E
:10566000002320462B6038BD064B1B782BB103204E
:10567000FFF7C8F828600028E6D14FF0FF3038BDAA
:105680005415FF1F4015FF1F10B5094C206818B1B5
:1056900043881844007A10BD064B1B782BB10320B9
:1056A000FFF7B0F820600028F2D14FF0FF3010BDB6
:1056B0005415FF1F4015FF1F044B054A1B689088B7
:1056C0001BB11A885B88D31A184470475415FF1F02
:1056D000B018FF1F0B4B1B789BB110B50A4C20680C
:1056E00048B1FFF787FF002303202360FFF78AF804
:1056F00030B1FFF77FFF0320FFF784F80028F8D1CF
:1057000010BD70474015FF1F5415FF1F2DE9F04FC6
:10571000DFF8F89083B0012289F80020019169B385
:10572000DFF8EC80354F019E8346D8F80000B0B317
:10573000334D4488C4F14001B14228BF314604EBE7
:10574000010E00221FFA8EFE2A70761AA0F802E0DF
:1057500000F1080251B1013C224459441BF8014BAD
:1057600002F8014F8B45F9D1B0F802E0BEF13F0FCE
:105770000BD8244A05211170002ED6D101980023A0
:1057800089F8003003B0BDE8F08F40220280014666
:105790000420FFF7CFF80022C8F80020E9E73A78A4
:1057A00022B3194C164D4FF0010A07E0013C16D008
:1057B0002A78A2B900F0AEF83A78BAB10420FFF71F
:1057C0003FF80728F2D889F800A0FFF7F3FEC8F8E1
:1057D00000000028ADD10D4B013C1870E8D1012329
:1057E0004FF0FF302B7003B0BDE8F08F00234FF077
:1057F000FF3089F8003003B0BDE8F08F4015FF1F7F
:105800005015FF1F4815FF1F214801004915FF1FB4
:105810004C15FF1F00B583B002AB012103F8010D49
:105820001846FFF773FF03B05DF804FB38B50E4D63
:105830000E4C28680123237028B140880023237070
:10584000C0F1400038BD0A4B1B7813B9002020700E
:1058500038BD0420FEF7F4FF0728F7D8FFF7AAFEAB
:1058600028600028E9D1F1E74C15FF1F4915FF1FFB
:105870004015FF1FF8B5114B1B788BB1104E114D21
:10588000346801272F7064B10F4A638800271770AE
:10589000214623800420FFF74DF8376000232B704A
:1058A000F8BDFFF787FE084B28B1014604201C70A5
:1058B000FFF740F8F2E71F70F0E700BF4015FF1F49
:1058C0004C15FF1F4915FF1F4815FF1F38B50E4B1C
:1058D0001B7873B90D4C216861B103F0FF054B884B
:1058E0000B800420FFF726F8256038BD084B012205
:1058F0001A7038BDFFF75EFE0028F7D00146BDE8FC
:1059000038400420FFF716B84915FF1F4C15FF1F3C
:105910004815FF1F38B52C4C237803B138BD01233F
:105920002370FFF7C9FE002842D100F0CBF9002810
:105930003BD100F05DFA002834D100F0EFFA70BBE3
:1059400000F068FB40BB00F0E1FB10BB00F05AFC2C
:10595000E0B900232370EFF30583002BDED1EFF3D2
:10596000108172B6194B186828B3194C227812BBF3
:1059700045691D60012323700DB3AA6101B962B6A8
:1059800000254577836898472570C7E700F028F918
:10599000DFE700F023F9D9E700F01EF9D3E700F0C4
:1059A00019F9CDE700F014F9C7E700F00FF9C0E7E7
:1059B000FFF7FEFDB9E70029B0D162B638BD054B4F
:1059C0001D600029DCD1DAE75915FF1F6C15FF1F98
:1059D0007015FF1F6815FF1F10B4EFF3108272B629
:1059E000437F33B9017F012908D0032910D0012357
:1059F000437702B962B65DF8044B7047114C2168D9
:105A0000A1B1114943610B68836108605861EEE7F9
:105A10000E4C216881B10E4943610B6883610860B7
:105A200058610C4B4FF080511960E0E7064B416123
:105A3000816120601860DAE7054B41618161206077
:105A40001860EEE76C15FF1F6815FF1F5C15FF1F40
:105A50006015FF1F04ED00E010B4047F4160022CCC
:105A6000C26003D05DF8044BFFF7B6BF83685DF8F2
:105A7000044B184770B5EFF3108272B60C4C2068D7
:105A800080B10C4E00254369236073B19D6102B95A
:105A900062B6457783689847EFF3108272B6206844
:105AA0000028F0D102B962B670BD3360EFE700BFE5
:105AB0005C15FF1F6015FF1FFFF7DCBF184A30B4ED
:105AC0001468002C27D0036821688B420ED2CB1AB1
:105AD00000218460C1602360E060106002230375D0
