:1000000000000320D10100002D200000E51F0000AA
:10001000E51F0000E51F0000E51F0000E51F0000D0
:10002000E51F0000E51F0000E51F00002D20000077
:100030002D200000E51F00005107000055080000BA
:100040002D2000002D2000002D2000002D2000007C
:100050002D2000002D2000002D2000002D2000006C
:100060002D2000002D2000002D2000002D2000005C
:100070002D2000002D2000002D2000002D2000004C
:100080002D2000002D2000002D2000002D2000003C
:100090002D2000002D2000002D2000002D2000002C
:1000A0002D2000002D2000002D2000002D2000001C
:1000B0002D2000002D2000002D200000D10A00007E
:1000C0002D200000FD0B00002D200000290D000058
:1000D0002D200000210E00002D2000002D2000000A
:1000E0002D2000002D2000002D2000002D200000DC
:1000F0002D2000002D2000002D2000002D200000CC
:100100002D2000002D2000002D2000002D200000BB
:100110002D200000411200002D2000002D200000A5
:100120002D2000002D2000002D2000002D2000009B
:100130002D2000002D2000002D2000002D2000008B
:100140002D2000002D200000190F00002D200000A0
:100150002D2000002D2000002D2000002D2000006B
:100160002D2000002D2000002D2000002D2000005B
:100170002D2000002D2000002D2000002D2000004B
:100180002D2000002D2000002D2000002D2000003B
:100190002D2000002D200000111000002D20000057
:1001A0002D2000002D2000002D2000002D2000001B
:1001B0002D2000002D2000002D2000002D2000000B
:1001C0002D2000002D2000002D2000002D200000FB
:1001D0005C4B4CF2205210B51A804DF628121A8052
:1001E00000BF00BF01F026FF574B4FF030621A608E
:1001F000564A9A60564ADA60564B4FF470021A60BB
:10020000554B564A1A60564B1A78110703D51A787F
:1002100042F008021A70534B5349AA221A70534AEB
:10022000534B8B4204D252F8040F43F8040BF8E707
:10023000504B514900228B4202D243F8042BFAE77B
:100240004E494F4A002352F8230041F8230001335E
:10025000742BF8D14B4B4C4A802103F8011B93427D
:10026000FBD14A4B454A1A60494B8A221A70A3F5C2
:10027000805324225A70A0221A709A799207FCD5D2
:100280009A79D406FCD4434A937903F00C03082BE3
:10029000FAD1414B60221A7002331A78802AFCD1BD
:1002A0003C4B01221A715D225A719A799006FCD555
:1002B0009979384A4906FBD5384B394919600021EC
:1002C000596020231370937903F00C030C2BFAD19F
:1002D000344B354A1A60354A354C136813F4807331
:1002E00003D123604FF4A8531360324B324A1A6093
:1002F00000225A60072243F8042C304AC3F80C2D20
:1003000062B600F01FFB2368DA0705D52C4800F021
:10031000B5FA2C4B2C4A1A602C4B1B785B0609D57E
:10032000284C294B22689A4204D1254800F0A6FAAD
:100330000023236001F02EFF01F082FE00F02EF971
:10034000FEE700BF0E20054030800440823F0400DD
:100350000100002B88ED00E0002008E0030000858C
:1003600002D0074000E00740080CFF1F4C230000AC
:100370003007FF1F080CFF1F5C10FF1F0002FF1F4C
:100380000000000000E400E064E400E008ED00E0AC
:10039000005006400040064001E007404480044011
:1003A0000000060204800440C010070010D0034083
:1003B00014D0034014E000E01FBF02000000202022
:1003C000E9DEFB5D1CE00340A5C3945A00F0074042
:1003D000FFFFFFFFFFFFFFFFFFFFFFFFFFFFFFFF2D
:1003E000FFFFFFFFFFFFFFFFFFFFFFFFFFFFFFFF1D
:1003F000FFFFFFFFFFFFFFFFFFFFFFFFFFFFFFFF0D
:10040000FFFFFFFFFFFFFFFFFFFFFFFFDEF9FFFF23
:1004100010B5054C237833B9044B13B10448AFF33E
:1004200000800123237010BD080CFF1F0000000096
:1004300048230000084B10B51BB108490848AFF32A
:1004400000800848036803B910BD074B002BFBD0A0
:10045000BDE81040184700BF000000000C0CFF1F53
:1004600048230000080CFF1F00000000002202606B
:10047000704700BF704700BF704700BF704700BFA4
:10048000704700BF704700BF704700BF0020704733
:100490000020704700207047002070470020704700
:1004A0004FF0FF30704700BF00207047014B002223
:1004B0001A707047250CFF1F10B5254C2378052BAB
:1004C0000FD8DFE803F01921110A0403FEE72148E1
:1004D000FFF7D6FF0523237010BD1F48FFF7DEFF8F
:1004E000D0B10423237010BD1B48FFF7D3FF0028B1
:1004F000F9D00323237010BD1748FFF7C7FF00286A
:10050000F1D00123237010BD1348FFF7C1FF00286D
:10051000E9D00223237010BD0F48FFF7BDFF40B1A3
:100520000C48FFF7ABFF0C48FFF7B8FF0028FAD0E4
:10053000D7E70948FFF7B4FF0028D4DD0648FFF7E6
:10054000B3FFBDE8104001460248FFF795BF00BF6A
:10055000250CFF1F280CFF1F240CFF1F70B50A4E2F
:100560000A4D0B4C3046FFF78DFF2A4609493046AD
:1005700001F004FE2046FFF779FF2A46204606498F
:10058000BDE8704001F0FABD240CFF1F3007FF1FCB
:10059000280CFF1F890400007504000008B5FFF750
:1005A00085FFFFF789FF00F001F8FAE738B52C4C1A
:1005B000237803B138BD0123237001F071FC0028BA
:1005C00042D100F075FA00283BD100F007FB00286B
:1005D00034D100F099FB70BB00F012FC40BB00F07E
:1005E0008BFC10BB00F004FDE0B900232370EFF397
:1005F0000583002BDED1EFF3108172B6194B18681A
:1006000028B3194C227812BB45691D600123237061
:100610000DB3AA6101B962B6002545778368984792
:100620002570C7E700F028F9DFE700F023F9D9E7E4
:1006300000F01EF9D3E700F019F9CDE700F014F946
:10064000C7E700F00FF9C0E701F0E2FBB9E70029C6
:10065000B0D162B638BD054B1D600029DCD1DAE7A8
:100660002C0CFF1F400CFF1F440CFF1F3C0CFF1FF6
:1006700010B4EFF3108272B6437F33B9017F0129C2
:1006800008D0032910D00123437702B962B65DF880
:10069000044B7047114C2168A1B1114943610B68AB
:1006A000836108605861EEE70E4C216881B10E4904
:1006B00043610B688361086058610C4B4FF08051B7
:1006C0001960E0E7064B4161816120601860DAE75C
:1006D000054B4161816120601860EEE7400CFF1F0F
:1006E0003C0CFF1F300CFF1F340CFF1F04ED00E01B
:1006F00010B4047F4160022CC26003D05DF8044B4B
:10070000FFF7B6BF83685DF8044B184770B5EFF389
:10071000108272B60C4C206880B10C4E00254369E3
:10072000236073B19D6102B962B6457783689847CB
:10073000EFF3108272B620680028F0D102B962B6D9
:1007400070BD3360EFE700BF300CFF1F340CFF1F9C
:10075000FFF7DCBF184A30B41468002C27D00368B8
:1007600021688B420ED2CB1A00218460C1602360C5
:10077000E06010600223037530BC704711688B4243
:10078000144608D3A2685B1A0360002AF6D182607F
:10079000C460A060EEE7D268C2608460E060C568B3
:1007A000CB1A0222A8602360027530BC70478460B7
:1007B000C4601060DEE700BF380CFF1FF8B5224EA2
:1007C00034682CB32368002B3AD1204F1D4604E037
:1007D0003468ECB12368002B32D1A36803B1DD602B
:1007E00020693360036825751B68BB4221D1037FF4
:1007F0004560022BC46020D0FFF73AFF6368002BEE
:10080000E6D023602046FFF7A5FF3468002CE1D135
:10081000EFF3108372B60E4A00211068116003B91D
:1008200062B628B18468FFF795FF20460028F9D109
:10083000F8BD224600219847E0E783689847DDE746
:10084000013B2360E4E700BF380CFF1FF106000006
:10085000480CFF1F024A136801331360FFF7AEBF55
:100860004C0CFF1F704700BF704700BF704700BFB0
:10087000704700BF704700BF704700BF30B4054BE2
:10088000054D064C002210211A602A602060196074
:1008900030BC704714D0034004D0034000D0034064
:1008A0002DE9F843054672B6224F234B234A1B68B5
:1008B0003C68126862B6520102D5322B88BF0134FF
:1008C000B5B3C3F52F3303F21F331D4EDFF8689025
:1008D000DFF868809B084FF47A72A6FB031302FBD3
:1008E00004F404EB930472B6D9F800103A68D8F80F
:1008F00000E062B6C1F52F3303F21F339B08A6FB5D
:1009000003031EF0806FC4EB93034FF47A7002D0A0
:10091000322988BF013200FB0233B3F57A7F04D35A
:10092000013D05D004F57A74DDE7FFF73FFEDAE715
:10093000BDE8F8834C0CFF1F18E000E004ED00E078
:10094000176CC116F8B54E4B4E48DFF85CC14E4CE3
:100950004E49DFF858E14E4E4E4D4F4F4FF000627A
:100960001A604FF080521A604FF000521A604FF038
:1009700080421A604FF000421A6000220260282371
:100980004EF6FF70CCF80000CEF8003023600EF574
:10099000012E0B6033602B6006F500263B6005F5E9
:1009A0000025A36207F500278B6204F5012401F5F9
:1009B000012106F6E87605F6E87507F57F67103140
:1009C0000EF1100E203433602B60CEF800303B6007
:1009D0000B602360314CBB618B6109212160A7F55D
:1009E000002704F58054203F08343A602060BB6043
:1009F000E36047F8041C04F5FD2407F5FE270437DF
:100A000004F2FC7422603860A360FB6044F8041CAC
:100A1000083404F6FC74C7F8FC2F2060A4F5E12428
:100A2000A4F2DC7433602B60C7F8F81F21681C48FF
:100A300041F40071216001681A4C0EF57F4E0EF1F1
:100A4000E80E07F5883706F5803605F5803541F064
:100A500000710160CEF8002047F6FF71082239606E
:100A600033602B60226001F04DFA1920FFF718FF68
:100A700001F04EF940F21310BDE8F840FFF710BF47
:100A800004E100E004800340148003401C80034024
:100A9000248003402C8003403480034000800340C6
:100AA0000480044000900C40088003400C80034008
:100AB000054A064B10781B78C0B2DBB2984238BFAB
:100AC0004030C01A704700BF540CFF1F550CFF1F69
:100AD000F0B4384B1A7912F0300F2CD072B6997DE1
:100AE00001F0FF0200293DD062B6334F3349387818
:100AF0000D78334E1C46C0B2EDB2431C402BE17959
:100B000028BF0023AB4202F1FF32C9B21CBFF1542F
:100B1000184612F0FF02F0D12A4B1B68C2B23A709D
:100B20004BB1A84236BFC5F14005401B40192728EC
:100B3000C4BF01221A701F49CA78D2B2150616D452
:100B400052060DD51B4B1B795B0609D51E4B1F4961
:100B50001B6800220A7003B11A70164B3C22DA702F
:100B6000F0BC70474022D9795A7462B6E3E70B793A
:100B70001C06E5D5164B174E1C783378E4B2DBB271
:100B80009C420ED0144D01E0A3420AD00133402B09
:100B900028BF00230879E85CC0B2C871087D072827
:100BA000F2D9DBB2034933700B79180644BF7C23BA
:100BB000CB70C5E700A00640540CFF1F550CFF1F6B
:100BC000980CFF1F500CFF1FDC0CFF1FD80CFF1FE1
:100BD000E00CFF1FD90CFF1F580CFF1F054A064BE6
:100BE00010781B78C0B2DBB2984238BF4030C01AD0
:100BF000704700BF540DFF1FE90CFF1FF0B4384BC6
:100C00001A7912F0300F2CD072B6997D01F0FF02E4
:100C100000293DD062B6334F334938780D78334ED2
:100C20001C46C0B2EDB2431C402BE17928BF002323
:100C3000AB4202F1FF32C9B21CBFF154184612F0A8
:100C4000FF02F0D12A4B1B68C2B23A704BB1A842E6
:100C500036BFC5F14005401B40192728C4BF0122FB
:100C60001A701F49CA78D2B2150616D452060DD58D
:100C70001B4B1B795B0609D51E4B1F491B680022C5
:100C80000A7003B11A70164B3C22DA70F0BC704740
:100C90004022D9795A7462B6E3E70B791C06E5D590
:100CA000164B174E1C783378E4B2DBB29C420ED060
:100CB000144D01E0A3420AD00133282B28BF0023A2
:100CC0000879E85CC0B2C871087D0728F2D9DBB2A8
:100CD000034933700B79180644BF7C23CB70C5E7FA
:100CE00000B00640540DFF1FE90CFF1F140DFF1F3D
:100CF000E40CFF1F580DFF1FE80CFF1F5C0DFF1FCA
:100D0000550DFF1FEC0CFF1F054A064B10781B7892
:100D1000C0B2DBB2984238BF4030C01A704700BF43
:100D2000640DFF1F650DFF1F30B42B4B1A7994061D
:100D30001FD52A48DA790378294901333F2B0978EE
:100D4000C8BF00238B42D2B203D0264CD9B2E254A2
:100D50000170254A116861B1244A1278D2B29342D7
:100D600036BFC2F140029B1A9B18272BC4BF012338
:100D70000B70194AD378DBB2180611D45A060DD578
:100D8000154B1B795B0609D5194B1A491B680022C4
:100D90000A7003B11A70104B2C22DA7030BC704705
:100DA00011790906EAD5144910480C780178C9B2BE
:100DB0008C420DD04A1C272A84BF00210A460F4DC1
:100DC000054C98BFD1B2AA5CD2B2E2710170D5E7EE
:100DD0006C21D170D2E700BF00C00640640DFF1F38
:100DE000650DFF1F900DFF1F600DFF1FD10DFF1F31
:100DF000D40DFF1FD00DFF1FD80DFF1F680DFF1F63
:100E0000054A064B10781B78C0B2DBB2984238BF57
:100E10004030C01A704700BFE00DFF1FE10DFF1FFB
:100E200030B42B4B1A7994061FD52A48DA79037807
:100E3000294901333F2B0978C8BF00238B42D2B226
:100E400003D0264CD9B2E2540170254A116861B131
:100E5000244A1278D2B2934236BFC2F140029B1AA2
:100E60009B18272BC4BF01230B70194AD378DBB220
:100E7000180611D45A060DD5154B1B795B0609D5FA
:100E8000194B1A491B6800220A7003B11A70104BE3
:100E90002C22DA7030BC704711790906EAD5144962
:100EA00010480C780178C9B28C420DD04A1C272A10
:100EB00084BF00210A460F4D054C98BFD1B2AA5CF1
:100EC000D2B2E2710170D5E76C21D170D2E700BFD8
:100ED00000D00640E00DFF1FE10DFF1F0C0EFF1FAD
:100EE000DC0DFF1F4D0EFF1F500EFF1F4C0EFF1F8E
:100EF000540EFF1FE40DFF1F054A064B10781B78A8
:100F0000C0B2DBB2984238BF4030C01A704700BF51
:100F10005C0EFF1F5D0EFF1F30B42B4B1A79940639
:100F20001FD52A48DA790378294901333F2B0978FC
:100F3000C8BF00238B42D2B203D0264CD9B2E254B0
:100F40000170254A116861B1244A1278D2B29342E5
:100F500036BFC2F140029B1A9B18272BC4BF012346
:100F60000B70194AD378DBB2180611D45A060DD586
:100F7000154B1B795B0609D5194B1A491B680022D2
:100F80000A7003B11A70104B2C22DA7030BC704713
:100F900011790906EAD5144910480C780178C9B2CC
:100FA0008C420DD04A1C272A84BF00210A460F4DCF
:100FB000054C98BFD1B2AA5CD2B2E2710170D5E7FC
:100FC0006C21D170D2E700BF00A00E405C0EFF1F65
:100FD0005D0EFF1F880EFF1F580EFF1FC90EFF1F5B
:100FE000CC0EFF1FC80EFF1FD00EFF1F600EFF1F8D
:100FF000054A064B10781B78C0B2DBB2984238BF66
:101000004030C01A704700BFD80EFF1FD90EFF1F17
:1010100030B42C4B5A6894021FD52B48DA680378F9
:101020002A4901333F2B0978C8BF00238B4204D0E3
:10103000274CD2B2D9B2E2540170264A116861B18C
:10104000254A1278D2B2934236BFC2F140029B1AAF
:101050009B18272BC4BF01230B701A4A93681802F0
:1010600002D55268110211D45A020DD5154B5B6896
:101070005B0209D5194B1A491B6800220A7003B19B
:101080001A70184B00221A6030BC7047164A124979
:1010900010780A78D2B290420DD00132272A84BF4C
:1010A00000200246114D074C98BFD0B2AA5CD2B2C4
:1010B000E2600870D8E70E480A4A00240121046063
:1010C0001160D1E700400C40D80EFF1FD90EFF1F62
:1010D000040FFF1FD40EFF1F450FFF1F480FFF1FF8
:1010E000440FFF1F580188434C0FFF1FDC0EFF1FEA
:1010F0005C01884330B472B62B4A13781D0706D5BD
:101100002A4B196A002936D0996A002941D05378B0
:101110001C0706D5254B196C00293ED0996C002977
:1011200039D09378190705D5204B196E002936D090
:10113000996E89B1D3781B0707D51C4BD3F8802053
:101140007AB3D3F8882011213AB162B6184B002245
:101150001A7030BC00F07EBE0D21154C154D227862
:1011600043F8315003EBC1030830013A5860227054
:1011700062B630BC704704220D4C0F4D217843F805
:10118000325003EBC20308304A1E5860227062B628
:10119000EFE70521E1E70921DFE70822ECE70C2270
:1011A000EAE71022E8E700BFD02200000000FF1F9E
:1011B0002510FF1FC800400088004000431E032B7D
:1011C0001DD81B4A400140F0100030B4104472B6E4
:1011D000184CE25C032A1BD8DFE802F00212151754
:1011E00003220D88E25410F0080F14BFC82388238F
:1011F00043EA054308310360416062B630BC704782
:1012000008300222EDE70522EBE708300422E8E788
:10121000094A52F8230038B1084A52F823004160C5
:1012200042F8231062B6E9E742F82310034AF7E7D1
:101230000000FF1F3410FF1FFC0FFF1F0C10FF1FCB
:101240002DE9F04FDFF80CB3DFF80CA387B044E0D2
:10125000AB4F4FEA930807EBC809013ED9F80420C9
:1012600003F00803F6B2A2F1080003F0FF04002B1C
:1012700040F0028157F838301B0C99B222F8081C54
:10128000002B00F0F0809F4B22F8064C42F8044CF3
:1012900053F82620002A00F0C5829B4D55F82630D1
:1012A00058609A4C45F8260034F81630194424F852
:1012B000161000F0AFFD002800F0AD82944A954B67
:1012C00019F0080F00F1080018BF1346C9F8040010
:1012D00047F8383008238BF800309BF80040E4B220
:1012E00061071AD58C4B1B78A3B18C490A7802F0A0
:1012F000FF0322B1013BDBB20B7003B900BE88498A
:101300000A7802F0FF032AB1013BDBB20B70002B1D
:1013100000F0578204238BF8003004F0080303F038
:10132000FF02002B00F0CC809AF80030DBB21E09DF
:101330008ED19C08DFF8C89159F8342009EBC4011C
:10134000C2F38302013A49680C2A00F28880DFE880
:1013500002F07C7C8686868686864786868607009F
:101360000868704D4A68704F704E286081B240F234
:101370008160674B6A604FF0010E0022814249F89C
:1013800034303A60C9F81020C9F8182086F800E017
:101390005B4C00F2E380B1F5D06F80F04683B1F58D
:1013A000817F00F0FC8200F28D82802900F077833B
:1013B000822940F0FA82A98801F07F01042900F215
:1013C000F4825B485B4C89000844227062700278AA
:1013D000930740F1588484F800E04FF0020E42E396
:1013E000514F3A6832B3544B504E544918883478B0
:1013F0000D784028864645F0020828BF4FF0400E81
:10140000002C84F001043470CEEB00000CBF882463
:10141000C82409EBC80680B285F0010544EA0E44F1
:101420007260188049F8384072440D70002800F04E
:1014300045813A603B4B1A88B2F5A06F0FD100216D
:101440009A7859703E4B1A7009E0364A108842F279
:101450002102904200F037812D4A49F83420394A60
:101460000123137036E72A4A2A4B19F0080F18BFD8
:10147000134647F838302DE700F0ECFC324A334988
:1014800052F82630002B00F0D18158688C5D42F86C
:10149000260003F10802C9F80420032C05D8DFE870
:1014A00004F02C02292602228A551A8819F0080F06
:1014B0000CBF8823C82343EA024347F8383009E7C2
:1014C000E00700F18181210600F1F281A20706D533
:1014D0001F4A204913780220DBB213700870E3061C
:1014E00002D51C4B10221A7007B0BDE8F08F042201
:1014F0008A55DAE705228A55D7E703228A55D4E7C9
:101500000000FF1FA80FFF1F540FFF1F4810FF1FF1
:10151000C8004000880040003010FF1FB90FFF1FB7
:101520003810FF1F1C10FF1F500FFF1FB80FFF1FA9
:10153000C02007402810FF1F640FFF1F2410FF1F4B
:101540009820074094200740FC0FFF1F3410FF1F16
:1015500088200740802007409020074042F2210069
:10156000814200F02A8100F2D880B1F5086F00F0C6
:101570007682B1F5106F40F01882226AB349A878DC
:101580000870120600F13A83D9F82820B0491306F2
:1015900000F10C83D9F83020AD49150600F1018324
:1015A000D9F83820AA49140600F1F682D9F840206B
:1015B000A749100600F14A83D9F84820A449120629
:1015C00000F13F83D9F85020A149130600F134837C
:1015D000D9F858209E49150600F12983D9F86020D2
:1015E0009B49140600F11E83D9F86820984910061B
:1015F00000F11383D9F870209549120600F1088391
:10160000D9F878209249130600F1FD82D9F880209C
:101610008F49150600F13183D9F888208C491406CA
:1016200000F12583D9F890208949100600F119832B
:10163000D9F898208649120600F10D838548864A1C
:10164000864901908648874D874C0497002305966C
:10165000029580460F4616461D460394306828B111
:10166000446800F0F7FB2046002CF9D100233360DA
:10167000029B38681A46002342F8253028B1446896
:1016800000F0E8FB2046002CF9D100223A60019AD4
:1016900098F800301146002241F8042B039A01917A
:1016A000023B4FF0000122F81510032B00F22B81B2
:1016B000DFE813F07001250170012501BEF1400F34
:1016C00018BF0022B5E6694A0D7848781570507049
:1016D0008D78C8789570D07010680D79157186284E
:1016E0004D7989795571917100F09B816049614E06
:1016F0000A78307882F00105002842F002020D706D
:101700000CBF8821C82149F8321009EBC20280F0D1
:1017100001000021307051609EE642F2212081429A
:1017200040F0CB81544B554C5549A8781D68256035
:10173000CDF804E0087000200290804684460446FC
:101740004B490D7845F0020E09EBCE030393019B44
:10175000002B039B5C600CBF8824C82444EA080368
:1017600085F0010449F83E3032700C70DFF8E0E09B
:10177000404BDFF8FC80002840F01E81BCF1400F98
:101780001BD144F0020C09EBCC03029CDFF8C0E053
:101790005C60002A40F02681020442F088029DF835
:1017A00004304EF83C20044433700D70234640282A
:1017B00003D10020334A3B601080334A0123137069
:1017C0004DE600F07BFBA5E5214B2F4828491A6127
:1017D0004FF0020E80F800E02C4F0A702C4919607F
:1017E00099602C4E2C4D2D4C9A610D213970FF21A2
:1017F0003170DFF8B8E029702270294D294A8EF83F
:1018000000109F27012406F8047C5D600470DA60F4
:1018100007B0BDE8F08F244A47F838001378013349
:10182000137057E543F826000E4D3AE58B5D032B08
:1018300000F2F08001A252F823F000BFD5120000A0
:10184000D5120000F9180000F31800003010FF1F37
:101850000000FF1F0C10FF1FA80FFF1FFC0FFF1F32
:101860003410FF1F540FFF1F4810FF1F5010FF1FA1
:101870002410FF1FB80FFF1F4C0CFF1F5810FF1F35
:101880004410FF1F640FFF1F94200740C020074033
:1018900088004000882007408020074098200740AB
:1018A000680FFF1FBC0FFF1F2510FF1F8C20074074
:1018B000C149C24B80220D2008701A70A2077FF523
:1018C0000EAE05E640F20232914240F0EE80A98869
:1018D00001F07F01042968D86A88002A65D1B648DA
:1018E000CDF804E089000844017841F0020101705C
:1018F00021E701238B55EDE400238B55EAE44FF0FB
:10190000010388F800300135042D06F1040607F1C3
:10191000040708F101087FF4A1AEA94CA94B227875
:10192000A94D049F059E002129701A70130700F12C
:1019300005816278A549DFF8A0820A7010074FF090
:101940000001C9F83010C9F8381000F1E080A04952
:10195000A2780A700021C9F85010C9F85810110770
:10196000DFF8748200F10181E2789A499A4C0A709A
:1019700000211207C9F87010C9F8781000F1B08082
:1019800033780193002183F00102C9F89010C9F85F
:101990009810D0E64FF0000388F80030B3E7A9882C
:1019A00001F07F01042940F28D80834A0F231370D8
:1019B0008A4A0123137052E540287FF6E2AE44F0D4
:1019C00002040EEBC401029E4E60BAB19DF80410F1
:1019D000834A19703346403888F8005040334EF837
:1019E0003420E7E69DF8043033700204029B0D704A
:1019F00042F0C80203444EF83C20D8E69DF804109B
:101A00001970029B774A88F80050403840334EF8EE
:101A10003420CFE619F0080F0CBF022303238B55A7
:101A200058E4714A0F21117060E6704A5468002C26
:101A3000BBD06888B5F804E003E00C325468002C91
:101A4000B3D013888342F8D153887345F5D1000A87
:101A500003280CBF94F800E0B2F808E003E0644A01
:101A6000644C12782270E888704580F03F816249AA
:101A70000D784028844645F0020E28BF4FF0400CF8
:101A800004EB0C0309EBCE02029301235460CCEB70
:101A900000004FEA0C4800220193C8245EE6554C32
:101AA0004FF0020E22706270DDE7B1F5A06F7FF497
:101AB0007CAF0123002201933DE642F221329142A4
:101AC000F7D072E76A88002A7FF46FAF3A48CDF802
:101AD00004E089000844017821F0020101702AE63F
:101AE00000F098F9002800F0EF8008303D4AC4F873
:101AF0008400C4F8802000F08DF9002800F0DE801A
:101B00000830374AC9F88C00C9F8882038E700F057
:101B100081F9002800F0C0800830324AC8F844003B
:101B2000C8F8402000F076F9002800F0AF800830B7
:101B30002B4AC9F84C00C9F8482008E700F06AF9B8
:101B4000002800F0CD800830264AC9F82400C9F8E2
:101B5000202000F05FF9002800F0BC800830204A07
:101B6000C9F82C00C9F82820E3E600F053F9002852
:101B700000F09E8008301B4AC8F86400C8F8602056
:101B800000F048F9002800F08D800830144AC9F8A8
:101B90006C00C9F86820E7E6C86B083800F05AF90D
:101BA00004E5486B083800F055F9F9E4C86A0838CC
:101BB00000F050F9EEE400BFC0200740802007404D
:101BC000D0220000C42007402510FF1FC820074076
:101BD000CC200740D02007400000FF1F9420074082
:101BE000C800400088004000B90FFF1FD422000049
:101BF0003010FF1F2810FF1F2410FF1F606A0838D5
:101C000000F028F9C0E4C86F083800F023F9FDE4BB
:101C1000486F083800F01EF9F2E4C86E083800F08A
:101C200019F9E7E4486E083800F014F9DCE4C86DEF
:101C3000083800F00FF9D1E4486D083800F00AF9CF
:101C4000C6E4C86C083800F005F9BBE4486C0838F5
:101C500000F000F9B0E4D1F89C00083800F0FAF880
:101C6000ECE4D1F89400083800F0F4F8E0E4D1F89E
:101C70008C00083800F0EEF8D4E4D1F8840008387D
:101C800000F0E8F8C8E44FF0020EECE62A78C9F854
:101C9000480001322A705AE62A78C8F8400001321A
:101CA0002A703FE72A78C9F8680001322A705BE69B
:101CB0002A78C8F8600001322A7061E72A78C9F8EA
:101CC000880001322A705BE62A78C4F8800001326D
:101CD0002A7010E72A78C9F8280001322A7028E60D
:101CE0002A78C9F8200001322A7032E7BEF1400F8D
:101CF000F44628BF4FF0400C04EB0C030293012381
:101D0000CCEB0E004FEA0C480022019318E500BF0F
:101D10002DE9F04100F0CAF9314C324B3248DFF87E
:101D2000E480324EDFF8E0C0314F324DDFF8DCE0C6
:101D300000221A605A609A60DA601A615A619A61E8
:101D4000DA611A625A629A62DA621A635A639A63B1
:101D5000DA631A645A649A64DA641A655A659A6591
:101D6000DA651A665A669A66DA661A675A679A6771
:101D7000DA67C3F880202168C3F8842041F4802109
:101D80002160016841F040710160032188F8001072
:101D9000A020C3F307218CF8000004F5283431702B
:101DA000C3F30740144938701B0E2B70CC34FF234B
:101DB0008EF80030114D0CF8B83C11480B7001231F
:101DC00006F8083C227070264FF40014102207F821
:101DD0002C3C2E70046081F8F820BDE8F08100BF33
:101DE000348004400000FF1F00D800409C200740C2
:101DF000B0200740B42007401020074035E400E041
:101E000004E100E0442107404021074080200740D2
:101E1000704700BF72B60D480268B2FA82F30B2B0E
:101E200010DC4FF00041D94022EA0102026062B6A4
:101E3000074803EBC303DB00C2180021C150104662
:101E40005160704762B60020704700BF3407FF1F23
:101E5000D003FF1F0D4B0E4AC31AA2FB03231B091D
:101E60000B2B0CD80B4A127852B972B60A484FF0B5
:101E70000041026821FA03F31A43026062B6704718
:101E8000064A1278002AF0D0FFF734B9D003FF1FBA
:101E9000398EE3382510FF1F3407FF1F3010FF1F56
:101EA000044B054A1B6890881BB11A885B88D31ABB
:101EB000184470474010FF1F4810FF1F38B50E4BE5
:101EC0001B7873B90D4C216861B103F0FF054B8895
:101ED0000B800420FFF772F9256038BD084B012202
:101EE0001A7038BDFFF796FF0028F7D00146BDE80D
:101EF00038400420FFF762B93910FF1F3C10FF1F64
:101F00003810FF1F30B42948294A2A4B2A4D602433
:101F1000E121047011701B78284C082B30D00A2B5B
:101F20002748284937D00C2B0CBF35225D221223BD
:101F30002A60236002600B60234B24491B78244AEB
:101F4000BBB101230B601360224B23491B78234A4A
:101F5000012B26D9042B0FD9082B1ED9102B94BF87
:101F6000862387230B6013601D4B01221A7030BC3F
:101F700070470B601360E7E784230B601360F3E79F
:101F800000F58E200F490830212213232A60236098
:101F900002600B60D0E73922F7E785230B601360FE
:101FA000E2E780230B601360DEE700BF00400740DC
:101FB000014007403807FF1F08B003400CB0034042
:101FC00008B00B400CB00B404610FF1F20B0034080
:101FD00020B00B403907FF1F24B0034024B00B4052
:101FE0004510FF1F08B5104C08E0236859050DD4B3
:101FF00023681A050FD42368DB0411D4236858031F
:10200000F3D5FFF71DF923685905F1D5FEF760FDFB
:1020100023681A05EFD5FEF7F1FD2368DB04EDD543
:10202000FEF782FEEAE700BF3480044008B5FFF700
:10203000D9FF00BF014B10221A80704700200540D5
:10204000704700BF084A1378802B01D000207047EA
:102050000649074B07480860002119701378802B48
:10206000FCD00120704700BF03E0074044800440DB
:1020700001E0074000002822094A1378012B01D013
:102080000020704703F1804303F5FC2360211970A1
:102090001378802BFCD1034B034A1A600120704750
:1020A00003E00740448004400000060210B584B0FD
:1020B00072B6FFF7C7FF184A184B19491160702212
:1020C00080211A701A46197013781B06FCD5154B1F
:1020D0001C68FFF7D1FF62B6134B9C429CBF04EB18
:1020E000840464002046114C01A90A2200F020F863
:1020F00001A92046002311F8012B01333AB10A2B24
:1021000020F8022FF7D11623237004B010BD5B0016
:10211000DBB2237004B010BD040002400000024096
:10212000000007410C0002407F969800C807FF1F7F
:10213000F0B44D1E2E46002400E00134B0FBF2F353
:1021400002FB1300092800F130078ABF3730F8B2CC
:10215000C0B206F8010F1846002BEED10A195370D1
:102160004CB1107815F8016F28700133E01A8342E2
:1021700002F80169F5DB0846F0BC70470B460146E2
:10218000184600F001B800BF13460A460146022077
:1021900000F028B870B50F4E0F4D761BB61018BF63
:1021A000002405D0013455F8043B9847A642F9D1E4
:1021B0000A4E0B4D761B00F0B9F8B61018BF00247C
:1021C00006D0013455F8043B9847A642F9D170BDBA
:1021D00070BD00BF382300003823000044230000F6
:1021E000382300002DE9F047254C2568D5F84841F3
:1021F0000646884692469946C4B360681F2817DC95
:10220000431C76B104EB80050122C5F888A0D4F800
:10221000881182401143022EC4F88811C5F8089134
:102220001ED00230636044F820800020BDE8F087B3
:10223000144B03B34FF4C870AFF300800446D0B121
:10224000D5F84831002780E88800C5F8484138466D
:102250000123C4F88871C4F88C71002EE1D0D1E755
:10226000D4F88C110A43C4F88C21DAE705F5A6747A
:10227000C5F84841C1E74FF0FF30BDE8F08700BF27
:102280002823000000000000024B13B1024800F0B8
:1022900005B8704700000000A92200000023014695
:1022A0001A461846FFF79EBF38B5074D074C2C1B42
:1022B000A41005D0013C55F8043D9847002CF9D1F5
:1022C000BDE8384000F03EB800000000000000000B
:1022D00000151915000100003C07FF1F1200000047
:1022E000000200006807FF1F430000000003000019
:1022F000C407FF1F00000000010309045007FF1F6F
:102300000000000002030904AC07FF1F00000000EA
:1023100003030904C807FF1F0000000000000000BD
:102320000000000000000000E007FF1FF8B500BF3C
:10233000F8BC08BC9E4670478922000035040000A6
:042340005D05000037
:04234400F8B500BF29
:0823480034FEFF7F01000000DC
:1023500000000000FFFFFFFF0A040000120110014F
:1023600002000040C016830477020102030100004E
:1023700018035400650065006E0073007900640066
:10238000750069006E006F0009024300020100C081
:1023900032090400000102020100052400100105B9
:1023A0002401010104240206052406000107058218
:1023B0000310004009040100020A000000070503A1
:1023C000024000000705840240000000160355008B
:1023D0005300420020005300650072006900610054
:1023E0006C000000040309040C030000000000005E
:1023F00000000000000000000000000000000000DD
:1024000000000000CC0AFF1F340BFF1F9C0BFF1FB6
:1024100000000000000000000000000000000000BC
:1024200000000000000000000000000000000000AC
:10243000000000000000000000000000000000009C
:10244000000000000000000000000000000000008C
:10245000000000000000000000000000000000007C
:10246000000000000000000000000000000000006C
:10247000000000000000000000000000000000005C
:10248000000000000000000000000000000000004C
:10249000000000000000000000000000000000003C
:1024A000000000000000000001000000000000002B
:1024B0000E33CDAB34126DE6ECDE05000B000000F0
:1024C000000000000000000000000000000000000C
:1024D00000000000000000000000000000000000FC
:1024E00000000000000000000000000000000000EC
:1024F00000000000000000000000000000000000DC
:00000001FF
