:1000000000000320D1010000C92800008128000061
:10001000812800008128000081280000812800003C
:10002000812800008128000081280000C9280000E4
:10003000C928000081280000A53F0000A940000059
:10004000C9280000C9280000C9280000C9280000EC
:10005000C9280000C9280000C9280000C9280000DC
:10006000C9280000C9280000C9280000C9280000CC
:10007000C9280000C9280000C9280000C9280000BC
:10008000C9280000C9280000C9280000C9280000AC
:10009000C9280000C9280000C9280000C92800009C
:1000A000AD100000B9100000C9280000C9280000E8
:1000B000C9280000C9280000C9280000D14100005B
:1000C000C9280000FD420000C928000029440000A2
:1000D000C928000021450000C9280000C9280000E7
:1000E000C9280000C9280000C9280000C92800004C
:1000F000C9280000C9280000C9280000C92800003C
:10010000C9280000C9280000C9280000C92800002B
:10011000C9280000A52E0000C9280000C928000039
:10012000C9280000C9280000C9280000C92800000B
:10013000C9280000C9280000C9280000C9280000FB
:10014000C9280000C928000019460000C92800007D
:10015000C9280000C9280000C9280000C9280000DB
:10016000C9280000C9280000C5100000C9280000E7
:10017000C9280000C9280000C9280000C9280000BB
:10018000C9280000C9280000C9280000C9280000AB
:10019000C9280000C928000011470000C928000034
:1001A000C9280000C9280000C9280000C92800008B
:1001B000C9280000C9280000C9280000C92800007B
:1001C000C9280000C9280000C9280000C92800006B
:1001D0005C4B4CF2205210B51A804DF628121A8052
:1001E00000BF00BF02F074FB574B4FF030621A6043
:1001F000564A9A60564ADA60564B4FF470021A60BB
:10020000554B564A1A60564B1A78110703D51A787F
:1002100042F008021A70534B5349AA221A70534AEB
:10022000534B8B4204D252F8040F43F8040BF8E707
:10023000504B514900228B4202D243F8042BFAE77B
:100240004E494F4A002352F8230041F8230001335E
:10025000742BF8D14B4B4C4A802103F8011B93427D
:10026000FBD14A4B454A1A60494B8A221A70A3F5C2
:10027000805324225A70A0221A709A799207FCD5D2
:100280009A79D406FCD4434A937903F00C03082BE3
:10029000FAD1414B60221A7002331A78802AFCD1BD
:1002A0003C4B01221A715D225A719A799006FCD555
:1002B0009979384A4906FBD5384B394919600021EC
:1002C000596020231370937903F00C030C2BFAD19F
:1002D000344B354A1A60354A354C136813F4807331
:1002E00003D123604FF4A8531360324B324A1A6093
:1002F00000225A60072243F8042C304AC3F80C2D20
:1003000062B602F03FFC2368DA0705D52C4802F0FC
:10031000BBFB2C4B2C4A1A602C4B1B785B0609D577
:10032000284C294B22689A4204D1254802F0ACFBA4
:100330000023236006F09CF902F0D0FA02F0FEF9E7
:10034000FEE700BF0E20054030800440823F0400DD
:100350000100002B88ED00E0002008E0030000858C
:1003600002D0074000E007402813FF1F54B20000EE
:100370003007FF1F2813FF1FB818FF1F0002FF1FC1
:100380000000000000E400E064E400E008ED00E0AC
:10039000005006400040064001E007404480044011
:1003A0000000060204800440C010070010D0034083
:1003B00014D0034014E000E01FBF02000000202022
:1003C000E6AD075E1CE00340A5C3945A00F0074069
:1003D000FFFFFFFFFFFFFFFFFFFFFFFFFFFFFFFF2D
:1003E000FFFFFFFFFFFFFFFFFFFFFFFFFFFFFFFF1D
:1003F000FFFFFFFFFFFFFFFFFFFFFFFFFFFFFFFF0D
:10040000FFFFFFFFFFFFFFFFFFFFFFFFDEF9FFFF23
:1004100010B5054C237833B9044B13B10448AFF33E
:1004200000800123237010BD2813FF1F000000006F
:1004300050B20000084B10B51BB108490848AFF393
:1004400000800848036803B910BD074B002BFBD0A0
:10045000BDE81040184700BF000000002C13FF1F2C
:1004600050B200002813FF1F0000000000220260AD
:10047000704700BF704700BF704700BF10B5042130
:10048000044602F077FA204610BD00BF08B50348C5
:1004900001F0C8F8024B83ED000A08BD4813FF1FA6
:1004A0003407FF1F08B5094B1868032380F8A830EC
:1004B00001F012FE00B908BD1A21054803F09CFBAB
:1004C0000448BDE8084002F013B900BF4413FF1F01
:1004D000CCA900008008FF1F08B5094B186800234D
:1004E00080F8A83001F0F8FD00B908BD1B210548CF
:1004F00003F082FB0448BDE8084002F0F9B800BFF1
:100500004413FF1FE8A900008008FF1F10B5072152
:100510000F4803F071FB0F4802F0EAF80E4A0F484B
:10052000772100F0C7FF044640B119210C4803F0C1
:1005300063FB084802F0DCF8204610BD182109488A
:1005400003F05AFB034802F0D3F8204610BD00BF69
:1005500004AA00008008FF1FA407FF1F4813FF1F05
:1005600028AA00000CAA000082B0F8B52DED028B7D
:100570001E4C08AD85E80C000646D4E9000106F0E3
:100580001BF80746D4E9020106F016F8184B93ED64
:10059000000AFFEE007AB4EE670AF1EE10FA0546A3
:1005A00019D0204601F04CF8B0EE408A09970A9520
:1005B0008DED0B8A08AD0FCD34460FC40FCDBDECC9
:1005C000028B0FC495E8030084E803003046BDE8C1
:1005D000F84002B07047352106489DED0B8A03F0C4
:1005E0000BFB054802F084F8E0E700BF4813FF1F4B
:1005F0003407FF1F44AA00008008FF1F82B02DE9C6
:10060000F04385B006460CA92C480F9C81E80C00ED
:1006100000F0BCFF002848D0284800F0F7FF27482A
:1006200010EE107A00F0FEFF254B10EE105A93EDFD
:10063000000AFFEE007AB4EE670AF1EE10FA2CD051
:100640001E4800F0FDFF10EE104A384605F090FC01
:1006500080462046894605F08BFCCDE902012846FC
:1006600005F086FC4246CDE900014B461549164887
:1006700002F056F80E950F940D970CAD0FCD344641
:100680000FC40FCD0FC495E8030084E80300304683
:1006900005B0BDE8F04302B0704735210B4803F0C8
:1006A000ABFA094802F024F8CFE71C21084803F010
:1006B000A3FA054802F01CF8AEE700BF4813FF1F7D
:1006C0003407FF1F9CAA00008008FF1F44AA0000F7
:1006D0007CAA0000014B0360704700BFACA900007A
:1006E0004FF0FF31014800F0CFBE00BF4813FF1F9D
:1006F000704700BF704700BF82B0F0B404AC84E81C
:100700000C008F6FCE6F8D6ECC6E0A6F4B6F0A969A
:100710000B950C9409970D92089304AD06460FCDE6
:1007200034460FC40FCD0FC495E8030084E80300DE
:100730003046F0BC02B0704710B5B021044602F05C
:1007400019F9204610BD00BF82B0F0B50E1D8FB064
:100750000C4614AD18310746304685E80C0001F010
:1007600099FF1A22314608A801F014FF04F19805F8
:1007700008AA04F18003F2E80201E3E80201AB42B7
:10078000F9D1D4E9200105F017FF6067D4E922010F
:1007900005F012FFA067D4E9240105F00DFF08223F
:1007A000E067314608A801F0F5FE08AB04F1B0029D
:1007B000F3E80201E5E802019542F9D1D4E9260106
:1007C00005F0FAFEA066D4E9280105F0F5FEE06622
:1007D000D4E92A0105F0F0FE16AE20670FCE6D4673
:1007E0000FC596E80F0085E80F00236821465C6876
:1007F00014AB38460CCBA04738460FB0BDE8F040EC
:1008000002B0704710B50B210446054803F0F4F917
:10081000044801F06DFF201DBDE8104001F0C2BD8D
:10082000BCAA00008008FF1F10B50C210446054833
:1008300003F0E2F9044801F05BFF201DBDE8104021
:1008400001F08EBDC8AA00008008FF1F70B50646E3
:10085000051D0A240C21284601F0FAFD3C2150B95F
:100860000D4803F0C9F90D4801F042FF642002F081
:1008700037F9013CEED12846012101F03FFD20214E
:10088000074803F0B9F9054801F032FF33683046F4
:10089000DB689847002070BDFCAA00008008FF1F9D
:1008A000D8AA0000F0B5224F224B0446002587B09D
:1008B00040F8043B28223B464FF0FF3101F0F8FCA2
:1008C0003B46C4F880502822C4F88450C4F88850AD
:1008D000C4F88C50C4F89050C4F894503721C4F830
:1008E000985001A8C4F89C50C4F8A050C4F8A45073
:1008F000C4F8A850C4F8AC5001F0DAFC03989DF895
:1009000008709DF8096004999DF81420E0600023A8
:10091000204684F83C502772667221612275A366D6
:10092000E36623676367A367E36707B0F0BD00BFB3
:10093000A407FF1F44AB0000704700BF704700BF13
:10094000704700BF08B50721054803F055F9054871
:1009500001F0CEFE4FF47A70BDE8084002F0C0B856
:1009600060AB00008008FF1F70B50A4E0A4D0B4CAB
:100970003046FFF7E1FF2A460949304603F07CFF85
:100980002046FFF773FD2A4620460649BDE8704021
:1009900003F072BF3814FF1F3007FF1F3C14FF1F06
:1009A0003D0900007504000010B542F21070AEB0B1
:1009B000134C02F095F80821124803F01DF9204667
:1009C00001F096FE104B1148002209211A7003F025
:1009D00013F9204601F08CFE02A8FFF763FF01A87F
:1009E000FFF778FE01AA02A90948FFF7A9FF01A8AD
:1009F000FFF742FD02A8FFF77DFE2EB010BD00BF3D
:100A00008008FF1F68AB00003914FF1F74AB0000A3
:100A10003814FF1F0020704790F8392090F83800F4
:100A2000101A704790F8383090F839209A4205D95A
:100A30005A1C034480F83820187E70474FF0FF306E
:100A4000704700BF90F8383090F839209A4286BF3E
:100A50001B18187E4FF0FF30704700BF704700BF73
:100A600038B50546B0F85E0090B195F85D30144693
:100A7000C3F1210294420CD805F13B0018442246F0
:100A800001F064FE95F85D30234485F85D30204622
:100A900038BD012014462871EEE700BFB0F85E3083
:100AA0006BB190F85D30202B07D8C218013380F865
:100AB0005D30012082F83B10704701230371002054
:100AC000704700BF0023426980F8383080F8393021
:100AD00080F85C3080F85D3080F85E3080F85F3000
:100AE00006CA30B40D68046943662A4383660A6007
:100AF000A370426990F861301649146813441D7A56
:100B00005B7B01EBC5051B026D6803F4E06343F0FA
:100B100064032B6090F8623013449D7CDB7D01EB15
:100B2000C5011B02496803F4E06343F064030B60F2
:100B300021685368194205D003692C225A70036951
:100B400004229A71036920225A71036980229A70E3
:100B500030BC70477CAC000038B50269D478E4B290
:100B6000E106054624D51023D37063061FD504F093
:100B7000040404F0FF03002C5AD042496A6E00239B
:100B80000B7085F85D30002A66D0904795F85D308F
:100B9000002B61D02B69D0229A702B6995F83B20ED
:100BA0001A712B69012285F85C200222DA7038BDA7
:100BB00004F0400303F0FF00002BD8D19379DBB29F
:100BC00003F0600160294ED0937803F0100303F026
:100BD000FF01B3B114F0010437D195F85C3095F8FA
:100BE0005D1099424BD9591C2B4485F85C1093F841
:100BF0003B3013712B69D0229A702B690222DA7074
:100C0000D5E785F86010937943F0200393712B6941
:100C100095F839101A791F29D2B2C6D81948007828
:100C20000028C2D06818013185F839100276BCE777
:100C30002A6985F83930C02393702B69114A1979D4
:100C4000012111700222DA70B1E7C02393702B6981
:100C50001A790222DA70AAE70122002385F85D20C2
:100C600085F83B3096E703F0DF039371AB6E23B159
:100C700085F8380095F8390098472A69A4E7147177
:100C8000B8E700BF4014FF1F2DE9F047374FDFF8EA
:100C9000E0903B68026982B006460093DDF8008070
:100CA00000214FF49675D3789B065BD53B68019382
:100CB000019BC8EB03030F2BF5D949B1102BF2D0E0
:100CC00000209070336980229A7002B0BDE8F087EE
:100CD000726996F8613013440521187A01F0FAFE22
:100CE000726996F861301344012193F812A05046BE
:100CF00001F0F0FE09240021504601F0D7FE2B46FA
:100D0000013BFDD10121504601F0D0FE2B46013BB5
:100D1000FDD1013CEFD1706996F8611001444FF4A8
:100D200016720C7A4B7B09EBC4011B02496803F471
:100D3000E06343F064030B6096F862300344997CEF
:100D4000DB7D09EBC1011B02496803F4E06343F05A
:100D500064030B60013AFDD13269D3789B064FF0F2
:100D60000101A3D4012002B0BDE8F0874C14FF1F9D
:100D70007CAC0000F0B503691222DA700269937846
:100D800003F0200385B004460D46002B5ED0B4234B
:100D900093703C4922690B680093009E05E00B6844
:100DA0000193019B9B1B042B42D8D37803F02003B3
:100DB00003F0FF00002BF2D094F85D30002B31D00F
:100DC0004FF0000E4FF0020C04EB0E0393F83B3093
:100DD00013710B680393039F206907E09B060DD5F1
:100DE0000B680293029BDB1B052B28D8C378DBB270
:100DF00003F0020202F0FF06002AEFD080F803C0E1
:100E00002669F378DBB2DF0632462DD49F062BD558
:100E1000DB0731D40EF1010E94F85D305FFA8EFEDF
:100E20007345D1D800201DBB002384F85E3004E058
:100E30009070236980229A70042005B0F0BD8670FE
:100E40002369802204209A7005B0F0BD03F0FF06EC
:100E5000FFF71AFF10B9042005B0F0BD236984F82C
:100E60005F60B0229A7094E78023B3700420DAE7C1
:100E700026698023B370D7E7BEF1000F0CBF0220B4
:100E80000320F6E74C14FF1F2DE9F0410669002509
:100E9000122780F8385080F83950F770D0F810C019
:100EA0009CF802E00EF0200E88B0044688461546F5
:100EB0001E46BEF1000F49D0B4238CF802307A4BA5
:100EC00021691A680092DDF800E006E01A680192D4
:100ED0000198CEEB0000042830D8C87800F020003C
:100EE00000F0FF070028F1D04FEA480242F001026B
:100EF000D2B20A711A680292DDF808E0206906E0B1
:100F00001A6803920399CEEB010105292AD8C1780A
:100F100001F0020101F0FF070029F1D04FF0020CAF
:100F200080F803C02269D17811F0110722D12DBBBE
:100F3000002E0CBFA0238023937003E08F702369E1
:100F400080229A70384608B0BDE8F0810EF0FF07A5
:100F5000FFF79AFE0028F5D0236984F85F70B0226D
:100F60009A70ACE787702369802238469A7008B07F
:100F7000BDE8F081802393700027E3E7012D78D04E
:100F8000A021917021690A79BE4667464FF0A80CEE
:100F90001A680492049805E01A680592059A121AD4
:100FA000052A4DD8CA7802F0020202F0FF08002A92
:100FB000F2D0CF702169CA78D2B212F0100F084671
:100FC0005DD192065BD5013DEDB2012D4CD0BEF155
:100FD0001F0F3ED90A79012DDAD11A680692069DB3
:100FE00005E01A680792079A521B052A56D8C2785C
:100FF00002F0020202F0FF01002AF2D00223C370C5
:101000002269D378DBB2D9063BD49B0637D5B0230F
:10101000BEF11F0F937043D8226904EB0E031279BF
:101020001A760EF1010E5FFA8EFE00BF00BF00BF00
:1010300016B1236980229A7084F839E0774681E7F7
:1010400081F80280236980229A70774684F839E01B
:1010500078E704EB0E0291F8048082F818800EF114
:10106000010E5FFA8EFEB6E781F802C021690846DC
:10107000ADE7A82191702069BE460279ADE77746B9
:1010800060E710214FF49673D170013BFDD12269C6
:10109000937803F0F7037746937053E78170D1E7B5
:1010A00023691B79C1E700BF4C14FF1F0148FFF7FC
:1010B00053BD00BFA407FF1F0148FFF74DBD00BF90
:1010C0001008FF1F0148FFF747BD00BF3807FF1F8B
:1010D00001F006BDF8B5114E3468400084F83B00BD
:1010E0002568012084F85E0084F85D001F462046D4
:1010F0002B68144698475FB17D1EADB2013525447B
:10110000306814F8011B03681B689847AC42F7D19C
:1011100030680121FFF72EFE0020F8BD4414FF1FA8
:101120002DE9F0471E4E96F900305A1C2AD0DFF800
:1011300078A0DFF8789047B2072500244FF0010827
:1011400001E096F90030D8B2002101F0AFFC08FAB6
:1011500005F13940C9B29AF8000001F0A7FC01215D
:10116000307801F0A3FC99F8000001F0A5FC6400C0
:10117000E4B2013D08B144F001046B1CE1D120460A
:10118000BDE8F087074B1A684FF00043D362506305
:10119000D36A002BFCDA906BC0B2BDE8F08700BFC9
:1011A0004114FF1F3C09FF1F4814FF1F4214FF1F7B
:1011B0000D4AD37A1946B3B1D80703D50B49D06984
:1011C000086019469B0703D5094B106AD17A18604D
:1011D000480703D5074B506AD17A18600B0702D530
:1011E000054B926A1A6070473C09FF1F00E100E05E
:1011F00004E100E008E100E00CE100E02DE9F84343
:10120000244D2C68460084F83B6080460126206807
:1012100084F85E6084F85D60D0F8009020461F4638
:101220001446C84731462868FFF7A4FD33464146B7
:10123000FAB22868FFF728FE80B2874202D0304613
:10124000BDE8F8837E1EB6B2FFB10136124F2644C8
:1012500010E090F8383090F839209A4203F1010EEE
:1012600000EB030114D980F838E0087E04F8010B84
:10127000A6420AD0286803685B69BB42E9D0984758
:10128000C0B204F8010BA642F4D10020BDE8F883F7
:10129000FF20EBE74414FF1F250A00002DE9F84367
:1012A000314E96F900500135074689461446984656
:1012B00021D00021384601F0F9FB08F1FF354846FE
:1012C000FFF72EFFADB2B8F1000F07D0013525446E
:1012D00014F8010BFFF724FFA542F9D1384601218C
:1012E00001F0E4FB96F90030013301D1FFF760FF14
:1012F0000020BDE8F8831D4BDA7A02B372B6D97AC2
:10130000CD070A4606D51A48DA6805682A40DA6128
:1013100002600A46880706D5164819690568DA7A10
:10132000294019620160510706D5134859690568BB
:10133000DA7A29405962016012070DD462B61B683F
:101340000E4AD9689142B4D00D4919600D480E4932
:10135000DA6018611960ACE70C499A6908680240C4
:101360009A620A60EAE700BF4114FF1F3C09FF1FB1
:1013700080E100E084E100E088E100E00540003821
:1013800001403F000540007800003F808CE100E014
:101390002DE9F843324E96F900500135074689464B
:1013A0001446984623D00021384601F07FFB08F10F
:1013B000FF3549F08000FFF7B3FEADB2B8F1000F82
:1013C00008D0013525440020FFF7AAFE04F8010BE0
:1013D000A542F8D13846012101F068FB96F90030AA
:1013E000013301D1FFF7E4FE0020BDE8F8831D4B77
:1013F000DA7A02B372B6D97ACD070A4606D51A4808
:10140000DA6805682A40DA6102600A46880706D56C
:10141000164819690568DA7A29401962016051078E
:1014200006D5134859690568DA7A2940596201607E
:1014300012070DD462B61B680E4AD9689142B2D029
:101440000D4919600D480E49DA6018611960AAE764
:101450000C499A69086802409A620A60EAE700BF8C
:101460004114FF1F3C09FF1F80E100E084E100E020
:1014700088E100E00540003801403F000540007869
:1014800000003F808CE100E070B4074E074D084C2F
:1014900001770022FF21317029702170026282746D
:1014A0004274027470BC70474814FF1F4214FF1F3F
:1014B0004114FF1F38B5044690F91C002175451CE6
:1014C0003BD0C0B2012101F0F1FA207F012101F0EF
:1014D00001FB244B93F90000431C3ED0C0B2012114
:1014E00001F0F8FA204B0121187801F0F3FA1F4BB4
:1014F0000021187801F0EEFA217F1D4A1D4B84F877
:101500002910002184F82A10E26223631A4B6363D6
:1015100004F1280000F096FC08B1002038BD01233A
:1015200084F8D40084F8D30084F8D50084F8D0304F
:101530006074A0742074184638BD104B10460D46D8
:101540001A60FFF7BFFA01210D4A0E4B84F82950AB
:1015500084F82A10E2622363D8E70B4803F02CFAE0
:10156000CAE700BF4114FF1F4814FF1F4214FF1FAA
:10157000911300009D120000D11000004414FF1FC1
:10158000FD110000D51000003C09FF1FF0B5417CA3
:10159000827C044600294FF0010380F8D23085B0E8
:1015A00015BF262006202421042184F8D1300AB159
:1015B00041F01200237C0BB140F04000E37C0BB102
:1015C00040F0800004F12805294600F0A1FA10B18E
:1015D000002005B0F0BD012384F8D030284600F08B
:1015E0007BFD0028F4D12A466946032000F0F4FD73
:1015F000DDE90067DDE90223B0FA80F04009C4E9C3
:101600000067C4E9022305B0F0BD00BF10B5044671
:10161000FFF7BCFFD4E9000104F0CEFF00EE100A92
:1016200010BD00BF10B50446FFF7B0FFD4E90201BA
:1016300004F0C2FF00EE100A10BD00BFFFFFFFFF65
:1016400010B504462DED028BB0EE408AFFF79EFFE9
:10165000D4E9020104F0B0FF9FED157A06EE900A7E
:10166000C6EE877A87EE887A17EE100A04F080FCBF
:101670009FED0B1B41EC100B03F0DEF9002053EC47
:10168000102B0C4904F014FB07A3D3E9002304F04A
:10169000C3FC04F091FFBDEC028B00EE100A10BDFC
:1016A00000000020C05BC83F0000000040A5E540EE
:1016B0000000C8420000F03F2DE9F041054694B01B
:1016C0004822374902A801F041F895F8A90098B3DB
:1016D00095F8AB40002C5DD0324F00263B46324699
:1016E0003046394604F0E6FA631E13F0FF0406465E
:1016F0000F46F3D100222C4B04F08EFC2B4B002222
:1017000004F0D8FA04F038FF294B80B2A3FB00386C
:1017100095F8AA304FEA98189BB995F8AE3014AAFC
:1017200002EB830353F8483C434594BF6FF002003B
:10173000002014B0BDE8F081804695F8AA30002B57
:10174000EBD095F8AC4044B3164F00263B463246EA
:101750003046394604F0AEFA631E13F0FF04064625
:101760000F46F3D104F028FF9FED127ADFED127AD5
:101770000F4A06EE900AE6EE877AFCEEE77ACDEDA8
:10178000017ABDF80430A2FB03239B0998441FFA99
:1017900088F8C2E74FF00208CFE70223F6E700BF60
:1017A00004AC00000000F03F00409F400080784003
:1017B000D34D62100000FA4400809C432DE9F04FA5
:1017C00089B0002900F0DC80002A00F0D980002BCD
:1017D00000F0D68010F0030F8A461C46154683465B
:1017E00040F0AA801BF0010B00F0A280D4E91C8914
:1017F00042464B464046494604F00EFC02460B4624
:10180000CDE900014046494604F006FCCDE902015D
:10181000DAF8000004F08AFB02460B468B4682464B
:1018200004F0FAFBD4E90823CDE904014046494617
:1018300004F0F2FBD4E9062304F03CFAD4E90A23CD
:1018400006460F46DDE9000104F0E6FB02460B46C2
:101850003046394604F02EFAD4E90C2306460F46EA
:10186000DDE9020104F0D8FB02460B46304639465A
:1018700004F020FA5B46524604F0CEFBD4E9102374
:10188000CDE906014046494604F0C6FBD4E90E23E3
:1018900004F010FAD4E9122306460F46DDE90001F0
:1018A00004F0BAFB02460B463046394604F002FA11
:1018B000D4E9142306460F46DDE9020104F0ACFB2F
:1018C00002460B463046394604F0F4F902460B4610
:1018D000DDE9060104F0EEF9D4E9182306460F46C7
:1018E0004046494604F098FBD4E9162304F0E2F997
:1018F000DDE9042304F090FBDDE9042380468946FA
:101900005046594604F088FBD4E91A2304F084FBBE
:1019100002460B464046494604F0CCF902460B46C7
:101920003046394604F0C6F9C5E902014FF0000B14
:10193000584609B0BDE8F08F486804F0F7FAD4E9DA
:10194000002304F0B5F902460B4606460F4604F0A4
:1019500063FBD4E9042304F05FFBD4E9022380464F
:1019600089463046394604F057FB02460B4640464E
:10197000494604F09FF9C4E91C01C5E9000131E7BB
:101980004FF0FF3BD4E700BF2DE9F84393F803E0A5
:10199000D3F8049096440EF1070424F0070400AF36
:1019A000ADEB040DB9F1000F26D09C6824B3DC68C0
:1019B00014B31D469B78012B0C461646014620D0D9
:1019C0001FFA8EF341F080016A466878C84766B115
:1019D000611EE8460024EB7808EB04020134D35C76
:1019E00001F8013FA3B2B342F5D3002818BF6FF04E
:1019F0000600BD46BDE8F8834FF0FF30BD46BDE8A8
:101A0000F883334622466878C847EEE72DE9F84365
:101A10005400073424F0070400AFADEB040D002B95
:101A200049D05C68002C46D09C68002C43D0DD680F
:101A3000002D40D000283ED000293CD0002A3FD0C5
:101A40009D780E788DF80060EE461DB3012AA04601
:101A50002FD9A2F102095FFA89F909F1010981443C
:101A60000546744615F801CF11F8016F84F801C0DE
:101A70004D4504F8026FF5D151001C4672460B46E5
:101A800001786078C047002818BF6FF00600BD4697
:101A9000BDE8F883561E50FA86F6441E14F8015F1E
:101AA00005F07F05B4422570F8D1012AD3F80880EB
:101AB000CFD80121E1E74FF0FF30BD46BDE8F88304
:101AC0006FF00500E3E700BF70B5054682B01B2646
:101AD00003460DF107013046012295F8A8408DF824
:101AE0000660FFF751FF88B99DF80730240104F024
:101AF000300223F0300414432B460DF1070101227C
:101B00000DF106008DF80740FFF780FF02B070BDB1
:101B1000002900F081804B68002B7DD08B68002B62
:101B20007AD0CB68002B77D02DE9F04110F0060F6A
:101B300082B00D4604463AD110F0F00F40F0BC8060
:101B400010F4E16F73D110F4C05062D01A2701AEC7
:101B5000384631462B4601228DF8007095F8B38047
:101B600095F8B470FFF710FF002852D120050BD56F
:101B70009DF804304FEA480808F0020823F00203F9
:101B800043EA08038DF80430E10409D59DF80430D8
:101B9000BF0007F0040723F004033B438DF8043033
:101BA0002B46314601226846FFF730FF31E01B2704
:101BB00001AE384631462B4601228DF80070FFF702
:101BC000E3FE60BBA7070AD59DF8042095F8A9306D
:101BD00022F0010203F0010313438DF80430600783
:101BE0000BD595F8AA209DF80430520002F00202AD
:101BF00023F0020313438DF8043068462B4601227C
:101C00003146FFF703FF14F0F00F6F460AD00028AB
:101C100054D002B0BDE8F0814FF0FF30704714F0AF
:101C2000F00FF6D114F4E16F3FD00028F1D119265E
:101C3000304669462B4601226F468DF80460FFF757
:101C4000A3FE90BBE60595F8B01095F8B12095F885
:101C5000B2300AD59DF8006095F8AF0026F0010675
:101C600000F0010030438DF80000A00509D59DF873
:101C70000000490001F0020120F0020001438DF84C
:101C80000010610509D59DF80010920002F00402D1
:101C900021F004010A438DF80020260778D4394644
:101CA0002B46012201A8FFF7B1FE14F4C05FB0D0AB
:101CB00000283FF44BAFACE701AE6F464FF0000E8B
:101CC0002B46042231461C20ADF800E087F802E0E4
:101CD000FFF75AFE0028A5D114F030081FD0E20605
:101CE00095F8AC300AD59DF8041095F8AB2021F09A
:101CF000070102F007020A438DF80420A10609D566
:101D00009DF80420DB0003F0380322F0380213436F
:101D10008DF804301C238DF800304FF001082206A6
:101D200014D595F8AE30112B44D85AB29DF8053031
:101D300002A9414423F01F03134308F101081D20A9
:101D400001F8043C5FFA88F801F8080C630614D522
:101D500095F8AD209DF80730520002A9414402F0E9
:101D60000E0223F00E03134308F101081F2001F8AF
:101D7000043C5FFA88F801F8080C95F8A830032BAA
:101D800011D04246314638462B46FFF73FFE49E721
:101D90009DF800209B0103F0400322F04002134312
:101DA0008DF800307BE72846FFF786FC00287FF49B
:101DB00039AFE6E7112385F8AE301A46B6E700BF23
:101DC00010B582B07E22B6238DF804208DF8053040
:101DD000E0B14368D3B18368C3B1C368B3B103460C
:101DE000044601220DF106010320FFF7CDFD9DF809
:101DF0000630DB060ED568B9234601220DF1050138
:101E000001A8FFF703FE40B102B010BD4FF0FF3054
:101E100002B010BD6FF00300F6E7E36802209847B8
:101E2000234601220DF107010220FFF7ADFD9DF8C9
:101E300007309A07EED4002818BF6FF0030002B0F5
:101E400010BD00BF30B589B000238DF8073010B346
:101E5000426802B38268F2B1C268E2B18278012AB4
:101E60001ED00123C3700346044601220DF1070171
:101E70000020FFF789FD054650B99DF80730502B2B
:101E800040F0F88023702046FFF79AFF054648B1DE
:101E9000284609B030BD4FF0FF35284609B030BDA7
:101EA000C370E0E702A9234615223120029503956D
:101EB0000495059506958DF81C50FFF765FD9DF876
:101EC000083005469DF8090043EA0020A4F8880080
:101ED00004F02CF80022694B04F09EF89DF80B20CA
:101EE0009DF80A3043EA0223C4E90401A4F88A30C9
:101EF000184604F01BF80022614B04F08DF89DF9A0
:101F00000C3084F88C30C4E90601184604F01EF841
:101F100000225C4B04F080F89DF80E209DF80D30F7
:101F200043EA02231BB2C4E90801A4F88E30A3F5EA
:101F3000804004F00BF80022534B04F06DF89DF83C
:101F400010209DF80F3043EA02231BB2C4E90A01B6
:101F5000A4F89030A3F5804003F0F8FF00224B4B2B
:101F600004F05AF89DF9113084F89230C4E90C015C
:101F7000184603F0EBFF0022454B04F04DF89DF9A5
:101F8000123084F89330C4E90E01184603F0DEFFE6
:101F90000022404B04F040F89DF814209DF81330C7
:101FA00043EA0223C4E91001A4F89430184603F070
:101FB000BDFF0022384B04F02FF89DF816209DF845
:101FC000153043EA0223C4E912011846A4F89630FA
:101FD00003F0ACFF0022314B04F01EF89DF91730DE
:101FE00084F89830C4E91401184603F0AFFF0022CA
:101FF0002B4B04F011F89DF9183084F89930C4E99E
:102000001601184603F0A2FF00224FF07C5304F0A3
:1020100003F89DF81A209DF8193043EA02231BB2F9
:10202000C4E91801A4F89A30184603F08FFF002283
:10203000144B03F0F1FF9DF91B3084F89C30C4E988
:102040001A01184603F082FF00220E4B03F0E4FF52
:102050009DF91C3084F89D30C4E91C01184603F03A
:1020600075FF00220F4B03F0D7FFC4E91E0128467D
:1020700009B030BD6FF001050AE700BF00007040F5
:102080000000103E0000F03C0000B03E0000203E8A
:102090000000F03D0000A03D000020400000903F07
:1020A0000000703F0000E03B91B14B6883B18B684A
:1020B00073B1CB6863B110B504460B4601220146EB
:1020C0001B20FFF761FC2378C3F30113237010BDBD
:1020D0004FF0FF30704700BF70B5436882B0BBB1AE
:1020E0008368ABB1C3689BB1044601460DF10200A1
:1020F00094F8A860FFF7D8FF9DF80230054663B951
:102100001DB9032E2BD0012E24D0284602B070BD5D
:102110004FF0FF35284602B070BD1B25284601A9A7
:10212000234601228DF80350FFF72EFC054668B9BF
:102130009DF8045001A925F03005234601220DF138
:1021400003008DF80450FFF761FC0546E3680520A5
:102150009847D5E72046FFF7B7FC0546D5E701A924
:10216000234604221C20FFF70FFC9DF804309DF845
:1021700005109DF8072003F0070601F01F01C3F3C7
:10218000C203C2F34202054684F8AB6084F8AC3067
:1021900084F8AE1084F8AD200028B6D12046FFF7B1
:1021A0008BFA05460028B0D12046FFF78DFC054686
:1021B0000028AAD1234601A901220220FFF7E4FB4F
:1021C00005460028A1D19DF8043013F0040F18BF74
:1021D0006FF0040599E700BF2DE9F04184B00023BA
:1021E000ADF8043000930293039392B3536883B322
:1021F000936873B3D36863B359B314460D46064668
:102200001346694606220420FFF7BEFBF0B99DF88D
:1022100002209DF805309DF801E09DF804709DF8BE
:1022200000C09DF8038012041B0442EA0E2E43EA0C
:10223000072747EA080704F110032A464EEA0C0470
:1022400002A9304602940397FFF7B8FA04B0BDE83C
:10225000F0814FF0FF3004B0BDE8F081704700BF5F
:1022600038B528220C4605460846002104F06AFDD0
:102270000B220949204605F031F80022E272E86895
:1022800006492061002301250320E5606262606148
:102290002162A361E36138BD54AC00000AD7233C3E
:1022A00010B51421044600F065FB204610BD00BFA8
:1022B00030B4034D0560C1604271836030BC70472B
:1022C00064AC000070B504464079A3680125A840BD
:1022D00083F85E5083F85D5083F83B00A068036884
:1022E0001B6816469847A068036831461B689847E4
:1022F0002946A068FEF73EFD284670BDF8B50025CA
:102300002A460F46067C05743D210446FFF7DAFF96
:102310001E2000F0E5FB192000F0E2FB2A462046D3
:102320000721FFF7CFFFAFB93A463F212046FFF71D
:10233000C9FF0A2000F0D4FB3246267420463D2116
:10234000FFF7C0FF1E2000F0CBFB1420BDE8F840D3
:1023500000F0C6BB80223F212046FFF7B3FFE8E72D
:10236000002238B53D21057C02740446FFF7AAFF20
:102370001E2000F0B5FB192000F0B2FB204602221F
:102380003E21FFF79FFF2A46257420463D21FFF797
:1023900099FF1E2000F0A4FB1420BDE8384000F097
:1023A0009FBB00BF70B50025067C05742A463D2101
:1023B0000446FFF787FF1E2000F092FB192000F073
:1023C0008FFB2A4620463E21FFF77CFF32462674CB
:1023D00020463D21FFF776FF1E2000F081FB1420F0
:1023E000BDE8704000F07CBB38B5427983680125B8
:1023F000AA4083F83B2083F85E5083F85D50044682
:10240000806803681B6898472946A068FEF7B2FCFD
:102410002B462A466179A068FEF736FDA0680B4A74
:1024200003685B6993420BD190F8383090F83920FB
:102430009A4208D95A19034480F83820187E38BDCA
:102440009847C0B238BDFF2038BD00BF250A000044
:1024500038B5044680680D46FEF734FB204600215F
:10246000FFF7C2FFA0280BD04FF47A7000F038FBC2
:1024700000212046FFF7B8FFA02801D0002038BD7A
:10248000002222743D212046FFF71CFF1E2000F091
:1024900027FB20223F212046FFF714FF1E2000F0DB
:1024A0001FFB01E000F01CFB00212046FFF79CFF12
:1024B000A0284FF00A00F5D1322000F011FB0022D5
:1024C0003E212046FFF7FEFE0A2000F009FB002215
:1024D00007212046FFF7F6FE00223F212046FFF7A6
:1024E000F1FE0A2000F0FCFA2A463D212574204620
:1024F000FFF7E8FE1E2000F0F3FA142000F0F0FAD7
:10250000012038BD2DE9F041447905460127806856
:10251000BC4080F83B4080F85E7080F85D70A86831
:102520000468D4F800801E461446C0473946A8689F
:10253000FEF720FC3B4632466979A868FEF7A4FC0A
:102540000EB3013E54FA86F6114F013C10E090F8AC
:10255000383090F839209A4203F1010E00EB030164
:1025600014D980F838E0087E04F8010FB4420AD08C
:10257000A86803685B69BB42E9D09847C0B204F819
:10258000010FB442F4D10120BDE8F081FF20EBE758
:10259000250A0000F0B5044683B00025164608461B
:1025A000256031466560A560E560256165616A4624
:1025B00006230095ADF80450FFF7A4FF9DF80370C3
:1025C0009DF805509DF801009DF800109DF802202F
:1025D0009DF8043041EA002042EA072243EA05233D
:1025E000083E00B217B21DB2262E2FD8DFE806F043
:1025F000142E2E2E2E2E312E2E2E2E2E312E2E2E0F
:102600002E2E312E2E2E2E2E2E2E2E2E2E2E2E2EE7
:10261000142E2E2E2E2E140003F098FC00221B4B9D
:1026200003F024FEC4E90001384603F08FFC0022C9
:10263000164B03F01BFEC4E90201284603F086FC9A
:102640000022124B03F012FEC4E90401204603B03D
:10265000F0BD03F07BFC00220D4B03F0DDFCC4E970
:102660000001384603F072FC0022094B03F0D4FC51
:10267000C4E90201284603F069FC0022044B03F080
:10268000CBFCC4E90401204603B0F0BD0000594072
:102690000000B03F70B5242688B00C46054632468F
:1026A0000846002104F04EFB104BE9681B680193BB
:1026B000019B236103226160A26029461A2202A8BD
:1026C0002660FFF767FFDDE9020103F075FF606137
:1026D000DDE9040103F070FFA061DDE9060103F00C
:1026E0006BFFE061012008B070BD00BF4C14FF1FFC
:1026F00000B5064A036812885B6883B001A9ADF88B
:1027000004200222984703B05DF804FB78AC000077
:1027100010B5036814465B689847204610BD00BF9B
:102720000EB400B582B003AA52F8041B019204F063
:102730002FFE02B05DF804EB03B0704708B5FEF75A
:1027400033F9FEF7FFF801F05BFBFAE7844641EA54
:10275000000313F003036DD1403A41D351F8043B19
:1027600040F8043B51F8043B40F8043B51F8043B6B
:1027700040F8043B51F8043B40F8043B51F8043B5B
:1027800040F8043B51F8043B40F8043B51F8043B4B
:1027900040F8043B51F8043B40F8043B51F8043B3B
:1027A00040F8043B51F8043B40F8043B51F8043B2B
:1027B00040F8043B51F8043B40F8043B51F8043B1B
:1027C00040F8043B51F8043B40F8043B51F8043B0B
:1027D00040F8043B51F8043B40F8043B403ABDD27A
:1027E000303211D351F8043B40F8043B51F8043B1C
:1027F00040F8043B51F8043B40F8043B51F8043BDB
:1028000040F8043B103AEDD20C3205D351F8043BAA
:1028100040F8043B043AF9D2043208D0D2071CBF76
:1028200011F8013B00F8013B01D30B88038060469F
:10283000704700BF082A13D38B078DD010F0030315
:102840008AD0C3F10403D21ADB071CBF11F8013B85
:1028500000F8013B80D331F8023B20F8023B7BE7D4
:10286000043AD9D3013A11F8013B00F8013BF9D2FF
:102870000B7803704B7843708B7883706046704799
:1028800008B5104C08E0236859050DD423681A05D3
:102890000FD42368DB0411D423685803F3D500F068
:1028A00001FB23685905F1D501F092FC23681A0554
:1028B000EFD501F023FD2368DB04EDD501F0B4FD75
:1028C000EAE700BF3480044008B5FFF7D9FF00BF36
:1028D000014B10221A80704700200540704700BF4E
:1028E000094908B50B6830B16A461844A2F5005290
:1028F000904202D20860184608BD03F0B3FE0C23D4
:1029000003604FF0FF3008BD7C08FF1F084A1378B2
:10291000802B01D0002070470649074B074808600C
:10292000002119701378802BFCD00120704700BF64
:1029300003E007404480044001E0074000002822F3
:10294000094A1378012B01D00020704703F180431E
:1029500003F5FC23602119701378802BFCD1034B05
:10296000034A1A600120704703E007404480044096
:102970000000060203F0ACBEF0B44D1E2E4600244B
:1029800000E00134B0FBF2F302FB1300092800F170
:1029900030078ABF3730F8B2C0B206F8010F1846C8
:1029A000002BEED10A1953704CB1107815F8016F55
:1029B00028700133E01A834202F80169F5DB08460A
:1029C000F0BC704710B4114B53F8302092F880429D
:1029D00034B1012379B182F880305DF8044B70473F
:1029E00003EBC0035B681A6851B922F002021A6057
:1029F0005DF8044B704782F800315DF8044B704776
:102A000042F003021A605DF8044B70477CAC000092
:102A10001C4A02EBC00301295B6811D004291BD0BA
:102A200052F83000002280F8802229B1022920D0FB
:102A3000032922D01A6070474FF480721A607047E1
:102A400052F830004FF4A27280F880121A601A68AF
:102A500022F020021A60704752F830104FF4A27230
:102A6000012081F880021A601A6842F020021A6080
:102A7000704740F203121A6070474FF481721A6077
:102A8000704700BF7CAC000030B4054B054D064CD0
:102A9000002210211A602A602060196030BC704743
:102AA00014D0034004D0034000D003403F2801D895
:102AB000FFF788BF704700BF3F2806D8044B53F884
:102AC000303093F80002C0B270470020704700BF5A
:102AD0007CAC00003F2801D8FFF79ABF704700BFC9
:102AE0002DE9F843054672B6224F234B234A1B6853
:102AF0003C68126862B6520102D5322B88BF01349D
:102B0000B5B3C3F52F3303F21F331D4EDFF86890C2
:102B1000DFF868809B084FF47A72A6FB031302FB70
:102B200004F404EB930472B6D9F800103A68D8F8AC
:102B300000E062B6C1F52F3303F21F339B08A6FBFA
:102B400003031EF0806FC4EB93034FF47A7002D03E
:102B5000322988BF013200FB0233B3F57A7F04D3F8
:102B6000013D05D004F57A74DDE701F049F9DAE7B3
:102B7000BDE8F8834C14FF1F18E000E004ED00E00E
:102B8000176CC116F8B54E4B4E48DFF85CC14E4C81
:102B90004E49DFF858E14E4E4E4D4F4F4FF0006218
:102BA0001A604FF080521A604FF000521A604FF0D6
:102BB00080421A604FF000421A600022026028230F
:102BC0004EF6FF70CCF80000CEF8003023600EF512
:102BD000012E0B6033602B6006F500263B6005F587
:102BE0000025A36207F500278B6204F5012401F597
:102BF000012106F6E87605F6E87507F57F671031DE
:102C00000EF1100E203433602B60CEF800303B60A4
:102C10000B602360314CBB618B6109212160A7F5FA
:102C2000002704F58054203F08343A602060BB60E0
:102C3000E36047F8041C04F5FD2407F5FE2704377C
:102C400004F2FC7422603860A360FB6044F8041C4A
:102C5000083404F6FC74C7F8FC2F2060A4F5E124C6
:102C6000A4F2DC7433602B60C7F8F81F21681C489D
:102C700041F40071216001681A4C0EF57F4E0EF18F
:102C8000E80E07F5883706F5803605F5803541F002
:102C900000710160CEF8002047F6FF71082239600C
:102CA00033602B60226001F013FA1920FFF718FF40
:102CB00000F060FE40F21310BDE8F840FFF710BFCF
:102CC00004E100E004800340148003401C800340C2
:102CD000248003402C800340348003400080034064
:102CE0000480044000900C40088003400C800340A6
:102CF000431E032B14D872B60A4951F8230068B159
:102D000070B4094C058834F81320466841F82360F4
:102D1000521B24F8132062B670BC704762B670472D
:102D200000207047A814FF1FA018FF1F01380328B8
:102D30000BD872B6074B53F8203043B100205B68C4
:102D40000130002BFBD162B6704700207047184657
:102D5000F9E700BFFC14FF1F30B472B62B4A13789A
:102D60001D0706D52A4B196A002936D0996A002911
:102D700041D053781C0706D5254B196C00293ED04D
:102D8000996C002939D09378190705D5204B196E15
:102D9000002936D0996E89B1D3781B0707D51C4B13
:102DA000D3F880207AB3D3F8882011213AB162B6E3
:102DB000184B00221A7030BC00F092BE0D21154C49
:102DC000154D227843F8315003EBC1030830013A26
:102DD0005860227062B630BC704704220D4C0F4D13
:102DE000217843F8325003EBC20308304A1E586082
:102DF000227062B6EFE70521E1E70921DFE708224B
:102E0000ECE70C22EAE71022E8E700BFA4AE0000DE
:102E10000000FF1F2515FF1FC8004000880040006C
:102E2000431E032B1DD81B4A400140F0100030B454
:102E3000104472B6184CE25C032A1BD8DFE802F09B
:102E40000212151703220D88E25410F0080F14BF68
:102E5000C823882343EA054308310360416062B612
:102E600030BC704708300222EDE70522EBE708305E
:102E70000422E8E7094A52F8230038B1084A52F818
:102E80002300416042F8231062B6E9E742F82310BC
:102E9000034AF7E70000FF1F3415FF1FFC14FF1F54
:102EA0000C15FF1F2DE9F04FDFF80CB3DFF80CA372
:102EB00087B044E0AB4F4FEA930807EBC809013EE7
:102EC000D9F8042003F00803F6B2A2F1080003F0D9
:102ED000FF04002B40F0028157F838301B0C99B2E8
:102EE00022F8081C002B00F0F0809F4B22F8064CC3
:102EF00042F8044C53F82620002A00F0C5829B4D6E
:102F000055F8263058609A4C45F8260034F81630AB
:102F1000194424F8161000F0C3FD002800F0AD821B
:102F2000944A954B19F0080F00F1080018BF13469A
:102F3000C9F8040047F8383008238BF800309BF8B4
:102F40000040E4B261071AD58C4B1B78A3B18C49C1
:102F50000A7802F0FF0322B1013BDBB20B7003B928
:102F600000BE88490A7802F0FF032AB1013BDBB2B8
:102F70000B70002B00F0578204238BF8003004F014
:102F8000080303F0FF02002B00F0CC809AF8003019
:102F9000DBB21E098ED19C08DFF8C89159F83420A5
:102FA00009EBC401C2F38302013A49680C2A00F21A
:102FB0008880DFE802F07C7C868686868686478667
:102FC000868607000868704D4A68704F704E28600A
:102FD00081B240F28160674B6A604FF0010E0022BF
:102FE000814249F834303A60C9F81020C9F81820F5
:102FF00086F800E05B4C00F2E380B1F5D06F80F022
:103000004683B1F5817F00F0FC8200F28D82802939
:1030100000F07783822940F0FA82A98801F07F01CD
:10302000042900F2F4825B485B4C8900084422705A
:1030300062700278930740F1588484F800E04FF002
:10304000020E42E3514F3A6832B3544B504E54494A
:10305000188834780D784028864645F0020828BF45
:103060004FF0400E002C84F001043470CEEB0000D1
:103070000CBF8824C82409EBC80680B285F001057E
:1030800044EA0E447260188049F8384072440D706A
:10309000002800F045813A603B4B1A88B2F5A06FDA
:1030A0000FD100219A7859703E4B1A7009E0364AC8
:1030B000108842F22102904200F037812D4A49F8EF
:1030C0003420394A0123137036E72A4A2A4B19F073
:1030D000080F18BF134647F838302DE700F000FD01
:1030E000324A334952F82630002B00F0D18158681B
:1030F0008C5D42F8260003F10802C9F80420032C75
:1031000005D8DFE804F02C02292602228A551A8805
:1031100019F0080F0CBF8823C82343EA024347F87D
:10312000383009E7E00700F18181210600F1F281E2
:10313000A20706D51F4A204913780220DBB213707C
:103140000870E30602D51C4B10221A7007B0BDE8C8
:10315000F08F04228A55DAE705228A55D7E7032241
:103160008A55D4E70000FF1FA814FF1F5414FF1F47
:10317000A018FF1FC8004000880040003015FF1F46
:10318000B914FF1F3815FF1F1C15FF1F5014FF1F18
:10319000B814FF1FC02007402815FF1F6414FF1F2D
:1031A0002415FF1F9820074094200740FC14FF1FA0
:1031B0003415FF1F882007408020074090200740DB
:1031C00042F22100814200F02A8100F2D880B1F55C
:1031D000086F00F07682B1F5106F40F01882226A15
:1031E000B349A8780870120600F13A83D9F828206C
:1031F000B049130600F10C83D9F83020AD4915060B
:1032000000F10183D9F83820AA49140600F1F682AA
:10321000D9F84020A749100600F14A83D9F8482080
:10322000A449120600F13F83D9F85020A1491306A2
:1032300000F13483D9F858209E49150600F12983FE
:10324000D9F860209B49140600F11E83D9F8682044
:103250009849100600F11383D9F870209549120699
:1032600000F10883D9F878209249130600F1FD8215
:10327000D9F880208F49150600F13183D9F88820CC
:103280008C49140600F12583D9F89020894910064D
:1032900000F11983D9F898208649120600F10D83B0
:1032A0008548864A864901908648874D874C049711
:1032B00000230596029580460F4616461D46039448
:1032C000306828B1446800F00BFC2046002CF9D18E
:1032D00000233360029B38681A46002342F82530E9
:1032E00028B1446800F0FCFB2046002CF9D10022F4
:1032F0003A60019A98F800301146002241F8042BF8
:10330000039A0191023B4FF0000122F81510032BA4
:1033100000F22B81DFE813F0700125017001250117
:10332000BEF1400F18BF0022B5E6694A0D78487813
:10333000157050708D78C8789570D07010680D79C0
:10334000157186284D7989795571917100F09B81AD
:103350006049614E0A78307882F00105002842F019
:1033600002020D700CBF8821C82149F8321009EB08
:10337000C20280F001000021307051609EE642F2EE
:103380002120814240F0CB81544B554C5549A878BF
:103390001D682560CDF804E008700020029080468A
:1033A000844604464B490D7845F0020E09EBCE03E6
:1033B0000393019B002B039B5C600CBF8824C824F3
:1033C00044EA080385F0010449F83E3032700C707D
:1033D000DFF8E0E0404BDFF8FC80002840F01E8181
:1033E000BCF1400F1BD144F0020C09EBCC03029C52
:1033F000DFF8C0E05C60002A40F02681020442F061
:1034000088029DF804304EF83C20044433700D705F
:103410002346402803D10020334A3B601080334AC2
:10342000012313704DE600F0C7FCA5E5214B2F48A2
:1034300028491A614FF0020E80F800E02C4F0A7004
:103440002C49196099602C4E2C4D2D4C9A610D2100
:103450003970FF213170DFF8B8E029702270294DF2
:10346000294A8EF800109F27012406F8047C5D602D
:103470000470DA6007B0BDE8F08F244A47F83800DE
:1034800013780133137057E543F826000E4D3AE5E3
:103490008B5D032B00F2F08001A252F823F000BFF5
:1034A000392F0000392F00005D350000573500002E
:1034B0003015FF1F0000FF1F0C15FF1FA814FF1F72
:1034C000FC14FF1F3415FF1F5414FF1FA018FF1F0B
:1034D000A818FF1F2415FF1FB814FF1F4C14FF1F4F
:1034E000B018FF1F4815FF1F6414FF1F94200740EA
:1034F000C020074088004000882007408020074007
:10350000982007406814FF1FBC14FF1F2515FF1FDC
:103510008C200740C149C24B80220D2008701A70D0
:10352000A2077FF50EAE05E640F20232914240F06E
:10353000EE80A98801F07F01042968D86A88002AF2
:1035400065D1B648CDF804E089000844017841F01F
:103550000201017021E701238B55EDE400238B5517
:10356000EAE44FF0010388F800300135042D06F13C
:10357000040607F1040708F101087FF4A1AEA94C85
:10358000A94B2278A94D049F059E002129701A702D
:10359000130700F105816278A549DFF8A0820A705F
:1035A00010074FF00001C9F83010C9F8381000F1C9
:1035B000E080A049A2780A700021C9F85010C9F82B
:1035C00058101107DFF8748200F10181E2789A49FE
:1035D0009A4C0A7000211207C9F87010C9F87810C7
:1035E00000F1B08033780193002183F00102C9F823
:1035F0009010C9F89810D0E64FF0000388F800301A
:10360000B3E7A98801F07F01042940F28D80834A45
:103610000F2313708A4A0123137052E540287FF666
:10362000E2AE44F002040EEBC401029E4E60BAB159
:103630009DF80410834A19703346403888F80050CA
:1036400040334EF83420E7E69DF80430337002042E
:10365000029B0D7042F0C80203444EF83C20D8E6AD
:103660009DF804101970029B774A88F80050403882
:1036700040334EF83420CFE619F0080F0CBF022378
:1036800003238B5558E4714A0F21117060E6704A8C
:103690005468002CBBD06888B5F804E003E00C3215
:1036A0005468002CB3D013888342F8D153887345F3
:1036B000F5D1000A03280CBF94F800E0B2F808E046
:1036C00003E0644A644C12782270E888704580F008
:1036D0003F8162490D784028844645F0020E28BF9C
:1036E0004FF0400C04EB0C0309EBCE0202930123D4
:1036F0005460CCEB00004FEA0C4800220193C82430
:103700005EE6554C4FF0020E22706270DDE7B1F5B7
:10371000A06F7FF47CAF0123002201933DE642F2CB
:1037200021329142F7D072E76A88002A7FF46FAFA6
:103730003A48CDF804E089000844017821F00201FC
:1037400001702AE600F0ACF9002800F0EF800830A4
:103750003D4AC4F88400C4F8802000F0A1F9002894
:1037600000F0DE800830374AC9F88C00C9F888209C
:1037700038E700F095F9002800F0C0800830324AA0
:10378000C8F84400C8F8402000F08AF9002800F08A
:10379000AF8008302B4AC9F84C00C9F8482008E728
:1037A00000F07EF9002800F0CD800830264AC9F8E4
:1037B0002400C9F8202000F073F9002800F0BC8034
:1037C0000830204AC9F82C00C9F82820E3E600F0A8
:1037D00067F9002800F09E8008301B4AC8F8640092
:1037E000C8F8602000F05CF9002800F08D800830F7
:1037F000144AC9F86C00C9F86820E7E6C86B0838B5
:1038000000F06EF904E5486B083800F069F9F9E456
:10381000C86A083800F064F9EEE400BFC020074031
:1038200080200740A4AE0000C42007402515FF1FDC
:10383000C8200740CC200740D02007400000FF1FD1
:1038400094200740C800400088004000B914FF1FC2
:10385000A8AE00003015FF1F2815FF1F2415FF1FFD
:10386000606A083800F03CF9C0E4C86F083800F01E
:1038700037F9FDE4486F083800F032F9F2E4C86E19
:10388000083800F02DF9E7E4486E083800F028F910
:10389000DCE4C86D083800F023F9D1E4486D08383D
:1038A00000F01EF9C6E4C86C083800F019F9BBE452
:1038B000486C083800F014F9B0E4D1F89C000838DE
:1038C00000F00EF9ECE4D1F89400083800F008F9A3
:1038D000E0E4D1F88C00083800F002F9D4E4D1F823
:1038E0008400083800F0FCF8C8E44FF0020EECE663
:1038F0002A78C9F8480001322A705AE62A78C8F8AE
:10390000400001322A703FE72A78C9F86800013286
:103910002A705BE62A78C8F8600001322A7061E7F5
:103920002A78C9F8880001322A705BE62A78C4F840
:10393000800001322A7010E72A78C9F82800013285
:103940002A7028E62A78C9F8200001322A7032E766
:10395000BEF1400FF44628BF4FF0400C04EB0C03BF
:1039600002930123CCEB0E004FEA0C480022019396
:1039700018E500BF2DE9F04100F03CFF314C324B1F
:103980003248DFF8E480324EDFF8E0C0314F324D8C
:10399000DFF8DCE000221A605A609A60DA601A618F
:1039A0005A619A61DA611A625A629A62DA621A6339
:1039B0005A639A63DA631A645A649A64DA641A6519
:1039C0005A659A65DA651A665A669A66DA661A67F9
:1039D0005A679A67DA67C3F880202168C3F88420A1
:1039E00041F480212160016841F0407101600321B0
:1039F00088F80010A020C3F307218CF8000004F51C
:103A000028343170C3F30740144938701B0E2B70F3
:103A1000CC34FF238EF80030114D0CF8B83C11481F
:103A20000B70012306F8083C227070264FF4001436
:103A3000102207F82C3C2E70046081F8F820BDE8B5
:103A4000F08100BF348004400000FF1F00D8004018
:103A50009C200740B0200740B420074010200740BA
:103A600035E400E004E100E0442107404021074044
:103A70008020074000F0A4B800F07CB800F056B8F1
:103A800000F090B800F06CB900F046B90846114655
:103A900000F0B2B8084600F033B900BF704700BF6D
:103AA00072B60D480268B2FA82F30B2B10DC4FF0AD
:103AB0000041D94022EA0102026062B6074803EBE6
:103AC000C303DB00C2180021C1501046516070478B
:103AD00062B60020704700BF9008FF1FD003FF1F91
:103AE0000D4B0E4AC31AA2FB03231B090B2B0CD848
:103AF0000B4A127852B972B60A484FF00041026878
:103B000021FA03F31A43026062B67047064A12783C
:103B1000002AF0D0FFF720B9D003FF1F398EE33819
:103B20002515FF1F9008FF1F3015FF1F38B50F4DDB
:103B3000286878B143880288C118013393420C7A0F
:103B400002D24380204638BDFFF7CAFF002320463B
:103B50002B6038BD064B1B782BB10320FFF7C8F84C
:103B600028600028E6D14FF0FF3038BD4415FF1F14
:103B70003015FF1F10B5094C206818B14388184450
:103B8000007A10BD064B1B782BB10320FFF7B0F86D
:103B900020600028F2D14FF0FF3010BD4415FF1F08
:103BA0003015FF1F044B054A1B6890881BB11A880B
:103BB0005B88D31A184470474415FF1FA018FF1FD5
:103BC0000B4B1B789BB110B50A4C206848B1FFF72E
:103BD00087FF002303202360FFF78AF830B1FFF747
:103BE0007FFF0320FFF784F80028F8D110BD70474D
:103BF0003015FF1F4415FF1F2DE9F04FDFF8F89037
:103C000083B0012289F80020019169B3DFF8EC80CC
:103C1000354F019E8346D8F80000B0B3334D448839
:103C2000C4F14001B14228BF314604EB010E00222D
:103C30001FFA8EFE2A70761AA0F802E000F1080240
:103C400051B1013C224459441BF8014B02F8014F89
:103C50008B45F9D1B0F802E0BEF13F0F0BD8244AF2
:103C600005211170002ED6D10198002389F800306B
:103C700003B0BDE8F08F4022028001460420FFF728
:103C8000CFF80022C8F80020E9E73A7822B3194CAF
:103C9000164D4FF0010A07E0013C16D02A78A2B970
:103CA00000F0AEF83A78BAB10420FFF73FF80728E1
:103CB000F2D889F800A0FFF7F3FEC8F8000000284A
:103CC000ADD10D4B013C1870E8D101234FF0FF300E
:103CD0002B7003B0BDE8F08F00234FF0FF3089F860
:103CE000003003B0BDE8F08F3015FF1F4015FF1FF7
:103CF0003815FF1F214801003915FF1F3C15FF1F14
:103D000000B583B002AB012103F8010D1846FFF79F
:103D100073FF03B05DF804FB38B50E4D0E4C2868F8
:103D20000123237028B1408800232370C0F1400094
:103D300038BD0A4B1B7813B90020207038BD042011
:103D4000FEF7F4FF0728F7D8FFF7AAFE286000283F
:103D5000E9D1F1E73C15FF1F3915FF1F3015FF1F93
:103D6000F8B5114B1B788BB1104E114D34680127FB
:103D70002F7064B10F4A6388002717702146238093
:103D80000420FFF74DF8376000232B70F8BDFFF7D4
:103D900087FE084B28B1014604201C70FFF740F84D
:103DA000F2E71F70F0E700BF3015FF1F3C15FF1F43
:103DB0003915FF1F3815FF1F38B50E4B1B7873B927
:103DC0000D4C216861B103F0FF054B880B80042086
:103DD000FFF726F8256038BD084B01221A7038BD60
:103DE000FFF75EFE0028F7D00146BDE8384004200A
:103DF000FFF716B83915FF1F3C15FF1F3815FF1FB9
:103E000038B52C4C237803B138BD01232370FFF75C
:103E1000C9FE002842D100F0CBF900283BD100F0C8
:103E20005DFA002834D100F0EFFA70BB00F068FBB7
:103E300040BB00F0E1FB10BB00F05AFCE0B90023EE
:103E40002370EFF30583002BDED1EFF3108172B600
:103E5000194B186828B3194C227812BB45691D60AC
:103E6000012323700DB3AA6101B962B6002545771D
:103E7000836898472570C7E700F028F9DFE700F06E
:103E800023F9D9E700F01EF9D3E700F019F9CDE7DF
:103E900000F014F9C7E700F00FF9C0E7FFF7FEFDE7
:103EA000B9E70029B0D162B638BD054B1D600029C5
:103EB000DCD1DAE74915FF1F5C15FF1F6015FF1FF6
:103EC0005815FF1F10B4EFF3108272B6437F33B959
:103ED000017F012908D0032910D00123437702B9BB
:103EE00062B65DF8044B7047114C2168A1B11149CD
:103EF00043610B68836108605861EEE70E4C2168EE
:103F000081B10E4943610B688361086058610C4BB5
:103F10004FF080511960E0E7064B416181612060FC
:103F20001860DAE7054B4161816120601860EEE7B7
:103F30005C15FF1F5815FF1F4C15FF1F5015FF1F65
:103F400004ED00E010B4047F4160022CC26003D095
:103F50005DF8044BFFF7B6BF83685DF8044B184764
:103F600070B5EFF3108272B60C4C206880B10C4E25
:103F700000254369236073B19D6102B962B645773C
:103F800083689847EFF3108272B620680028F0D15A
:103F900002B962B670BD3360EFE700BF4C15FF1F7A
:103FA0005015FF1FFFF7DCBF184A30B41468002C0F
:103FB00027D0036821688B420ED2CB1A002184607F
:103FC000C1602360E06010600223037530BC70475D
:103FD00011688B42144608D3A2685B1A0360002A5A
:103FE000F6D18260C460A060EEE7D268C2608460EF
:103FF000E060C568CB1A0222A8602360027530BC5D
:1040000070478460C4601060DEE700BF5415FF1F76
:10401000F8B5224E34682CB32368002B3AD1204FD8
:104020001D4604E03468ECB12368002B32D1A3684C
:1040300003B1DD6020693360036825751B68BB42EE
:1040400021D1037F4560022BC46020D0FFF73AFFE7
:104050006368002BE6D023602046FFF7A5FF346895
:10406000002CE1D1EFF3108372B60E4A00211068E4
:10407000116003B962B628B18468FFF795FF204646
:104080000028F9D1F8BD224600219847E0E783686F
:104090009847DDE7013B2360E4E700BF5415FF1FAD
:1040A000453F00006415FF1F024A13680133136087
:1040B000FFF7AEBF4C14FF1F704700BF704700BF33
:1040C000704700BF704700BF704700BF704700BF18
:1040D00030B42948294A2A4B2A4D6024E121047032
:1040E00011701B78284C082B30D00A2B2748284900
:1040F00037D00C2B0CBF35225D2212232A6023609F
:1041000002600B60234B24491B78244ABBB1012376
:104110000B601360224B23491B78234A012B26D9BD
:10412000042B0FD9082B1ED9102B94BF862387236D
:104130000B6013601D4B01221A7030BC70470B607E
:104140001360E7E784230B601360F3E700F58E202C
:104150000F490830212213232A60236002600B607C
:10416000D0E73922F7E785230B601360E2E780236D
:104170000B601360DEE700BF0040074001400740CE
:104180009408FF1F08B003400CB0034008B00B4078
:104190000CB00B406915FF1F20B0034020B00B404E
:1041A0009508FF1F24B0034024B00B406815FF1F83
:1041B000054A064B10781B78C0B2DBB2984238BF74
:1041C0004030C01A704700BF7015FF1F7115FF1FE8
:1041D000F0B4384B1A7912F0300F2CD072B6997DAA
:1041E00001F0FF0200293DD062B6334F33493878E1
:1041F0000D78334E1C46C0B2EDB2431C402BE17922
:1042000028BF0023AB4202F1FF32C9B21CBFF154F8
:10421000184612F0FF02F0D12A4B1B68C2B23A7066
:104220004BB1A84236BFC5F14005401B40192728B5
:10423000C4BF01221A701F49CA78D2B2150616D41B
:1042400052060DD51B4B1B795B0609D51E4B1F492A
:104250001B6800220A7003B11A70164B3C22DA70F8
:10426000F0BC70474022D9795A7462B6E3E70B7903
:104270001C06E5D5164B174E1C783378E4B2DBB23A
:104280009C420ED0144D01E0A3420AD00133402BD2
:1042900028BF00230879E85CC0B2C871087D0728F0
:1042A000F2D9DBB2034933700B79180644BF7C2383
:1042B000CB70C5E700A006407015FF1F7115FF1FEA
:1042C000B415FF1F6C15FF1FF815FF1FF415FF1F16
:1042D000FC15FF1FF515FF1F7415FF1F054A064B40
:1042E00010781B78C0B2DBB2984238BF4030C01A99
:1042F000704700BF7016FF1F0516FF1FF0B4384B44
:104300001A7912F0300F2CD072B6997D01F0FF02AD
:1043100000293DD062B6334F334938780D78334E9B
:104320001C46C0B2EDB2431C402BE17928BF0023EC
:10433000AB4202F1FF32C9B21CBFF154184612F071
:10434000FF02F0D12A4B1B68C2B23A704BB1A842AF
:1043500036BFC5F14005401B40192728C4BF0122C4
:104360001A701F49CA78D2B2150616D452060DD556
:104370001B4B1B795B0609D51E4B1F491B6800228E
:104380000A7003B11A70164B3C22DA70F0BC704709
:104390004022D9795A7462B6E3E70B791C06E5D559
:1043A000164B174E1C783378E4B2DBB29C420ED029
:1043B000144D01E0A3420AD00133282B28BF00236B
:1043C0000879E85CC0B2C871087D0728F2D9DBB271
:1043D000034933700B79180644BF7C23CB70C5E7C3
:1043E00000B006407016FF1F0516FF1F3016FF1F96
:1043F0000016FF1F7416FF1F0416FF1F7816FF1FFD
:104400007116FF1F0816FF1F054A064B10781B7810
:10441000C0B2DBB2984238BF4030C01A704700BF0C
:104420008016FF1F8116FF1F30B42B4B1A7994069C
:104430001FD52A48DA790378294901333F2B0978B7
:10444000C8BF00238B42D2B203D0264CD9B2E2546B
:104450000170254A116861B1244A1278D2B29342A0
:1044600036BFC2F140029B1A9B18272BC4BF012301
:104470000B70194AD378DBB2180611D45A060DD541
:10448000154B1B795B0609D5194B1A491B6800228D
:104490000A7003B11A70104B2C22DA7030BC7047CE
:1044A00011790906EAD5144910480C780178C9B287
:1044B0008C420DD04A1C272A84BF00210A460F4D8A
:1044C000054C98BFD1B2AA5CD2B2E2710170D5E7B7
:1044D0006C21D170D2E700BF00C006408016FF1FDC
:1044E0008116FF1FAC16FF1F7C16FF1FED16FF1F66
:1044F000F016FF1FEC16FF1FF416FF1F8416FF1F98
:10450000054A064B10781B78C0B2DBB2984238BF20
:104510004030C01A704700BFFC16FF1FFD16FF1F7A
:1045200030B42B4B1A7994061FD52A48DA790378D0
:10453000294901333F2B0978C8BF00238B42D2B2EF
:1045400003D0264CD9B2E2540170254A116861B1FA
:10455000244A1278D2B2934236BFC2F140029B1A6B
:104560009B18272BC4BF01230B70194AD378DBB2E9
:10457000180611D45A060DD5154B1B795B0609D5C3
:10458000194B1A491B6800220A7003B11A70104BAC
:104590002C22DA7030BC704711790906EAD514492B
:1045A00010480C780178C9B28C420DD04A1C272AD9
:1045B00084BF00210A460F4D054C98BFD1B2AA5CBA
:1045C000D2B2E2710170D5E76C21D170D2E700BFA1
:1045D00000D00640FC16FF1FFD16FF1F2817FF1F07
:1045E000F816FF1F6917FF1F6C17FF1F6817FF1FC3
:1045F0007017FF1F0017FF1F054A064B10781B7826
:10460000C0B2DBB2984238BF4030C01A704700BF1A
:104610007817FF1F7917FF1F30B42B4B1A799406B8
:104620001FD52A48DA790378294901333F2B0978C5
:10463000C8BF00238B42D2B203D0264CD9B2E25479
:104640000170254A116861B1244A1278D2B29342AE
:1046500036BFC2F140029B1A9B18272BC4BF01230F
:104660000B70194AD378DBB2180611D45A060DD54F
:10467000154B1B795B0609D5194B1A491B6800229B
:104680000A7003B11A70104B2C22DA7030BC7047DC
:1046900011790906EAD5144910480C780178C9B295
:1046A0008C420DD04A1C272A84BF00210A460F4D98
:1046B000054C98BFD1B2AA5CD2B2E2710170D5E7C5
:1046C0006C21D170D2E700BF00A00E407817FF1F09
:1046D0007917FF1FA417FF1F7417FF1FE517FF1F90
:1046E000E817FF1FE417FF1FEC17FF1F7C17FF1FC2
:1046F000054A064B10781B78C0B2DBB2984238BF2F
:104700004030C01A704700BFF417FF1FF517FF1F96
:1047100030B42C4B5A6894021FD52B48DA680378C2
:104720002A4901333F2B0978C8BF00238B4204D0AC
:10473000274CD2B2D9B2E2540170264A116861B155
:10474000254A1278D2B2934236BFC2F140029B1A78
:104750009B18272BC4BF01230B701A4A93681802B9
:1047600002D55268110211D45A020DD5154B5B685F
:104770005B0209D5194B1A491B6800220A7003B164
:104780001A70184B00221A6030BC7047164A124942
:1047900010780A78D2B290420DD00132272A84BF15
:1047A00000200246114D074C98BFD0B2AA5CD2B28D
:1047B000E2600870D8E70E480A4A0024012104602C
:1047C0001160D1E700400C40F417FF1FF517FF1FE1
:1047D0002018FF1FF017FF1F6118FF1F6418FF1F2D
:1047E0006018FF1F580188436818FF1FF817FF1F44
:1047F0005C01884310B584B072B6FEF787F8184A9A
:10480000184B19491160702280211A701A461970CC
:1048100013781B06FCD5154B1C68FEF791F862B6A1
:10482000134B9C429CBF04EB840464002046114C53
:1048300001A90A22FEF7A0F801A92046002311F8D9
:10484000012B01333AB10A2B20F8022FF7D116239E
:10485000237004B010BD5B00DBB2237004B010BD48
:104860000400024000000240000007410C0002402A
:104870007F9698002409FF1F0B460146184601F059
:10488000EBBE00BFF0B4464B464A986B5C6B0179B7
:104890001170454922790A701A6B00790870002A54
:1048A00046D05968C9688A423ED82168CC8B240416
:1048B00002F1FF3065D4C0F30E00C883C88B80B20C
:1048C000C882996B0968C88B000452D4C2F30E00E9
:1048D000C883C88B002480B212F1FF32C88218BF8F
:1048E00001221C63596B2E4809680D6800F12C04E5
:1048F000A54236D00068C46814F0804F0C680D687B
:1049000015BF248824780235013544F000440D6039
:104910004463996B254B09791970214912B14A6B8F
:1049200012791A70F0BC7047521A1A630122D9E743
:10493000D86B196805681E4C0A63CC62CC682D6878
:104940001C4E24F080440327B542CC6083F82D70C0
:104950001FD1037F4260022BC2601ED0F0BCFFF764
:10496000B1BA016890F82C00CC6840F00040486370
:10497000CFE7CC8BC2F3080004F47E442043C88305
:10498000A7E7CC8BC0F3080004F47E442043C8831F
:1049900094E72B461146F0BC18478368F0BC1847D3
:1049A0003C09FF1F1F8000401C8000401B8000400E
:1049B00000000FFF453F000090E80C00F0B41C68B9
:1049C00059682568164F174E29432160164D17491F
:1049D0001760D66015611160417A154A5C180C3178
:1049E00094F82C4053F8215002EBC40149680D6043
:1049F000017A5C1803EB8101247ECD6902EBC401CE
:104A000049680D60817A581803EB810390F84000E3
:104A1000596C02EBC002F0BC53681960704700BFCC
:104A200001401F00011000380110007800001F80B5
:104A30007CAC0000FFFFFFFF2DE9F04F2DED028B56
:104A4000DFF824A38BB057EC106B55EC114B00F042
:104A50008FF99AF90080B0EE408AF0EE608AB8F1E2
:104A6000FF3F48D022462B462046294601F06EFDE6
:104A7000834600283FD132463B463046394601F056
:104A800065FD8146002840F090803046394600227E
:104A9000002301F029FD002836D000220023204603
:104AA000294601F021FD8346B8B19FEDA57B012287
:104AB000A94BCDF820900092CDE90267CDE90445DD
:104AC0008DED067B0193B8F1000F5BD09FED9E0B3F
:104AD0000BB0BDEC028BBDE8F08F45EC104B00F045
:104AE000A7FF40B1002200232046294601F006FD21
:104AF000002840F0C580B0EE480AF0EE680A0BB01E
:104B0000BDEC028BBDE8F08FB0EE480AF0EE680A0B
:104B100000F08EFF8046002861D04FF000084FF073
:104B2000000951EC180B42464B4601F0DDFC002811
:104B3000E1D047EC106B00F07BFF0028DBD045ECA8
:104B4000104B00F075FF0028D5D09AF90030824A4A
:104B5000019204210022022BCDE90267CDE9044530
:104B6000CDE906890091089203D0684600F068FFFD
:104B700070B901F077FD2223036009E09FED707B9F
:104B80008DED067B684600F05BFF002800F08E800C
:104B9000089B1BB101F066FD089B03609DED060BB1
:104BA0000BB0BDEC028BBDE8F08F00220023204645
:104BB000294601F099FC00289DD09FED630B664BC0
:104BC000CDF820B00122B8F1020FCDE90267CDE99E
:104BD00004458DED060B8DE80C00D3D18FE747EC33
:104BE000106B00F025FF002897D045EC104B00F02B
:104BF0001FFF002891D053EC182B18EE100A19460D
:104C000001F0A4FC00287CD103239AF900800093D2
:104C1000514B0890CDE90267CDE904450193B8F105
:104C2000000F48D1DFF844914FF060480022002384
:104C300030463946CDE9068901F060FC002894D061
:104C40000022464B2046294601F0E6F904460D466F
:104C500045EC104B00F000FF204653EC102B29468A
:104C600001F042FC002849D13D4B9AF900804FF0F9
:104C70006042CDE90623B8F1020F7FF476AF78E702
:104C8000354A9AF90030CDF820B00121CDE902670C
:104C9000CDE904458DE80600002B3FF46FAF3149A4
:104CA0000020022BCDE906017FF46CAF01F0DAFCA5
:104CB000212303606CE79FED267B00220023304612
:104CC00039468DED067B01F019FC0028D3D0002277
:104CD000224B2046294601F09FF904460D4645EC3B
:104CE000104B00F0B9FE204653EC102B294601F082
:104CF000FBFB18B91B4B0022CDE906239AF9008073
:104D0000B9E7154B9AF90090CDF820800122CDE942
:104D10000267CDE904458DE80C00B9F1000F3FF4BE
:104D20002DAF002200231046194601F09FFAB9F179
:104D3000020FCDE90601B9D024E700BFAFF3008030
:104D40000000000000000000000000000000F03F34
:104D5000000000000000F07F90AF00000000E03F86
:104D6000FFFFEFC70000F0FF7C09FF1FFFFFEF47C9
:104D70002DE9F04F51EC110B21F0004858EA0004E6
:104D800093B03CD053EC102B6D4E23F00044B44252
:104D900010EE10AA1D462BDC894611EE10EA26D033
:104DA000B04525DC664EB04577D0002D16461F462F
:104DB000CDE9000175DB4FF0000BBEF1000F2DD1E6
:104DC0005F4B984500F089805E4B98455ED0B9F105
:104DD000804F00F0DE835C4B99451FD1002D1DDB19
:104DE00047EC106B13B0BDE8F04F00F049BD5AB16D
:104DF00004F1404404F5801454EA0A0306D19FEDFF
:104E00004A0B13B0BDE8F08FA045CBDD4F4813B07F
:104E1000BDE8F04F00F018BE4FF0000B47EC106BF0
:104E200000F0FEFD51EC100BBAF1000F1ED0ED0F9B
:104E300005F1FF3A5BEA0A0363D0454B984540F31E
:104E40008D8003F10473984540F33884414B9C42B4
:104E500062DDB9F1000F62DD35A3D3E9002310460E
:104E6000194601F0D9F841EC100BCAE724B1354BD3
:104E700025F040429A42DAD1B9F1000FC0F2CB835B
:104E8000002DC0F2748341EC100BBAE7B9F1000FAA
:104E9000C0F27A8447EC106BB3E7BEF1000F84D008
:104EA000A6E72D4B984529DCA3F15473984582DD84
:104EB0004FEA2853A3F2FF33142B40F37F84C3F14E
:104EC00034032EFA03F202FA03F39E457FF473AF24
:104ED00002F00102C2F1020B6FE704F1404303F557
:104EE000801353EA0A038AD01A4B9C4240F385830D
:104EF000B9F1000F13DB9DED000B82E74FF0020BC1
:104F00005BE732463B461046194600F0D1FE0246AA
:104F10000B4601F0ABF9B6E7B9F1000F9CDB9FED52
:104F2000060B6EE7AFF30080000000000000F03FCA
:104F30009C7500883CE4377E000000000000000003
:104F40000000F07F0000F03F0000E03F38AB0000C1
:104F50000000E041FFFFEF3FFFFF3F43B4F5801F3C
:104F60004FF0000205DAD64B01F056F86FF034022C
:104F70000C462315D34EC4F31304A3F2FF3313449A
:104F800044F07F55B4421A460D9345F4401540F362
:104F90004983CD4B9C4240F32D849FEDB37B8DED37
:104FA000087B8DED0E7B9FEDB27B13468DED067B6E
:104FB00001330D93A5F580154FF00008DDE90623B8
:104FC0002946CDE90A0100F073FEDDE90623064615
:104FD0000F46DDE90A0100F06DFE02460B46002097
:104FE000BA4901F043F903460C46CDE910340246B4
:104FF0000B463046394601F00FF86B1043F0005372
:1050000003F5002303EB08050A4600230146CDE91A
:1050100002120293DDE902890024CDE904122B4635
:1050200022464046494600F0F7FF02460B4630460E
:10503000394600F03DFEDDE9062306460F462046D0
:10504000294600F035FE02460B46DDE90A0100F074
:105050002FFE42464B4600F0DFFF02460B4630462D
:10506000394600F025FEDDE9102300F0D5FFDDE92B
:105070000445CDE9060122462B462046294600F08C
:10508000CBFF7DA3D3E9002304460D4600F0C4FF07
:105090007BA3D3E9002300F00DFE22462B4600F04F
:1050A000BBFF79A3D3E9002300F004FE22462B4680
:1050B00000F0B2FF76A3D3E9002300F0FBFD224607
:1050C0002B4600F0A9FF74A3D3E9002300F0F2FD02
:1050D00022462B4600F0A0FF71A3D3E9002300F085
:1050E000E9FD224606460F462B462046294600F09B
:1050F00093FF02460B463046394600F08DFF42468C
:1051000004460D464B46DDE9040100F0D3FDDDE920
:10511000062300F081FF22462B4600F0CBFD4246DD
:1051200006460F464B464046494600F075FF0022B2
:10513000674BCDE90A0100F0BDFD32463B4600F069
:10514000B9FD02980D46044622462B464046494684
:1051500000F062FF0022804689465D4B20462946CA
:1051600000F0A6FDDDE90A2300F0A2FD02460B4691
:105170003046394600F09CFDDDE9042300F04CFF89
:10518000224606460F462B46DDE9060100F044FFA5
:1051900002460B463046394600F08CFD06460F4667
:1051A00002460B4640464946CDE9048900F082FD9F
:1051B00002983DA3D3E9002304460D4600F02CFFDE
:1051C000DDE90423804689462046294600F070FD2B
:1051D00002460B463046394600F06AFD34A3D3E957
:1051E000002300F019FF34A3D3E9002306460F463D
:1051F0002046294600F010FF02460B46304639464D
:1052000000F058FDDDE90E2300F054FD06460D9830
:105210000F4600F09BFE324604460D463B46404694
:10522000494600F047FDDDE9082300F043FD224632
:105230002B4600F03FFD029822462B46CDE90201A5
:1052400000F036FDDDE9082300F032FD42464B4612
:1052500000F02EFD02460B463046394600F028FD90
:105260008046894636E000BF0000000000000000D4
:10527000000000000000F03FEF4E454A287ECA3F84
:1052800065DBC9934A86CD3F01411DA96074D13FBA
:105290004D268F515555D53FFFAB6FDBB66DDB3FCC
:1052A000033333333333E33F000000E009C7EE3FFD
:1052B000FD033ADC09C7EE3FF5015B14E02F3EBE6B
:1052C000000040438E98030079B60B000000F03FC9
:1052D000000008400BF1FF3353EA0A0300F0888115
:1052E0009FEDD77B8DED067BDDE900AB53465C4639
:1052F000CDE9003400230093DDE900455046224605
:105300002B46594600F0D4FCDDE9022300F084FE70
:10531000524606460F465B464046494600F07CFE34
:1053200002460B463046394600F0C4FC2246804611
:1053300089462B46DDE90201CDE9048900F06CFEC7
:105340000B46024606460F464046494600F0B2FC70
:10535000D54B994204460D468A4640F3238101F11C
:105360003F4303F5E003034340F01882B6A3D3E9BB
:105370000023DDE9040100F09DFC324680468946A9
:105380003B462046294600F093FC02460B46404629
:10539000494601F0D1F8002840F00082A8464FEAC3
:1053A00028534FF48012A3F2FE3342FA03F353441E
:1053B000C3F30A52BD4DA2F2FF321541C3F3130BE2
:1053C0000020C2F1140423EA05014BF4801BBAF15A
:1053D000000F02460B464BFA04FB30463946B8BF75
:1053E000CBF1000B00F064FC02460B4606460F466C
:1053F000DDE9040100F05EFC4FEA0B5A002494A39F
:10540000D3E9002320460D4600F006FE32468046D2
:1054100089463B462046294600F04AFC02460B4698
:10542000DDE9040100F044FC8BA3D3E9002300F084
:10543000F3FD8BA3D3E9002306460F4620462946F9
:1054400000F0EAFD02460B463046394600F032FCD9
:1054500006460F4602460B464046494600F02AFCE7
:1054600042464B4604460D4600F022FC02460B46DF
:105470003046394600F01CFC2246804689462B46C1
:105480002046294600F0C8FD77A3D3E9002306464D
:105490000F4600F0C1FD76A3D3E9002300F008FC1D
:1054A00032463B4600F0B8FD73A3D3E9002300F079
:1054B00001FC32463B4600F0AFFD71A3D3E9002367
:1054C00000F0F6FB32463B4600F0A6FD6EA3D3E9A2
:1054D000002300F0EFFB32463B4600F09DFD024604
:1054E0000B462046294600F0E3FB06460F460246DF
:1054F0000B462046294600F08FFD0022CDE9000131
:105500004FF080433046394600F0D2FB02460B464E
:10551000DDE9000100F0AAFE424606460F464B4672
:105520002046294600F078FD42464B4600F0C2FB7B
:1055300002460B463046394600F0BAFB22462B465F
:1055400000F0B6FB02460B460020594900F0B0FBC4
:105550008A44BAF5801F02460B46C0F25B81514671
:10556000DDE9062300F058FD41EC100B49E404F19D
:10557000404404F5801454EA0B0300F03781BBF17A
:10558000010F7FF480AC024601F1004343EC102B85
:1055900037E432463B463046394600F03DFD41ECAB
:1055A000100B2EE4434B21F00048984540F3158141
:1055B000414B0B4403430CD132463B4600F078FB91
:1055C00002460B46DDE9040100F0A2FF00283FF48B
:1055D000E6AE2FA3D3E90023DDE9060100F01CFDB0
:1055E0002BA3D3E9002300F017FD41EC100B08E4D6
:1055F0009FED297B8DED067B76E6B9F1000FBFF6B6
:105600008EACDDE9003400EE103A04F1004300EE08
:10561000903AFFF7F6BB02460B460020244900F003
:1056200025FE2DE49FED1E7B8DED087B8DED0E7B21
:105630009FED037B4FF000088DED067BBEE400BFBD
:10564000000000000000F03FFE822B654715973CEC
:1056500000000000432EE63FEF39FAFE422EE63FFF
:10566000396CA80C615C20BED0A4BE726937663E5E
:10567000F16BD2C541BDBB3E2CDE25AF6A56113F52
:1056800093BDBE166CC1663F3E5555555555C53F39
:1056900059F3F8C21F6EA501000000000000F0BF22
:1056A0000000000000000000FFFF8F40FFFF0F0020
:1056B0000000F03FFFCB904000346F3F6C4B9C42AA
:1056C0007FF72AAC6B4B9C423FF7C3AB0022694B80
:1056D00000F0EEFA56A3D3E9002304460D4600F08D
:1056E0009BFC55A3D3E900238046894620462946E2
:1056F00000F092FC0022CDE902015F4B20462946D2
:1057000000F08AFC02460B464DA1D1E9000100F0F1
:10571000CFFA22462B4600F07FFC02460B460020C3
:10572000564900F0C5FA22462B4606460F4620464B
:10573000294600F071FC02460B463046394600F01F
:105740006BFC41A3D3E9002300F066FC02460B4644
:10575000DDE9020100F0ACFA02460B4604460D46B4
:105760004046494600F0A6FA42464B460020CDE9A5
:10577000020100F09DFA02460B462046294600F041
:1057800097FA80468946A5E532463B4600203949CE
:1057900000F06CFD41EC100BFFF733BB2CA3D3E9F9
:1057A0000023DDE9060100F037FC29A3D3E900233B
:1057B00000F032FC41EC100BFFF723BBBEF1000FF1
:1057C0007FF42AABC3F1140348FA03F202FA03F39D
:1057D000984527D0F346FFF7F7BA284B98453FF78F
:1057E000DEADDDE900349A469B4607E602460B46ED
:1057F000FFF789BB9FED187B8DED087B9FED187B34
:105800008DED0E7B9FED187B4FF480288DED067B90
:10581000FFF7D4BB584643EC102B00F0B1F951EC24
:10582000100B9DE602F00102C2F1020BFFF7CCBAA9
:10583000000000604715F73F44DF5DF80BAE543EB3
:10584000555555555555D53FFE822B654715F73FA4
:105850009C7500883CE4377E0000004003B8E23FBE
:1058600006D0CF43EBFD4C3E000000000000F83FA7
:10587000FEFFEF3F0000F03F0000D03F0000E03FA0
:105880002DE9F041654955EC104B0E462940B142D7
:1058900000F09780002D2B4610EE102A74DD2F1596
:1058A0007FD0A7F2FF37C3F31303F90743F4801344
:1058B00065D403EBD27100260B447F105200B6462C
:1058C00016204FF400110EEB01049C424FEAD275F2
:1058D0004FEA420203DC1B1B04EB010E0E440138AD
:1058E00005EB43034FEA5101EDD1844620244FF0EC
:1058F000004109E020D003EBD275013C4FEA510191
:105900002B444FEA420220D09E4501EB0C05F1DA10
:10591000002D05EB010C09DBF0469542CEEB0303AD
:1059200000D9013B521B0844C646E4E7BCF1000F16
:10593000F2DB0EF10108F0E795421ED8002D05EBD1
:10594000010C50DB98460023ECE7134304D0421CC3
:105950004DD000F00103184440087110F30701F125
:105960007F5101F5001148BF40F0004001EB0753A3
:10597000024643EC102BBDE8F0817346BBE75B00A9
:1059800003EBD273520094E725F00041214328D065
:10599000ADBB2F46D30A153F5205002BFAD0DD02CE
:1059A00028D4002100E001465B00DC0201F1010087
:1059B000F9D5C0F1200422FA04F423437F1A82406F
:1059C0006FE710EE102A2B4610EE100A294600F061
:1059D00023FB22462B4600F06DF941EC100BBDE88D
:1059E000F081BDE8F081BCF1000FA2DAAAE7013630
:1059F0002046B2E720244FF0FF310020DBE710EE15
:105A0000102A2B462046294600F052F902460B4642
:105A100000F02CFC41EC100BBDE8F0810000F07FA1
:105A200053EC102B23F0004343EC102B704700BFC6
:105A300010EE903A43F0004000F58010C00F704720
:105A400000207047FFFFFFFF9FED010B704700BF75
:105A5000000000000000F87FF0B553EC102BC3F3FA
:105A60000A56A6F2FF30132883B019464FEAD374C2
:105A700010EE105A2FDC002849DB3F4E064103EAA6
:105A8000060717432CD0760833401D430CD04FF443
:105A90008023132821EA060643FA00F141EA0601B1
:105AA0000CBF4FF000450025344800EBC4042A46E3
:105AB000D4E9004510462B46224600F0FBF8CDE91C
:105AC000000122462B46DDE9000100F0F1F841EC2F
:105AD000100B03B0F0BD332806DDB0F5806F42D067
